:020000040800F2
:1000000090060020190E0008450300084703000869
:100010004B0300084F0300085303000800000000D2
:10002000000000000000000000000000570300086E
:1000300059030008000000005B0300085D0300088E
:10004000330E0008330E0008330E0008330E00088C
:10005000330E0008330E0008330E0008330E00087C
:1000600029180008330E0008330E0008330E00086C
:10007000330E0008330E0008330E0008330E00085C
:10008000330E0008330E0008330E0008330E00084C
:10009000330E0008330E0008330E0008330E00083C
:1000A000330E0008330E0008330E0008330E00082C
:1000B000330E0008330E0008330E0008330E00081C
:1000C000330E0008330E0008330E0008330E00080C
:1000D000330E0008330E0008330E0008330E0008FC
:1000E000330E0008330E0008330E0008330E0008EC
:1000F000330E0008330E0008330E0008330E0008DC
:10010000330E0008330E0008330E0008330E0008CB
:10011000330E0008330E0008330E0008330E0008BB
:10012000330E0008330E0008330E0008330E0008AB
:1001300000F002F800F03CF80AA090E8000C8244BD
:100140008344AAF10107DA4501D100F031F8AFF29A
:10015000090EBAE80F0013F0010F18BFFB1A43F0A5
:1001600001031847EC2800000C290000103A24BFB6
:1001700078C878C1FAD8520724BF30C830C144BF0C
:1001800004680C607047000000230024002500264E
:10019000103A28BF78C1FBD8520728BF30C148BFEA
:1001A0000B6070471FB502F098F81FBD10B510BD69
:1001B00002F059F81146FFF7F5FF00F045F802F09C
:1001C00077F803B4FFF7F2FF03BC02F07FF80000FA
:1001D00070B54F480078022835D104204D49086099
:1001E00008200860091F0860091D08600420091F15
:1001F000086008200860800147490861002519E06F
:1002000008204449086044488068C4B20820091F97
:1002100008602402091D08603F488068C0B204439A
:100220000820091F08603D48046000153A494861EC
:1002300008616D1CB5F5963FE2D3042000F0E3FDA4
:1002400000203349087070BD1CB500240225022629
:100250000227A04600F000FE4FF4A06000F064F911
:1002600001F098FA00F08AFF002000F0BAFE4FF685
:10027000FF7001F0C5FD17E04FF6FF701F2328A2A5
:1002800096210090142001F02AFFC82000F01BFEE8
:100290004FF6FF701F2326A296210090142001F034
:1002A0001EFFC82000F00FFE01F0EBFA0028E3D19A
:1002B0004FF4784001F0A4FD204601F030FB2846C1
:1002C00001F05BFB304601F095FB384601F0ABFBDB
:1002D000404601F0C1FB01F085FA4FF4A073F02213
:1002E000AE210A2001F0EDFB0020154908604FF017
:1002F000050001F091F90020009040F23F13EF2239
:100300000146019000F0DBFE01E0FFF761FFFCE732
:100310002E00002014080140001001400C0C014088
:100320004F5637363730204572726F7221210000E8
:1003300020202020202020202020202020200000FD
:1003400084012142704700BFFEE700BFFEE700BF07
:10035000FEE700BFFEE77047704770477047000038
:1003600000210020674A126842F48032654B1A600F
:1003700000BF644A126802F40030491C10B9B1F59C
:10038000A06FF6D15F4A126812F4003F01D001203D
:1003900000E00020012842D15B4A126842F01002BE
:1003A000594B1A601A46126822F003021A601A4664
:1003B000126842F002021A60524A5268514B5A6067
:1003C0001A4652685A601A46526842F480625A606D
:1003D0001A46526822F47C125A601A46526842F455
:1003E000E8125A601A46126842F080721A6000BF22
:1003F000444A126812F0007FFAD0424A526822F052
:100400000302404B5A601A46526842F002025A6098
:1004100000BF3C4A526802F00C02082AF9D170472A
:1004200010B5FFF79DFF10BD10B53648006840F0CD
:1004300001003449086008464068344908403149A1
:10044000486008460068324908402E49086008465E
:10045000006820F4802008600846406820F4FE0010
:1004600048604FF41F008860FFF7DAFF4FF000602C
:100470002849086010BD10B5002100200022214B42
:100480005B6803F00C0121B1042906D0082928D1AA
:1004900007E0214B214C236027E01F4B1F4C2360BA
:1004A00023E0184B5B6803F47010164B5B6803F491
:1004B0008032022303EB904022B9194B4343174C7F
:1004C00023600DE00F4B5B6813F4003F04D0144B26
:1004D0004343124C236003E00F4B43430F4C236014
:1004E00003E00D4B0D4C236000BF00BF054B5B6864
:1004F000C3F303130B4CE15C084B1B68CB40074C68
:10050000236010BD00100240002002400000FFF8F0
:10051000FFFFF6FE08ED00E000127A000000002068
:1005200000093D000400002031490143314A1160B7
:10053000704770B5002100230F22C4780CB32D4CF6
:10054000246804F4E064C4F5E064210AC1F1040302
:10055000CA40447804FA03F1847814402143090125
:10056000254C0678A155047804F01F050124AC4001
:1005700005786D114FF0E02606EB8505C5F80041C2
:1005800009E0047804F01F050124AC401B4D0678F7
:10059000761145F8264070BD194A0A400243154BB2
:1005A0001B1F1A60704739B1124A121D12680243AC
:1005B000104B1B1D1A6006E00E4A121D1268824382
:1005C0000C4B1B1D1A607047042808D14FF0E02126
:1005D000096941F004014FF0E022116107E04FF09A
:1005E000E021096921F004014FF0E0221161704718
:1005F0000000FA050CED00E000E400E080E100E01E
:1006000080FFFF1F10B50446CA48844208D101216B
:10061000042000F025FB0021042000F021FB46E02F
:10062000C548844208D10121082000F019FB0021AF
:10063000082000F015FB3AE0C048844208D10121AF
:10064000102000F00DFB0021102000F009FB2EE02F
:10065000BB48844208D10121202000F001FB002189
:10066000202000F0FDFA22E0B648844208D10121A2
:10067000402000F0F5FA0021402000F0F1FA16E0E9
:10068000B148844208D10121802000F0E9FA00211C
:10069000802000F0E5FA0AE0AC48844207D101214D
:1006A000801500F0DDFA0021A01500F0D9FA10BD88
:1006B00010B50121084600F0D3FA0021012000F016
:1006C000CFFA10BD2DE9F04102460025002600209A
:1006D00000230024002791F803C00CF00F0591F8C7
:1006E00003C01CF0100F03D091F802C04CEA0505BE
:1006F000B1F800C01CF0FF0F31D0146800202BE0CF
:100700004FF0010C0CFA00F3B1F800C00CEA03063C
:100710009E4220D183004FF00F0C0CFA03F7BC432C
:1007200005FA03FC4CEA040491F803C0BCF1280F5D
:1007300006D14FF0010C0CFA00FCC2F814C00AE01C
:1007400091F803C0BCF1480F05D14FF0010C0CFA31
:1007500000FCC2F810C0401C0828D1D31460B1F8C6
:1007600000C0BCF1FF0F34DD546800202EE000F122
:10077000080C4FF0010808FA0CF3B1F800C00CEABD
:1007800003069E4221D183004FF00F0C0CFA03F7B1
:10079000BC4305FA03FC4CEA040491F803C0BCF125
:1007A000280F05D100F1080C08FA0CF8C2F81480E3
:1007B00091F803C0BCF1480F07D100F1080C4FF0CD
:1007C000010808FA0CF8C2F81080401C0828CED3A3
:1007D0005460BDE8F0814FF6FF7101800221817005
:1007E0000421C17070470246002093680B4201D07B
:1007F000012000E0002070470146886880B2704701
:1008000002460020D3680B4201D0012000E0002006
:1008100070470146C86880B2704701617047416106
:1008200070470AB1016100E041617047C1607047E3
:100830004FF480320A4382618161826182698269F8
:10084000704702460020424B18684FF680731840EC
:1008500040EA021008433E4B186070473D49C861AA
:100860007047F0B50A46002300240021002500F05F
:100870000046B6F1004F02D1354EF16901E0344E29
:100880007168C0F3034583B200F44016B6F5401F0B
:1008900008D121F070612E4E766826F070662C4FDC
:1008A0007E6012E000F48016B6F5801F06D10326A4
:1008B00006FA05F4A14341F0706106E0460D3601E9
:1008C00003FA06F6B14341F0706122B1460D3601DC
:1008D00003FA06F6314300F00046B6F1004F02D1AC
:1008E0001B4EF16101E01A4E7160F0BD30B500227F
:1008F0008B071C0F0F2303FA04F2154B08338C10DF
:1009000053F824309343124C08348D1044F82530AA
:1009100023468C1053F824308C07240F00FA04F47B
:1009200023430B4C08348D1044F8253030BD0A4960
:100930000860704700080140000C014000100140B1
:100940000014014000180140001C0140002001403B
:100950000000014000002042DC002042DC4800682A
:1009600040F00100DA49086008464068D94908406B
:10097000D749486008460068D7490840D44908600C
:100980000846006820F4802008600846406820F48B
:10099000FE0048604FF41F0088607047CC4909682A
:1009A00021F48031CA4A11601146096821F480217E
:1009B0001160B0F5803F03D0B0F5802F0ED106E076
:1009C000C349096841F48031C14A116007E0C04958
:1009D000096841F4A021BE4A116000E000BF00BFD9
:1009E000704710B501460022002300204A11012A59
:1009F00002D1B74C236806E0022A02D1B44C236A24
:100A000001E0B34C636A01F01F02012494401C42D0
:100A100001D0012000E0002010BD70B500240025A9
:100A2000002600BF3120FFF7DCFF0646641CB4F54A
:100A3000A06F01D0002EF5D03120FFF7D2FF08B112
:100A4000012500E00025284670BD01460020A04A8F
:100A5000106820F0F80040EAC100106070479F491C
:100A60000860704702460020994B586820F47C10BB
:100A700042EA01031843964B58607047974908664D
:100A8000704701460020924A506820F00300084356
:100A9000506070478E48406800F00C007047014677
:100AA00000208B4A506820F0F000084350607047E7
:100AB00001460020864A506820F4E06008435060F8
:100AC000704701460020824A506820F4605040EA96
:100AD000C1005060704729B17D4A527A02437C4B75
:100AE0005A7206E07A4A527AC343DBB21A40784B14
:100AF0005A7270477A490860704701460020744A6C
:100B0000506820F440400843506070470021754A07
:100B100011706F4A82F82010012802D0042808D1F1
:100B200003E001216F4A117004E005216D4A117044
:100B300000E000BF00BF70476B4908607047644920
:100B4000096A0143624A1162704767494439086083
:100B5000704730B500210022002400235C4D6D68F1
:100B600005F00C0121B1042905D0082923D105E0A5
:100B70005E4D056022E05D4D05601FE0544D6D68DF
:100B800005F47012524D6D6805F48034022505EBB2
:100B900092421CB9564D554305600BE04C4D6D68B3
:100BA00015F4003F03D0524D5543056002E04F4D10
:100BB0005543056002E04D4D056000BF00BF444D48
:100BC0006D6805F0F00109094A4D6B5C0568DD4070
:100BD00045603F4D6D6805F4E061090A454D6B5C69
:100BE0004568DD4085603A4D6D6805F46051C90A7D
:100BF000404D6B5C4568DD40C560354D6D6805F462
:100C00004041890B3C4D6B5CC568B5FBF3F5056154
:100C100030BD29B12E4A526902432D4B5A6104E07E
:100C20002B4A526982432A4B5A61704729B1284A9C
:100C300092690243264B9A6104E0254A92698243F5
:100C4000234B9A61704729B1214AD2690243204B54
:100C5000DA6104E01E4AD26982431D4BDA617047B3
:100C600029B11B4AD2680243194BDA6004E0184AE2
:100C7000D2688243164BDA60704729B1144A126970
:100C80000243134B1A6104E0114A12698243104B6C
:100C90001A61704714494039086070470F49C864A9
:100CA00070470B49C87170470948406A40F080702E
:100CB00007494862704701460020054A92680A4287
:100CC00001D0012000E00020704701498872704780
:100CD000001002400000FFF8FFFFF6FE0000424255
:100CE000D8004242201002408004424200127A00A2
:100CF00000093D0014000020240000200020444989
:100D00000860091D0860091D0860091D0860414848
:100D10003F4914310860704700213D498279002A1B
:100D20003AD00A46126803689A430B461A600A1DB5
:100D3000126803689A430B1D1A60027911440A680D
:100D400003681A430A60324A0832126803689A43F9
:100D50002F4B08331A601A1D126803689A432C4BF4
:100D60000C331A604279102A0ED11A1F12680368D8
:100D70001A43274B08331A601A1D126803681A4376
:100D8000234B0C331A600DE02149427911440A6863
:100D900003681A430A6005E0027911440A6803688F
:100DA0009A430A6070470021016001710C21417172
:100DB0000021817170471649103109680143144AB6
:100DC00010321160704701460020114A1432126837
:100DD0000A4201D0012000E0002070470C49143184
:100DE00008607047014600200022094B1B6803EA97
:100DF0000102074B14331B680B4202D00AB10120D9
:100E000000E000207047024914310860704700007C
:100E100000040140FFFF0F000948804709480047D0
:100E2000FEE7FEE7FEE7FEE7FEE7FEE7FEE7FEE79A
:100E3000FEE7FEE704480549054A064B70470000F7
:100E400029040008310100089000002090060020CD
:100E5000900200209002002010B56FF00400FFF710
:100E6000B3FB2A4800682A49B0FBF1F02949087011
:100E7000084600784FF47A7148432749088010BD2E
:100E80000146244A12784A434FF0E0235A61002277
:100E90009A611A46126942F001021A6100BF4FF0CE
:100EA000E022106910F0010F02D010F4803FF6D05C
:100EB0004FF0E022126922F001024FF0E0231A61A4
:100EC00000229A6170470146134A12884A434FF044
:100ED000E0235A6100229A611A46126942F0010227
:100EE0001A6100BF4FF0E022106910F0010F02D02C
:100EF00010F4803FF6D04FF0E022126922F0010298
:100F00004FF0E0231A6100229A6170470000002030
:100F100000127A00280000202A00002008B50121D4
:100F20000846FFF783FE0121FE48FFF79AFC0121E6
:100F30001C20FFF77BFE4FF6FF70ADF8000010207D
:100F40008DF8030003208DF802006946F648FFF78C
:100F5000B9FB4FF4E060ADF800006946F348FFF7D5
:100F6000B1FB4FF40040ADF800006946F048FFF7D0
:100F7000A9FB08BD012806D1EC49096941F40071BB
:100F8000EA4A116106E028B9E849496941F400716B
:100F9000E64A51617047012806D1E449096941F4E4
:100FA0008061E24A116106E028B9E049496941F4EB
:100FB0008061DE4A51617047012808D1DC49103157
:100FC000096841F40041DA4A1032116008E038B98A
:100FD000D7491431096841F40041D54A14321160EF
:100FE0007047012806D1D149096941F48071CF4A7F
:100FF000116106E028B9CD49496941F48071CB4AB5
:10100000516170474FF6FF71C74A14321160111FCA
:101010000860704700B503460020FFF7ABFF184695
:10102000FFF7F0FF0020FFF7B6FF0120FFF7B3FF47
:1010300000BD00B503460120FFF79CFF1846FFF7EF
:10104000E1FF0020FFF7A7FF0120FFF7A4FF00BD8D
:1010500030B505460C462846FFF7DCFF2046FFF773
:10106000E8FF30BD70B504462046FFF7D3FF4FF0D0
:101070008830AD490860091D08604FF6FF70AA4925
:101080000C3108600120FFF775FF0020FFF794FF87
:101090000520FFF7F5FE0120FFF78EFFA24808307C
:1010A000006885B24FF033309F490860091D086021
:1010B0004FF6FF709C490C310860284670BD2DE941
:1010C000F04307460C4615461E46DDE90789994858
:1010D0000088A0F510516D3927D15020FFF79AFFF5
:1010E0003846FFF7A6FF5120FFF794FF2846FFF789
:1010F000A0FF5220FFF78EFF2046FFF79AFF5320F4
:10110000FFF788FF3046FFF794FF2020FFF782FFAC
:101110004046FFF78EFF2120FFF77CFF4846FFF790
:1011200088FF2220FFF776FF26E082480088A0F59E
:1011300010517D3920D12A20FFF76CFF3812FFF7BC
:1011400078FFF8B2FFF775FF2812FFF772FFE8B2D9
:10115000FFF76FFF2B20FFF75DFF2012FFF769FFFE
:10116000E0B2FFF766FF3012FFF763FFF0B2FFF760
:1011700060FF2C20FFF74EFFBDE8F08310B5FFF7AE
:10118000CDFE0120FFF72DFF0120FFF715FF012005
:10119000FFF701FF0520FFF796FE0020FFF721FF74
:1011A0003220FFF790FE01210020FFF751FF32208F
:1011B000FFF789FE0020FFF755FF5E4908800846CB
:1011C0000088A0F51341253911D05A480088A0F5B0
:1011D000134128390BD057480088A0F513413D39F9
:1011E00005D054480088A0F5134120397DD142F242
:1011F0006D40504908804FF480710120FFF728FFAF
:101200004FF4E0610220FFF723FF41F23001032099
:10121000FFF71EFF00210420FFF71AFF40F2022112
:101220000820FFF715FF00210920FFF711FF00211B
:101230000A20FFF70DFF00210C20FFF709FF002116
:101240000D20FFF705FF00210F20FFF701FF002110
:101250001020FFF7FDFE07211120FFF7F9FE002106
:101260001220FFF7F5FE00211320FFF7F1FE012108
:101270000720FFF7EDFE3220FFF725FE41F29061D7
:101280001020FFF7E5FE40F227211120FFF7E0FED6
:101290003220FFF718FE9D211220FFF7D9FE3220E1
:1012A000FFF711FE4FF4C8511320FFF7D1FE322093
:1012B000FFF709FE25212920FFF7CAFE0D212B206B
:1012C000FFF7C6FE3220FFF7FEFD00212020FFF7CA
:1012D000BFFE00212120FFF7BBFE3220FFF7F3FD08
:1012E00007213020FFF7B4FE00E07CE040F203313C
:1012F0003120FFF7ADFE03213220FFF7A9FE40F2B7
:1013000006213520FFF7A4FE08213620FFF7A0FEB6
:1013100040F206413720FFF79BFE4FF44171382021
:101320000AE0000000023000000C01400010014003
:10133000000801402C000020FFF78AFE0721392019
:10134000FFF786FE40F201613C20FFF781FE082195
:101350003D20FFF77DFE00215020FFF779FEEF21B1
:101360005120FFF775FE00215220FFF771FE40F279
:101370003F115320FFF76CFE4FF427416020FFF729
:1013800067FE01216120FFF763FE00216A20FFF75D
:101390005FFE00218020FFF75BFE00218120FFF728
:1013A00057FE00218220FFF753FE00218320FFF724
:1013B0004FFE00218420FFF74BFE00218520FFF720
:1013C00047FE10219020FFF743FE4FF4C0619220AA
:1013D000FFF73EFE40F233110720FFF739FE2220CF
:1013E000FFF718FE17E142F27D40E9490880CF205F
:1013F000FFF710FE0020FFF71CFEC120FFF719FECB
:101400003020FFF716FEED20FFF704FE6420FFF703
:1014100010FE0320FFF70DFE1220FFF70AFE8120C9
:10142000FFF707FEE820FFF7F5FD8520FFF701FE37
:101430001020FFF7FEFD7A20FFF7FBFDCB20FFF722
:10144000E9FD3920FFF7F5FD2C20FFF7F2FD002024
:10145000FFF7EFFD3420FFF7ECFD0220FFF7E9FD79
:10146000F720FFF7D7FD2020FFF7E3FDEA20FFF785
:10147000D1FD0020FFF7DDFD0020FFF7DAFDC020E1
:10148000FFF7C8FD1B20FFF7D4FDC120FFF7C2FD09
:101490000120FFF7CEFDC520FFF7BCFD3020FFF790
:1014A000C8FD3020FFF7C5FDC720FFF7B3FDB7200B
:1014B000FFF7BFFD3620FFF7ADFD0820FFF7B9FDB0
:1014C0003A20FFF7A7FD5520FFF7B3FDB120FFF746
:1014D000A1FD0020FFF7ADFD1A20FFF7AAFDB62001
:1014E000FFF798FD0A20FFF7A4FDA220FFF7A1FD5A
:1014F000F220FFF78FFD0020FFF79BFD2620FFF76E
:1015000089FD0120FFF795FDE020FFF783FD0F2007
:10151000FFF78FFD2A20FFF78CFD2820FFF789FDBC
:101520000820FFF786FD0E20FFF783FD0820FFF758
:1015300080FD5420FFF77DFDA920FFF77AFD4320B1
:10154000FFF777FD0A20FFF774FD0F20FFF771FD0D
:101550000020FFF76EFD0020FFF76BFD0020FFF776
:1015600068FD0020FFF765FDE120FFF753FD002037
:10157000FFF75FFD1520FFF75CFD1720FFF759FD12
:101580000720FFF756FD1120FFF753FD0620FFF758
:1015900050FD2B20FFF74DFD5620FFF74AFD3C2064
:1015A000FFF747FD0520FFF744FD1020FFF741FD41
:1015B0000F20FFF73EFD3F20FFF73BFD3F20FFF7E9
:1015C00038FD0F20FFF735FD2B20FFF723FD00200E
:1015D000FFF72FFD0020FFF72CFD0120FFF729FD6D
:1015E0003F20FFF726FD2A20FFF714FD0020FFF71C
:1015F00020FD0020FFF71DFD0020FFF71AFDEF2062
:10160000FFF717FD1120FFF705FD7820FFF75BFCC2
:101610002920FFF7FFFC10BD10B504465C48008888
:10162000A0F510516D3951D1092C4ED2DFE804F0EC
:101630004D050E172029323B44004FF48051032002
:10164000FFF706FD2220FFF7E5FC3EE041F2100126
:101650000320FFF7FDFC2220FFF7DCFC35E04FF410
:1016600081510320FFF7F4FC2220FFF7D3FC2CE08C
:1016700041F230010320FFF7EBFC2220FFF7CAFC08
:1016800023E041F208010320FFF7E2FC2220FFF7EC
:10169000C1FC1AE041F218010320FFF7D9FC222017
:1016A000FFF7B8FC11E041F228010320FFF7D0FC5E
:1016B0002220FFF7AFFC08E041F238010320FFF7DA
:1016C000C7FC2220FFF7A6FC00BF5FE0304800887F
:1016D000A0F510517D3959D1092C56D2DFE804F01C
:1016E00055050F19232D37414B003620FFF792FC8B
:1016F000C820FFF79EFC2C20FFF78CFC45E036202D
:10170000FFF788FC8820FFF794FC2C20FFF782FC71
:101710003BE03620FFF77EFC4820FFF78AFC2C20B8
:10172000FFF778FC31E03620FFF774FC0820FFF764
:1017300080FC2C20FFF76EFC27E03620FFF76AFCC8
:10174000E820FFF776FC2C20FFF764FC1DE0362034
:10175000FFF760FCA820FFF76CFC2C20FFF75AFC79
:1017600013E03620FFF756FC6820FFF762FC2C20C0
:10177000FFF750FC09E03620FFF74CFC2820FFF76C
:1017800058FC2C20FFF746FC00BF00BF10BD000036
:101790002C00002008B501210420FFF747FA0220A1
:1017A000ADF8000010208DF8030003208DF8020032
:1017B00069460B48FEF786FF02210948FFF72DF81E
:1017C00008BD10B50446012C04D102210448FFF7DE
:1017D00026F803E002210248FFF71FF810BD0000C1
:1017E000000801400EB502210320FFF77FF8042016
:1017F000019000208DF8080008208DF809000120D4
:101800008DF80A0001A8FFF787FA08208DF800007C
:1018100000208DF801008DF8020001208DF80300F2
:101820006846FEF786FE0EBD10B50420FFF7DAFA13
:10183000012821D1C548007802281DDAC348007864
:1018400050B90020C24908604FF00100C149C1F8F9
:101850008001C149086009E00020BF490860BD4916
:10186000C1F880014FF00100B9490860B74800781D
:1018700000F10100B54908704FF00400FFF7C3FA0A
:1018800010BD38B5002501213420FFF7CFF940F213
:101890000F10ADF8000010208DF8030003208DF824
:1018A00002006946AD48FEF70DFFFF20ADF80000CD
:1018B00048208DF803006946A948FEF703FF00F0B1
:1018C00053F98021122000F04CFA08B1012038BDF4
:1018D0003220FFF7F8FA0B2000F062FA0446732C6E
:1018E00001D00220F3E70A2000F05AFA0446762CD1
:1018F00001D00220EBE700250DE09A4A02EB4502F9
:101900005178984A12F8150000F02BFA0220FFF7E0
:10191000DAFA681C85B2552DEFD30020D7E72DE900
:10192000F0410446E72500260027012C06D0022CB2
:1019300008D0032C0AD0042C10D10BE0E5255A2640
:101940005C270BE0E5255826602707E0E52584267F
:101950004C2703E0E5259626402700BF00BF294617
:10196000132000F0FEF93146012000F0FAF9394663
:10197000022000F0F6F9BDE8F0812DE9F0410446BF
:10198000802522265E2734B1012C08D0032C0AD0F2
:10199000042C10D10BE0402511262F270BE06625E3
:1019A0001B264B2707E099252826712703E0C02531
:1019B00033268D2700BF00BF29464F2000F0D1F904
:1019C0002946502000F0CDF90021512000F0C9F93E
:1019D0003146522000F0C5F93946532000F0C1F9D4
:1019E0002946542000F0BDF99E21582000F0B9F995
:1019F000BDE8F08170B50446002534B1012C06D055
:101A0000032C06D0042C08D105E0B02505E098256C
:101A100003E0182501E0302500BF00BF294655200E
:101A200000F09FF970BD70B50446402534B1012C1B
:101A300006D0032C06D0042C08D105E0302505E0A3
:101A4000382503E0502501E0602500BF00BF29468E
:101A5000562000F086F970BD2DE9F04104460425BA
:101A6000C0268027072C1DD2DFE804F01C04080CD8
:101A70001014180024258026802713E014258026C2
:101A800080270FE01425C02680270BE01425402670
:101A9000402707E014258026C02703E01425A02650
:101AA000402700BF00BF29463A2000F05AF93146CE
:101AB000682000F056F93946672000F052F9BDE879
:101AC000F0812DE9F04705460E469046994605EB14
:101AD00048001FFA80FA06EB490087B2B7F5447F49
:101AE00002DDA7F5447087B2032000F059F90446DF
:101AF00004F0F0040AF00301284661F39F00044358
:101B00002146032000F02DF9C5F38701192000F0CC
:101B100028F9CAF387011A2000F023F9322000F0D7
:101B20003FF9044604F0C00407F00701304661F3B2
:101B3000DF000443C6F3C701172000F012F9C7F312
:101B4000C701182000F00DF9BDE8F0872E00002035
:101B50008001214200002142A001214200080140F1
:101B600000100140E822000808B501211020FFF70D
:101B70005DF84FF40060ADF8000048208DF80300D8
:101B800003208DF8020069469948FEF79BFD4FF44B
:101B90008050ADF8000010208DF80300694694488D
:101BA000FEF790FD9248406820F4704090494860EC
:101BB0000846406840F44050486008BD10B5012018
:101BC0008C4908608C49C1F8B0014FF03200FFF732
:101BD00057F90020874908604FF03200FFF750F9AD
:101BE00000208549C1F8B00110BD10B50020814921
:101BF00008604FF03200FFF743F901207E49C1F839
:101C0000B0013220FFF73CF901207A4908604FF01B
:101C10003200FFF735F910BD10B53220FFF730F96B
:101C20000120744908607449C1F8B0014FF03200D6
:101C3000FFF726F90020714908604FF03200FFF7E6
:101C40001FF900206C49C1F8AC013220FFF718F9E8
:101C500010BD70B5044600261EE014F0800F03D0BE
:101C600001206449086002E00020624908604FEAF0
:101C700044604FEA10644FF03200FFF701F9012091
:101C80005E4908604FF03200FFF7FAF800205A4929
:101C9000C1F8B001701CC6B2082EDEDB54484068A3
:101CA00020F47040524948600846406840F40040C3
:101CB00048603220FFF7E4F80120504908604FF0F7
:101CC0003200FFF7DDF84C48D0F82C0108B10125AF
:101CD00000E000250020494908604548406820F49C
:101CE0007040434948600846406840F440504860AE
:101CF000284670BD70B500243D48406820F470400F
:101D00003B4948600846406840F400404860082568
:101D100018E03220FFF7B4F80120384908604FEA94
:101D200044604FEA10643448D0F82C0108B1601CBC
:101D3000C4B23220FFF7A4F8002030490860A5F1B2
:101D40000100C5B2002DE4DC2948406820F4704051
:101D5000274948600846406840F4405048602046A3
:101D600070BD70B505460C460026FFF727FF4220E0
:101D7000FFF76FFF00B101266420FFF781F82846C6
:101D8000FFF767FF00B101266420FFF779F82046CE
:101D9000FFF75FFF00B10126FFF727FF304670BD58
:101DA00070B504460025FFF709FF4220FFF751FFF9
:101DB0006420FFF765F82046FFF74BFF6420FFF72C
:101DC0005FF8FFF712FF6420FFF75AF8FFF7F6FEFF
:101DD0004320FFF73EFF6420FFF752F8FFF78AFF2A
:101DE0000546FFF719FFFFF700FF284670BD00000A
:101DF00000100140AC01224200002242B001224208
:101E00007CB506460020009040F23F13EF220146C9
:101E10000190FFF754F900240AE0002504E0304661
:101E2000FFF707F9681CC5B2F02DF8DB601C84B21F
:101E3000B4F5A07FF1DB7CBD7CB504460D461646AB
:101E40002B46224629462046CDE90045FFF737F9C3
:101E50003046FFF7EEF87CBD2DE9F04104460D4613
:101E600016461F46DDF81880EA1B91B2A219D0B2BF
:101E70004246FFF7E1FFAA1B91B2E219D0B24246F7
:101E8000FFF7DAFFAA1991B2E219D0B24246FFF782
:101E9000D3FFEA1991B2A219D0B24246FFF7CCFFA4
:101EA000EA1991B2A21BD0B24246FFF7C5FFAA19A8
:101EB00091B2E21BD0B24246FFF7BEFFAA1B91B21D
:101EC000E21BD0B24246FFF7B7FFEA1B91B2A21B5A
:101ED000D0B24246FFF7B0FFBDE8F0812DE9FF4FD9
:101EE00081B0824616461F46DDF838B000243546DC
:101EF0000320A0EB460924E0BBF1000F0DD0A04663
:101F000008E043462246009750460299FFF7A4FF97
:101F100008F10108A845F4DD06E02B4622460097AB
:101F200050460299FFF798FF641CB9F1000F03DADD
:101F3000A000801D814404E0601B80000A308144C1
:101F40006D1EAC42D8DD05B0BDE8F08F2DE9FC5F19
:101F500004460D4616461F463B4632462946204655
:101F6000CDE90045FFF7ABF8301B401C1FFA80FBA2
:101F7000781B401C1FFA80FA4FF000080FE04FF06A
:101F8000000906E00C98FFF754F809F101001FFA68
:101F900080F9D945F6DB08F101001FFA80F8D04539
:101FA000EDDBBDE8FC9F2DE9F84304460F461546DE
:101FB0001E46DDF8208005B10EB9BDE8F883B819DA
:101FC000401E83B26019401EC2B23946E0B2CDF85D
:101FD0000080FFF7BBFF00BFEFE72DE9FF4F83B0A5
:101FE00004460D469246DDF840B0DFF87082AAF153
:101FF000200008EB0018BBF1010F38D0119848B948
:1020000005F10F0083B2E21D29462046CDE90045C7
:10201000FFF755F8119801280BD104F10F00CDE915
:102020000005E81D83B204F10F0229462046FFF7A0
:1020300046F8002718E0002610E098F80000C6F1E6
:10204000070201219140084203D00698FEF7F1FFF4
:1020500002E05846FEF7EDFF701CC6B2082EECDB1E
:1020600008F10108781CC7B2102FE4DB34E0A14668
:1020700000272FE0002627E02B462246294620464F
:10208000CDE90045FFF71BF898F80000C6F10702FC
:102090000121914008420CD00698FEF7CAFF601C4F
:1020A000C4B2A4EB090008280CD14C46681C85B2C8
:1020B00008E0601CC4B2A4EB0900082802D14C4619
:1020C000681C85B2701CC6B2082ED5DB08F1010869
:1020D000781CC7B2102FCDDB07B0BDE8F08F2DE91B
:1020E000FC4706460F4614469846DDF82890002522
:1020F00010E0207880280DDA0020CDE900902278C9
:1021000006EBC501C8B243463946FFF766FF681CB7
:10211000C5B2641C20780028EBD1BDE8FC872DE90E
:10212000FF470746884614469946DDF830A042F23C
:102130001070B4FBF0F00A21B0FBF1F201FB1200C9
:102140008DF808004FF47A70B4FBF0F0B0FBF1F2B8
:1021500001FB12008DF809006420B4FBF0F0B0FB25
:10216000F1F201FB12008DF80A000A20B4FBF0F036
:10217000B0FBF1F201FB12008DF80B000A20B4FB5A
:10218000F0F100FB11408DF80C0042F21070B4FB2E
:10219000F0F008B1052517E04FF47A70B4FBF0F0C9
:1021A00008B1042510E06420B4FBF0F008B1032569
:1021B0000AE00A20B4FBF0F008B1022504E00CB1FB
:1021C000012501E004B90125002612E00020C5F137
:1021D0000501314402ABCDE900A0595C3031CAB2EF
:1021E00007EBC601C8B24B464146FFF7F6FE701C2E
:1021F000C6B2AE42EADBBDE8FF872DE9FC470546E3
:102200000F46144698460A9E0A2094FBF0F00A21D5
:1022100090FBF1F201FB1200303000F0FF090020CA
:1022200043464A463946CDE900602846FFF7D5FEC9
:102230000A2094FBF0F100FB1140303000F0FF0960
:10224000002043464A463946CDE9006005F10800C2
:10225000C0B2FFF7C2FEBDE8FC8700003E240008C4
:10226000704770477047754600F028F8AE46050085
:102270006946534620F00700854618B020B5FEF7A2
:10228000D9FDBDE820404FF000064FF000074FF0A9
:1022900000084FF0000B21F00701AC46ACE8C00984
:1022A000ACE8C009ACE8C009ACE8C0098D4670478D
:1022B0000446AFF300802046FDF783FF00487047D7
:1022C00030000020004870473400002001491820E9
:1022D000ABBEFEE726000200704710B5FFF7F2FF25
:1022E0004FF00001016010BD3A044010121432801A
:1022F0001716180419021A7A030A0C0C15003E006E
:102300007000710172117309A20211007A207B1C06
:102310007C287D3C7E557F68807681808288838F93
:10232000849685A386AF87C488D789E813E0000028
:1023300010000D001420A505AB072475256326A504
:102340009F78A068A103A6DFA7DFA8F0A990AA94B0
:1023500013E50E610F4B16021E2721022291290759
:10236000330B350B371D3871392A3C784D404E20E0
:10237000695D6B4074198D4F8E008F009000910045
:10238000920096009A80B084B10CB20EB382B80A63
:10239000431444F0453446584728483A59885A88E7
:1023A0005B445C675D495E0E6404652066059404C9
:1023B00095086C0A6D554F80508051005222535E33
:1023C000548009036E116F9F5500564057800000DE
:1023D00000000000000000000000000000000000FD
:1023E00000000000000000000000000000000000ED
:1023F00000000000000000000000000000000000DD
:1024000000000000000000000000000000000000CC
:1024100000000000000000000000000000000000BC
:1024200000000000000000000000000000000000AC
:10243000000000000000000000000000000000009C
:10244000000000000000000000000000000000008C
:1024500000101010101010100000181800000012CA
:1024600036244800000000000000000000000000CA
:1024700000242424FE484848FE4848480000000044
:10248000103854545030181414545438101000009C
:102490000044A4A8A8A8541A2A2A2A44000000002C
:1024A0000030484848506EA4948889760000006047
:1024B0006020C000000000000000000000000002DA
:1024C0000408081010101010100808040200004042
:1024D000201010080808080808101020400000000C
:1024E00000001010D63838D6101000000000000090
:1024F000000010101010FE1010101000000000005E
:1025000000000000000000000000606020C000002B
:102510000000000000007F0000000000000000003C
:1025200000000000000000000000606000000000EB
:10253000010202040408081010202040400000009E
:102540000018244242424242424224180000000045
:1025500000107010101010101010107C00000000FF
:10256000003C4242420404081020427E0000000069
:10257000003C4242041804020242443800000000B9
:1025800000040C14242444447E04041E00000000B3
:10259000007E40404058640202424438000000007F
:1025A000001C2440405864424242241800000000AD
:1025B000007E4444080810101010101000000000A5
:1025C000003C4242422418244242423C00000000A7
:1025D000001824424242261A020224380000000059
:1025E000000000001818000000001818000000008B
:1025F000000000000010000000000010102000008B
:10260000000204081020402010080402000000000E
:1026100000000000FE000000FE00000000000000BE
:1026200000402010080402040810204000000000B0
:10263000003C424262020408080018180000000032
:102640000038445AAAAAAAAAB4424438000000009A
:10265000001010182828243C444242E700000000E3
:1026600000F8444444784442424244F800000000E8
:10267000003E42428080808080424438000000005A
:1026800000F8444242424242424244F80000000004
:1026900000FC424848784848404242FC00000000A4
:1026A00000FC424848784848404040E000000000B4
:1026B000003C44448080808E844444380000000004
:1026C00000E7424242427E42424242E700000000AE
:1026D000007C1010101010101010107C0000000072
:1026E000003E0808080808080808080888F00000E4
:1026F00000EE444850705048484444EE000000004A
:1027000000E0404040404040404042FE00000000A9
:1027100000EE6C6C6C6C5454545454D600000000A1
:1027200000C7626252524A4A4A4646E2000000002E
:102730000038448282828282828244380000000013
:1027400000FC424242427C40404040E00000000029
:102750000038448282828282B2CA4C38060000006D
:1027600000FC4242427C4848444442E300000000EE
:10277000003E4242402018040242427C0000000019
:1027800000FE921010101010101010380000000001
:1027900000E74242424242424242423C00000000C4
:1027A00000E74242442424282818101000000000AA
:1027B00000D692929292AAAA6C444444000000006F
:1027C00000E7422424181818242442E700000000DF
:1027D00000EE4444282810101010103800000000AB
:1027E000007E840408081020204242FC0000001EE5
:1027F0001010101010101010101010101E000000FB
:102800004040202010101008080404040202007840
:102810000808080808080808080808087800001CC4
:102820002200000000000000000000000000000086
:1028300000000000000000000000000000FF006039
:102840006020C00000000000000000000000000048
:1028500000000000003C421E2242423F00000000F7
:1028600000C04040405864424242645800000000AA
:1028700000000000001C22404040221C000000001C
:1028800000060202021E22424242261B00000000F5
:1028900000000000003C427E4040423C000000003E
:1028A000000F1110107E10101010107C000000009E
:1028B00000000000003E444438403C42423C0000DE
:1028C00000C04040405C6242424242E700000000DB
:1028D00000303000007010101010107C000000005C
:1028E000000C0C00001C04040404040444780000E0
:1028F00000C04040404E4850684844EE0000000090
:1029000000701010101010101010107C000000004B
:102910000000000000FE4949494949ED000000005F
:102920000000000000DC6242424242E7000000007A
:1029300000000000003C42424242423C00000000D5
:102940000000000000D864424242447840E00000A9
:1029500000000000001E22424242221E0207000028
:102960000000000000EE3220202020F800000000CF
:1029700000000000003E42403C02427C000000009B
:1029800000000010107C10101010100C000000004F
:102990000000000000C642424242463B00000000E8
:1029A0000000000000E7422424281010000000006E
:1029B0000000000000D79292AAAA44440000000040
:1029C00000000000006E2418181824760000000093
:1029D0000000000000E742242428181010E0000046
:1029E00000000000007E44081010227E000000035A
:1029F0000404040404080404040404040300080890
:102A000008080808080808080808080808080060F6
:102A10001010101010081010101010106000304C22
:102A20004300000000000000000000000000000063
:102A30000010101838383C3C7C7E7EFF00000000FF
:102A400000FF7E7E7C3C3C383818101000000000EF
:102A5000702A000800000020300000006C0100080F
:102A6000A02A00083000002060060000880100084D
:102A700000A24A040000000000000000010203045C
:102A80000607080900000000010203040102030414
:102A90000607080902040608000000000000000004
:0400000508000131BD
:00000001FF
