:020000040800F2
:1000000000300020ED220008E9070008EB07000897
:10001000ED070008EF070008F107000800000000E6
:10002000000000000000000000000000F3070008CE
:10003000F507000800000000F7070008F9070008AE
:100040003D2300083D2300083D2300083D23000810
:100050003D2300083D2300083D2300083D23000800
:100060003D2300083D2300083D2300083D230008F0
:100070003D2300083D2300083D2300083D230008E0
:100080003D2300083D2300083D2300083D230008D0
:100090003D2300083D2300083D2300083D230008C0
:1000A0003D2300083D2300083D2300083D230008B0
:1000B0003D2300083D230008000000003D23000808
:1000C0003D23000800000000000000003D23000860
:1000D000000000003D2300083D2300083D230008E8
:1000E0003D2300083D230008000000000000000040
:1000F0000000000000000000000000000000000000
:1001000000000000000000000000000000000000EF
:1001100000000000000000003D2300083D2300080F
:1001200000000000000000000000000000000000CF
:1001300000000000000000000000000000000000BF
:100140003D2300083D2300080000000000000000DF
:10015000000000000000000000000000000000009F
:10016000000000000000000000000000000000008F
:10017000000000000000000000000000000000007F
:08018000000000003D2300080F
:1001880010B5054C237833B9044B13B10448AFF3C9
:1001980000800123237010BD18000020000000001B
:1001A8009823000808B5034B1BB103490348AFF374
:1001B800008008BD000000001C00002098230008F3
:1001C800034613F8012B002AFBD1181A013870478F
:1001D80030B589B0002403940494059406940794D8
:1001E800164B5A6942F480025A615A6902F4800235
:1001F8000092009A5A6942F400325A615A6902F42C
:1002080000320192019A5A6942F480225A615B696C
:1002180003F480230293029B094D224608212846B5
:1002280000F0DEFC0823039301230493059406944D
:1002380003A9284600F0F6FB09B030BD00100240C3
:100248000004004808B51248124B0360124B436083
:10025800002383600122C260036143618361C3613B
:10026800036200F050FE50B90021094801F03CF843
:1002780040B90021064801F065F830B908BD00F022
:1002880041F8F1E700F03EF8F3E700F03BF8F5E756
:1002980034000020005400400E09002010B588B03A
:1002A8000023039304930593069307930268124B64
:1002B8009A4201D008B010BD104C636943F4802302
:1002C8006361636903F480230193019BC023039353
:1002D80012230493032306930423079303A90848CE
:1002E80000F0A0FBE36943F40013E361E36903F45E
:1002F80000130293029BDDE7005400400010024007
:100308000004004872B6FEE700B597B02822002125
:100318000CA802F035F800230793089309930A9371
:100328000B9301930293039304930593069302237B
:100338000C9301231093102311930CA801F02EF8AD
:10034800A8B90F2307930021089109910A910B91ED
:1003580007A801F075FB60B92023019300230493DB
:1003680001A801F073FC30B917B05DF804FBFFF782
:10037800C9FFFFF7C7FFFFF7C5FF000070B586B0DC
:1003880000F0BAFAFFF7C0FFFFF722FF00F03EFACD
:10039800FFF758FF394800F0CDF808B1FFF7B2FF72
:1003A80006464FF47A7000F0CBFA002000F088F887
:1003B800324800F095F84FF47A7000F0C1FA002145
:1003C800084600F0EFF92E4C012394E806002D486A
:1003D80000F0D0F92421002000F0E4F9012394E88A
:1003E8000600294800F0C6F935460CE005F164001E
:1003F80001222146C0B200F041F90134E4B23F2C99
:10040800F4D90135EDB21B2D01D83446F7E71B4866
:1004180000F066F820E01D4B93E803000390ADF868
:10042800101003A8FFF7CCFE4FF0FF3382B203A9E8
:10043800174801F05FFE174C01220821204600F002
:10044800CFFB642000F07CFA00220821204600F04F
:10045800C7FB642000F074FA4FF0FF3300930123C8
:1004680003AA7821054800F0ADFD0028D3D00A4A38
:1004780003AB07CA03C31A70D3E700BF34000020D8
:10048800000000200C310008143100082C3100084D
:1004980090040020000400482031000800B587B00F
:1004A8008DF817100A230293012301930DF1170207
:1004B80000920022782100F043FE07B05DF804FBAB
:1004C800002303E0FF21054AD1540133B3F5806FBF
:1004D80003D20028F6D10146F5E7704790000020C6
:1004E80030B585B0054600241DE0A4F15001C9B21D
:1004F8002846FFF7D3FF00212846FFF7CFFF10213A
:100508002846FFF7CBFF6423029380230193084B0F
:1005180003EBC4130093012340227821284600F0FE
:100528000FFE0134E4B2072CDFD905B030BD00BF9F
:100538009000002038B50446642000F001FAAE218E
:100548002046FFF7ABFF054620212046FFF7A6FF10
:10055800054410212046FFF7A1FF0544B02120469D
:10056800FFF79CFF0544C8212046FFF797FF054485
:1005780000212046FFF792FF054410212046FFF78F
:100588008DFF054440212046FFF788FF054481215F
:100598002046FFF783FF0544FF212046FFF77EFF33
:1005A8000544A1212046FFF779FF0544A6212046EE
:1005B800FFF774FF0544A8212046FFF76FFF0544A5
:1005C8003F212046FFF76AFF0544A4212046FFF794
:1005D80065FF0544D3212046FFF760FF054400214D
:1005E8002046FFF75BFF0544D5212046FFF756FF5D
:1005F8000544F0212046FFF751FF0544D921204644
:10060800FFF74CFF054422212046FFF747FF05442A
:10061800DA212046FFF742FF054412212046FFF762
:100628003DFF0544DB212046FFF738FF0544202124
:100638002046FFF733FF05448D212046FFF72EFFA4
:10064800054414212046FFF729FF0544AF21204621
:10065800FFF724FFE84201D0012038BD0020FFF752
:100668002FFF2046FFF73CFF034B002018805880DF
:1006780001225A71F1E700BF8800002010F0800FB6
:1006880015D13F2913D8104B1B7913B1B2FA82F256
:100698005209012A0CD0CB0800EBC31001F0070166
:1006A80001238B40094A115C21EA03011154704768
:1006B800CB0800EBC31001F0070101238B40034A6C
:1006C800115C1943115470478800002090000020E5
:1006D8002DE9F04782B0814602A800E90600984655
:1006E800234B1B889DF8006033447F2B3BDC204B59
:1006F8005B889DF801A053443F2B36DC00251FE0A2
:100708001B4B1888598829442044B8FA88F25209A2
:10071800C9B2C0B2FFF7B2FF0134A6420FD907FA37
:1007280004F313F4004FEBD0114B1888598829446F
:1007380020444246C9B2C0B2FFF7A0FFECE701353A
:10074800AA4508D9A9F1200303FB0A53019A32F8F4
:1007580013700024E1E7064B1A8816441E804846A9
:1007680002B0BDE8F0870020FAE70020F8E700BFF4
:100778008800002030B583B0044602A800E90600CE
:100788001D4600E00134207848B12B4602AA12E940
:100798000600FFF79DFF024620788242F2D003B0A0
:1007A80030BD0000014B1880598070478800002038
:1007B80082B00A4B9A6942F001029A619A6902F082
:1007C80001020092009ADA6942F08052DA61DB692C
:1007D80003F080530193019B02B070470010024060
:1007E800FEE7FEE7FEE7FEE7FEE770477047704763
:1007F80008B500F093F808BD034AD2F8883043F4EE
:100808007003C2F88830704700ED00E008B50B4867
:100818000B4B03604FF41643436000238360C360AF
:1008280003610C2242618361C3610362436201F088
:1008380028FD00B908BDFFF765FDFBE7900400201F
:100848000044004000B589B0002303930493059346
:10085800069307930268144B9A4202D009B05DF8D8
:1008680004FB03F5E633DA6942F40032DA61DA6947
:1008780002F400320192019A5A6942F400325A6134
:100888005B6903F400330293029B48F20403039369
:1008980002230493032306930723079303A94FF026
:1008A800904000F0BFF8D9E70044004010B5044676
:1008B8000E4B18784FF47A73B3FBF0F30C4A1068B8
:1008C800B0FBF3F000F09AF868B90F2C01D90120B9
:1008D8000AE0002221464FF0FF3000F057F8054BA0
:1008E8001C60002000E0012010BD00BF0C000020AB
:1008F800080000201000002008B5074A136843F0DC
:1009080010031360032000F02FF80020FFF7CEFF3C
:10091800FFF74EFF002008BD00200240034A11687F
:10092800034B1B780B441360704700BF1805002069
:100938000C000020014B1868704700BF1805002004
:1009480038B50446FFF7F6FF0546B4F1FF3F02D07D
:10095800044B1B781C44FFF7EDFF401BA042FAD361
:1009680038BD00BF0C000020074AD36823F4E063B9
:100978001B041B0C000200F4E060034343F0BF6358
:1009880043F40033D360704700ED00E000B5194B25
:10099800DB68C3F30223C3F1070CBCF1040F28BFC3
:1009A8004FF0040C03F1040EBEF1060F18D9033BF7
:1009B8004FF0FF3E0EFA0CFC21EA0C0199400EFAAA
:1009C80003F322EA0303194300280BDB0901C9B228
:1009D80000F1604000F5614080F800135DF804FB09
:1009E8000023E5E700F00F000901C9B2024B1954D2
:1009F800F4E700BF00ED00E014ED00E00138B0F1CD
:100A0800807F0BD24FF0E0235861054AF02182F82D
:100A180023100020986107221A617047012070474F
:100A280000ED00E0F0B583B0002362E085685E0069
:100A38000324B44025EA0405CC68B4402C43846000
:100A4800446824EA0C0C4C68C4F300149C4044EA43
:100A58000C0444605EE0DD08083550F8256003F0BA
:100A680007044FEA840C0F2404FA0CF426EA040E57
:100A78000C6904FA0CF444EA0E0440F8254060E0DE
:100A8800032400E0002404FA0EF42C430CF1020CB9
:100A98004F4D45F82C404F4CA568D44325EA020633
:100AA8004F6817F4801F01D042EA0506494DAE6031
:100AB800ED6804EA05064F6817F4001F01D042EA02
:100AC8000506444DEE606D6804EA05064F6817F4A4
:100AD800003F01D042EA05063E4D6E602D682C406D
:100AE8004E6816F4803F01D042EA0504394A146082
:100AF80001330A6832FA03F468D04FF0010C0CFA9B
:100B080003FC1CEA0202F3D04C6804F00304013C25
:100B1800012C8BD94C6804F00304032C0CD0C46856
:100B28005D004FF0030C0CFA05FC24EA0C0C8C68F1
:100B3800AC4044EA0C04C4604C6804F00304022C82
:100B480089D004684FEA430E4FF0030C0CFA0EFCF0
:100B580024EA0C0C4C6804F0030404FA0EF444EA8A
:100B68000C0404604C6814F4403FC1D01A4CA569C9
:100B780045F00105A561A46904F001040194019CF4
:100B88004FEA930C0CF10205114C54F8255003F070
:100B980003044FEA840E0F2404FA0EF425EA040530
:100BA800B0F1904F3FF46EAF0C4CA0420AD004F560
:100BB8008064A04208D004F58064A0423FF460AF8E
:100BC800052460E701245EE702245CE703B0F0BD7A
:100BD80000000140000401400010024000040048E9
:100BE8000AB1816170478162704703689A6912F09F
:100BF800020F01D000229A6203689A6912F0010F6D
:100C080003D19A6942F001029A61704710B4019CBD
:100C1800C1F3090141EA02411943214321F000418E
:100C280002685368640D04F4806444F07F7444F4EB
:100C3800583444F47F7444F0030423EA0404214341
:100C480051605DF8044B70472DE9F0410446036894
:100C58009E6916F010067CD00D4690461022DA6187
:100C6800002637462368986910F0200F30D17FBBE3
:100C7800B5F1FF3FF6D0FFF75DFEA0EB0800A842F4
:100C880001D8002DEED121684B6803F4804394F815
:100C98004220D2B2886910F4004F02D00BB9202A42
:100CA8000ED123689B6913F0200FDBD1FFF742FEBA
:100CB800A0EB08001928F4D946F020060127D1E74F
:100CC8004B6843F480434B60FFF734FE8046E8E707
:100CD8000FB92022DA6146F00406012522689369DB
:100CE80013F4807F05D046F001064FF48071D1617E
:100CF800012513F4806F06D046F0080622684FF4E9
:100D08008061D161012513F4007F24D046F00206EA
:100D180023684FF40072DA6101252046FFF765FF6A
:100D28002268536823F0FF7323F48B3323F4FF7393
:100D380023F001035360636C1E436664202384F828
:100D48004130002384F8423084F840302846BDE81A
:100D5800F0810025C2E7002DF8D0DEE770B5044623
:100D68000D46164623689B6913F0020F22D13246BE
:100D780029462046FFF768FFF0B9B5F1FF3FF1D0EB
:100D8800FFF7D8FD801BA84201D8002DEAD12368BF
:100D98009B6913F0020FE5D1636C43F02003636491
:100DA800202384F84130002384F8423084F840300E
:100DB800012000E0002070BD0120FCE72DE9F04192
:100DC80005460F46164698462C68A46937EA040378
:100DD8000CBF4FF0010C4FF0000CB44522D1B8F114
:100DE800FF3FF1D0FFF7A6FD069BC01A404502D889
:100DF800B8F1000FE8D12B689B6937EA03030CBFF1
:100E080001230023B342DFD16B6C43F020036B64F2
:100E1800202385F84130002385F8423085F840309A
:100E2800012000E00020BDE8F08100002DE9F0413C
:100E380082B0044690461D46089E099F194B0093B0
:100E48004FF08073EAB2FFF7E1FE3A46314620469A
:100E5800FFF784FFF8B9012D0ED123685FFA88F2F5
:100E68009A6200973346002280212046FFF7A6FFAA
:100E7800A8B902B0BDE8F08123684FEA18229A6247
:100E88003A4631462046FFF769FF30B923685FFAD2
:100E980088F29A62E5E70120EBE70120E9E7012003
:100EA800E7E700BF0020008070B504460D461646EF
:100EB80004E023689B6913F0200F12D023689B6914
:100EC80013F0200F1BD1324629462046FFF7BCFEFF
:100ED800B8B9FFF72FFD801BA842EAD8002DEDD145
:100EE800E7E7636C43F020036364202384F8413010
:100EF800002384F8423084F84030012000E00020CC
:100F080070BD0120FCE7002859D010B5044690F8C0
:100F18004130002B43D0242384F8413022681368E1
:100F280023F0010313606368226823F07063136180
:100F38002268936823F400439360E368012B33D05D
:100F4800A368226843F404439360E368022B31D01A
:100F58002268536843F0007343F4004353602268E7
:100F6800D36823F40043D360236962691343A169FA
:100F7800226843EA0123D360E369216A22680B43AC
:100F880013602268136843F0010313600020606453
:100F9800202384F84130206384F8420010BD80F893
:100FA8004030FFF77BF9B6E7A368226843F40043B3
:100FB8009360CAE723684FF400625A60C8E70120CB
:100FC800704700002DE9F04782B00F460A9E90F85E
:100FD8004110C9B2202940F0A380044690469946A2
:100FE80090F84030012B00F09F804FF0010A80F804
:100FF80040A0FFF79FFC05460090192352464FF486
:1010080000412046FFF7DAFE002840F08F802123B8
:1010180084F84130102384F8423000236364C4F814
:101028002480A4F82A906363638D9BB2FF2B0AD9AE
:10103800FF222285414B00934FF0807339462046AA
:10104800FFF7E4FD18E0628D92B222853B4B0093D6
:101058004FF00073D2B239462046FFF7D7FD0BE0B8
:10106800628D92B22285002300934FF00073D2B2B2
:1010780039462046FFF7CAFD638D9BB2002B33D05B
:101088002A4631462046FFF769FE002850D1626A99
:10109800236812789A62636A01336362638D9BB234
:1010A800013B9BB26385238D013B9BB22385628DF7
:1010B80092B2002AE0D0002BDED100953346002200
:1010C80080212046FFF77AFEA0BB638D9BB2FF2BE1
:1010D800C6D9FF222285002300934FF0807339463A
:1010E8002046FFF793FDC7E72A4631462046FFF71B
:1010F800DBFE08BB23682022DA6121684B6823F0F5
:10110800FF7323F48B3323F4FF7323F001034B6045
:1011180084F84120002384F8423084F8403000E00D
:10112800022002B0BDE8F0870220FAE70120F8E7C4
:101138000120F6E70120F4E70120F2E70020008013
:101148002DE9F04F83B00E46BDF834A00E9D90F8FF
:101158004110C9B2202940F0BB8004469046994608
:101168000C9BCBB1BAF1000F16D090F84030012B90
:1011780000F0B2804FF0010B80F840B0FFF7DAFBC7
:101188000746009019235A464FF400412046FFF7BE
:1011980015FE30B101209CE04FF400736364012018
:1011A80097E0212384F84130402384F8423000231B
:1011B80063640C9A6262A4F82AA06363019700959D
:1011C8004B46424631462046FFF730FE70B9638DE4
:1011D8009BB2FF2B0FD9FF222285002300934FF0EB
:1011E800807331462046FFF711FD21E0002384F883
:1011F800403058466DE0628D92B2228500230093FC
:101208004FF00073D2B231462046FFF7FFFC0FE0E3
:10121800628D92B22285002300934FF00073D2B200
:1012280031462046FFF7F2FC638D9BB2002B33D08A
:101238003A4629462046FFF791FD00284ED1626ABA
:10124800236812789A62636A01336362638D9BB282
:10125800013B9BB26385238D013B9BB22385628D45
:1012680092B2002AE0D0002BDED100972B46002254
:1012780080212046FFF7A2FD90BB638D9BB2FF2B18
:10128800C6D9FF222285002300934FF08073314690
:101298002046FFF7BBFCC7E73A4629462046FFF73A
:1012A80003FEF8B923682022DA6121684B6823F02D
:1012B800FF7323F48B3323F4FF7323F001034B6094
:1012C80084F84120002384F8423084F8403000E05C
:1012D800022003B0BDE8F08F0220FAE70120F8E70A
:1012E8000120F6E70120F4E790F84130DBB2202B2B
:1012F80024D190F84030012B22D0012380F84030CF
:10130800242380F841300268136823F00103136036
:101318000268136823F48053136002681368194342
:1013280011600268136843F001031360202380F8FA
:101338004130002380F8403018467047022070473B
:101348000220704790F84130DBB2202B22D190F870
:101358004030012B20D0012380F84030242380F82E
:1013680041300268136823F00103136002681368B0
:1013780023F4706343EA012111600268136843F0A3
:1013880001031360202380F84130002380F84030A7
:10139800184670470220704702207047002800F066
:1013A800018370B582B00446036813F0010F3BD087
:1013B800B54B5B6803F00C03042B1ED0B24B5B6883
:1013C80003F00C03082B13D06368B3F5803F68D093
:1013D800002B40F0928003F1804303F504331A6830
:1013E80022F480321A601A6822F480221A605DE0C2
:1013F800A54B5B6813F4803FE6D04FF4003393FAB3
:10140800A3F3A14B19684FF4003393FAA3F3B3FA8B
:1014180083F303F01F03012202FA03F30B4203D004
:101428006368002B00F0C082236813F0020F00F0FD
:10143800C580954B5B6813F00C0F00F09C80924BB5
:101448005B6803F00C03082B00F08F802369002BE6
:1014580000F0F280012292FAA2F3B3FA83F303F1C7
:10146800845303F584139B001A60FFF763FA05465B
:10147800022393FAA3F3844B1968022393FAA3F384
:10148800B3FA83F303F01F03012202FA03F30B42BA
:1014980040F0C380FFF74EFA401B0228E8D903202A
:1014A8008BE2794A136843F480331360764AD36A2F
:1014B80023F00F03A1680B43D3626368002B36D077
:1014C800FFF738FA05464FF4003393FAA3F36E4B4F
:1014D80019684FF4003393FAA3F3B3FA83F303F0D4
:1014E8001F03012202FA03F30B429DD1FFF722FAF0
:1014F800401B6428E7D903205FE2B3F5A02F09D089
:10150800614B1A6822F480321A601A6822F4802229
:101518001A60CBE703F18043A3F53C331A6842F421
:1015280080221A601A6842F480321A60BEE7FFF718
:1015380001FA05464FF4003393FAA3F3524B1968A6
:101548004FF4003393FAA3F3B3FA83F303F01F03C2
:10155800012202FA03F30B423FF466AFFFF7EAF900
:10156800401B6428E6D9032027E2474B5B6813F445
:10157800803F7FF46BAF022393FAA3F3424B1968C1
:10158800022393FAA3F3B3FA83F303F01F030122B0
:1015980002FA03F30B4203D02369934240F0068218
:1015A8003948036823F0F8036169F82292FAA2F235
:1015B800B2FA82F201FA02F213430360236813F0CD
:1015C800080F00F08D80A369002B61D0012191FAEA
:1015D800A1F2B2FA82F22D4B13449B001960FFF777
:1015E800A9F90546022393FAA3F293FAA3F293FA10
:1015F800A3F2254A516A93FAA3F3B3FA83F303F0EB
:101608001F03012202FA03F30B4269D1FFF792F993
:10161800401B0228E6D90320CFE11B48036823F0CA
:10162800F8036169F82292FAA2F2B2FA82F201FA98
:1016380002F213430360C1E7012393FAA3F3B3FA59
:1016480083F303F1845303F584139B0000221A608B
:10165800FFF770F90546022393FAA3F30A4B1968BA
:10166800022393FAA3F3B3FA83F303F01F030122CF
:1016780002FA03F30B42A1D0FFF75CF9401B0228E2
:10168800E9D9032099E100BF0010024020819010A1
:10169800012292FAA2F2B2FA82F2B74B13449B00EB
:1016A80000221A60FFF746F90546022393FAA3F2CF
:1016B80093FAA3F293FAA3F2B04A516A93FAA3F306
:1016C800B3FA83F303F01F03012202FA03F30B4278
:1016D80006D0FFF72FF9401B0228E6D903206CE15A
:1016E800236813F0040F00F0A980A44BDB6913F002
:1016F800805F20D1A14BDA6942F08052DA61DB6960
:1017080003F080530193019B01259D4B1B6813F443
:10171800807F12D0E368012B23D073BB03F1804391
:1017280003F504331A6A22F001021A621A6A22F0D7
:1017380004021A621AE00025E7E7914A136843F4A5
:1017480080731360FFF7F6F806468D4B1B6813F499
:10175800807FDFD1FFF7EEF8801B6428F5D90320DE
:101768002BE1864A136A43F001031362E368002BF6
:101778003CD0FFF7DFF806462BE0052B09D07F4B5E
:101788001A6A22F001021A621A6A22F004021A6224
:10179800ECE77A4B1A6A42F004021A621A6A42F0BB
:1017A80001021A62E2E7754B196A022393FAA3F35E
:1017B800B3FA83F303F01F03012202FA03F3194279
:1017C8003BD1FFF7B7F8801B41F28833984200F20B
:1017D800EF80022393FAA3F293FAA3F3002BE2D14A
:1017E800022393FAA3F3654B596ADEE7FFF7A2F8E1
:1017F800064615E0614B196A022393FAA3F3B3FA7C
:1018080083F303F01F03012202FA03F3194214D0F1
:10181800FFF790F8801B41F28833984200F2CA80A3
:10182800022393FAA3F293FAA3F3002BE2D1022343
:1018380093FAA3F3514B596ADEE7B5BBE369002B72
:1018480000F0BA804D4A526802F00C02082A00F0F3
:101858009980022B2FD04FF0807393FAA3F3B3FA39
:1018680083F303F1845303F584139B0000221A6069
:10187800FFF760F804464FF0007393FAA3F33F4B69
:1018880019684FF0007393FAA3F3B3FA83F303F0E4
:101898001F03012202FA03F319426BD0FFF74AF83B
:1018A800001B0228E7D9032087E0344AD36923F0D4
:1018B8008053D361C2E74FF0807393FAA3F3B3FA6E
:1018C80083F303F1845303F584139B0000221A6009
:1018D800FFF730F805464FF0007393FAA3F3274B50
:1018E80019684FF0007393FAA3F3B3FA83F303F084
:1018F8001F03012202FA03F3194206D0FFF71AF870
:10190800401B0228E7D9032057E01C494B6823F401
:101918007413626A206A024313434B604FF080736A
:1019280093FAA3F3B3FA83F303F1845303F584130F
:101938009B0001221A60FEF7FDFF04464FF000737A
:1019480093FAA3F30D4B19684FF0007393FAA3F3BE
:10195800B3FA83F303F01F03012202FA03F31942D7
:1019680006D1FEF7E7FF001B0228E7D9032024E091
:10197800002022E0002020E020819010001002408A
:1019880000700040012B1AD0104B5B6803F48031C3
:10199800226A914215D103F47013626A934212D1FC
:1019A80000200AE001207047012006E0012004E041
:1019B800032002E0032000E0002002B070BD0120F7
:1019C800FBE70120F9E70120F7E700BF001002401C
:1019D800164B5B6803F00C02082A01D014487047C4
:1019E80003F470114FF4701292FAA2F2B2FA82F272
:1019F80021FA02F20F49885C0C4AD26A02F00F02FF
:101A08000F2191FAA1F1B1FA81F1CA400A498A5C21
:101A180013F4803F05D0064BB3FBF2F303FB00F051
:101A28007047064B03FB00F0704700BF00100240F0
:101A380000127A004C3100085C31000800093D00B2
:101A4800002800F0BE8070B50D460446614B1B6847
:101A580003F007038B420BD25E4A136823F0070397
:101A68000B431360136803F007038B4240F0AB800D
:101A7800236813F0020F06D0574A536823F0F00387
:101A8800A1680B435360236813F0010F5AD06368B1
:101A9800012B2DD0022B40D0022292FAA2F24E4AFC
:101AA8001068022292FAA2F2B2FA82F202F01F023F
:101AB800012101FA02F2104200F0878046494A6883
:101AC80022F0030213434B60FEF734FF0646424BF5
:101AD8005B6803F00C036268B3EB820F32D0FEF749
:101AE80029FF801B41F288339842F0D9032067E030
:101AF8004FF4003292FAA2F2374A10684FF40032DB
:101B080092FAA2F2B2FA82F202F01F02012101FA5D
:101B180002F20242D2D1012052E04FF0007292FA52
:101B2800A2F22D4A10684FF0007292FAA2F2B2FAAD
:101B380082F202F01F02012101FA02F21042BDD125
:101B480001203DE0234B1B6803F00703AB420AD991
:101B5800204A136823F007032B431360136803F02C
:101B68000703AB4233D1236813F0040F06D01A4A97
:101B7800536823F4E063E1680B435360236813F070
:101B8800080F07D0144A536823F46053216943EAC5
:101B9800C1035360FFF71CFF0F4B5B6803F0F003B2
:101BA800F02292FAA2F2B2FA82F2D3400B4AD35C44
:101BB800D8400B4B18600B4B1868FEF777FE0020D7
:101BC80070BD012070470120FAE70120F8E70120E5
:101BD800F6E700BF00200240001002403431000840
:101BE8000800002010000020014B1868704700BF53
:101BF8000800002008B5FFF7F7FF074B5B6803F400
:101C0800E0634FF4E06292FAA2F2B2FA82F2D340B1
:101C1800024AD35CD84008BD001002404431000895
:101C280008B5FFF7E1FF074B5B6803F460534FF417
:101C3800605292FAA2F2B2FA82F2D340024AD35C1C
:101C4800D84008BD0010024044310008F0B583B008
:101C58000446036813F4803F44D05C4BDB6913F0FF
:101C6800805F6DD1594BDA6942F08052DA61DB69E5
:101C780003F080530193019B0125554B1B6813F416
:101C8800807F5FD0514B1B6A13F4407321D0626888
:101C980002F440729A421CD04C48016A21F4407602
:101CA8004FF4803393FAA3F2B2FA82F2494F3A44DE
:101CB80092004FF0010CC2F800C093FAA3F3B3FAF4
:101CC80083F33B449B0000221A60066211F0010F67
:101CD8004CD13E4A136A23F4407361680B43136284
:101CE800002D69D1236813F0010F06D0374A136B12
:101CF80023F00303A1680B431363236813F0200F39
:101D080006D0324A136B23F01003E1680B431363C8
:101D1800236813F0800F06D02C4AD36A23F4F87393
:101D280021690B43D362236813F4805F4BD0274AA1
:101D3800136B23F4807361690B431363002043E042
:101D480000259AE7224A136843F480731360FEF76C
:101D5800F1FD06461E4B1B6813F4807F92D1FEF7F7
:101D6800E9FD801B6428F5D903202DE0FEF7E2FD8C
:101D7800064614E0154B196A022393FAA3F3B3FA43
:101D880083F303F01F03012202FA03F30B42A0D1ED
:101D9800FEF7D0FD801B41F28833984211D8022308
:101DA80093FAA3F293FAA3F3002BE3D1022393FA55
:101DB800A3F3064B596ADFE7D36923F08053D36155
:101DC80090E7032000E0002003B0F0BD00100240BF
:101DD8000070004000819010026852E8003F23F430
:101DE800907342E800310029F6D1026802F1080335
:101DF80053E8003F23F00103083242E8003100298C
:101E0800F3D1036E012B06D02023C0F880300023C5
:101E1800036683667047026852E8003F23F01003A8
:101E280042E800310029F6D1EEE7000010B504467B
:101E380083680269134342691343C2691343016803
:101E480008684E4A024013430B602268536823F423
:101E58004053E1680B435360A269236A1A4321681F
:101E68008B6823F4306313438B602368444A93429E
:101E780014D0444A934227D002F5806293421FD07F
:101E88001023E069B0F5004F20D0082B70D8DFE8A8
:101E980003F04A60486F636F6F6F66003A4B1B6BC5
:101EA80003F00303032B09D8DFE803F00204060C50
:101EB8000023E6E70423E4E70823E2E71023E0E74A
:101EC8000023DEE70223DCE70023DAE7082B49D802
:101ED800DFE803F0051F2548224848480900FFF7B6
:101EE80089FE002840D06268530803EB4000B0FB2D
:101EF800F2F0A0F110024FF6EF739A4236D883B28F
:101F080023F00F03C0F3420018432368D860002071
:101F18001BE0FFF785FEE4E7FFF75AFDE1E71B4802
:101F2800E1E71A4802E0FFF765FE18B3636800EBC3
:101F38005300B0FBF3F0A0F110024FF6EF739A4292
:101F48001AD8236880B2D86000200023A366E3660D
:101F580010BDFFF765FEE8E7FFF73AFDE5E74FF448
:101F68000040E3E70120F0E70020EEE70120ECE77E
:101F78000120EAE70020E8E70120E6E7F369FFEF40
:101F880000380140004400400010024000127A006E
:101F9800436A13F0010F06D00268536823F4003334
:101FA800816A0B435360436A13F0020F06D002683C
:101FB800536823F48033C16A0B435360436A13F0B8
:101FC800040F06D00268536823F48023016B0B4387
:101FD8005360436A13F0080F06D00268536823F46D
:101FE8000043416B0B435360436A13F0100F06D054
:101FF8000268936823F48053816B0B439360436AB0
:1020080013F0200F06D00268936823F40053C16BC5
:102018000B439360436A13F0400F0AD00268536879
:1020280023F48013016C0B435360036CB3F5801FDA
:102038000BD0436A13F0800F06D00268536823F46C
:102048000023816C0B43536070470268536823F484
:10205800C003416C0B435360EBE72DE9F843054699
:102068000F4616469946DDF820802C68E46937EA61
:1020780004030CBF4FF0010C4FF0000CB44532D1F3
:10208800B8F1FF3FF1D0FEF755FCA0EB0900404541
:102098002CD8B8F1000F2BD02B681A6812F0040F57
:1020A800E3D0DA6912F0080F11D1DA6912F4006F7F
:1020B800DBD04FF400621A622846FFF78DFE20231A
:1020C800C5F88430002385F8783003200CE0082414
:1020D8001C622846FFF780FEC5F88440002385F877
:1020E8007830012000E00020BDE8F8830320FBE7FA
:1020F8000320F9E72DE9F04182B01E46C36F202B7B
:1021080056D104460D469046002955D00AB90120FB
:102118004FE00023C0F884302123C367FEF70AFC90
:102128000746A4F85080A4F85280A368B3F5805FEE
:1021380002D04FF0000818E0236913B14FF00008EF
:1021480013E0A846002510E02023E367032030E0D1
:1021580038F8023B2268C3F308031385B4F8522009
:1021680092B2013A92B2A4F85220B4F852309BB21B
:102178007BB100963B46002280212046FFF76DFF89
:102188000028E1D1002DE3D0236815F8012B1A852A
:10219800E4E700963B46002240212046FFF75DFF1A
:1021A80010B92023E36704E02023E367032000E05D
:1021B800022002B0BDE8F0810120FAE730B583B013
:1021C80004460023C0F88430FEF7B4FB05462268B5
:1021D800126812F0080F0FD123681B6813F0040F60
:1021E80026D12023E367C4F880300020206660668B
:1021F80084F8780003B030BD6FF07E430093034647
:1022080000224FF400112046FFF727FF0028E3D0F3
:10221800226852E8003F23F0800342E80031002999
:10222800F6D12023E367002384F878300320E1E720
:102238006FF07E4300932B4600224FF48001204626
:10224800FFF70BFF0028CCD0226852E8003F23F4A8
:10225800907342E800310029F6D1226802F10803A0
:1022680053E8003F23F00103083242E80031002917
:10227800F3D12023C4F88030002384F87830032079
:10228800B8E768B310B50446C36F03B32423E36704
:102298002268136823F0010313602046FFF7C6FD88
:1022A800012813D0636ABBB92268536823F49043AA
:1022B80053602268936823F02A03936022681368A6
:1022C80043F0010313602046FFF778FF10BD80F844
:1022D8007830FEF7B7FAD9E72046FFF759FEE3E76B
:1022E80001207047DFF834D0FEF786FA0C480D4914
:1022F8000D4A002302E0D458C4500433C4188C4259
:10230800F9D30A4A0A4C002301E013600432A242BE
:10231800FBD300F011F8FEF731F8FEE7003000209B
:10232800000000201800002080310008180000205C
:1023380020050020FEE7000070B50D4D0D4C641B14
:10234800A4100026A64209D10B4D0C4C00F020F831
:10235800641BA4100026A64205D170BD55F8043BA5
:1023680098470136EEE755F8043B98470136F2E7FF
:1023780070310008703100087031000874310008AD
:1023880002440346934200D1704703F8011BF9E762
:10239800F8B500BFF8BC08BC9E467047F8B500BF4A
:0823A800F8BC08BC9E4670471A
:1023B000000000000000000000000000000000001D
:1023C000000000000000000000000000000000000D
:1023D000000000000000000C000C000C000C000CC1
:1023E000000C000C000C000C000C000C0000000C99
:1023F000000C0000000000000000001B001B001B80
:10240000001B001B00000000000000000000000096
:102410000000000000000000000000000000801923
:10242000801980198019C07FC07F80190033C07F58
:10243000C07F003300330033003300000000000091
:102440000000001E003F807580650074003C001E87
:1024500000078005806580658075003F001E0004D0
:10246000000400000000007000D840D8C0D880D917
:1024700000730006000C801BC036C066C046C00654
:1024800080030000000000000000001E003F003339
:1024900000330033001E000CC03CC06680638061C6
:1024A0008063C03E801C0000000000000000000CA3
:1024B000000C000C000C000C0000000000000000EC
:1024C000000000000000000000000000000000000C
:1024D000800000010003000600060004000C000C50
:1024E000000C000C000C000C0004000600060003A9
:1024F00000018000002000100018000C000C0004F7
:102500000006000600060006000600060004000C97
:10251000000C0018001000200000000C002D003FEF
:10252000001E00330000000000000000000000005A
:10253000000000000000000000000000000000009B
:102540000000000C000C000C000CC0FFC0FF000CD1
:10255000000C000C000C0000000000000000000057
:10256000000000000000000000000000000000006B
:1025700000000000000000000000000C000C00043F
:10258000000400080000000000000000000000003F
:10259000000000000000001E001E000000000000FF
:1025A000000000000000000000000000000000002B
:1025B000000000000000000000000000000000001B
:1025C0000000000C000C00000000000000000003F0
:1025D000000300030006000600060006000C000CC5
:1025E000000C000C0018001800180000000000008B
:1025F0000000001E003F0033806180618061806DBB
:10260000806D8061806180610033003F001E0000AA
:102610000000000000000006000E001E003600262C
:10262000000600060006000600060006000600067A
:1026300000060000000000000000001E003F807344
:1026400080618061800100030006000C00180030EA
:102650000060807F807F0000000000000000001C00
:10266000003E006300630003000E000E00038001C3
:10267000800180618073003F001E000000000000A8
:1026800000000006000E000E001E001E00160036A0
:1026900000360066807F807F00060006000600008E
:1026A000000000000000007F007F0060006000600C
:1026B000006E007F80638001800180618073003F35
:1026C000001E0000000000000000001E003F8033DC
:1026D00080610060006E007F807380618061806136
:1026E0008033003F001E0000000000000000807FDB
:1026F000807F80010003000300060006000C000C30
:10270000000C00080018001800180000000000006D
:102710000000001E003F8063806180610021001E78
:10272000003F8061806180618061003F001E000089
:10273000000000000000001E003F00738061806107
:1027400080618073803F801D800180610073003F45
:10275000001E00000000000000000000000000005B
:102760000000000C000C0000000000000000000051
:102770000000000C000C0000000000000000000041
:102780000000000000000000000C000C0000000031
:10279000000000000000000C000C00040004000811
:1027A000000000000000000080008003000E0038E0
:1027B00000600038000E8003800000000000000070
:1027C0000000000000000000000000000000807F0A
:1027D000807F00000000807F807F000000000000FC
:1027E00000000000000000000000000000000000E9
:1027F00000400070001C000780010007001C0070F2
:102800000040000000000000000000000000001F69
:10281000803FC071C060C000C00180030007000E8F
:10282000000C000C0000000C000C00000000000078
:102830000000001E003F803180718063806F806DDA
:10284000806D806F806700600032003E001C0000D9
:10285000000000000000000E000E001B001B001B0B
:10286000001B80318031803F803F8031C060C0607C
:10287000C0600000000000000000007C007E0063DB
:10288000006300630063007E007E006380618061FE
:102890008063007F007E0000000000000000001E3A
:1028A000003F803180610060006000600060006077
:1028B000006080618031003F001E000000000000C9
:1028C0000000007C007F0063806380618061806124
:1028D00080618061806100630063007E007C000095
:1028E000000000000000807F807F006000600060CA
:1028F0000060007F007F0060006000600060807FFB
:10290000807F0000000000000000807F807F00606A
:10291000006000600060007F007F00600060006079
:102920000060006000600000000000000000001E69
:10293000003F8031806100600060006080638063E0
:10294000806180618031803F001E00000000000037
:102950000000806180618061806180618061807F32
:10296000807F806180618061806180618061000022
:10297000000000000000003F003F000C000C000CB5
:10298000000C000C000C000C000C000C000C003FB4
:10299000003F000000000000000080018001800175
:1029A000800180018001800180018001806180615F
:1029B0008073003F001E0000000000000000C060A7
:1029C0008061006300660066006C0078007C006631
:1029D0000066006380618061C0600000000000004C
:1029E0000000006000600060006000600060006047
:1029F00000600060006000600060807F807F0000F9
:102A0000000000000000C071C071C07BC07AC06AC5
:102A1000C06AC06EC064C060C060C060C060C0609A
:102A2000C0600000000000000000807180718079AB
:102A300080798079806D806D806D8065806780672A
:102A40008067806380630000000000000000001EBB
:102A5000003F0033806180618061806180618061BE
:102A6000806180610033003F001E00000000000014
:102A70000000007E007F80638061806180618063F0
:102A8000007F007E00600060006000600060000069
:102A9000000000000000001E003F003380618061E4
:102AA0008061806180618061806580670033803FE4
:102AB000401E0000000000000000007E007F8063D8
:102AC000806180618063007F007E00660063006338
:102AD00080618061C0600000000000000000000E06
:102AE000001F8031803100300038001E0007800355
:102AF000806180618031003F001E00000000000006
:102B00000000C0FFC0FF000C000C000C000C000C0B
:102B1000000C000C000C000C000C000C000C000061
:102B20000000000000008061806180618061806140
:102B30008061806180618061806180618073003F1D
:102B4000001E0000000000000000C060C060C06007
:102B5000803180318031001B001B001B001B000EE8
:102B6000000E000E00040000000000000000C0C0C5
:102B7000C0C0C0C0C0C0C0C0C0CC804C804C805E53
:102B800080528052807380618061000000000000EC
:102B90000000C0C0806080610033003B001E000C5C
:102BA000000C001E001F003B80718061C0C000004F
:102BB000000000000000C0C080618061003300336D
:102BC000001E001E000C000C000C000C000C000C81
:102BD000000C0000000000000000803F803F8001EA
:102BE000000300030006000C000C00180018003061
:102BF0000060807F807F000000000000000F000F59
:102C0000000C000C000C000C000C000C000C000C64
:102C1000000C000C000C000C000C000C000F000F4E
:102C20000000001800180018000C000C000C000C2C
:102C30000006000600060006000300030003000073
:102C400000000000001E001E000600060006000630
:102C50000006000600060006000600060006000644
:102C600000060006001E001E0000000C000C001EE6
:102C7000001200330033806180610000000000001A
:102C80000000000000000000000000000000000044
:102C90000000000000000000000000000000000034
:102CA000000000000000000000000000E0FF000045
:102CB000000000380018000C0000000000000000B8
:102CC0000000000000000000000000000000000004
:102CD0000000000000000000000000000000001FD5
:102CE000803F80618001801F803F80618063807FA2
:102CF000C0380000000000000000006000600060BC
:102D00000060006E007F80738061806180618061FF
:102D10008073007F006E00000000000000000000D3
:102D2000000000000000001E003F80738061006012
:102D3000006080618073003F001E00000000000002
:102D400000008001800180018001801D803F807330
:102D500080618061806180618073803F801D0000A0
:102D60000000000000000000000000000000001E45
:102D7000003F00738061807F807F00608071003F32
:102D8000001E0000000000000000C007C00F000C83
:102D9000000C807F807F000C000C000C000C000CED
:102DA000000C000C000C00000000000000000000FF
:102DB00000000000801D803F807380618061806121
:102DC00080618073803F801D80018063007F003EB2
:102DD00000000060006000600060006F807F807114
:102DE00080618061806180618061806180610000BC
:102DF0000000000000000006000600000000003E89
:102E0000003E00060006000600060006000600065A
:102E100000060000000000000006000600000000A0
:102E2000003E003E00060006000600060006000602
:102E30000006000600060046007E003C0000006020
:102E4000006000600060806100630066006C007CD0
:102E50000076006300638061C06000000000000035
:102E60000000003E003E00060006000600060006C8
:102E70000006000600060006000600060006000028
:102E8000000000000000000000000000000080DDE5
:102E9000C0FFC0CEC0CCC0CCC0CCC0CCC0CCC0CC9D
:102EA000C0CC000000000000000000000000000096
:102EB0000000006F807F807180618061806180612F
:102EC000806180618061000000000000000000005F
:102ED000000000000000001E003F807380618061E0
:102EE000806180618073003F001E000000000000D0
:102EF0000000000000000000006E007F8073806111
:102F00008061806180618073007F006E006000607E
:102F1000006000600000000000000000801D803F95
:102F2000807380618061806180618073803F801DDB
:102F3000800180018001800100000000000000008D
:102F400000000067803F0039003000300030003062
:102F500000300030003000000000000000000000E1
:102F6000000000000000001E803F80610060007FC4
:102F7000803F80018061007F001E00000000000093
:102F800000000000000800180018007F007F0018F3
:102F900000180018001800180018801F800F00008B
:102FA0000000000000000000000000000000806140
:102FB0008061806180618061806180618063807FE9
:102FC000803D000000000000000000000000000044
:102FD0000000C060803180318031001B001B001B6D
:102FE000000E000E000600000000000000000000BF
:102FF00000000000000080DD80DD80DD0055005510
:103000000055007700770022002200000000000039
:103010000000000000000000000080610033003369
:10302000001E000C000C001E003300338061000005
:1030300000000000000000000000000080618061CE
:10304000803100330033001B001B001B000E000EFC
:10305000000E001C007C007000000000000000005A
:103060000000C07FC07F800100030006000C001834
:103070000030C07FC07F0000000000008003800798
:1030800000060006000600060006000E001C001CDC
:10309000000E0006000600060006000680078003FA
:1030A00000060006000600060006000600060006F0
:1030B00000060006000600060006000600060006E0
:1030C000000600060038003C000C000C000C000C50
:1030D000000C000E00070007000E000C000C000C96
:1030E000000C000C003C0038000000000000000054
:1030F0000000000000008038807F004700000000D2
:103100000000000000000000000000007373643144
:1031100033303600656D626565746C6500000000D3
:103120004572726F72210D0A000000004F4B210D95
:103130000A0000000000000000000000010203047B
:103140000607080900000000010203040203040549
:10315000060708090A0B0C0D0E0F101001020304DC
:1031600005060708090A0B0C0D0E0F1000000000E1
:08317000AD01000800000000A1
:083178008901000800000000BD
:103180000B120000B023000800127A0001000000BA
:08319000100000000000000027
:04000005080022EDE0
:00000001FF
