:020000040800F2
:1000000090160020C1100008F9030008FB03000847
:10001000FF030008030400080704000800000000B4
:100020000000000000000000000000000B040008B9
:100030000D040008000000000F040008110400086F
:10004000DB100008DB100008DB100008DB100008E4
:10005000DB100008DB100008DB100008DB100008D4
:10006000DB100008DB100008DB100008DB100008C4
:10007000DB100008DB100008DB100008DB100008B4
:10008000DB100008DB100008DB100008DB100008A4
:10009000DB100008DB100008DB100008DB10000894
:1000A000DB100008DB100008DB100008DB10000884
:1000B000DB100008DB100008DB100008DB10000874
:1000C000DB100008DB100008DB100008DB10000864
:1000D000DB100008DB100008DB100008DB10000854
:1000E000DB100008DB100008DB100008DB10000844
:1000F000DB100008DB100008DB100008DB10000834
:10010000DB100008DB100008DB100008DB10000823
:10011000DB100008DB100008DB100008DB10000813
:10012000DB100008DB100008DB100008DB10000803
:1001300000F002F800F03CF80AA090E8000C8244BD
:100140008344AAF10107DA4501D100F031F8AFF29A
:10015000090EBAE80F0013F0010F18BFFB1A43F0A5
:100160000103184784270000A4270000103A24BF89
:1001700078C878C1FAD8520724BF30C830C144BF0C
:1001800004680C607047000000230024002500264E
:10019000103A28BF78C1FBD8520728BF30C148BFEA
:1001A0000B6070471FB502F082F81FBD10B510BD7F
:1001B00002F043F81146FFF7F5FF00F009F802F0EE
:1001C00061F803B4FFF7F2FF03BC02F069F8000026
:1001D00088B000F095FF01F075FB01F0DDFD01F046
:1001E00021F901F019FC002001F04FF84FF6FF70E3
:1001F00001F0F0FD19E04FF6FF701F234BA296218E
:100200000090142001F055FF4FF4FA7000F0AFFF9A
:100210004FF6FF701F234AA2B4210090142001F072
:1002200048FF4FF4FA7000F0A2FF01F059FCA0F56E
:100230006F411439DFD14FF478404FF6FF7345A278
:10024000142100903C2001F034FF4FF6FF70002392
:1002500044A23C210090322001F02BFF4FF6FF70AA
:10026000002345A250210090322001F022FF5CE0E3
:100270000421464800F011FB10BB962000F077FFE8
:100280000421424800F009FBD0B94FF6FF7001F09D
:10029000A1FD4FF6FF701F233DA23C2100901420CA
:1002A00001F007FF1A2264213F4801F0DFFC4FF6FE
:1002B000FF701F233DA23C210090142001F0F9FEA5
:1002C0000121404800F0E9FA01282ED1962000F0E3
:1002D0004EFF01213B4800F0E0FA012825D14FF6FE
:1002E000FF7001F077FD4FF6FF704FF4784336A2B0
:1002F0003C210090142001F0DCFE1A22642101A8A8
:1003000001F011FC4FF6FF704FF4784334A23C210A
:100310000090142001F0CDFE4FF6FF701F2301AABC
:100320004C2100900A2001F0C4FEA1E7323558317B
:100330003620436865636B204661696C6564210003
:10034000506C6561736520436865636B21202020D4
:10035000202020005350492D323558313620544545
:1003600053540000533320666F722073617665200A
:100370004441544100000000533420666F722072E3
:1003800065616420444154410000000000140140B4
:1003900053746172742057726974652057323558EE
:1003A00031362E2E2E2E0000BC2200085732355832
:1003B00031362057726974652046696E69736865C5
:1003C000642100000008014053746172742052657A
:1003D0006164205732355831362E2E2E2E200000E3
:1003E00054686520446174612052656164656420CD
:1003F00049733A2020000000704700BFFEE700BFAD
:10040000FEE700BFFEE700BFFEE77047704770479A
:100410007047000000210020674A126842F48032D1
:10042000654B1A6000BF644A126802F40030491C30
:1004300010B9B1F5A06FF6D15F4A126812F4003F0F
:1004400001D0012000E00020012842D15B4A12685F
:1004500042F01002594B1A601A46126822F0030249
:100460001A601A46126842F002021A60524A526832
:10047000514B5A601A4652685A601A46526842F402
:1004800080625A601A46526822F47C125A601A46F8
:10049000526842F4E8125A601A46126842F08072BA
:1004A0001A6000BF444A126812F0007FFAD0424A34
:1004B000526822F00302404B5A601A46526842F0DA
:1004C00002025A6000BF3C4A526802F00C02082A3D
:1004D000F9D1704710B5FFF79DFF10BD10B5364834
:1004E000006840F00100344908600846406834491B
:1004F00008403149486008460068324908402E49A2
:1005000008600846006820F48020086008464068BB
:1005100020F4FE0048604FF41F008860FFF7DAFF08
:100520004FF000602849086010BD10B50021002080
:100530000022214B5B6803F00C0121B1042906D095
:10054000082928D107E0214B214C236027E01F4BCD
:100550001F4C236023E0184B5B6803F47010164BAC
:100560005B6803F48032022303EB904022B9194BFD
:100570004343174C23600DE00F4B5B6813F4003FBF
:1005800004D0144B4343124C236003E00F4B43430E
:100590000F4C236003E00D4B0D4C236000BF00BFE8
:1005A000054B5B68C3F303130B4CE15C084B1B6802
:1005B000CB40074C236010BD0010024000200240D9
:1005C0000000FFF8FFFFF6FE08ED00E000127A00E1
:1005D0000000002000093D000400002031490143D3
:1005E000314A1160704770B5002100230F22C47892
:1005F0000CB32D4C246804F4E064C4F5E064210AD3
:10060000C1F10403CA40447804FA03F18478144029
:1006100021430901254C0678A155047804F01F05F3
:100620000124AC4005786D114FF0E02606EB8505FE
:10063000C5F8004109E0047804F01F050124AC402E
:100640001B4D0678761145F8264070BD194A0A40C0
:100650000243154B1B1F1A60704739B1124A121D15
:1006600012680243104B1B1D1A6006E00E4A121D51
:10067000126882430C4B1B1D1A607047042808D176
:100680004FF0E021096941F004014FF0E0221161CF
:1006900007E04FF0E021096921F004014FF0E0226A
:1006A000116170470000FA050CED00E000E400E085
:1006B00080E100E080FFFF1F10B50446CA48844275
:1006C00008D10121042000F025FB0021042000F0C6
:1006D00021FB46E0C548844208D10121082000F0F2
:1006E00019FB0021082000F015FB3AE0C0488442C5
:1006F00008D10121102000F00DFB0021102000F096
:1007000009FB2EE0BB48844208D10121202000F0E3
:1007100001FB0021202000F0FDFA22E0B6488442CF
:1007200008D10121402000F0F5FA0021402000F01E
:10073000F1FA16E0B148844208D10121802000F08E
:10074000E9FA0021802000F0E5FA0AE0AC48844292
:1007500007D10121801500F0DDFA0021A01500F07D
:10076000D9FA10BD10B50121084600F0D3FA0021D6
:10077000012000F0CFFA10BD2DE9F041024600251E
:100780000026002000230024002791F803C00CF06D
:100790000F0591F803C01CF0100F03D091F802C0B0
:1007A0004CEA0505B1F800C01CF0FF0F31D0146809
:1007B00000202BE04FF0010C0CFA00F3B1F800C060
:1007C0000CEA03069E4220D183004FF00F0C0CFA76
:1007D00003F7BC4305FA03FC4CEA040491F803C098
:1007E000BCF1280F06D14FF0010C0CFA00FCC2F846
:1007F00014C00AE091F803C0BCF1480F05D14FF0D6
:10080000010C0CFA00FCC2F810C0401C0828D1D31F
:100810001460B1F800C0BCF1FF0F34DD5468002053
:100820002EE000F1080C4FF0010808FA0CF3B1F8C3
:1008300000C00CEA03069E4221D183004FF00F0C4A
:100840000CFA03F7BC4305FA03FC4CEA040491F8E4
:1008500003C0BCF1280F05D100F1080C08FA0CF810
:10086000C2F8148091F803C0BCF1480F07D100F121
:10087000080C4FF0010808FA0CF8C2F81080401C70
:100880000828CED35460BDE8F0814FF6FF71018097
:10089000022181700421C1707047024600209368D4
:1008A0000B4201D0012000E000207047014688681B
:1008B00080B2704702460020D3680B4201D001206D
:1008C00000E0002070470146C86880B270470161AF
:1008D0007047416170470AB1016100E041617047B2
:1008E000C16070474FF480320A4382618161826146
:1008F00082698269704702460020424B18684FF6B1
:100900008073184040EA021008433E4B186070475D
:100910003D49C8617047F0B50A4600230024002114
:10092000002500F00046B6F1004F02D1354EF169C6
:1009300001E0344E7168C0F3034583B200F4401601
:10094000B6F5401F08D121F070612E4E766826F072
:1009500070662C4F7E6012E000F48016B6F5801FA2
:1009600006D1032606FA05F4A14341F0706106E0C2
:10097000460D360103FA06F6B14341F0706122B12B
:10098000460D360103FA06F6314300F00046B6F193
:10099000004F02D11B4EF16101E01A4E7160F0BDB3
:1009A00030B500228B071C0F0F2303FA04F2154BFE
:1009B00008338C1053F824309343124C08348D10B4
:1009C00044F8253023468C1053F824308C07240F2C
:1009D00000FA04F423430B4C08348D1044F82530FE
:1009E00030BD0A490860704700080140000C014012
:1009F000001001400014014000180140001C01409B
:100A0000002001400000014000002042DC002042A4
:100A1000DC48006840F00100DA4908600846406898
:100A2000D9490840D749486008460068D749084076
:100A3000D44908600846006820F480200860084611
:100A4000406820F4FE0048604FF41F008860704743
:100A5000CC49096821F48031CA4A116011460968FD
:100A600021F480211160B0F5803F03D0B0F5802FD4
:100A70000ED106E0C349096841F48031C14A1160D2
:100A800007E0C049096841F4A021BE4A116000E0B6
:100A900000BF00BF704710B50146002200230020B0
:100AA0004A11012A02D1B74C236806E0022A02D17A
:100AB000B44C236A01E0B34C636A01F01F020124C5
:100AC00094401C4201D0012000E0002010BD70B510
:100AD00000240025002600BF3120FFF7DCFF06467A
:100AE000641CB4F5A06F01D0002EF5D03120FFF7C3
:100AF000D2FF08B1012500E00025284670BD01465F
:100B00000020A04A106820F0F80040EAC100106000
:100B100070479F490860704702460020994B58680B
:100B200020F47C1042EA01031843964B586070474A
:100B300097490866704701460020924A506820F0A5
:100B400003000843506070478E48406800F00C0076
:100B50007047014600208B4A506820F0F00008439F
:100B60005060704701460020864A506820F4E060DB
:100B700008435060704701460020824A506820F4C4
:100B8000605040EAC1005060704729B17D4A527AF6
:100B900002437C4B5A7206E07A4A527AC343DBB274
:100BA0001A40784B5A7270477A490860704701467C
:100BB0000020744A506820F4404008435060704759
:100BC0000021754A11706F4A82F82010012802D066
:100BD000042808D103E001216F4A117004E00521C7
:100BE0006D4A117000E000BF00BF70476B4908609C
:100BF00070476449096A0143624A11627047674954
:100C000044390860704730B50021002200240023D9
:100C10005C4D6D6805F00C0121B1042905D008294F
:100C200023D105E05E4D056022E05D4D05601FE0CB
:100C3000544D6D6805F47012524D6D6805F48034A2
:100C4000022505EB92421CB9564D554305600BE059
:100C50004C4D6D6815F4003F03D0524D554305606F
:100C600002E04F4D5543056002E04D4D056000BF69
:100C700000BF444D6D6805F0F00109094A4D6B5CF9
:100C80000568DD4045603F4D6D6805F4E061090A87
:100C9000454D6B5C4568DD4085603A4D6D6805F4F7
:100CA0006051C90A404D6B5C4568DD40C560354DFB
:100CB0006D6805F44041890B3C4D6B5CC568B5FB24
:100CC000F3F5056130BD29B12E4A526902432D4B1F
:100CD0005A6104E02B4A526982432A4B5A61704799
:100CE00029B1284A92690243264B9A6104E0254AB9
:100CF00092698243234B9A61704729B1214AD26994
:100D00000243204BDA6104E01E4AD26982431D4B44
:100D1000DA61704729B11B4AD2680243194BDA6085
:100D200004E0184AD2688243164BDA60704729B152
:100D3000144A12690243134B1A6104E0114A126902
:100D40008243104B1A61704714494039086070475C
:100D50000F49C86470470B49C87170470948406A19
:100D600040F0807007494862704701460020054AFC
:100D700092680A4201D0012000E00020704701493A
:100D800088727047001002400000FFF8FFFFF6FE77
:100D900000004242D80042422010024080044242F9
:100DA00000127A0000093D001400002024000020F9
:100DB00010B50446BF48844208D101218014FFF7D2
:100DC000A9FF0021A014FFF7A5FF16E0BA4884424E
:100DD00008D101210014FFF7AAFF00212014FFF71A
:100DE000A6FF0AE0B548844207D10121C013FFF7EE
:100DF0009EFF0021E013FFF79AFF10BD10B50022FF
:100E0000028802F441520B884C8823438C88234388
:100E1000CC8823430C8923434C8923438C89234367
:100E2000CC8923431A430280838B4FF2FF74234003
:100E300083830B8A038210BD2DE9F04F85B00546F0
:100E40000C464FF0000902274FF000084FF0010B4D
:100E50000026B246A88B4FF240010840A88302202A
:100E60002884B5F81C90A068022801D100BF36E0A4
:100E7000A08810B94FF0010B01E04FF0020B8E4833
:100E8000854200D100E000BF6846FFF7BCFEDDF8F8
:100E900000A0E088B0F5007F0AD14FEA1A2000EBED
:100EA00080004000A168B0FBF1F0401D86B20BE06D
:100EB0004FEA4B10BAFBF0F000EB80004000A16855
:100EC000B0FBF1F0401D86B20A20B6FBF0F606F04A
:100ED0000108A6EB0800C0F34F074FEA0828022FCD
:100EE00001DBFF2F02DD02274FF00008E08840EA17
:100EF000080038432884A088A189084361880843F2
:100F00002188084340F4006040EA0909A5F81C90D4
:100F100005B0BDE8F08F0021018041808180C18053
:100F2000018141818181C1810721018270470021B6
:100F3000018041808180C180022181600021818106
:100F4000704721B1028842F04002028004E002882A
:100F50004FF6BF731A400280704721B1828B42F472
:100F60008062828304E0828B4FF6FF331A408283D3
:100F7000704770B5002400230C110125A540ABB2C9
:100F80001AB185881D43858004E08588DE43B6B2AA
:100F90003540858070BD10B51AB183880B438380BE
:100FA00004E08388CC43A4B22340838010BD8181B8
:100FB0007047014688897047A1F57E42FF3A04D008
:100FC000028842F48072028004E002884FF6FF63D8
:100FD0001A400280704721B1828842F00402828068
:100FE00004E082884FF6FB731A40828070470288C3
:100FF0004FF2FF731A40028002880A430280704752
:10100000018841F480510180704721B1028842F487
:101010000052028004E002884DF6FF731A400280FD
:10102000704702460020012901D0108B00E0908A11
:1010300070470146088A7047B1F5804F04D1028895
:1010400042F48042028004E002884BF6FF731A40AB
:10105000028070470246002013890B4201D0012014
:1010600000E000207047CA4302817047F0B5024695
:10107000002000240023002501F00F070126BE40B8
:10108000B4B20B1101269E40B3B2968806EA03055E
:101090001689264202D00DB1012000E00020F0BDEB
:1010A00010B5002201F00F040123A3409AB2D343EC
:1010B000038110BD0030014000380040003C00407A
:1010C0000948804709480047FEE7FEE7FEE7FEE7DC
:1010D000FEE7FEE7FEE7FEE7FEE7FEE70448054918
:1010E000054A064B70470000DD0400083101000886
:1010F00090100020901600209012002090120020E6
:1011000010B56FF00400FFF7B9FA2A4800682A49C1
:10111000B0FBF1F029490870084600784FF47A7165
:1011200048432749088010BD0146244A12784A43A3
:101130004FF0E0235A6100229A611A46126942F088
:1011400001021A6100BF4FF0E022106910F0010F98
:1011500002D010F4803FF6D04FF0E022126922F066
:1011600001024FF0E0231A6100229A6170470146A4
:10117000134A12884A434FF0E0235A6100229A61D1
:101180001A46126942F001021A6100BF4FF0E022D4
:10119000106910F0010F02D010F4803FF6D04FF02C
:1011A000E022126922F001024FF0E0231A610022CE
:1011B0009A6170470000002000127A002800002089
:1011C0002A00002008B501210846FFF789FD01210A
:1011D000FE48FFF7A0FB01211C20FFF781FD4FF621
:1011E000FF70ADF8000010208DF8030003208DF88B
:1011F00002006946F648FFF7BFFA4FF4E060ADF829
:1012000000006946F348FFF7B7FA4FF40040ADF825
:1012100000006946F048FFF7AFFA08BD012806D183
:10122000EC49096941F40071EA4A116106E028B904
:10123000E849496941F40071E64A51617047012863
:1012400006D1E449096941F48061E24A116106E08E
:1012500028B9E049496941F48061DE4A516170472B
:10126000012808D1DC491031096841F40041DA4A0B
:101270001032116008E038B9D7491431096841F4D7
:101280000041D54A143211607047012806D1D14976
:10129000096941F48071CF4A116106E028B9CD494E
:1012A000496941F48071CB4A516170474FF6FF7133
:1012B000C74A14321160111F0860704700B5034619
:1012C0000020FFF7ABFF1846FFF7F0FF0020FFF705
:1012D000B6FF0120FFF7B3FF00BD00B503460120B4
:1012E000FFF79CFF1846FFF7E1FF0020FFF7A7FF7D
:1012F0000120FFF7A4FF00BD30B505460C46284687
:10130000FFF7DCFF2046FFF7E8FF30BD70B504466D
:101310002046FFF7D3FF4FF08830AD490860091D24
:1013200008604FF6FF70AA490C3108600120FFF7F2
:1013300075FF0020FFF794FF0520FFF7F5FE012061
:10134000FFF78EFFA2480830006885B24FF03330B7
:101350009F490860091D08604FF6FF709C490C31D9
:101360000860284670BD2DE9F04307460C46154637
:101370001E46DDE9078999480088A0F510516D39AE
:1013800027D15020FFF79AFF3846FFF7A6FF5120DC
:10139000FFF794FF2846FFF7A0FF5220FFF78EFFCC
:1013A0002046FFF79AFF5320FFF788FF3046FFF7EC
:1013B00094FF2020FFF782FF4046FFF78EFF212099
:1013C000FFF77CFF4846FFF788FF2220FFF776FFF4
:1013D00026E082480088A0F510517D3920D12A20CE
:1013E000FFF76CFF3812FFF778FFF8B2FFF775FFD1
:1013F0002812FFF772FFE8B2FFF76FFF2B20FFF70D
:101400005DFF2012FFF769FFE0B2FFF766FF3012C1
:10141000FFF763FFF0B2FFF760FF2C20FFF74EFFEE
:10142000BDE8F08310B5FFF7CDFE0120FFF72DFFDB
:101430000120FFF715FF0120FFF701FF0520FFF74F
:1014400096FE0020FFF721FF3220FFF790FE0121DA
:101450000020FFF751FF3220FFF789FE0020FFF741
:1014600055FF5E49088008460088A0F513412539DC
:1014700011D05A480088A0F5134128390BD057489D
:101480000088A0F513413D3905D054480088A0F5E7
:10149000134120397DD142F26D40504908804FF40C
:1014A00080710120FFF728FF4FF4E0610220FFF771
:1014B00023FF41F230010320FFF71EFF002104202B
:1014C000FFF71AFF40F202210820FFF715FF002165
:1014D0000920FFF711FF00210A20FFF70DFF00216F
:1014E0000C20FFF709FF00210D20FFF705FF002169
:1014F0000F20FFF701FF00211020FFF7FDFE07215D
:101500001120FFF7F9FE00211220FFF7F5FE002160
:101510001320FFF7F1FE01210720FFF7EDFE322037
:10152000FFF725FE41F290611020FFF7E5FE40F243
:1015300027211120FFF7E0FE3220FFF718FE9D2142
:101540001220FFF7D9FE3220FFF711FE4FF4C851E9
:101550001320FFF7D1FE3220FFF709FE25212920B5
:10156000FFF7CAFE0D212B20FFF7C6FE3220FFF742
:10157000FEFD00212020FFF7BFFE00212120FFF704
:10158000BBFE3220FFF7F3FD07213020FFF7B4FE4A
:1015900000E07CE040F203313120FFF7ADFE032193
:1015A0003220FFF7A9FE40F206213520FFF7A4FE06
:1015B00008213620FFF7A0FE40F206413720FFF752
:1015C0009BFE4FF4417138200AE000000002300019
:1015D000000C014000100140000801402C000020D8
:1015E000FFF78AFE07213920FFF786FE40F20161EE
:1015F0003C20FFF781FE08213D20FFF77DFE002102
:101600005020FFF779FEEF215120FFF775FE0021F2
:101610005220FFF771FE40F23F115320FFF76CFE9E
:101620004FF427416020FFF767FE01216120FFF79B
:1016300063FE00216A20FFF75FFE00218020FFF794
:101640005BFE00218120FFF757FE00218220FFF77B
:1016500053FE00218320FFF74FFE00218420FFF777
:101660004BFE00218520FFF747FE10219020FFF759
:1016700043FE4FF4C0619220FFF73EFE40F233116B
:101680000720FFF739FE2220FFF718FE17E142F28C
:101690007D408B490880CF20FFF710FE0020FFF728
:1016A0001CFEC120FFF719FE3020FFF716FEED20CB
:1016B000FFF704FE6420FFF710FE0320FFF70DFE86
:1016C0001220FFF70AFE8120FFF707FEE820FFF750
:1016D000F5FD8520FFF701FE1020FFF7FEFD7A20C3
:1016E000FFF7FBFDCB20FFF7E9FD3920FFF7F5FD04
:1016F0002C20FFF7F2FD0020FFF7EFFD3420FFF76D
:10170000ECFD0220FFF7E9FDF720FFF7D7FD2020D1
:10171000FFF7E3FDEA20FFF7D1FD0020FFF7DDFD35
:101720000020FFF7DAFDC020FFF7C8FD1B20FFF700
:10173000D4FDC120FFF7C2FD0120FFF7CEFDC5207B
:10174000FFF7BCFD3020FFF7C8FD3020FFF7C5FDD7
:10175000C720FFF7B3FDB720FFF7BFFD3620FFF727
:10176000ADFD0820FFF7B9FD3A20FFF7A7FD552092
:10177000FFF7B3FDB120FFF7A1FD0020FFF7ADFD9E
:101780001A20FFF7AAFDB620FFF798FD0A20FFF701
:10179000A4FDA220FFF7A1FDF220FFF78FFD00209E
:1017A000FFF79BFD2620FFF789FD0120FFF795FD40
:1017B000E020FFF783FD0F20FFF78FFD2A20FFF7C2
:1017C0008CFD2820FFF789FD0820FFF786FD0E20FD
:1017D000FFF783FD0820FFF780FD5420FFF77DFD14
:1017E000A920FFF77AFD4320FFF777FD0A20FFF7D6
:1017F00074FD0F20FFF771FD0020FFF76EFD002044
:10180000FFF76BFD0020FFF768FD0020FFF765FD87
:10181000E120FFF753FD0020FFF75FFD1520FFF7E4
:101820005CFD1720FFF759FD0720FFF756FD11203B
:10183000FFF753FD0620FFF750FD2B20FFF74DFD6E
:101840005620FFF74AFD3C20FFF747FD0520FFF734
:1018500044FD1020FFF741FD0F20FFF73EFD3F2024
:10186000FFF73BFD3F20FFF738FD0F20FFF735FD69
:101870002B20FFF723FD0020FFF72FFD0020FFF7AF
:101880002CFD0120FFF729FD3F20FFF726FD2A2030
:10189000FFF714FD0020FFF720FD0020FFF71DFDDE
:1018A0000020FFF71AFDEF20FFF717FD1120FFF7CB
:1018B00005FD7820FFF75BFC2920FFF7FFFC10BD3A
:1018C0002C00002008B501210420FFF709FA0220AE
:1018D000ADF8000010208DF8030003208DF8020001
:1018E00069460B48FEF748FF02210948FEF7EFFF63
:1018F00008BD10B50446012C04D102210448FEF7AE
:10190000E8FF03E002210248FEF7E1FF10BD0000FE
:101910000008014070B50546002405E0601CC4B213
:10192000C82C01DD002070BD02213948FFF792FB71
:101930000028F3D029463648FFF739FB002405E09C
:10194000601CC4B2C82C01DD0020ECE70121304846
:10195000FFF780FB0028F3D02D48FFF72AFBC0B229
:10196000E1E700B587B001210420FFF7B9F90121B3
:101970000803FFF7B5F9E020ADF8180018208DF83E
:101980001B0003208DF81A0006A92248FEF7F4FE7A
:10199000E0212048FEF79BFF0020ADF804004FF443
:1019A0008270ADF806000020ADF808000220ADF806
:1019B0000A000120ADF80C004002ADF80E003820FE
:1019C000ADF810000020ADF812000720ADF81400AB
:1019D00001A90F48FFF712FA01210D48FFF7B1FAEC
:1019E000FF20FFF797FF07B000BD10B50446084879
:1019F00000884FF6C77108400549088008460088EE
:101A00002043088001210248FFF79BFA10BD000027
:101A1000003001400008014008B501211020FFF707
:101A20005FF94FF40050ADF8000010208DF803006E
:101A300003208DF802006946D548FEF79DFE4FF45D
:101A40000051D348FEF743FFFFF78BFF0020FFF75D
:101A5000CCFF08BD10B500244FF40051CC48FEF770
:101A600038FF0520FFF756FFFF20FFF753FF04461E
:101A70004FF40051C648FEF72AFF204610BD10B5AE
:101A800004464FF40051C248FEF723FF0120FFF740
:101A900041FF2046FFF73EFF4FF40051BC48FEF7E0
:101AA00016FF10BD10B54FF40051B948FEF711FFF5
:101AB0000620FFF72FFF4FF40051B548FEF707FF50
:101AC00010BD10B54FF40051B148FEF702FF0420DD
:101AD000FFF720FF4FF40051AD48FEF7F8FE10BDB0
:101AE00010B500244FF40051A948FEF7F2FE9020F3
:101AF000FFF710FF0020FFF70DFF0020FFF70AFFA0
:101B00000020FFF707FFFF20FFF704FF44EA00244F
:101B1000FF20FFF7FFFE04434FF400519C48FEF7FF
:101B2000D6FE204610BD2DE9F04106460C4617466C
:101B30004FF400519648FEF7CCFE0320FFF7EAFE73
:101B4000C4F30740FFF7E6FEC4F30720FFF7E2FE09
:101B5000E0B2FFF7DFFE002505E0FF20FFF7DAFE29
:101B60007055681C85B2BD42F7DB4FF400518848C0
:101B7000FEF7ADFEBDE8F08110B500BFFFF76AFFCC
:101B800000F001000128F9D010BD2DE9F041064612
:101B90000C461746FFF786FF4FF400517C48FEF7CE
:101BA00098FE0220FFF7B6FEC4F30740FFF7B2FE2F
:101BB000C4F30720FFF7AEFEE0B2FFF7ABFE00254F
:101BC00004E0705DFFF7A6FE681C85B2BD42F8DB3D
:101BD0004FF400516E48FEF77AFEFFF7CDFFBDE8E7
:101BE000F0812DE9F04107460E461446F0B2C0F5EB
:101BF0008075AC4200DC254612E02A463146384664
:101C0000FFF7C3FFAC4200D10BE02F442E44601B12
:101C100084B2B4F5807F02DD4FF4807500E0254684
:101C2000EBE700BFBDE8F08110B504462403FFF7E1
:101C300039FFFFF7A1FF4FF400515548FEF749FE69
:101C40002020FFF767FEC4F30740FFF763FEC4F3ED
:101C50000720FFF75FFEE0B2FFF75CFE4FF4005194
:101C60004B48FEF734FEFFF787FF10BD2DE9F04724
:101C700081460F4616464FEA1738C7F30B0ACAF5D6
:101C80008054A64200DC344644E04FEA08314FF469
:101C900080524048FFF747FF002508E00AEB0500A7
:101CA0003C49085CFF2800D003E0681C85B2A542CF
:101CB000F4DB00BFA54216DA4046FFF7B5FF00256A
:101CC00007E019F8050005EB0A01324A5054681C78
:101CD00085B2A542F5DB4FEA08314FF480522D481A
:101CE000FFF77FFF04E0224639464846FFF779FFB9
:101CF000A64200D10FE008F101084FF0000AA1440C
:101D00002744301B86B2B6F5805F02DD4FF4805465
:101D100000E03446B9E700BFBDE8F08710B5FFF733
:101D2000C1FEFFF729FF4FF400511948FEF7D1FD1E
:101D3000C720FFF7EFFD4FF400511548FEF7C7FD30
:101D4000FFF71AFF10BD10B54FF400511048FEF711
:101D5000C0FDB920FFF7DEFD4FF400510C48FEF73F
:101D6000B6FD0320FFF7E0F910BD10B54FF40051A8
:101D70000748FEF7AEFDAB20FFF7CCFD4FF4005156
:101D80000348FEF7A4FD0320FFF7CEF910BD0000C5
:101D9000001001403000002008B501212420FEF78A
:101DA0009FFF0420ADF8000048208DF8030069462D
:101DB0000648FEF7E1FC0120ADF8000028208DF870
:101DC000030069460248FEF7D7FC08BD0014014035
:101DD000000801407CB506460020009040F23F1309
:101DE000EF2201460190FFF7BEFA00240AE0002529
:101DF00004E03046FFF771FA681CC5B2F02DF8DB3D
:101E0000601C84B2B4F5A07FF1DB7CBD7CB50446D8
:101E10000D4616462B46224629462046CDE900456A
:101E2000FFF7A1FA3046FFF758FA7CBD2DE9F041E3
:101E300004460D4616461F46DDF81880EA1B91B28F
:101E4000A219D0B24246FFF7E1FFAA1B91B2E219F4
:101E5000D0B24246FFF7DAFFAA1991B2E219D0B226
:101E60004246FFF7D3FFEA1991B2A219D0B2424617
:101E7000FFF7CCFFEA1991B2A21BD0B24246FFF79E
:101E8000C5FFAA1991B2E21BD0B24246FFF7BEFFCE
:101E9000AA1B91B2E21BD0B24246FFF7B7FFEA1B82
:101EA00091B2A21BD0B24246FFF7B0FFBDE8F0816D
:101EB0002DE9FF4F81B0824616461F46DDF838B047
:101EC000002435460320A0EB460924E0BBF1000FB7
:101ED0000DD0A04608E0434622460097504602999E
:101EE000FFF7A4FF08F10108A845F4DD06E02B4642
:101EF0002246009750460299FFF798FF641CB9F1FB
:101F0000000F03DAA000801D814404E0601B800004
:101F10000A3081446D1EAC42D8DD05B0BDE8F08FBB
:101F20002DE9FC5F04460D4616461F463B463246E9
:101F300029462046CDE90045FFF715FA301B401C25
:101F40001FFA80FB781B401C1FFA80FA4FF0000834
:101F50000FE04FF0000906E00C98FFF7BEF909F119
:101F600001001FFA80F9D945F6DB08F101001FFADC
:101F700080F8D045EDDBBDE8FC9F2DE9F843044631
:101F80000F4615461E46DDF8208005B10EB9BDE8A6
:101F9000F883B819401E83B26019401EC2B2394698
:101FA000E0B2CDF80080FFF7BBFF00BFEFE72DE9FF
:101FB000FF4F83B004460D469246DDF840B0DFF88F
:101FC0007082AAF1200008EB0018BBF1010F38D095
:101FD000119848B905F10F0083B2E21D2946204649
:101FE000CDE90045FFF7BFF9119801280BD104F1A5
:101FF0000F00CDE90005E81D83B204F10F02294668
:102000002046FFF7B0F9002718E0002610E098F806
:102010000000C6F1070201219140084203D0069852
:10202000FFF75BF902E05846FFF757F9701CC6B29C
:10203000082EECDB08F10108781CC7B2102FE4DB96
:1020400034E0A14600272FE0002627E02B46224659
:1020500029462046CDE90045FFF785F998F80000AC
:10206000C6F107020121914008420CD00698FFF703
:1020700034F9601CC4B2A4EB090008280CD14C460A
:10208000681C85B208E0601CC4B2A4EB09000828F3
:1020900002D14C46681C85B2701CC6B2082ED5DB36
:1020A00008F10108781CC7B2102FCDDB07B0BDE8DE
:1020B000F08F2DE9FC4706460F4614469846DDF89A
:1020C0002890002510E0207880280DDA0020CDE946
:1020D0000090227806EBC501C8B243463946FFF7A7
:1020E00066FF681CC5B2641C20780028EBD1BDE8EF
:1020F000FC872DE9FF470746884614469946DDF8D8
:1021000030A042F21070B4FBF0F00A21B0FBF1F203
:1021100001FB12008DF808004FF47A70B4FBF0F068
:10212000B0FBF1F201FB12008DF809006420B4FB52
:10213000F0F0B0FBF1F201FB12008DF80A000A206A
:10214000B4FBF0F0B0FBF1F201FB12008DF80B00D4
:102150000A20B4FBF0F100FB11408DF80C0042F2B4
:102160001070B4FBF0F008B1052517E04FF47A7059
:10217000B4FBF0F008B1042510E06420B4FBF0F0EB
:1021800008B103250AE00A20B4FBF0F008B10225EB
:1021900004E00CB1012501E004B90125002612E09C
:1021A0000020C5F10501314402ABCDE900A0595C26
:1021B0003031CAB207EBC601C8B24B464146FFF701
:1021C000F6FE701CC6B2AE42EADBBDE8FF872DE921
:1021D000FC4705460F46144698460A9E0A2094FB83
:1021E000F0F00A2190FBF1F201FB1200303000F018
:1021F000FF09002043464A463946CDE9006028469B
:10220000FFF7D5FE0A2094FBF0F100FB11403030BF
:1022100000F0FF09002043464A463946CDE90060F8
:1022200005F10800C0B2FFF7C2FEBDE8FC87000060
:10223000D6220008704770477047754600F028F8AE
:10224000AE4605006946534620F00700854618B0A3
:1022500020B5FEF743FFBDE820404FF000064FF0E9
:1022600000074FF000084FF0000B21F00701AC46CB
:10227000ACE8C009ACE8C009ACE8C009ACE8C009EA
:102280008D4670470446AFF300802046FDF799FF66
:10229000004870473010002000487047341000207C
:1022A00001491820ABBEFEE726000200704710B5BA
:1022B000FFF7F2FF4FF00001016010BD53544D33A2
:1022C000322D5A44205350493120464C4153482026
:1022D0004953204F4B0000000000000000000000A8
:1022E000000000000000000000101010101010107E
:1022F00000001818000000123624480000000000FA
:10230000000000000000000000242424FE4848488B
:10231000FE4848480000000010385454503018144B
:1023200014545438101000000044A4A8A8A8541A4B
:102330002A2A2A44000000000030484848506EA471
:1023400094888976000000606020C00000000000D2
:102350000000000000000002040808101010101017
:10236000100808040200004020101008080808089F
:10237000081010204000000000001010D63838D699
:102380001010000000000000000010101010FE10DF
:10239000101010000000000000000000000000000D
:1023A0000000606020C000000000000000007F000E
:1023B000000000000000000000000000000000001D
:1023C0000000606000000000010202040408081020
:1023D00010202040400000000018244242424242A7
:1023E000424224180000000000107010101010105D
:1023F0001010107C00000000003C4242420404081F
:102400001020427E00000000003C424204180402FA
:10241000024244380000000000040C142424444408
:102420007E04041E00000000007E4040405864020C
:102430000242443800000000001C2440405864421E
:102440004242241800000000007E44440808101096
:102450001010101000000000003C424242241824DA
:102460004242423C00000000001824424242261A28
:1024700002022438000000000000000018180000CC
:10248000000018180000000000000000001000000C
:10249000000000101020000000020408102040205E
:1024A000100804020000000000000000FE00000010
:1024B000FE0000000000000000402010080402049C
:1024C0000810204000000000003C42426202040864
:1024D00008001818000000000038445AAAAAAAAA46
:1024E000B442443800000000001010182828243C92
:1024F000444242E70000000000F84444447844426B
:10250000424244F800000000003E42428080808049
:10251000804244380000000000F8444242424242F7
:10252000424244F80000000000FC42484878484815
:10253000404242FC0000000000FC42484878484805
:10254000404040E000000000003C44448080808E19
:10255000844444380000000000E7424242427E4288
:10256000424242E700000000007C101010101010E2
:102570001010107C00000000003E08080808080841
:102580000808080888F0000000EE444850705048E1
:10259000484444EE0000000000E04040404040401D
:1025A000404042FE0000000000EE6C6C6C6C545425
:1025B000545454D60000000000C7626252524A4A86
:1025C0004A4646E20000000000384482828282824D
:1025D000828244380000000000FC424242427C40BB
:1025E000404040E000000000003844828282828245
:1025F000B2CA4C380600000000FC4242427C484807
:10260000444442E300000000003E424240201804DF
:102610000242427C0000000000FE921010101010D8
:10262000101010380000000000E7424242424242CF
:102630004242423C0000000000E742424424242879
:10264000281810100000000000D692929292AAAAB8
:102650006C4444440000000000E742242418181889
:10266000242442E70000000000EE44442828101013
:102670001010103800000000007E840408081020AC
:10268000204242FC0000001E10101010101010100C
:10269000101010101E0000004040202010101008E4
:1026A000080404040202007808080808080808085A
:1026B000080808087800001C220000000000000044
:1026C000000000000000000000000000000000000A
:1026D0000000000000FF00606020C000000000005B
:1026E000000000000000000000000000003C421E4E
:1026F0002242423F0000000000C040404058644277
:10270000424264580000000000000000001C22400B
:102710004040221C0000000000060202021E22426D
:102720004242261B0000000000000000003C427EE8
:102730004040423C00000000000F1110107E1010BD
:102740001010107C0000000000000000003E444417
:1027500038403C42423C000000C04040405C624285
:10276000424242E7000000000030300000701010CC
:102770001010107C00000000000C0C00001C040471
:10278000040404044478000000C04040404E485017
:10279000684844EE00000000007010101010101087
:1027A0001010107C000000000000000000FE4949ED
:1027B000494949ED000000000000000000DC6242D1
:1027C000424242E70000000000000000003C42429C
:1027D0004242423C000000000000000000D8644279
:1027E0004242447840E0000000000000001E224207
:1027F0004242221E020700000000000000EE3220CC
:10280000202020F80000000000000000003E4240B0
:102810003C02427C0000000000000010107C101000
:102820001010100C000000000000000000C6424222
:102830004242463B000000000000000000E7422446
:1028400024281010000000000000000000D7929221
:10285000AAAA44440000000000000000006E2418F2
:1028600018182476000000000000000000E7422451
:102870002428181010E0000000000000007E44082A
:102880001010227E00000003040404040408040461
:1028900004040404030008080808080808080808D5
:1028A0000808080808080060101010101008101020
:1028B000101010106000304C4300000000000000B9
:1028C00000000000000000000010101838383C3CE8
:1028D0007C7E7EFF0000000000FF7E7E7C3C3C385A
:1028E000381810100000000008290008000000201F
:1028F000300000006C01000838290008300000207A
:10290000601600008801000800A24A0400000000D0
:10291000000000000102030406070809000000008F
:102920000102030401020304060708090204060861
:0829300000000000000000009F
:0400000508000131BD
:00000001FF
