:020000040800F2
:1000000080420020010100080501000807010008E6
:10001000090100080B0100080D01000800000000A4
:1000200000000000000000000000000011010008B6
:100030000F0100080000000077190008FD03000808
:100040001B0400081D0400081F0400082104000808
:10005000790400087B0400087D0400087F04000880
:10006000810400088304000885040008C90400080E
:10007000CB040008CD040008CF040008D104000818
:10008000D3040008D5040008D7040008D9040008E8
:10009000DB040008DD040008DF040008E1040008B8
:1000A000E3040008E5040008E7040008E904000888
:1000B000EB040008ED040008EF040008F104000858
:1000C000F3040008F5040008F7040008F904000828
:1000D000FB040008FD040008FF04000801050008F7
:1000E00003050008050500080705000800000000DA
:1000F0000000000000000000000000000000000000
:1001000004480047FEE7FEE7FEE7FEE7FEE7FEE7FE
:10011000FEE700001901000800F002F800F05EF8A8
:100120000AA090E8000C82448344AAF10107DA4552
:1001300001D100F053F8AFF2090EBAE80F0013F046
:10014000010F18BFFB1A43F0010318473CF20100EE
:100150005CF201000A444FF0000C10F8013B13F070
:10016000070408BF10F8014B1D1108BF10F8015B10
:10017000641E05D010F8016B641E01F8016BF9D103
:1001800013F0080F1EBF10F8014BAD1C0C1B09D15A
:100190006D1E58BF01F801CBFAD505E014F8016BCC
:1001A00001F8016B6D1EF9D59142D6D3704700005E
:1001B0000023002400250026103A28BF78C1FBD870
:1001C000520728BF30C148BF0B6070471FB510F001
:1001D000E9FE10F06AFC1FBD10B510BD10F019FE4D
:1001E0001146FFF7F3FF00F091F810F067FC03B43D
:1001F000FFF7F2FF03BC10F005FE00000B49D1F839
:1002000000C04A685CF8043B1068184442F8040BCC
:100210008C4528BFA1F1DC0C8A4228BFA1F1DC0289
:10022000C1F800C04A6020F000407047183E00202E
:1002300030BF704720BF704740BF7047BFF36F8F1C
:100240007047BFF34F8F7047BFF35F8F704701DF79
:100250007047EFF31480704780F31488BFF36F8FFB
:100260007047EFF30980704780F309887047EFF318
:100270000880704780F30888704762B6704772B68E
:100280007047EFF31080704771B6704761B67047E2
:10029000EFF31380704780F311887047EFF31280FB
:1002A000704740BA704700BA7047000002480349DF
:1002B000034A044B70470000803E0020804200202B
:1002C0008040002080400020384D00240022641C23
:1002D000E4B264231146104603F0DDFCE0064FF063
:1002E0000201284602D500F087FBEFE700F086FB0D
:1002F000ECE706F05FFBFCE700F072F901F06CFD43
:1003000000F026F8FF2003F01BFCFBE700B587B0E8
:1003100000214FF0006000F08EFC01F037FC244813
:100320000DF1040C032300228021ACE80F0000F53E
:10033000FE7200211F48009303F0EBF905AA1EA1ED
:10034000032003F03DFB01F034FD07B0002000BDA9
:1003500010B586B04FF4807403230022029419482C
:10036000CDE903230523CDE9003000F57F7200219C
:10037000154803F0CEF905AA14A1052003F020FBCF
:100380000323002202941448CDE903230423CDE97A
:10039000003000F57F720021104803F0BAF905AA79
:1003A0000FA1042003F00CFB06B010BD00080140B3
:1003B000D4020020F9020008537461727420546161
:1003C000736B0000D4040020F302000855736572BB
:1003D00020492F4600000000D4080020C902000870
:1003E0004B6579626F617264000000007047FEE740
:1003F000FEE7FEE7FEE770477047704710B501F073
:1004000099FA4A4A1178491C117001F097FA01F0E3
:1004100019FDBDE8104001F056BC704770477047A9
:1004200010B500F0D4FF42494FF461640844A04283
:100430001DD200F0CCFFB0FBF4F104FB1100A0F6DC
:10044000D4503C2813D200F0C2FFB0FBF4F104FBFF
:1004500011003C21B0FBF1F201FB12003B2806D158
:1004600000F0E5FF002000F0B8FF00F0E0FFBDE87D
:100470001040012001F008B870477047704770477E
:100480007047704710B501F055FA28490A78521C98
:100490000A7001F053FA27490888401C0880C207F7
:1004A00025484FF4005102D000F0A6FA01E000F018
:1004B000A5FA102000F0C6F910B1102000F0CFF915
:1004C000BDE8104001F0FFBB7047704770477047B0
:1004D0007047704770477047704770477047704764
:1004E0007047704770477047704770477047704754
:1004F0007047704770477047704770477047704744
:100500007047704770477047704770477047704733
:100510007047704770477047704770477047704723
:100520007047704770477047704700001200002006
:1005300090BCFEFF000000200010014030B50121FA
:1005400087B0080300F040FDE020ADF8140003245C
:100550008DF816401820844D8DF8170005A92846FF
:1005600000F0E1F9E914ADF814108DF816401020F0
:100570008DF8170005A9284600F0D5F90020ADF840
:1005800000004FF48271ADF80210ADF80800691553
:10059000ADF80A102821ADF80C10ADF80400ADF844
:1005A0000600ADF80E000720704CADF8100069464B
:1005B000204600F085FD0121204600F0FEFD07B039
:1005C00030BD08B50220ADF8000010208DF8030002
:1005D00003208DF802006946634800F0A4F908BDC5
:1005E00010B586B000F0E6FB4FF48034204600F0F2
:1005F000F9FB00F024FC5E4908700878012822D13C
:10060000102000F067FF022000F052FF002000F0F1
:100610004FFC002000F05AFCA01100F050FC4FF4F9
:10062000E011204600F02DFC012000F032FC3920C2
:1006300000F0F0FB0028FAD0022000F02DFC00F0C2
:1006400032FC0828FBD1012140F2FD1000F0BCFC77
:1006500003F010FFFFF7B5FFFFF770FF684600F0EB
:1006600068FC01984FF47A71B0FBF1F000F062FE83
:10067000042000F053FE012000F060FE012000F095
:100680006FFE06B010BD704710B54FF4A06000F0CB
:1006900042FA0022BDE810401146364800F0F7BA91
:1006A00070B5324C05460221204600F0F2FD0028CC
:1006B000F9D02946204600F0A8FD0121204600F08F
:1006C000E8FD0028F9D0204600F0A1FDC0B270BDC1
:1006D000002100E0491C8142FCD3704770B5224ED6
:1006E0004FF400652946304600F088F90A20FFF7EC
:1006F000EFFF9020FFF7D4FF0A20FFF7E9FF00206B
:10070000FFF7CEFF04020020FFF7CAFF204484B2A7
:100710000A20FFF7DDFF2946304600F06DF9E008BA
:1007200070BD70B5104E4FF400652946304600F09C
:1007300065F90A20FFF7CCFFD020FFF7B1FF0A20B0
:10074000FFF7C6FF0020FFF7ABFF04020020FFF712
:10075000A7FF204484B20A20FFF7BAFF294630469B
:1007600000F04AF9E00870BD000801400030014087
:10077000020000209AC302003A4800210160416053
:100780008160C16038494161704710B5837937494C
:100790000268B3B3D1F800349343C1F80034D1F800
:1007A000042403689A43C1F8042402790A44D2F865
:1007B000003404682343C2F80034D1F808240368E5
:1007C0009A43C1F80824D1F80C2403689A43C1F86D
:1007D0000C244279102A07D01144D1F80024006873
:1007E0000243C1F8002410BD01F581610A68036865
:1007F00042EA03020A604A68006842EA00024A606C
:1008000010BDFFE700790844D0F800149143C0F808
:100810000014F5E70021016001710C224271817121
:10082000704713490A6842EA00020A607047114A99
:100830000146002012680A4200D0012070470D498D
:1008400008607047074B014600201A685B6902EA9E
:1008500001020B4202D0002A00D001207047054956
:100860000860704700040140FFFF070000000140DE
:100870001004014014040140894A10B5811A13156F
:10088000D41490422ED00DDC864940181CD09842DA
:1008900021D0A0423BD10121102000F0A7FB002174
:1008A00010200DE0994224D0A14229D0B1F5406F2B
:1008B0002DD101210C02204600F098FB002120469A
:1008C000BDE8104000F092BB0121042000F08EFB37
:1008D00000210420F4E70121082000F087FB00211B
:1008E0000820EDE70121202000F080FB00212020DE
:1008F000E6E70121402000F079FB00214020DFE7FE
:100900000121802000F072FB00218020D8E710BD7B
:1009100010B50121084600F069FB0021BDE8104038
:10092000012000F063BBF0B5CC78002204F00F0387
:10093000E40601D58C7823430C884FF00F0C14F09B
:10094000FF0F4FF0010E19D005680E880EFA02F461
:100950002640A6420ED196000CFA06F7BD4303FAD4
:1009600006F63543CE78282E00D14461CE78482E45
:1009700000D10461521C082AE7D305600A88FF2AC7
:100980001DD94568002202F108060EFA06F40E8809
:100990002640A6420FD196000CFA06F725EA070773
:1009A00003FA06F5CE783D43282E00D14461CE7877
:1009B000482E00D10461521C082AE4D34560F0BDE2
:1009C0004FF6FF710180022181700421C1707047D0
:1009D0000246002092680A4200D0012070478068D9
:1009E00080B2704702460020D2680A4200D001203F
:1009F0007047C06880B270470161704741617047BD
:100A00000AB10161704741617047C160704741F4AC
:100A10008032826181618261816980697047224B85
:100A200010B51A684FF68074224042EA001008435D
:100A3000186010BD1D49C8617047F0B51A4D6B684C
:100A4000420D120184B2C0F301579440C0F3034633
:100A5000032F05D0C0020AD50320B040834307E02E
:100A6000686823F0706220F07060686002E0A34361
:100A700043F0706201B122436A60F0BD10B58A078D
:100A800021F003040849120F21440F238C6893407E
:100A90009C438C608B68904003438B6010BD0000CA
:100AA0000014014000F8FEBF000001400000204299
:100AB00000204FF0E021431EC1F880311A09C1F82F
:100AC0008421C1F88032C1F88422024601EB800300
:100AD000C3F80024401C0F28F8D37047AD494FF0ED
:100AE000206200200A6002464860AB4B8B60C86001
:100AF0000861A1F6045101EB8003C3F8182D401CD6
:100B00000328F8D301F624510A604FF0FF30486003
:100B10008860C8607047A0490843A04908607047D2
:100B2000F0B50F24C27801784FF0E023012742B3DB
:100B3000D3F80C2D02F4E062C2F5E062120AC2F1B1
:100B40000405D4404278AA408578254015438A0799
:100B50002C01D20E944021F00301CE18D6F8005497
:100B6000FF2191408D430C402543C6F80054007886
:100B700000F01F018F40400903EB8000C0F80071B6
:100B8000F0BD01F01F008740480903EB8000C0F86A
:100B90008071F0BD0021017041708170C17070479B
:100BA000FFF76DBBFFF769BBFFF76EBBFFF76EBBCF
:100BB0000001FFF770BBFFF771BB76480068C0F318
:100BC00009307047014601F01F0301229A400020BE
:100BD00049094FF0E02303EB8101D1F800128A4369
:100BE00000D1012070476E490860704700F01F0275
:100BF0000121914040094FF0E02202EB8000C0F853
:100C00008012704763480068C0F3090070470146CE
:100C100001F01F0301229A40002049094FF0E02310
:100C200003EB8101D1F800138A4300D10120704702
:100C30005C48006870475C4A114001435B480160B2
:100C4000704755485549001D086070475248534940
:100C5000401C086070474FF0E0220029D2F8101DB8
:100C600001D0014300E08143C2F8101D704700F03D
:100C70001F02012090404FF0E0220029D2F8241DED
:100C800001D0014300E08143C2F8241D704770B5D4
:100C90004FF0E025FF24D5F80C3D03F4E063C3F5E5
:100CA000E0631B0ADC40C3F10406B14022400A4362
:100CB000110100F0C0029209C0F30120C000814080
:100CC000FF23834005EB820000F61850026822EAF9
:100CD00003020260026842EA0102026070BD01463E
:100CE000C1F38322002001219140314A126802EAB7
:100CF00001028A4200D101207047264900F01F00FE
:100D00000B684FF0010202FA00F243EA02030B60A3
:100D10007047204900F01F000A68A0F101004FF061
:100D2000010303FA00F342EA03020A607047014636
:100D3000C1F383320020012191401D4A126802EA6A
:100D400001028A4200D101207047C0F38142C0F302
:100D500001514FF0E02022B1012A05D0D0F8300D2A
:100D60007047D0F82C0D7047D0F8280DCA00D0403D
:100D7000022902D000F00F007047C0B27047C0F3E4
:100D800080504FF0E02110B1D1F8380D7047D1F804
:100D9000340D704704ED00E00000FA050CED00E0B2
:100DA00000EF00E000ED00E080FFFF1F08ED00E035
:100DB00024ED00E0A348016841F0010101604168B1
:100DC000A14A114041600168A04A114001600168D8
:100DD00021F480210160416821F4FE01416000217D
:100DE0008160704797490A6822F480320A600A6875
:100DF00022F480220A60B0F5803F07D0B0F5802F42
:100E000003D1086840F4A02008607047086840F4E7
:100E10008030F9E70346002059098A4A01290AD09F
:100E200002290AD0516A03F01F02012393400B42AA
:100E300000D0012070471168F5E7116AF3E730B57B
:100E4000834C40F2FF153120FFF7E4FF207060680B
:100E5000401C6060207810B96068A842F3D131204E
:100E6000FFF7D8FF002800D0012030BD754A116877
:100E700021F0F80141EAC000106070477549086030
:100E80007047704B5A68084322F47C121043586034
:100E900070477049086670476A4A516821F003013B
:100EA0000143516070476748406800F00C0070478C
:100EB000644A516821F0F001014351607047614A72
:100EC000516821F4E0610143516070475D4A516807
:100ED00021F4605141EAC00050607047594A00292E
:100EE000517A01D0014300E08143517270475A4961
:100EF00008607047534A516821F4404101435160F2
:100F00007047564900220A7001F82029012802D0B2
:100F1000042802D1052081F820007047504908605C
:100F2000704748490A6A02430A6270474D4908609F
:100F30007047444A10B551684B4B11F00C0103D077
:100F4000042901D0082901D0036011E0516802236F
:100F500001F4701103EB9141536813F4803F02D008
:100F600053689B0301D5414B00E03F4B594301605F
:100F700051683F4B01F0F00109095C5C0168E140F8
:100F80004160546804F4E064240A1C5D21FA04F40E
:100F90008460546804F46054E40A1B5DD940C16065
:100FA0005268334B02F44042920B1B1F9A5CB1FB18
:100FB000F2F1016110BD234A0029516901D00143BA
:100FC00000E08143516170471E4A0029916901D0B8
:100FD000014300E08143916170471A4A0029D169B9
:100FE00001D0014300E08143D1617047154A0029D7
:100FF000D16801D0014300E08143D1607047114ABC
:101000000029116901D0014300E08143116170475B
:101010001849086070470F49C86470470949C8718A
:1010200070470848416A41F0807141627047054A43
:101030000146002092680A4200D001207047014911
:1010400088727047001002400000FFF8FFFFF6FEB4
:101050000400002000004242D8004242201002401A
:10106000800442423C04424200127A0000093D00E2
:10107000B60F010840044242A74910B5401810D0ED
:10108000B0F5806F10D0B0F5784F18D101210C0366
:101090002046FFF7ABFF2046BDE810400021FFF7D8
:1010A000A5BF01218C0301E00121CC032046FFF7FD
:1010B000A6FF2046BDE810400021FFF7A0BF10BDED
:1010C00030B502884C8802F441530A88CD88224307
:1010D0008C882C4322430C8922434C8922438C89DF
:1010E0002243CC8922431A430280828B22F400627D
:1010F0008283098A018230BDF0B505460C46022084
:101100000021AA8B85B001264FF240031A40AA8322
:101110002884AF8B2289022A1DD0A08800B1022624
:101120006846FFF706FFE088B0F5007F29D02089E8
:1011300071014143009800EB80004000B0FBF1F0EA
:10114000401D80B20A21B0FBF1F000F00101401A0D
:10115000C0F34F000902821EFE2A01D302200021A3
:10116000E288084302432A84208861886289084310
:10117000A18811430843384340F40060A88305B0B8
:10118000F0BD0098218900EB800040000902D5E7FE
:101190000021018041808180C18001814181818164
:1011A000C181072101827047002101804180818037
:1011B000C18002220281418170470029018802D04A
:1011C00041F0400101E021F0400101807047002919
:1011D000818B02D041F4806101E021F48061818340
:1011E0007047090901238B40002A828899B201D0F7
:1011F0000A4300E08A4382807047002A828801D037
:101200000A4300E08A438280704781817047808969
:101210007047A1F57E420188FF3A02D041F4807107
:1012200001E021F48071018070470029818802D09B
:1012300041F0040101E021F004018180704702883F
:1012400022F40062028002880A430280704701880B
:1012500041F48051018070470029018802D041F497
:10126000005101E021F4005101807047012901D0B3
:10127000008B7047808A7047008A7047B1F5804FB5
:10128000018803D021F480410180704741F48041FE
:10129000FAE70246002012890A4200D00120704776
:1012A000202906D040290AD0082908D0C943018145
:1012B00070470189018841F0400101807047008931
:1012C000704710B501F00F03012404FA03F302463E
:1012D000002009098C4091889BB2A4B21289214058
:1012E0001A4202D0002900D0012010BD55290AD091
:1012F00056290ED053290CD001F00F020121914044
:10130000C943018170470189018841F04001018092
:10131000704700897047000000C8FFBF4FF0E02110
:101320000428086903D020F004000861704740F0E9
:101330000400FAE74FF0E021486170474FF0E021E8
:10134000012804D0801C06D00020886170470869FD
:1013500040F0010002E0086920F0010008617047D8
:101360004FF0E0210028086902D040F0020001E0BF
:1013700020F00200086170474FF0E020806970475C
:1013800002460020D1084FF0E023022906D0D96997
:10139000012393400B4200D0012070471969F7E701
:1013A0003C4A0029B2F8001801D0014300E0814313
:1013B000A2F8001870473848018841F010010180F8
:1013C00070473548018821F010010180704733498A
:1013D0008888098840EA0140704700B50246FFF757
:1013E000EAFF2E48110C018082805DF804EBE8E7EB
:1013F00000B50246FFF7DFFF2948C2F30341018031
:1014000082805DF804EBDCE700B50246FFF7D3FF0E
:101410002448110C018082805DF804EBD1E722485A
:10142000018880884FEA017140EA113070471948FD
:10143000B0F804188906FBD570471648B0F80418B0
:1014400021F00801A0F80418B0F804180907FBD52A
:101450007047114A0146002012880A4200D001203C
:1014600070470D490A8822EA00020A8070470F4A35
:101470009188128801EA0001C9B2024202D009B182
:10148000012070470020704703490A8822EA0002C1
:101490000A807047002000400428004018280040BF
:1014A0000828004020280040102800400028004064
:1014B000F3490A6802F038020A600A6802430A60C7
:1014C0007047EF490A6822F008020A600A6802437E
:1014D0000A607047EA490A6822F010020A600A6846
:1014E00002430A607047E648E6494160E6494160C8
:1014F0007047E348016941F0800101617047E049AC
:101500000420CA68D20701D001207047CA68520778
:1015100001D502207047C968C906FBD50320704772
:1015200000B50346FFF7EBFF05E0FF21491EFDD1A3
:10153000FFF7E5FF5B1E012803D0002B00D105203B
:1015400000BD002BF1D1FAE770B5054640F6FF76F5
:101550003046FFF7E5FF042813D1C94C206940F05D
:10156000020020616561206940F040002061304642
:10157000FFF7D6FF012804D0216941F6FD72114022
:10158000216170BD30B540F6FF752846FFF7C8FFF2
:10159000042812D1BA4C206940F00400206120696F
:1015A00040F0400020612846FFF7BAFF012804D030
:1015B000216941F6FB721140216130BD30B540F622
:1015C000FF752846FFF7ACFF042828D1AC4CAD4886
:1015D000A060AD48A060206940F020002061206933
:1015E00040F0400020612846FFF79AFF41F6EF7572
:1015F00004280FD1206941F6DF710840206120697D
:1016000040F010002061A149A52008804FF00F0094
:10161000FFF786FF012802D021692940216130BDF2
:10162000F0B506460D460F20FFF77AFF042816D1C5
:10163000934C206940F00100206135800F20FFF7B6
:101640006FFF41F6FE77042804D1280C70800F202C
:10165000FFF766FF012802D0216939402161F0BD02
:1016600070B505460E460F20FFF75AFF04280FD12C
:10167000834C206940F0010020612E800F20FFF78D
:101680004FFF012804D0216941F6FE72114021610B
:1016900070BD70B505460E460F20FFF741FF0428C8
:1016A00013D1774C7748A0607748A060206940F05C
:1016B000100020612E800F20FFF732FF012804D098
:1016C000216941F6EF721140216170BD2DE9F041B1
:1016D000C043C4B2C0F30725C0F30746070E0F206E
:1016E000FFF71EFF04283AD1DFF89481654AC8F855
:1016F0000820654AC8F80820D8F8102042F01002E7
:10170000C8F81020DFF888C1FF2C06D0ACF80848D4
:101710000F20FFF705FF042818D1FF2D06D0ACF8E5
:101720000A580F20FFF7FCFE04280FD1FF2E06D029
:10173000ACF80C680F20FFF7F3FE042806D1FF2F4A
:1017400006D0ACF80E780F20FFF7EAFE012806D08D
:10175000D8F8102041F6EF731A40C8F81020BDE801
:10176000F08170B5064640F6FF752846FFF7D8FEB3
:10177000042818D1424C4348A0604348A060206927
:1017800040F020002061206940F0400020612846A0
:10179000FFF7C6FE41F6DF71042805D0012802D00C
:1017A00022690A40226170BD2069084020612069D9
:1017B00040F01000206136480EB1002100E0A52164
:1017C000A0F800182846FFF7ABFE0128EBD02169EE
:1017D00041F6EF721140216170BDF0B5284C05460D
:1017E00028480E461746A0602748A0600F20FFF744
:1017F00097FE042814D1206940F010002061354381
:1018000024493D4345F0F80008804FF00F00FFF7F2
:1018100087FE012804D0216941F6EF721140216151
:10182000F0BD1748C069800870471548006A7047C6
:1018300013490020C969890700D501207047104964
:1018400000200968890600D5012070470C4A00294C
:10185000116901D0014300E08143116170470146E5
:101860000020074A012903D0D2680A4203D17047F9
:10187000D169C907FBD0012070470149C860704792
:101880000020024023016745AB89EFCD00F8FF1F20
:1018900000F0FF1F02F8FF1F254900200880704755
:1018A000704770477047704770474FF08073136000
:1018B000131FA2F1240218606FF00100D0614FF0F5
:1018C000123090614FF0033050614FF002301061E0
:1018D0004FF00130C2E902104FF0113050604FF06C
:1018E000103042F804094FF009301060A2F11000E6
:1018F0004FF00831C1604FF0073181604FF0063181
:1019000041604FF0053140F804194FF00431016097
:1019100070477047704706490888401C80B20880AD
:10192000642803D30020088002F070BC70470000D8
:101930000C000020EFF3108072B6704780F310881F
:10194000704724484FF0FF010170002080F30988A0
:101950001D480121017020484FF08051016062B69E
:10196000FEE71D484FF08051016070471A484FF064
:10197000805101607047EFF3098028B1203880E87A
:10198000F00F12490968086000B50A4880475DF801
:1019900004EB0B480B490A7802700C480C490A68A2
:1019A0000260106890E8F00F203080F309884EF054
:1019B000040E704713190008C71C0008120000200D
:1019C0001400002015000020170000203000002027
:1019D0003800002022ED00E004ED00E0002204E0E9
:1019E000491C521C00F8013BD2B20B78002BF7D1F6
:1019F00000210170104670472DE9F04105460E4662
:101A0000140006D045B14EB1FF48807840B1112096
:101A100010E00020BDE8F08104200BE00C2009E07C
:101A20002878012808D0022806D0032804D00428EA
:101A300002D001201070ECE7FFF77CFF074605F1AC
:101A400013013046FFF7CAFF05463846FFF776FF19
:101A5000002020702846DDE70146002002E0491CF6
:101A6000401CC0B20A78002AF9D170472DE9F04134
:101A700005460E461400CDD02DB136B1E24880782F
:101A800028B112200DE004200BE00C2009E028789A
:101A9000012808D0022806D0032804D0042802D048
:101AA00001201070B6E7FFF745FF07463046FFF705
:101AB000D3FF0F2804D93846FFF740FF0B2008E07A
:101AC000314605F11300FFF789FF3846FFF736FF6F
:101AD000002020709EE77CB5CC4D0024694620464E
:101AE00001F0EFFF58B955F8241041B1012906D093
:101AF000D1E9020200EB8200086401984864641C8A
:101B0000E4B23F2CEAD97CBDBF4D02E0C82002F010
:101B10009DF868780028F9D0642069690026B1FB37
:101B2000F0F48046FFF706FFE969A961EF69EE610D
:101B3000FFF704FF54B1B7FBF4F0C0F1640040B20A
:101B4000002801DB287005E02E7003E02E70696923
:101B5000B1FBF8F4FFF7A8FEFFF7BDFF642002F029
:101B600075F8DFE7A84CFFF7E5FEE169491CE16184
:101B7000FFF7E4FEFFF797FEF5E7002203E0491EBA
:101B800000F8012B89B20029F9D1704730B587B030
:101B9000FFF782FE9C4C00232363A370E370237243
:101BA000E371E360E361A36163616370A37104F1B6
:101BB00034011846401CC0B201F8013B0828F9D393
:101BC00023716371A3624FF4C66191482362FFF7EA
:101BD000D4FF4FF480718D48FFF7CFFF8C48002170
:101BE00000F158023F25426180F8485080F84930A2
:101BF000491C58305832C9B21129F4D3436180F8D6
:101C0000485080F849308248E36260624FF4B47112
:101C1000A0F5CD60FFF7B1FF7E48002100F124025E
:101C200003704260C5740375491C2430243289B2A4
:101C30000929F5D303704360C574037575482061A5
:101C400000F048FD01F019F801F0CBFA724801AC40
:101C50000323002280210FC44FF6FF7300933F231C
:101C600000F5FE720021AFF2031001F052FD05AA4B
:101C70006AA13F2001F0A4FE6C4801AC03230022BE
:101C800080210FC44FF6FE7300933E2300F5FE72D1
:101C90000021AFF28B1001F03CFD05AA64A13E20AB
:101CA00001F08EFE02F0EBFA07B0BDE83040FFF71E
:101CB000F7BD5549C879012804D18878FF2801D299
:101CC000401C8870704770B54F4CE079012822D1D4
:101CD000FFF730FE0546A07820B1401E10F0FF004F
:101CE000A07013D1E07888B900F0FCF9607921790F
:101CF00088420BD0454951F82010A162486B401C26
:101D00004863E068401CE060FFF730FE2846BDE80D
:101D10007040FFF713BE70BD10B53B4CE079012851
:101D20000CD1FFF707FEA17821B9E178FF2901D294
:101D3000491CE170BDE81040FFF700BE10BD70B552
:101D4000FFF7F8FD304C0546A07898B9E07888B9DF
:101D500000F0C8F96079217988420BD02B4951F8FD
:101D60002010A162486B401C4863E068401CE060A2
:101D7000FFF7F7FD2846BDE87040FFF7DFBD10B55F
:101D8000214CE079012813D1FFF7D4FDE17831B17E
:101D9000491E11F0FF01E17001D1A17819B1BDE830
:101DA0001040FFF7CBBDFFF7C9FDBDE81040C6E707
:101DB00010BD10B5144CE07900280CD100F092F958
:101DC00060791249207151F82000A0622062BDE8BC
:101DD0001040FFF7B6BD10BD10B5022001F036FF70
:101DE000FFF7A8FD084C0021E161FFF7A7FD642083
:101DF00001F02CFFFFF79EFDE16961610121617037
:101E0000BDE810401CE00000100000203C12002043
:101E10003C130020D40C00203C10002075432F4FB1
:101E2000532D49492049646C650000003C0E002098
:101E300075432F4F532D494920537461740000009E
:101E4000FFF77CBD2DE9F041FFF765FDFFF772FD5F
:101E5000AA4D296B491C2963FFF770FDE879012819
:101E600043D1687A01264FF0000828B101283CD000
:101E7000022803D085F80980EC6A32E06E72FBE735
:101E8000FFF758FD618D49B3A1F101010904090C67
:101E9000618523D194F82C1011F0370F06D021F072
:101EA000370184F82C1084F82D6001E084F82D802F
:101EB00094F82C10090711D404F13004AA79A17800
:101EC00041EA0201A9718D4A217802F13402677852
:101ED000535CA4F1300443EA070353546469FFF7E9
:101EE0002DFD94F82E003F28CAD193E540F21D1035
:101EF00070477047F0B5847A814D4FF0010E2C5D2C
:101F000000EB040C0EFA04F69CF80B70F6B2ED5DD3
:101F10000EFA05FE0EF0FF0E05EBC40537EA0E07BC
:101F2000EDB28CF80B7002D1877AB743877275488F
:101F3000002750F8250000F11C00C781C0E900719E
:101F40004374017C9143017408D16C488179314319
:101F500081713430015D41EA0E0101552846F0BD22
:101F600070B5664C04F13405216AC86191F83020DF
:101F700091F83160AB5CB343AB5404D191F832308B
:101F8000A2799A43A27111F8303F00F10B0249780F
:101F90009D5C0D439D54226A817A92F83220114350
:101FA000817270BD10B5554C226A12F8301F43186B
:101FB0005278D97A9143D97205D1226A817A92F8FE
:101FC000322091438172206A002100F11C0041748B
:101FD0000174016010BD002282720B301146491C51
:101FE000C9B200F8012B0829F9D3704705E011F8B0
:101FF000013B521E00F8013B92B2002AF7D1704714
:102000002DE9FF5F0646DDE90EBA0D46904699467A
:10201000FFF790FC394F7C6AF4B354F8141F7962CF
:10202000FFF78CFC44F8145CA676002525766576CF
:10203000E582A4F10C0044F810ACA0E80009109867
:1020400024F8040C24F8029CE577F008207701219D
:1020500001FA00F0A07706F00700E0768140617792
:10206000A5602561E5602562A5626562E5623F20A5
:10207000256384F8340084F83550A4F11404204614
:10208000FFF748FC2046FFF70CFCFFF753FC014626
:102090001C4840F8264000E020E0F86AC4E9050545
:1020A00000B18461FC6204F13004BA79A078134B6A
:1020B00040EA0200B871207803F1340364781A5CB6
:1020C00042EA04021A54387A00F1010038720846D4
:1020D000FFF734FC002004B0BDE8F09FFFF72EFCB2
:1020E0004220F8E7054A064902F134039079085C7A
:1020F0001B5CC95C01EBC0005071704710000020F0
:10210000C60F01083C1200202DE9F04105460F469C
:1021100014461E0005D03DB12878052806D00120C0
:1021200018700020BDE8F0816E20F9E714F08000FF
:1021300002D022F080040120804600203070FFF79A
:10214000F9FB7021FCB1012C23D0022C08D0032C08
:1021500011D0FFF7F3FB00246F2030702046E1E739
:102160002C8922463C40BC4209D01CE0A24318E026
:10217000FFF7E4FBF2E72C8922463C4013D0B8F18C
:10218000010FF5D1F2E72A8927EA0204BC4204D004
:1021900009E02A8937EA020405D0B8F1010FE7D136
:1021A00022432A81E4E73170E2E770B506460D006C
:1021B00004D0FC48007818B110200870002070BDD1
:1021C000FFF7B8FBF8490C686CB162680A6005213A
:1021D0002170268100263F216660A172E672FFF71A
:1021E000ADFB2E7003E0FFF7A9FB7220287020469C
:1021F00070BDD0E9001200232AB1116001B14A601C
:10220000806843627047C26800295160F8D04B6013
:10221000F6E710B502468068002300F128004380ED
:102220000180017931F0200101714371A0F1280092
:1022300005D000241046FFF7DCFF204610BDDB4927
:1022400000F1300083780C7843EA04030B700178C6
:10225000D74B40785C5C44EA00045C544FF00104C6
:10226000E8E72DE9F05F8946044615002CD02CB133
:10227000CC48007820B10F20107024E06E20FBE7DE
:102280002078052801D00120F6E7FFF753FB6668A8
:1022900080460EB1012700E000275FEA0900DFF861
:1022A00008B34FF03F094FF0000A06D0012824D0B0
:1022B0004046FFF743FB072004E03FB14046FFF7ED
:1022C0003DFB492028702046BDE8F09F84F80A9025
:1022D00084F80BA084F800A0DBF800106160A4F87B
:1022E00008A056464046CBF80040FFF727FB1BE00E
:1022F00000213046FFF78DFF3668002EF8D184F8B4
:102300000A9084F80BA084F800A0DBF8001061604C
:10231000A4F808A056464046CBF80040FFF70EFB55
:10232000012F01D1FFF70BFD2E700020CCE72DE926
:10233000F04105460F46140016D02DB137B199482B
:10234000007830B1112002E06E2000E00C20107007
:102350000AE0FFF7EFFA06462878052806D030464F
:10236000FFF7ECFA012020700020DBE605F10A01FE
:102370003846FFF733FB05463046FFF7DFFA00200B
:1023800020702846CEE62DE9F04105460F461400A0
:1023900006D035B13FB18348007830B112201070BB
:1023A000C0E66E20FBE70C20F9E7FFF7C3FA06460C
:1023B0002878052804D03046FFF7C0FA012012E043
:1023C0003846FFF749FB0F2804D93046FFF7B6FA25
:1023D000732008E0394605F10A00FFF7FFFA30469E
:1023E000FFF7ACFA002020709CE6F0B5714E059F17
:1023F000346804F12404257A45F0200525724FF055
:1024000000056572E78044F824190A828B748C6099
:102410004268C860C1E90025426802B1516041606C
:102420003068634B90F8301090F831405A5CA2430A
:102430005A5405D190F832205C48017891430170DC
:10244000F0BD2DE9FF4F87B00446149D0F4691461D
:102450002DB144B15348007838B10220A0E00020EB
:102460000BB0BDE8F08F6E209AE05348007808B1B9
:102470000D2095E02078052801D0012090E012F091
:10248000800F03D029F08009012600E00026FFF725
:1024900051FA0690DFF81CB15FEA09004FF0000A1C
:1024A00030D001283AD0022808D0B9F1030F15D056
:1024B0000698FFF743FA00206F215EE0208900EACA
:1024C00007018846B9422FD1012E02D120EA080027
:1024D00022E00846DBF8001008850CE0208910EAAD
:1024E000070821D0012E02D120EA08002081DBF864
:1024F0000000A0F828800698FFF720FA85F800A0D1
:102500004046ADE7208927EA00018846B9420BD151
:10251000012EDED140EA08002081DAE7208927EA8F
:1025200000015FEA0108F3D10A9B00934B463A464B
:1025300001A92046FFF759FF0698FFF7FFF9FFF7BB
:10254000FEFBFFF7F7F98446DBF80000D84690F869
:102550002D70A7B180F82DA0544601A8FFF749FEC1
:10256000D8F8000080F82C406046FFF7E7F900201B
:10257000022F01D00A2100E00E21297070E7078D9B
:10258000012E21D15FEA09001BD0012819D00228B1
:1025900014D0B9F1030F11D06046FFF7CFF96F20C7
:1025A00028705CE7120000204C000020160000207C
:1025B0004400002030000020130000202089B84390
:1025C00001E02089384320816046FFF7B7F985F89C
:1025D00000A0384644E710B5FFF7ACF94C4909684C
:1025E0000C8DFFF7ABF9204610BD2DE9F0410546F3
:1025F0000E4614461F0028D02DB12878052804D097
:102600000120187021E06E20FBE7FFF793F9804668
:102610002CB1012C06D0FFF791F9712014E0288924
:10262000B04301E028893043288100266C6828E007
:10263000A07CA0B1012819D0022808D003280AD014
:102640004046FFF77BF96F20387000206AE5298942
:10265000208A014007E02989208A014009E0218A77
:102660002A8908469143884204D009E0218A2889B2
:10267000814329B12046FFF7CCFD012800D1012676
:102680002468002CD4D14046FFF758F9012E01D11F
:10269000FFF755FBFFF74EF92C89FFF74FF90020A4
:1026A000387020463EE570B505460C0005D035B1C2
:1026B0002878052805D001200870002070BD6E2004
:1026C000FAE7FFF737F92D89FFF738F90020207076
:1026D000284670BD10B58C210E48FFF74EFA0D4804
:1026E000002100F11C020B463F24037042608472FB
:1026F000C372491C1C301C3289B20429F5D3037003
:10270000436084720449C3720248086010BD00002F
:10271000300000206C1900204C00002070B504002F
:1027200002D02078012801D0002070BDFFF702F907
:10273000002165686160FFF701F9284670BD70B53A
:102740000546D948007808B1002070BDFFF7F2F8BF
:10275000D6490C680CB162680A60FFF7EFF854B113
:1027600001202070002020813F216560E1742075E8
:102770002046FFF730FC204670BD2DE9F047884623
:10278000044615002CD02CB12078012804D001205B
:10279000107024E00420FBE7C348007808B10F2044
:1027A000F6E7FFF7C7F80746A07A08B1012600E070
:1027B00000265FEA0800DFF8F4924FF03F084FF080
:1027C000000A06D0012826D03846FFF7B7F80720C0
:1027D00004E03EB13846FFF7B1F8492028702046A2
:1027E000BDE8F08784F8138084F814A084F800A072
:1027F000D9F800106160A4F808A056463846C9F818
:102800000040FFF79BF82E701FE0002302221946BC
:102810002046FFF76FFBA07A0028F6D184F81380DA
:1028200084F814A084F800A0D9F800206260A4F80D
:1028300008A0D0463846C9F80040FFF77FF8012EBF
:1028400001D1FFF77CFA85F800800020C8E72DE968
:10285000F04705468A4614004BD02DB12878012850
:1028600004D00120107044E00420FBE78E4800787B
:1028700008B10220F6E78E48007808B10D20F1E794
:10288000FFF758F86E6807464FF0000846B1384623
:10289000C5F80480FFF752F884F8008030469FE7BF
:1028A000DFF81092D9F8000010F82C1F41F0020157
:1028B000017080F8018020F802AC2846FFF750FB39
:1028C0003846FFF73BF8FFF73AFAFFF733F80646CA
:1028D000D9F8000090F82D706FB12846FFF762FB21
:1028E0003046FFF72BF8022F01D00A2000E00E201F
:1028F0002070002074E7056AC0F8208080F82C80E2
:10290000C0F81C803046FFF719F884F8008028468C
:1029100066E72DE9F04106460F46150032D02EB18C
:1029200031780120012903D010702BE00420FBE74F
:10293000FFF700F88046B07AF8B10024012F10D0DC
:1029400002231A4600213046FFF7D4FA01244046FC
:10295000FEF7F4FFFFF7F3F90E2028702046BDE8DC
:10296000F08102231A4600213046FFF7C3FA641CA7
:10297000B07AE4B20028F4D1E9E74046FEF7DEFF82
:10298000002028700020EAE770B504000D4605D04D
:1029900035B12078012805D0012070BD042070BD1C
:1029A000032070BDFEF7C6FF0646A07A58B100238B
:1029B000022229462046FFF79DFA3046FEF7BEFF69
:1029C000FFF7BDF90AE0606820B13046FEF7B6FFB8
:1029D000142070BD30466560FEF7B0FF002070BD6A
:1029E0002DE9F04104000D46164605D035B120789A
:1029F000012805D00120B2E70420B0E70320AEE7AC
:102A0000FEF798FF0746A07AD0B1F00709D000235F
:102A1000022229462046FFF76DFAA07A0028F6D157
:102A200005E00023022229462046FFF763FA3846D4
:102A3000FEF784FF700701D4FFF781F900208EE7CD
:102A4000606820B13846FEF779FF142087E73846E2
:102A50006560FEF773FFF1E72DE9F04106000F46D0
:102A600005D037B13078012805D0012077E7042060
:102A700075E7092073E7FEF75DFF0146B07A38730A
:102A80003C1D06F10B050020401C15F8012BC0B2BF
:102A900004F8012B0828F7D3706838600846FEF761
:102AA0004DFF00205BE70000120000202000002006
:102AB00013000020300000202DE9F0410646884632
:102AC00017461D0020D062200EB1B10701D018704A
:102AD0001AE0B8F1020F01D25B20F8E7042F01D20F
:102AE0005C20F4E7FEF726FF72490C680CB16268BF
:102AF0000A60FEF723FF2CB1F01932460021A8F13D
:102B0000010308E05A2028700020BDE8F081106021
:102B100002463844491C9942F9D3002010602660CF
:102B2000C4F810806660C4E90278287041462046E7
:102B3000EBE770B504460D0016D074B1FEF7FAFE4F
:102B4000216969B16668491E326862602161FEF7D9
:102B5000F5FE00202870304670BD6020087003E04C
:102B6000FEF7ECFE5D202870002070BD2DE9F041DD
:102B700005460E46140006D03DB146B14E480078D9
:102B800038B1112010700020BFE76020FAE70C2058
:102B9000F8E7FEF7CFFE074605F114013046FEF7D1
:102BA0001DFF05463846FEF7C9FE00202070284666
:102BB000ABE72DE9F04105460E461400A5D035B12E
:102BC0003EB13D48007830B1122010709DE7602082
:102BD000FBE70C20F9E7FEF7ADFE07463046FEF7AF
:102BE0003BFF0F2804D93846FEF7A8FE632008E013
:102BF000314605F11400FEF7F1FE3846FEF79EFE61
:102C00000020207081E770B504000D460AD05DB148
:102C1000FEF790FED4E903128A4207D3FEF78EFE38
:102C20005E2070BD602070BD5F2070BD616829604E
:102C300065602169491C2161FEF780FE002070BD9E
:102C400070B505000C4614D0ACB1FEF773FE2968D0
:102C5000216069686160A968A160E968E16029692B
:102C60002161FEF76BFED4E90301401A6061002088
:102C700070BD602070BD612070BD70B5B4210F487B
:102C8000FEF77BFF0D48002103460A463F2401EB77
:102C9000C10503EB85052435456004754275491C63
:102CA000243089B20429F2D3426004754275014888
:102CB000036070BD5000002012000020F8190020B1
:102CC00070B505460C0005D035B12878022805D02E
:102CD00001200870002070BD0420FAE7FEF72AFEEC
:102CE0006A680346D08A70B11169081D10610D68C9
:102CF000D18A491ED1829168884201D15068106101
:102D00000020207002E01F20207000251846FEF7EA
:102D100015FE284670BD2DE9F0410646F948884663
:102D2000007810B10020BDE8F081FEF703FEF64FF9
:102D30003C680CB161683960FEF700FE1CB3FEF719
:102D4000F9FDF2490D68C5B12A680A60FEF7F6FD83
:102D500006EB8800C5E90160EE602E61A5F81480DD
:102D60000020E8820221217020813F216560E1740A
:102D700020752046FFF72FF905E0396861603C6057
:102D8000FEF7DCFD00242046CDE72DE9F05F884604
:102D9000044615002ED02CB12078022804D0012042
:102DA000107026E00420FBE7D648007808B10F2019
:102DB000F6E7FEF7BFFD0746A07A08B1012600E05E
:102DC00000265FEA0800DFF844B3DFF83C934FF0D9
:102DD0003F0A4FF0000806D001282CD03846FEF7F5
:102DE000ADFD072004E03EB13846FEF7A7FD4920BF
:102DF00028702046BDE8F09F84F813A084F8148062
:102E00006068DBF8002046460260CBF8000084F8DA
:102E10000080D9F800106160A4F808803846C9F82D
:102E20000040FEF78BFD2E7024E00023042219469B
:102E30002046FFF75FF8A07A0028F6D184F813A0A7
:102E400084F814806068DBF800200260CBF8000092
:102E500084F80080D9F800206260A4F80880384621
:102E6000C9F80040FEF76AFD012E01D1FEF767FFA9
:102E700085F800800020BDE710B5040004D020785C
:102E8000022803D0012010BD042010BDFEF752FD22
:102E9000014660684268C26002610022C282084640
:102EA000FEF74CFD002010BD2DE9F0470546894690
:102EB000140057D02DB12878022804D001201070BA
:102EC00050E00420FBE78F48007808B10220F6E7C5
:102ED0008F48007808B10D20F1E7FEF72BFD06467C
:102EE00068680027C18A91B10269111D01611568E6
:102EF000C28A521EC2828268914201D14168016138
:102F00003046FEF71BFD27702846BDE8F087DFF846
:102F10000482D8F8000010F82C1F41F00401017061
:102F2000477020F8029C2846FFF71AF83046FEF753
:102F300005FDFEF704FFFEF7FDFC0646D8F800008D
:102F400090F82D80B8F1000F0ED02846FFF72AF830
:102F50003046FEF7F3FCB8F1020F01D00A2000E082
:102F60000E2020700020D0E7056A076280F82C70E0
:102F7000C761C5E72DE9F04106460F46150031D07F
:102F80002EB131780120022903D010702AE00420EC
:102F9000FBE7FEF7CFFC8046B07AF0B10024012FAA
:102FA0000FD00223042200213046FEF7A3FF0124A4
:102FB0004046FEF7C3FCFEF7C2FE0E2028702046F6
:102FC000B1E60223042200213046FEF793FF641C81
:102FD000B07AE4B20028F4D1EAE74046FEF7AEFC4E
:102FE0000020287000209EE670B504000E4604D034
:102FF0002078022803D0012070BD042070BDFEF7A8
:1030000099FC0546A07A58B1002304223146204697
:10301000FEF770FF2846FEF791FCFEF790FE19E0E0
:103020006068C18A828A914204D32846FEF786FCF2
:103030001E2070BDC1680A1DC2600E60C18A491C95
:10304000C182D0E902128A4201D14168C16028469A
:10305000FEF774FC002070BD70B504000E4604D06D
:103060002078022803D0012070BD042070BDFEF737
:1030700061FC0546A07A58B100230422314620465F
:10308000FEF738FF2846FEF759FCFEF758FE18E019
:103090006068C18A828A914204D32846FEF74EFCBA
:1030A0001E2070BD42680169914201D181680161B1
:1030B000091F01610E60C18A491CC1822846FEF7C2
:1030C0003DFC002070BD2DE9F04107000D4614467F
:1030D00004D03878022803D0012024E6042022E618
:1030E000FEF728FC0646B87A28B3E00714D0002380
:1030F000042229463846FEF7FDFEB87A0028F6D1AC
:1031000010E00000120000202000002054000020E9
:1031100013000020300000200023042229463846F6
:10312000FEF7E8FE3046FEF709FC600701D4FEF723
:1031300006FE0020F7E57B68D88A998A884204D386
:103140003046FEF7FBFB1E20EDE5A00709D55968C8
:103150001869884201D198681861001F18610560DC
:1031600009E0D868011DD9600560D3E902018142F8
:1031700001D15868D860D88A401CD8823046FEF702
:10318000DDFBD6E770B506000D4605D035B13078C9
:10319000022805D0012070BD042070BD092070BD3B
:1031A000FEF7C8FB0246B07A287406F10B0405F15D
:1031B00008010020401C14F8013BC0B201F8013B9B
:1031C0000828F7D37068C18A09B1016909682960C4
:1031D000C18AA980808AE8801046FEF7AFFB0020F4
:1031E00070BD10B560210A48FEF7C7FC08480021F1
:1031F00000F1180240F8182B491C183289B2032933
:10320000F8D30021016003490148086010BD0000A7
:10321000AC1A00205400002070B5040002D02078C1
:10322000032801D0002070BDFEF784FB25890DB175
:10323000691E2181FEF782FB284670BD70B50546E8
:10324000C248007808B1002070BDFEF773FBC0498A
:103250000C680CB162680A60FEF770FB54B1032081
:103260002070258100203F216060E1742075204698
:10327000FEF7B1FE204670BD2DE9F04788460446B2
:1032800015002CD02CB12078032804D00120107018
:1032900024E00420FBE7AD48007808B10F20F6E7F2
:1032A000FEF748FB0746A07A08B1012600E0002699
:1032B0005FEA0800DFF898924FF03F084FF0000AED
:1032C00006D0012826D03846FEF738FB072004E058
:1032D0003EB13846FEF732FB492028702046BDE853
:1032E000F08784F8138084F814A084F800A0D9F83B
:1032F00000106160A4F808A056463846C9F800409E
:10330000FEF71CFB2E701FE0002301221946204609
:10331000FEF7F0FDA07A0028F6D184F8138084F837
:1033200014A084F800A0D9F800206260A4F808A0D6
:10333000D0463846C9F80040FEF700FB012E01D107
:10334000FEF7FDFC85F800800020C8E72DE9F04776
:10335000054689461400C2D025B12878032803D039
:1033600001200AE0042008E07848007808B1022033
:1033700003E07848007810B10D201070AFE7FEF739
:10338000D9FA06462889002710B1401E28812CE072
:10339000DFF8C481D8F8000010F82C1F41F00101BB
:1033A0000170477020F8029C2846FEF7D9FD304690
:1033B000FEF7C4FAFEF7C3FCFEF7BCFA0646D8F8DF
:1033C000000090F82D80B8F1000F0DD02846FEF7D0
:1033D000E9FD3046FEF7B2FAB8F1020F01D00A203B
:1033E00000E00E2020707AE7C7613046FEF7A6FAAB
:1033F000277074E72DE9F04106460F46150032D0DC
:103400002EB131780120032903D010702BE0042065
:10341000FBE7FEF78FFA8046B07AF8B10024012F5F
:1034200010D00223012200213046FEF763FD012463
:103430004046FEF783FAFEF782FC0E2028702046F5
:10344000BDE8F0810223012200213046FEF752FD43
:10345000641CB07AE4B20028F4D1E9E74046FEF7F4
:103460006DFA002028700020EAE770B5040004D04F
:103470002078032803D0012070BD042070BDFEF722
:1034800059FA0546A07A58B1002301221946204670
:10349000FEF730FD2846FEF751FAFEF750FC09E032
:1034A00020894FF6FF71884206D2401C20812846B1
:1034B000FEF744FA002070BD2846FEF73FFA32209E
:1034C00070BD2DE9F04106000F4605D037B13078C8
:1034D000032805D00120B3E70420B1E70920AFE7B6
:1034E000FEF728FA0146B07AB872BC1C06F10B054B
:1034F0000020401C15F8012BC0B204F8012B08284D
:10350000F7D3308938800846FEF718FA002097E78D
:1035100070B504460E46150005D02CB1207803285E
:1035200004D00120107070BD0420FBE7FEF702FA02
:1035300000212970218939B9A17A29B1492129703D
:10354000BDE87040FEF7FAB92681F9E712000020C5
:103550002000002013000020300000202DE9F0475B
:1035600005460C463F2801D3FF2D01D13F2C02D345
:103570002A20BDE8F087FEF7DDF9DFF810C4034626
:103580005CF8240020B11846FEF7D8F92820F0E7AF
:10359000FF2D03D1FE48006890F82E505CF82520DE
:1035A00012B3012A25D0E108012004F0070A00FA2D
:1035B00001F600FA0AF000F0FF0900204CF825009F
:1035C0004CF8242092F83050DFF8C88392F831008C
:1035D000F6B218F80570074222D08743DFF8B8C367
:1035E00008F805700AD010E01846FEF7A7F9292060
:1035F000BFE71846FEF7A2F94320BAE792F8327007
:103600009CF80000B8438CF800009CF800003043A0
:103610008CF8000018F8010040EA090008F80100E1
:10362000D069B0B100EB050C92F831709CF80B50EA
:10363000BD438CF80B5004D1857A92F83270BD43AB
:103640008572857A354385720844C57A45EA09054D
:10365000C57202F82E4F1846917082F801A01671BB
:1036600082F80390FEF76AF9CC480078012801D16E
:10367000FEF765FB00207CE72DE9FE4306460F467A
:1036800090461C463F2B02D92A20BDE8FE83FEF758
:1036900051F9C349097819B1FEF750F93C20F4E714
:1036A000BA4D55F8241019B1FEF748F92820ECE777
:1036B000012145F82410FEF741F90023424639461E
:1036C0003046FEF7F2F800231A4619468DE80E0040
:1036D00001462046FEF794FC060008D0FEF72AF9C2
:1036E000002145F82410FEF729F93046CDE7AB4814
:1036F00000780128F9D1FEF722FBF6E7D30707D0BF
:10370000920705D50022002902D004C0491EFAE71D
:1037100070472DE9FF4F83B08046DDE910B6149F56
:10372000894692461C463F2B03D92A2007B0BDE8A4
:10373000F08FFEF7FFF89A49097819B1FEF7FEF805
:103740003C20F3E7914D55F8241019B1FEF7F6F837
:103750002820EBE7012145F82410FEF7EFF83A4660
:1037600030461299FFF7CAFF3B465246494640464B
:10377000FEF79BF8DDE912128DE8860001465B46F4
:1037800032462046FEF73CFC060008D0FEF7D2F891
:10379000002145F82410FEF7D1F83046C6E77F48EF
:1037A00000780128F9D1FEF7CAFAF6E72DE9F047CB
:1037B00005467B48007808B14020DAE63F2D04D06A
:1037C00005D3FF2D03D02A20D3E63E20D1E6FEF715
:1037D000B1F80646FF2D03D16D48006890F82E50D1
:1037E000DFF8A89159F825405CB1012C0ED094F86F
:1037F0003010684A94F83130505C984350540AD0E5
:103800000FE03046FEF79AF84320B2E63046FEF766
:1038100095F83D20ADE6604894F8323002789A433E
:103820000270E06958B1421894F83130D17A994366
:10383000D17204D1817A94F8322091438172606A06
:1038400008B1FEF7D6FC4FF00008A4F82A80554FC7
:1038500084F82C8084F82D803878FF2801D2401C11
:1038600038703046FEF76AF8FEF743FBFEF762F861
:103870000646387808B1401E38702046FEF712F828
:1038800049490878401E087049F82580A0694146DA
:10389000A0B162694261D4E90502826143480268CD
:1038A000626104603F2004F8480F30466170FEF703
:1038B00045F83A480078012806D007E060693C4A9C
:1038C000816160691060E9E7FEF739FA002050E68F
:1038D00010B504463F2804D00FD3FF2803D02A2078
:1038E00010BD3E2010BDFEF725F82949096891F862
:1038F0003340FEF723F8204610BDFEF71BF823499E
:1039000051F8241041B101290AD03F2281F8332017
:10391000FEF714F8002010BDFEF710F8432010BD8C
:10392000FEF70CF83D2010BD2DE9F04105460F468D
:10393000140043D03F2D03D9FF2D01D02A2006E0EB
:1039400027B11748007820B1112000E00C2010703A
:1039500034E0FDF7EFFF0646FF2D03D10C48006869
:1039600090F82E50094850F82510432511B301292D
:1039700020D048313846FEF731F805463046FDF78D
:10398000DDFF002020702846BDE8F0813C120020B9
:103990003000002044000020160000201700002006
:1039A0001200002013000020180000203400002026
:1039B0003C0000203046FDF7C1FF25700020E3E702
:1039C0002DE9F041054688461400DDD03F2D03D98E
:1039D000FF2D01D02A2004E029B19648007820B1BB
:1039E00012201070D0E70C20FBE7FDF7A3FF06467E
:1039F000FF2D03D19048006890F82E508F48432740
:103A000050F825505DB1012D09D04046FEF724F84D
:103A10000F2809D93046FDF791FF41200DE03046CF
:103A2000FDF78CFF2770AFE7414605F14800FDF731
:103A3000D5FF3046FDF782FF00202070A4E710B5C7
:103A400004463F2801D32A2010BDFDF773FF7B49B0
:103A500051F8241059B101290DD091F82C201307E9
:103A60002BD532F0080281F82C2008D009E0FDF7B0
:103A700065FF462010BDFDF761FF432010BD4A8D54
:103A80001AB1FDF75BFF002010BD6D4A01F1300156
:103A90008B78147843EA040313700A78694C4978E8
:103AA000A35C43EA0103A354FDF748FF664800788E
:103AB0000128E8D1FEF743F9E5E7FDF73FFF442091
:103AC00010BD2DE9F04104460E463F2803D9FF2CD6
:103AD00001D02A2058E746B1002030607060FDF721
:103AE00029FF0146FF2C02D005E009204CE752488F
:103AF000006890F82E40514850F8240058B1012831
:103B000009D0028AD2070BD0D0E902570024084618
:103B1000FDF714FF0AE00846FDF710FF432033E7E6
:103B20000846FDF70BFF45202EE7641C01CD002859
:103B3000FBD0A0003060381B80007060002023E7BD
:103B400070B504463F2804D005D3FF2C03D02A20AB
:103B500070BD472070BDFDF7EDFE01463648FF2CD5
:103B6000006805D090F82E00A04204D1012503E0A2
:103B700090F82E40FAE70025304850F8240058B15C
:103B800001280ED090F830202E4C90F83160A35CC4
:103B9000B343A3540AD00FE00846FDF7CFFE4820F8
:103BA00070BD0846FDF7CAFE432070BD244A90F858
:103BB00032401378A343137010F82C2F42F0080200
:103BC00002700846FDF7BAFE012D01D1FEF7B7F8E5
:103BD000002070BD70B504460E463F2803D9FF2C67
:103BE00001D02A2070BD2EB1FDF7A4FE0546FF2CA2
:103BF00002D005E0092070BD0F48006890F82E4003
:103C00000E4850F8241051B101290DD058223046E9
:103C1000FEF7ECF92846FDF791FE002070BD28461E
:103C2000FDF78CFE292070BD2846FDF787FE432056
:103C300070BD000012000020300000203C12002067
:103C400016000020440000201700002070B5044634
:103C50005D48007800281DD1002C1BD0FDF76AFEBE
:103C600003465A485A4D016891F8302091F8316066
:103C7000A85CB043A85405D1564891F83250027858
:103C8000AA4302704C851846FDF758FEBDE8704007
:103C9000FEF755B870BD70B54B4C24780CB155206B
:103CA00070BD00B919B13B2902D9512070BD1AB1BC
:103CB0003B2A02D9522070BD2BB14FF47A74A34233
:103CC00003D3532070BD542070BD4FF47A756B43FD
:103CD000B3FBF4F34FF461646043C1EB011100EBFB
:103CE0008100104400EB4001C1EBC01003EBC000A9
:103CF000040C80B2FFF7AAFF4FF4004507E0284606
:103D0000FFF7A4FF2846FFF7A1FF641EA4B2002C12
:103D1000F5D1002070BD10B504463F2801D32A20FC
:103D200010BDFDF707FE2C4951F8241091B101296F
:103D300010D04A8D92B100234B8591F82C2012F0BF
:103D4000370F0FD022F0370281F82C20012281F8A2
:103D50002D2009E0FDF7F2FD432010BDFDF7EEFD3B
:103D6000502010BD81F82D3091F82C20120713D46B
:103D7000184A01F130018B78147843EA0403137078
:103D80000A78134B49789C5C44EA01049C54FDF783
:103D9000D5FDFDF7D4FF01E0FDF7D0FD002010BDFB
:103DA00010B5FDF7C7FD0D490C68FDF7C7FD2046AE
:103DB00010BD10B50446FDF7BDFD08490C60BDE817
:103DC0001040FDF7BBBD00001200002030000020B5
:103DD00044000020160000203C120020400000207B
:103DE0002DE9FF5F0746DDE90FA5884691469B4612
:103DF0002DB1012A0AD0022A05D0842041E00020FA
:103E000004B0BDE8F09F11B983203AE027B1F9482A
:103E1000007818B18B2034E0822032E000F090FA74
:103E2000F548002604683CB3E1680160F349E660A8
:103E300026610888401C0880F1490888401E0880D7
:103E4000E4B1012084F83100C4E9067884F83090A8
:103E5000C4F804B00E98A0605FEA0A0008D0FDF72D
:103E6000FBFD10280FD2514604F12000FDF7B6FDEE
:103E700000F062FA2E700FE03446E1E700F05CFAE1
:103E800086202870BBE7232084F8200084F8216076
:103E90008C20287000F050FA2046B1E7002180F80D
:103EA000311080F83010C161416141603F22816072
:103EB00080F8202080F821100161CF490A68C26093
:103EC0000860CE480188491E0180CD480188491C00
:103ED0000180704710B54169CA4A01F0070102EB41
:103EE000C10100240B68C268834203D10A602AB171
:103EF000146103E00369DA6002B11361012280F802
:103F00003120C46004618888401E888010BD70B56F
:103F100005460C002CD02DB12878642804D08920C7
:103F2000087025E08A20FBE7B248007808B18B20B2
:103F3000F6E700F005FA95F83110A9B1002601293D
:103F40000AD0022908D0032903D000F0F5F98D200A
:103F50000DE02846FFF7BEFF2846FFF79FFF00F061
:103F6000EBF92670012070BD00F0E6F98720207083
:103F7000002070BD70B505460E4614002FD02EB13E
:103F800035B12878642806D0892002E0882000E036
:103F90008A20107023E09748007808B11120F8E7D4
:103FA00000F0CEF995F83100A8B1012807D0022819
:103FB00005D0032803D000F0BFF98D200EE005F1F5
:103FC00020013046FDF70AFD054600F0B5F9002155
:103FD0002170284670BD00F0AFF9872020700020C6
:103FE00070BD2DE9F04105460C003BD02DB128787D
:103FF000642804D08920087034E08A20FBE77D48DB
:10400000007808B18B20F6E700F09AF995F83100B6
:1040100020B30026012811D002281BD0032803D08A
:1040200000F08AF98D201CE0774968690968451A13
:1040300000F082F926702846BDE8F08195F830003E
:10404000AF69022801D107B9EF6900F075F9267050
:104050003846F1E700F070F9267003E000F06CF9E3
:10406000872020700020E7E770B505460C0005D0DA
:1040700035B12878642805D0892007E0002070BD7C
:104080008A2003E05B48007810B18B200870F5E7C8
:1040900000F056F995F831503DB1012D05D0022DB3
:1040A00003D0032D01D08D2000E00020207000F00F
:1040B00043F9284670BD032280F83120524A012975
:1040C000126813D0816989B1114441614D4A01F0F0
:1040D000070102EBC10100230A68086042B1C26017
:1040E00010618A88521C8A8003617047C169EBE7BE
:1040F0000122C360F7E770B505460C002DD02DB145
:104100002878642804D08920087026E08A20FBE7FC
:104110003848007808B18B20F6E700F011F995F8DF
:104120003110B1B1002601290AD0022908D0032993
:1041300003D000F001F98D200EE02846FFF7CAFEFB
:1041400000212846FFF7B7FF00F0F6F8267001209F
:1041500070BD00F0F1F887202070002070BD2DE9BF
:10416000F04105460E4617461C0041D02DB1287877
:10417000642804D0892018703AE08A20FBE71D48A3
:10418000007808B18B20F6E700F0DAF895F83100F6
:1041900050B3012823D0022821D0032803D000F0F7
:1041A000CBF88D2023E02846FFF794FE00202070F6
:1041B0008EB18F20032E03D0042E05D0842009E079
:1041C0006A683AB1A96802E06A681AB139462846B5
:1041D000904700E0207000F0AFF801202CE700F0DD
:1041E000ABF88E202070F8E700F0A6F8872020704A
:1041F000002021E712000020680000205A00002063
:10420000580000204C2000205C000020504800682E
:10421000FFF72BB908B5DFF83881DFF838914E4E3B
:104220006A460021D8F80000FFF790F800F088F8FF
:104230003068401C306000F00700022759F8304019
:1042400013E060693168E56888420DD1626812B197
:104250002046A16890472046FFF73CFE94F83000C6
:10426000022807D084F831702C46002CE9D100F0E8
:1042700063F8D5E701212046FFF71DFFF4E730B5CD
:1042800087B04FF450713548FDF777FC4021314835
:10429000FDF773FC31480021642400F134020B4621
:1042A0003F25047080F83130C26080F8205080F8DB
:1042B0002130491C3430343289B20F29F1D30470D3
:1042C00080F83130C36080F8205080F821302248D7
:1042D00024490360224803801020088022491F4897
:1042E00008600120FEF7AAFF204D28600020FEF79D
:1042F000A5FF174C05AA1EA120602868FDF7B6FB94
:1043000005AA1EA12068FDF7B1FB1F4801AC0323DD
:10431000002280210FC44FF6FD73009300F5FE725A
:104320003D2300211948FFF7F4F906AA18A13D2002
:10433000FFF746FB07B030BD0C480068FFF795B8A3
:1043400008B50A486A4600210068FEF7FFFF08BD6D
:10435000640000204C2000205C0000200C1B00208A
:104360005A00002058000020680000206000002053
:104370004F532D546D724C6F636B00004F532D548F
:104380006D725369670000004C1E00201542000842
:1043900075432F4F532D494920546D720000000082
:1043A000FFF7FEBC4FF47A71484390FBF1F080B206
:1043B000FFF74CBC3220FFF749BC10B50120FEF7D7
:1043C0003DFF2A4C60600020FEF7B9F9A06010BDE7
:1043D00008B526486A4600214068FEF7B7FF08BDC9
:1043E00022484068FFF741B82148006890F82E0045
:1043F000704708B51D486A4600218068FEF727FA15
:1044000008BD1A4801218068FEF7BEBA10B5002029
:10441000FEF714FF1549C86010BD70B5134D2C6927
:1044200000F01BF800202861204670BD38B500F070
:1044300014F80E4C206920B96A460021E068FEF7A6
:1044400085FF00212069216138BD08490861C868DD
:10445000FFF70BB870477047704704480178002990
:1044600002D101210170D1E7704700006C000020EB
:104470003000002038B501210846FCF7A5FD0121D8
:10448000F948FCF7DAFA01211C20FCF79DFD4FF6F4
:10449000FF74ADF8004010208DF803000320F34DA9
:1044A0008DF8020069462846FCF73DFA2146284669
:1044B000FCF7A2FA4FF4E060ADF800006946EC4862
:1044C000FCF731FA4FF40040ADF800006946E948C6
:1044D000FCF729FA38BDE8494FF6FF724A600860D8
:1044E00070472DE9F0478146002108460CF0D2FCC8
:1044F000DF4E4FF4807841463046FCF77FFA2220A9
:104500000CF0F2FC71153046FCF776FA00243515F4
:104510004FF496374846FFF7DEFF29463046FCF752
:104520006DFA29463046FCF767FA641CBC42F1D3A9
:1045300041463046BDE8F047FCF75EBA00E0401E59
:104540000028FCD170472DE9F0474FF6FF70FFF7C8
:10455000C2FFC74E4FF480613046FCF74DFAB715E5
:1045600039463046FCF748FA71153046FCF744FAF4
:10457000DFF800A34FF4004949465046FCF73CFAE7
:104580004CF2503425466D1E2D042D0CFBD12546D2
:104590006D1E2D042D0CFBD12046401E0004000C86
:1045A000FBD101210CF0C4FC42F21070401EFDD181
:1045B0002046401E0004000CFBD12046401E000493
:1045C000000CFBD100253946B0463046FCF716FA00
:1045D00028460CF089FC4D46494656465046FCF7A5
:1045E0000DFA0CF041FC814629463046FCF704FAEE
:1045F00039464046FCF700FAA0494846A1F8009029
:10460000A9F51341253903D0A0F5134128397ED1EE
:1046100047F6F001E5200CF08BFC394601200CF048
:1046200087FC4FF4E06102200CF082FC41F2300183
:1046300003200CF07DFC002104200CF079FC40F2FA
:10464000022108200CF074FC002109200CF070FC01
:1046500000210A200CF06CFC01210C200CF068FCFD
:1046600000210D200CF064FC00210F200CF060FCF8
:10467000002110200CF05CFC072111200CF058FCEC
:10468000002112200CF054FC002113200CF050FCEF
:10469000012107200CF04CFC25466D1E2D042D0C2D
:1046A000FBD12646761E3604360CFBD141F29061D2
:1046B00010200CF03DFC40F2272111200CF038FCBA
:1046C00027467F1E3F043F0CFBD125466D1E2D045F
:1046D0002D0CFBD19D2112200CF02AFC2646761EC3
:1046E0003604360CFBD125466D1E2D042D0CFBD156
:1046F0004FF4C85113200CF01BFC252129200CF08D
:1047000017FC0D212B200CF013FC274600E095E050
:104710007F1E3F043F0CF9D125466D1E2D042D0C44
:10472000FBD1002120200CF003FC002121200CF003
:10473000FFFB2646761E3604360CFBD125466D1E41
:104740002D042D0CFBD1072130200CF0F1FB40F2A1
:10475000033131200CF0ECFB032132200CF0E8FB9C
:1047600040F2062135200CF0E3FB082136200CF046
:10477000DFFB40F2064137200CF0DAFB4FF44171C9
:1047800038200CF0D5FB072139200CF0D1FB40F28A
:1047900002613C200CF0CCFB08213D200CF0C8FB52
:1047A00027467F1E3F043F0CFBD125466D1E2D047E
:1047B0002D0CFBD1002150200CF0BAFBEF21512031
:1047C0000CF0B6FB002152200CF0B2FB40F23F117E
:1047D00053200CF0ADFB4FF4274160200CF0A8FBF8
:1047E000012161200CF0A4FB00216A200CF0A0FB49
:1047F000002180200CF09CFB002181200CF098FB14
:10480000002182200CF094FB002183200CF090FB0F
:10481000002184200CF08CFB002185200CF088FB0B
:10482000102190200CF084FB4FF4C06192200CF01A
:104830007FFB40F2331107200CF07AFB641E240446
:10484000240CFBD1F820FFF74CFEBDE8F0474FF4F5
:10485000784046E6C0F34511C20AC00200EB4110A1
:10486000104480B27047000000023000000C01408C
:104870000010014000080140100C014080000020A1
:104880002DE9F0410CF006FBCE4D4FF4807421462B
:104890002846FCF7B3F822200CF026FBCA4FE601AD
:1048A00031463846FCF7AAF80CF0DEFAFFF7D2FFE3
:1048B000804631463846FCF79FF821462846FCF7EB
:1048C0009BF84046BDE8F08170B51446B0F5A07F76
:1048D00023D8F02921D80CF0DDFABA4E4FF48075B8
:1048E00029463046FCF78AF822200CF0FDFA6900D0
:1048F0003046FCF781F82046FFF7EDFDAC0021467D
:104900003046FCF77BF821463046FCF775F829461F
:104910003046BDE87040FCF76FB870BD2DE9F04738
:1049200004460F4616469946089D0CF0B3FA2146F8
:1049300050200CF0FDFA394652200CF0F9FA3146BD
:1049400051200CF0F5FA494653200CF0F1FA3946A3
:1049500020460CF09FFA9B4F4FF4807A5146384620
:10496000FCF74CF822200CF0BFFA79153846FCF71A
:1049700043F80024B8463F1506FB09F60DE035F86C
:10498000020BFFF7A8FD39464046FCF737F83946D9
:104990004046FCF731F8641CA4B2A642EFDC514655
:1049A0004046BDE8F047FCF727B82DE9FF5F074612
:1049B00000251001DFF814B28A46A0F5007909EB52
:1049C000050100241BF801800AEB0506C4F107016C
:1049D00028FA01F0C00707EB0400B1B280B201D0A1
:1049E000039A00E00E9AFFF76FFF641CA4B2082C34
:1049F000ECD36D1CADB2102DE1D3BDE8FF9F2DE9C6
:104A0000F05F002108460CF045FA002150200CF020
:104A10008FFAEF2151200CF08BFA002152200CF07C
:104A200087FA40F23F1153200CF082FA654E4FF4A2
:104A300080713046FBF7E2FF22200CF055FA711529
:104A40003046FBF7D9FF4FF00008C1464546371501
:104A50000024E008C10241EA481040EA0900FFF7DB
:104A60003AFD39463046FBF7C9FF39463046FBF779
:104A7000C3FF641CE4B2F02CEBD36D1CEDB2322DFD
:104A8000E6D31F2000254FEAC02A80464FF03F0999
:104A90000024A9EB9400A8EBD4014AEA4010084393
:104AA00080B2FFF718FD39463046FBF7A7FF3946BD
:104AB0003046FBF7A1FF641CE4B2F02CE9D36D1C77
:104AC000EDB2322DE4D30020834605464FEAC02ADA
:104AD0000024A0084AEA401040EA0B0080B2FFF729
:104AE000FAFC39463046FBF789FF39463046FBF77A
:104AF00083FF641CE4B2F02CEBD36D1CEDB2322DBD
:104B0000E6D34FF03F0A00250024A8EBD401CA02E7
:104B100042EA4A100843FFF7DEFC39463046FBF70D
:104B20006DFF39463046FBF767FF641CE4B2F02C9A
:104B3000EBD36D1CEDB2322DE6D3002108460D46B5
:104B4000C90241EA401A00244AEAD40188B2FFF7B8
:104B5000C2FC39463046FBF751FF39463046FBF779
:104B60004BFF641CE4B2F02CEED36D1CEDB23C2D77
:104B7000E9D34FF01F0A00250024A8EBD400A9EBCD
:104B80009401C00240EA411040EA0A00FFF7A3FC8A
:104B900039463046FBF732FF39463046FBF72CFFEB
:104BA000641CE4B2F02CE8D36D1CEDB23C2DE3D3D1
:104BB0003046BDE8F05F4FF48071FBF71DBF51E652
:104BC00050E600000010014000080140C610010836
:104BD000C0F3C402C0F38521C0F3C440C00200EB9F
:104BE0004110104480B270472DE9F84F0646DDE9C8
:104BF0000A9A884615461F4600240CE0CDF800A00E
:104C000006EBC40015F8012B80B24B464146FFF776
:104C1000CCFE641CE4B2BC42F0D3BDE8F88F2DE9B1
:104C2000F05F0446DDF828B08A4617461E469942D2
:104C300011D1BC4201D8254609E01546274606E0B9
:104C40005A4651462846FFF73FFE6D1CADB2BD42A5
:104C5000F6D9BDE8F09F02D9AAEB060001E0A6EB69
:104C60000A001FFA80F9BC4211D15046B24501D862
:104C7000054609E01D46064606E05A4629462046F6
:104C8000FFF722FE6D1CADB2B542F6D9E1E707D9B8
:104C9000E01B27461FFA80F815461C46564604E0DE
:104CA000381B25461FFA80F85446C8450DD00FE042
:104CB0006D1CADB2B44201D9641E00E0641CA4B204
:104CC0005A4621462846FFF7FFFDBD42F0D9C0E70E
:104CD0005A4621462846FFF7F7FDB442494643D2DB
:104CE000C8451FD9C8EB490006B248000FFA80FA40
:104CF000A9EB080040000FFA80F810E06D1CADB27F
:104D0000002E02DA06EB0A0003E0641CA4B206EBF4
:104D1000080006B25A4621462846FFF7D5FDBD4297
:104D2000ECD396E70846C0EB480007B24FEA4800CC
:104D30000FFA80FAA8EB090040000FFA80F810E0A3
:104D4000641CA4B2002F02DA07EB0A0003E06D1C1A
:104D5000ADB207EB080007B25A4621462846FFF7D6
:104D6000B3FDB442ECD374E7C8451FD9C8EB490082
:104D700006B248000FFA80FAA9EB080040000FFACB
:104D800080F810E06D1CADB2002E02DA06EB0A00CE
:104D900003E0641EA4B206EB080006B25A462146A0
:104DA0002846FFF791FDBD42ECD352E70846C0EB21
:104DB000480007B24FEA48000FFA80FAA8EB090052
:104DC00040000FFA80F810E0641EA4B2002F02DA4F
:104DD00007EB0A0003E06D1CADB207EB080007B259
:104DE0005A4621462846FFF76FFDA642ECD330E72E
:104DF0002DE9FF4F06460024032081B00F461546DB
:104E0000A0EB42008BE00E98A0B3049B79190093AD
:104E10008BB2A6EB040A06EB04091FFA8AF289B2E8
:104E20001FFA89F0FFF7FBFE049B791B00938BB2FE
:104E30001FFA8AF289B21FFA89F0FFF7F0FE049B8D
:104E4000391900938BB2A6EB050A06EB05091FFA88
:104E50008AF289B21FFA89F0FFF7E1FE049B391B41
:104E600000938BB21FFA8AF289B21FFA89F0FFF71A
:104E7000D6FE48E0FFE707EB050906EB040B1FFA37
:104E800089F11FFA8BF0049AFFF71EFDA6EB040AC6
:104E90001FFA89F11FFA8AF0049AFFF715FDA7EBB4
:104EA00005091FFA89F11FFA8BF0049AFFF70CFD30
:104EB0001FFA89F11FFA8AF0049AFFF705FD07EB44
:104EC000040906EB050B1FFA89F11FFA8BF0049A0F
:104ED000FFF7FAFCA6EB050A1FFA89F11FFA8AF020
:104EE000049AFFF7F1FCA7EB04091FFA89F11FFAF6
:104EF0008BF0049AFFF7E8FC1FFA89F11FFA8AF099
:104F0000049AFFF7E1FC641CA4B2B8F1000F0EDBB9
:104F10006D1EADB2A000A0EB850040440A300FFA30
:104F200080F8A5423FF66FAF05B0BDE8F08F08EB03
:104F30008400801DF3E72DE9F8430746DDE908907A
:104F40000E4615469846A0B1AF4202D914463D46DA
:104F50000BE03C4609E04346224631462046CDF868
:104F60000090FFF75CFE641CA4B2AC42F3D9BDE82C
:104F7000F88343463A463846CDF80090FFF74FFE97
:104F800043462A4641463846CDF80090FFF747FE93
:104F900033462A4641462846CDF80090FFF73FFEAB
:104FA00033463A4631462846CDF80090FFF737FEA3
:104FB000DDE71CB514461A46049BCDE900230A1907
:104FC00093B2021992B2FFF7B6FF1CBD10B5FFF7FE
:104FD000BAFA002010BD92B289B280B2FFF774BC59
:104FE00089B280B2FFF74CBC704770B589B280B20D
:104FF0000C460546FFF744FC4FF6FF710A1A21469E
:105000002846BDE87040FFF75FBC08B5FF4B92B281
:1050100080B25B8800938BB21946FFF700FE08BD93
:1050200008B5FA4B89B25B88009393B282B21046FE
:10503000FFF7F5FD08BD2DE9F04106460C46174681
:105040001D4605E03A4621463046FFF7DEFF641C68
:10505000AC42F7DDBDE8F0812DE9F05F0546DDE902
:105060000A408B46B0F80090B0F80280E748167806
:105070009246007B1FFA8BF710F0030103F0070044
:1050800004D0012912D0022918D107E0082815D22E
:10509000DFE800F068727D8893A0ABB608280DD2D7
:1050A000DFE800F00C151F29333D4751082805D2D1
:1050B000DFE800F0B6BEC6CED6DEE6EE300604D59A
:1050C00042463946A8B2FFF7FFFB641E7DD070064A
:1050D00005D5681C4246394680B2FFF7F5FB641ED1
:1050E00073D0B00605D5A81C4246394680B2FFF7FA
:1050F000EBFB641E69D0F00605D5E81C4246394634
:1051000080B2FFF7E1FB641E5FD0300705D5281D94
:105110004246394680B2FFF7D7FB641E55D0700770
:1051200005D5681D4246394680B2FFF7CDFB641EA7
:105130004BD0B00705D5A81D4246394680B2FFF7CF
:10514000C3FB641E41D0F00705D0E81D4246394636
:1051500080B2FFF7B9FB641E37D005F108051AF8D5
:10516000016FABE74246300600D44A463946A8B242
:10517000FFF7AAFB641E28D04246700600D44A46B8
:10518000681C394680B2FFF79FFB641E1DD0424663
:10519000B00600D44A46A81C394680B2FFF794FBFB
:1051A000641E12D04246F00600D44A46E81C394636
:1051B00080B2FFF789FB641E76D04246300700D4E8
:1051C0004A46281D394680B200E06DE0FFF77CFBBF
:1051D000641E69D04246700700D44A46681D3946AD
:1051E00080B2FFF771FB641E5ED04246B00700D468
:1051F0004A46A81D394680B2FFF766FB641E53D0AD
:105200004246F00700D14A46E81D394680B2FFF712
:105210005BFB641E48D005F108051AF8016FA1E791
:10522000300603D559462846FFF7DFFE641E3BD003
:10523000700603D55946681CFFF7D7FE641E33D0AD
:10524000B00603D55946A81CFFF7CFFE641E2BD02D
:10525000F00603D55946E81CFFF7C7FE641E23D0AD
:10526000300703D55946281DFFF7BFFE641E1BD02B
:10527000700703D55946681DFFF7B7FE641E13D0AB
:10528000B00703D55946A81DFFF7AFFE641E0BD02B
:10529000F00703D05946E81DFFF7A7FE641E03D0B0
:1052A00008351AF8016FBBE7BDE8F09F2DE9F0471C
:1052B00006465648DDE90849007B157890468FB2CE
:1052C000B9F1000F4FEA807078D0002803F0030096
:1052D00005DAC0B3012843D002285DD14EE020B1E9
:1052E00001280BD002281FD113E0A909B0B239F868
:1052F00011203946FFF7E8FA641E6FD0C5F301119B
:10530000701C39F81120394680B2FFF7DDFA641EAF
:1053100064D0C5F38101B01C39F81120394680B240
:10532000FFF7D2FA641E59D005F00301F01C39F8DA
:105330001120394680B2FFF7C7FA641E4ED018F824
:10534000015F361DD1E7FFE715F0C00F06D0A909B0
:10535000B0B239F811203946FFF7B6FA641E3DD0D5
:1053600015F0300F08D0C5F30111701C39F8112069
:10537000394680B2FFF7A8FA641E2FD015F00C0F43
:1053800008D0C5F38101B01C39F81120394680B22C
:10539000FFF79AFA641E7DD0A80708D005F0030134
:1053A000F01C39F81120394680B2FFF78DFA641EDF
:1053B00070D018F8015F361DC6E7FFE7002803F03C
:1053C000030005DA08B301283DD0022853D146E096
:1053D00028B101280AD002281ED110E05AE0AA09FB
:1053E0003946B0B2FFF770FA641E53D0701CC5F393
:1053F0000112394680B2FFF767FA641E4AD0B01C2A
:10540000C5F38102394680B202E012E0343900204F
:10541000FFF75AFA641E3DD0F01C05F0030239462E
:1054200080B2FFF751FA641E34D018F8015F361DC0
:10543000D5E715F0C00F04D0AA093946B0B2FFF77E
:1054400043FA641E26D015F0300F06D0701CC5F349
:105450000112394680B2FFF737FA641E1AD015F0F0
:105460000C0F06D0B01CC5F38102394680B2FFF79D
:105470002BFA641E0ED0A80706D0F01C05F003021C
:10548000394680B2FFF720FA641E03D018F8015F96
:10549000361DCEE7BDE8F0872DE9F0470546AB485D
:1054A000DDE90869007B147817461FFA81F8B9F125
:1054B000000F4FEA80703AD000284FEAC37001DA3B
:1054C000C8B123E040B92109A8B239F811204146FA
:1054D000FFF7FAF9761EDDD004F00F01681C39F8E9
:1054E0001120414680B2FFF7EFF9761ED2D0AD1CF5
:1054F00017F8014FE7E7200906D02109A8B239F8CB
:1055000011204146FFF7E0F9761EC3D0200708D0EE
:1055100004F00F01681C39F81120414680B2FFF7F2
:10552000D3F9761EB6D0AD1C17F8014FE3E700287B
:105530004FEAC37001DAA8B11DE030B92209414633
:10554000A8B2FFF7C1F9761EA4D0681C04F00F02C0
:10555000414680B2FFF7B8F9761E9BD0AD1C17F814
:10556000014FEBE7200904D022094146A8B2FFF71A
:10557000ABF9761E8ED0200706D0681C04F00F020F
:10558000414680B2FFF7A0F9761E83D0AD1C17F814
:10559000014FE7E77EE72DE9F04104466B48DDF86F
:1055A00018801546007B1E4680078FB21BD4B8F1C9
:1055B000000F0AD114E02878394638F81020A0B23C
:1055C000FFF782F9761E641C6D1C002EF3DC41E5AA
:1055D0002A783946A0B2FFF777F9761E641C6D1C55
:1055E000002EF5DC36E5B8F1000F0BD116E0287877
:1055F00028B138F810203946A0B2FFF765F9761EB9
:10560000641C6D1C002EF2DC24E52A781AB13946A0
:10561000A0B2FFF759F9761E641C6D1C002EF4DC55
:1056200018E52DE9F0410446484815461E46007B22
:105630008FB2800708D513E02A883946A0B2FFF759
:1056400043F9761E641CAD1C002EF5DC02E52A88A9
:105650001AB13946A0B2FFF737F9761E641CAD1CAB
:10566000002EF4DCF6E42DE9FF4F83B00D4612A9BD
:10567000DDE91007B1E8100C91461E46042830D031
:1056800005DC012809D0022818D1002025E00828CF
:1056900039D0102812D1002051E000200BE0CDE9D4
:1056A000009B08EB0501534622460398FFF7D4FC04
:1056B0003C4408F101008046B042F0DB07B0BDE891
:1056C000F08FCDE9009B08EB050153462246039875
:1056D000FFF7ECFD3C4408F101008046B042F0DBEE
:1056E000ECE700200BE0CDE9009B08EB05015346F9
:1056F00022460398FFF7D0FE3C4408F101008046A3
:10570000B042F0DBDAE700200BE008EB05014B4686
:105710002246CDF800B00398FFF73DFF3C4408F166
:1057200001008046B042F0DBC8E708EB05014B46BC
:1057300022460398FFF775FF3C4408F101008046BC
:10574000B042F2DBBAE770477047000034390020FE
:1057500070B5054600680F281AD1FF4802F0C9FE4F
:1057600003F0EAFD00221146FCA002F085F9FD4C91
:10577000E069401C04F09DF9FBA002F001F9206AE9
:1057800004F097F9F9A002F0FBF8092004F091F970
:105790002846BDE870400AF030B930B59BB0684685
:1057A00002F08EFEEF4C1434B4F900000BF02EF929
:1057B000A4F10E00B0F900000BF028F9B4F90000D4
:1057C00009F05BFC044618A802F002FD6FF07F4070
:1057D00002F08FFE03F0B0FD002002F095FEE448D9
:1057E00002F0F2FE022002F00BFFBDF96400BDF9E9
:1057F0006010DC4D411A01EBD17041100022A86904
:1058000002F04CF9002002F0FBFEDA4802F0DCFE68
:1058100014220021686A02F02FF9204609F02DFCBD
:10582000684602F051FE1BB030BD10B50446FF20A3
:1058300002F091F800B90024204602F05AFE2046FA
:1058400010BD10B50446FF2002F085F808B96FF0CE
:105850007F44204602F058FE204610BD70B502F08D
:10586000A5FD04460AF0BFF8BE4D6E2C01D04E2CAB
:1058700001D101202870732C01D0532C0CD14FF48E
:10588000FA7004F0E5F80A2004F0E2F80AF0ABF848
:1058900002F08CFD0028F6D0287870BD2DE9FE437B
:1058A0000546B0484FF00008801CB0F900000AF02F
:1058B000C1FA0027642D0EDDAA480E231430002201
:1058C000B0F902108DE80E000A2107233C22084699
:1058D00008F08FF807462A460021384607F0FAFFFD
:1058E00004F0B4F8064604F0B1F8841B21463846AB
:1058F00007F0EDFE0AF077F80A2004F0A9F8AC42B0
:1059000003DAFFF7ABFF0028EDD0384609F015FCAD
:1059100000F076F90AF067F84046BDE8FE8310B55E
:10592000904C0020207000F06BF9206A401C20622F
:1059300010BD10B54FF47A60FFF7B0FFBDE810401E
:10594000EDE78849486228E78648801DB0F90000E5
:105950000AF09ABCF8B5002604F078F800F57A64ED
:1059600004F0E7FBA0F1280504F0E0FB022300931C
:10597000463805235022294608F026F8054603E05C
:1059800002F014FD060008D104F060F8201A002887
:1059900003DDFFF763FF0028F2D0284609F0CDFBB6
:1059A0000AF021F83046F8BD70B598B006460C46AE
:1059B000684602F085FD6B4DAE616C6202F0ECFD55
:1059C000FFF7C2FF4FF47F0002F093FD6FF07F40BE
:1059D00002F09AFD03F0B0FC674802F0F5FD04F018
:1059E000A8FB032190FBF1F40A3C04F09FFB00EBC1
:1059F000D07041102246304602F050F8686A98B1E3
:105A00005C4802F0E1FD04F094FB044604F08EFBD8
:105A100004EBD4716FF0090202EB610200EBD0706D
:105A20004110686A02F03AF8696A4FF4FA6001B905
:105A30004000FFF733FFFFF7B0FE00F0E1F86846E3
:105A400002F042FD09F0CFFFFFF769FFFF2002F0EF
:105A500050FD03F071FC18B070BD2DE9F04198B015
:105A600003F086FD03F068FC04200AF00DFE3D4CB7
:105A70001E20E0601420206104F05BFBA0F13C05D7
:105A800004F054FB3C2350220095CDE9012350380B
:105A900003460A22002139A006F044FE04F106085C
:105AA000A8F802000AF0C1FA0023364A0A218DE85C
:105AB0000F001A461946184609F0A8FC04F114070D
:105AC0000E23788053228DE80D00D4E9032314219E
:105AD000042005F098FCA51C0E232880B7F90210BD
