:020000040800F2
:1000000080F00220118C0F0899560E089B560E089E
:100010009D560E089F560E08A1560E0800000000BF
:10002000000000000000000000000000772A0B081C
:10003000A3560E0800000000192A0B08A5560E084A
:10004000F98E0F08FD8E0F08018F0F08058F0F081E
:10005000098F0F080D8F0F08B5560E08A1570E080F
:10006000118F0F08158F0F08198F0F081D8F0F089C
:10007000218F0F08258F0F08298F0F082D8F0F084C
:10008000318F0F08358F0F08398F0F083D8F0F08FC
:10009000418F0F08458F0F08498F0F084D8F0F08AC
:1000A000518F0F08558F0F08598F0F085D8F0F085C
:1000B000BF560E08618F0F08658F0F08698F0F08F4
:1000C0006D8F0F08718F0F08758F0F08798F0F08CC
:1000D0007D8F0F08818F0F08858F0F08898F0F087C
:1000E00025570E08118C0B088D8F0F08918F0F0864
:1000F000958F0F08998F0F089D8F0F08A18F0F08FC
:10010000A58F0F08A98F0F08D7560E08AD8F0F08BF
:10011000B18F0F08B58F0F08B98F0F08BD8F0F086B
:10012000C18F0F0819570E08C58F0F08C98F0F0808
:10013000CD8F0F08D18F0F08D58F0F08D98F0F08DB
:10014000DD8F0F08E18F0F08E58F0F08E98F0F088B
:10015000ED8F0F08F18F0F08F58F0F08F98F0F083B
:10016000FD8F0F0801900F0805900F0809900F08E8
:100170000D900F08C3560E0811900F0815900F0828
:1001800019900F081D900F0821900F0825900F0857
:1001900029900F082D900F0831900F0835900F0807
:1001A0001B570E0839900F081F570E080683068349
:1001B00006830683068306830683068306830683F7
:1001C000068306830683068306830683058392C51A
:1001D00015D6F5CD30B505830583068306830683E2
:1001E00006830683068306830683068306830683C7
:1001F00006830683068306830683068306830683B7
:1002000006830683068306830683068306830683A6
:100210000683068306830683068306830683068396
:100220000683068306830683068306830683068386
:100230000683068306830683068306830683068376
:100240000683068306830683068306830683068366
:100250000683068306830683068306832683268316
:1002600026832683268B478B478B478B478B478B71
:10027000468B468B268B268B2683268326830683F6
:100280000683068326832683268B2683268B268B4E
:10029000268B468B468B468B268B268B268B268B76
:1002A000268B268B268B268B468B468B468B468B46
:1002B000468B468B468B468B478B468B468B668B95
:1002C000678B67936793678B678B678B678B889365
:1002D0006793889388938893889388938893889367
:1002E00088936893678B6793478B468B468B268BE7
:1002F000268B06830683068306830683068306838E
:1003000006830683068306830683068306830683A5
:100310000683068306830683068306830683068395
:100320000683068306830683068306830683068385
:100330000683068306830683068306830683068375
:100340000683068306830683068306830683068365
:100350000683068306830683068306830683068355
:100360000683068306830683068306830683068345
:100370000683068306830683068306830683068335
:100380000683068306830683068306830683068325
:100390000683068306830683068306830683068315
:1003A000068306830683068306830683058372C558
:1003B000F4CDF5CDF4CD688B0683068306830683E2
:1003C00006830683068306830683068306830683E5
:1003D00006830683068306830683068306830683D5
:1003E00006830683068306830683068306830683C5
:1003F00006830683068306830683068306830683B5
:1004000006830683068306830683068306830683A4
:100410000683068306830683068306830683068394
:100420000683068306830683068306830683068384
:100430000683068306830683068306830683068374
:1004400026832683268B268B268B478B478B478BD1
:10045000478B478B268B268B2683268326832683F2
:10046000068306830683268B26832683268B268B8C
:10047000268B468B468B468B268B268B268B268B94
:10048000268B268B468B468B268B468B468B468B44
:10049000468B468B468B468B478B468B468B468BD3
:1004A000678B678B6793678B678B68938893889359
:1004B0008793889388938893889388938893889365
:1004C00088938893678B6793678B478B468B468BA4
:1004D000268B0683068306830683068306830683AC
:1004E00006830683068306830683068306830683C4
:1004F00006830683068306830683068306830683B4
:1005000006830683068306830683068306830683A3
:100510000683068306830683068306830683068393
:100520000683068306830683068306830683068383
:100530000683068306830683068306830683068373
:100540000683068306830683068306830683068363
:100550000683068306830683068306830683068353
:100560000683068306830683068306830683068343
:100570000683068306830683068306830683068333
:10058000068306830683068306830683068331BDBE
:10059000D4CDF5CD15CECEB406830683068306836F
:1005A0000683068306830683068306830683068303
:1005B00006830683068306830683068306830683F3
:1005C00006830683068306830683068306830683E3
:1005D00006830683068306830683068306830683D3
:1005E00006830683068306830683068306830683C3
:1005F00006830683068306830683068306830683B3
:1006000006830683068306830683068306830683A2
:100610000683068306830683068306830683068392
:100620002683268326832683268B268B478B478B20
:10063000478B478B478B468B268B468B268326839F
:10064000268306832683068326832683268B268B92
:10065000268B468B468B268B468B268B268B268BB2
:10066000268B468B468B268B468B268B468B468B62
:10067000468B468B468B468B478B468B468B478BF0
:10068000678B678B6793678B678B88938893889357
:100690008893889388938893889388938893889382
:1006A00088938893678B678B678B478B468B468BCA
:1006B000268B2683068306830683068306830683AA
:1006C00006830683068306830683068306830683E2
:1006D00006830683068306830683068306830683D2
:1006E00006830683068306830683068306830683C2
:1006F00006830683068306830683068306830683B2
:1007000006830683068306830683068306830683A1
:100710000683068306830683068306830683068391
:100720000683068306830683068306830683068381
:100730000683068306830683068306830683068371
:100740000683068306830683068306830683068361
:100750000683068306830683068306830683068351
:100760000683068306830683068306830583EFB428
:10077000F5CD15D6F5CDF4CD4783058306830683E5
:100780000683068306830683068306830683068321
:100790000683068306830683068306830683068311
:1007A0000683068306830683068306830683068301
:1007B00006830683068306830683068306830683F1
:1007C00006830683068306830683068306830683E1
:1007D00006830683068306830683068306830683D1
:1007E00006830683068306830683068306830683C1
:1007F00006830683068306830683068306830683B1
:100800000683068326832683268B268B468B478B7F
:10081000478B478B478B478B268B268B2683268BD4
:10082000268B26832683268326832683268B268B68
:10083000268B468B268B468B468B268B268B468BB0
:10084000268B468B468B468B468B468B468B468B40
:10085000468B468B468B468B478B478B468B468B0E
:10086000678B678B6793678B678B678B889388939E
:1008700087938893889388938893889388938893A1
:1008800088938893678B678B678B678B468B468BC8
:10089000268B2683068306830683068306830683C8
:1008A0000683068306830683068306830683068300
:1008B00006830683068306830683068306830683F0
:1008C00006830683068306830683068306830683E0
:1008D00006830683068306830683068306830683D0
:1008E00006830683068306830683068306830683C0
:1008F00006830683068306830683068306830683B0
:10090000068306830683068306830683068306839F
:10091000068306830683068306830683068306838F
:10092000068306830683068306830683068306837F
:10093000068306830683068306830683068306836F
:100940000683068306830683068306830683CFB465
:10095000F5CDF5CDF5CDF4CD8DAC068306830683BC
:10096000068306830683068306830683068306833F
:10097000068306830683068306830683068306832F
:10098000068306830683068306830683068306831F
:10099000068306830683068306830683068306830F
:1009A00006830683068306830683068306830683FF
:1009B00006830683068306830683068306830683EF
:1009C00006830683068306830683068306830683DF
:1009D00006830683068306830683068306830683CF
:1009E00006830683068326832683268B268B468BE7
:1009F000478B468B478B478B478B268B478B268BAA
:100A0000268B26832683268B268B2683268B268B76
:100A1000268B268B268B468B468B468B468B468BAE
:100A2000468B468B468B468B468B468B468B468B3E
:100A3000468B468B468B468B478B468B478B478B2B
:100A4000678B678B6793678B678B678B88938893BC
:100A500067938893889388938893889388938893DF
:100A600088938893678B678B678B678B468B468BE6
:100A7000268B2683068306830683068306830683E6
:100A8000068306830683068306830683068306831E
:100A9000068306830683068306830683068306830E
:100AA00006830683068306830683068306830683FE
:100AB00006830683068306830683068306830683EE
:100AC00006830683068306830683068306830683DE
:100AD00006830683068306830683068306830683CE
:100AE00006830683068306830683068306830683BE
:100AF00006830683068306830683068306830683AE
:100B0000068306830683068306830683068306839D
:100B1000068306830683068306830683068306838D
:100B20000683068306830683068306830583AEACAD
:100B3000F5CD15D615CE15CED3CD278306830683E6
:100B4000068306830683068306830683068306835D
:100B5000068306830683068306830683068306834D
:100B6000068306830683068306830683068306833D
:100B7000068306830683068306830683068306832D
:100B8000068306830683068306830683068306831D
:100B9000068306830683068306830683068306830D
:100BA00006830683068306830683068306830683FD
:100BB00006830683068306830683068306830683ED
:100BC00006830683068306830683268B268B268B65
:100BD000268B268B478B478B478B468B478B268BE9
:100BE000268B268B2683268326832683268B268B9D
:100BF000268B268B268B468B468B468B468B468BCD
:100C0000268B268B468B468B468B468B468B468B9C
:100C1000468B468B468B468B478B468B478B478B49
:100C2000678B678B678B678B678B678B88938893E2
:100C3000678B889388938893889388938893889305
:100C4000889388938793678B678B678B478B468BDB
:100C5000268B268306830683068306830683068304
:100C6000068306830683068306830683068306833C
:100C7000068306830683068306830683068306832C
:100C8000068306830683068306830683068306831C
:100C9000068306830683068306830683068306830C
:100CA00006830683068306830683068306830683FC
:100CB00006830683068306830683068306830683EC
:100CC00006830683068306830683068306830683DC
:100CD00006830683068306830683068306830683CC
:100CE00006830683068306830683068306830683BC
:100CF00006830683068306830683068306830683AC
:100D000006830683068306830683068306836DA413
:100D1000F5CDF4CD15CEF5CD15CE4CA406830683C6
:100D2000068306830683068306830683068306837B
:100D3000068306830683068306830683068306836B
:100D4000068306830683068306830683068306835B
:100D5000068306830683068306830683068306834B
:100D6000068306830683068306830683068306833B
:100D7000068306830683068306830683068306832B
:100D8000068306830683068306830683068306831B
:100D9000068306830683068306830683068306830B
:100DA0000683068306830683068326832683268B93
:100DB000268B268B478B478B478B478B478B268B06
:100DC000268B268B2683268326832683268B268BBB
:100DD000268B268B268B268B468B468B468B468B0B
:100DE000468B468B468B468B468B468B468B468B7B
:100DF000468B468B468B468B468B468B678B678B29
:100E0000678B678B6793678B678B879388938893D0
:100E1000678B889388938893889388938893889323
:100E2000889388938793678B678B678B478B468BF9
:100E3000268B268B0683068306830683068306831A
:100E4000068306830683068306830683068306835A
:100E5000068306830683068306830683068306834A
:100E6000068305830683058306830683068306833C
:100E7000068306830683068306830683068306832A
:100E8000068306830683068306830683068306831A
:100E9000068306830683068306830683068306830A
:100EA00006830683068306830683068306830683FA
:100EB00006830683068306830683068306830683EA
:100EC00006830683068306830683068306830683DA
:100ED00006830683068306830683068306830683CA
:100EE00006830683068306830683068306832BA474
:100EF000F5CDF4CDF5CD15CEF5CD92CD0683068397
:100F00000683068306830683068306830683068399
:100F10000683068306830683068306830683068389
:100F20000683068306830683068306830683068379
:100F30000683068306830683068306830683068369
:100F40000683068306830683068306830683068359
:100F50000683068306830683068306830683068349
:100F60000683068306830683068306830683068339
:100F70000683068306830683068306830683068329
:100F800006830683068306830683068326832683D9
:100F9000268B268B268B478B478B478B478B468B25
:100FA000268B268B268B268B268B2683268B268BC1
:100FB000268B268B268B268B468B468B468B468B29
:100FC000268B468B468B268B268B468B468B468BF9
:100FD000468B468B468B468B468B478B478B678B66
:100FE000678B678B6793678B678B6793889388930F
:100FF000679388938893889388938893889388933A
:10100000889388938893678B678B678B478B468B16
:10101000268B268B26830683068306830683068318
:101020000683068306830683068306830683068378
:101030000683068306830683068306830683068368
:101040000683068306830583068306830683068359
:101050000683068306830683068306830683068348
:101060000683068306830683068306830683068338
:101070000683068306830683068306830683068328
:101080000683068306830683068306830683068318
:101090000683068306830683068306830683068308
:1010A00006830683068306830683068306830683F8
:1010B00006830683068306830683068306830683E8
:1010C0000683068306830683068306830683EA9BDC
:1010D00015CEF4CDF5CDF5CDF5CDF4CD2CA405830D
:1010E00006830683068306830683068306830683B8
:1010F00006830683068306830683068306830683A8
:101100000683068306830683068306830683068397
:101110000683068306830683068306830683068387
:101120000683068306830683068306830683068377
:101130000683068306830683068306830683068367
:101140000683068306830683068306830683068357
:101150000683068306830683068306830683068347
:101160000683068306830683068306830683068337
:1011700026832683268B268B468B478B478B478B74
:10118000478B268B268B268B268B2683268B268BBE
:10119000268B268B268B268B468B468B468B468B47
:1011A000468B468B468B268B268B468B468B468BF7
:1011B000468B468B468B468B468B478B678B678B64
:1011C000678B678B6793678B678B6793889388932D
:1011D0008893889388938893889388938893889337
:1011E0008893889388938893678B678B478B468B0C
:1011F000468B268B26830683068306830683068317
:101200000683068306830683068306830683068396
:101210000683068306830683068305830683C99BAC
:10122000C99B07838893688B06830683068306839E
:101230000683068306830683068306830683068366
:101240000683068306830683068306830683068356
:101250000683068306830683068306830683068346
:101260000683068306830683068306830683068336
:101270000683068306830683068306830683068326
:101280000683068306830683068306830683068316
:101290000683068306830683068306830683068306
:1012A0000683068306830683068306830683C99323
:1012B00015D6F5CD15D6F5CDF5CDD4CD72C50683B1
:1012C00006830683068306830683068306830683D6
:1012D00006830683068306830683068306830683C6
:1012E00006830683068306830683068306830683B6
:1012F00006830683068306830683068306830683A6
:101300000683068306830683068306830683068395
:101310000683068306830683068306830683068385
:101320000683068306830683068306830683068375
:101330000683068306830683068306830683068365
:101340000683068306830683068306830683068355
:1013500006832683268B268B268B468B478B478BD3
:10136000478B468B268B268B268B268B268B268BB4
:10137000268B268B268B268B468B468B468B468B65
:10138000468B468B468B468B468B468B468B468BD5
:10139000468B468B468B468B468B478B478B678BA2
:1013A000678B678B6793678B678B6793889367936C
:1013B0008893889388938893889388938893889355
:1013C00088938893889368936793678B678B468B22
:1013D000468B268B26830683068306830683068335
:1013E00006830683068306830683068306830683B5
:1013F000068306830683068306830683CEB42BA466
:10140000EFC40FC54CAC10BD06830683068306836C
:101410000683068306830683068306830683068384
:101420000683068306830683068306830683068374
:101430000683068306830683068306830683068364
:101440000683068306830683068306830683068354
:101450000683068306830683068306830683068344
:101460000683068306830683068306830683068334
:101470000683068306830683068306830683068324
:101480000683068306830683068306830683888B8A
:1014900015D615CEF5CD15D6F5CDF5CDF4D50B9CDD
:1014A00006830683068306830683068306830683F4
:1014B00006830683068306830683068306830683E4
:1014C00006830683068306830683068306830683D4
:1014D00006830683068306830683068306830683C4
:1014E00006830683068306830683068306830683B4
:1014F00006830683068306830683068306830683A4
:101500000683068306830683068306830683068393
:101510000683068306830683068306830683068383
:101520000683068306830683068306830683068373
:101530002683068326832683268B268B478B478B21
:10154000468B468B468B268B268B268B268B268BB3
:10155000268B268B268B268B268B468B468B468BA3
:10156000468B468B268B468B468B468B468B468B13
:10157000468B468B468B468B468B678B478B678BA0
:10158000678B678B678B678B678B88938893678B79
:101590008893889388938893889388938893889373
:1015A0008893889388938893678B678B678B468B28
:1015B000468B268B26832683068306830683068333
:1015C00006830683068306830683068306830683D3
:1015D000068306830683A993488B30BD92CDF0BC69
:1015E000AEBC10C5B3CD76E66DAC0683068306832C
:1015F00006830683068306830683068306830683A3
:101600000683068306830683068306830683068392
:101610000683068306830683068306830683068382
:101620000683068306830683068306830683068372
:101630000683068306830683068306830683068362
:101640000683068306830683068306830683068352
:101650000683068306830683068306830683068342
:101660000683068306830683068306830583688BC9
:1016700015D615D6F4CD16D615CEF5CDF4CD71C54B
:101680000683068306830683068306830683068312
:101690000683068306830683068306830683068302
:1016A00006830683068306830683068306830683F2
:1016B00006830683068306830683068306830683E2
:1016C00006830683068306830683068306830683D2
:1016D00006830683068306830683068306830683C2
:1016E00006830683068306830683068306830683B2
:1016F00006830683068306830683068306830683A2
:101700000683068306830683068306830683068391
:10171000068326830683268326832683478B478B6F
:10172000468B478B478B268B268B268B268B268BCF
:10173000268B268B268B268B268B468B468B468BC1
:10174000468B468B468B468B468B468B468B468B11
:10175000468B468B468B468B468B478B678B678BBE
:10176000678B678B678B678B678B88938893678B97
:101770008893889388938893889388938893889391
:1017800088938893889388936793678B678B478B3D
:10179000468B268B268B0683068306830683068369
:1017A00006830683068306830683068306830683F1
:1017B000068306830B9C72C5B3CD76DE15DEF0BCC6
:1017C000EFBC30C5D4D597DE76DE2BA40683068326
:1017D00006830683068306830683068306830683C1
:1017E00006830683068306830683068306830683B1
:1017F00006830683068306830683068306830683A1
:101800000683068306830683068306830683068390
:101810000683068306830683068306830683068380
:101820000683068306830683068306830683068370
:101830000683068306830683068306830683068360
:101840000683068306830683068306830583278330
:1018500015D615D6F4CD15D6F5CDF5CD15CEF4CDDE
:101860000AA406830683068306830683068306830B
:101870000683068306830683068306830683068320
:101880000683068306830683068306830683068310
:101890000683068306830683068306830683068300
:1018A00006830683068306830683068306830683F0
:1018B00006830683068306830683068306830683E0
:1018C00006830683068306830683068306830683D0
:1018D00006830683068306830683068306830683C0
:1018E00006830683068306830683068306830683B0
:1018F000068306832683068326832683268B468BD0
:10190000468B468B478B478B468B468B268B268B8D
:10191000268B268B268B268B468B268B468B468BDF
:10192000468B468B468B468B468B468B468B468B2F
:10193000468B468B468B468B468B478B678B678BDC
:10194000678B678B678B678B678B8893879388938D
:1019500088938893889388938893889388938893AF
:1019600088938893889388938793678B678B478B3B
:10197000468B468B268B2683068306830683068347
:10198000068306830683068306830683068306830F
:101990000683889392CDF5CDD8E678DE36DE30BD6D
:1019A000EFBC10C592CD97DE77DED4CD06830683DB
:1019B00006830683068306830683068306830683DF
:1019C00006830683068306830683068306830683CF
:1019D00006830683068306830683068306830683BF
:1019E00006830683068306830683068306830683AF
:1019F000068306830683068306830683068306839F
:101A0000068306830683068306830683068306838E
:101A1000068306830683068306830683068306837E
:101A2000068306830683068306830683058306836F
:101A3000F4CD15CEF4CD36D6F5CD15CE15CEF5CDEB
:101A400051C50683068306830683068306830683C1
:101A5000068306830683068306830683068306833E
:101A6000068306830683068306830683068306832E
:101A7000068306830683068306830683068306831E
:101A8000068306830683068306830683068306830E
:101A900006830683068306830683068306830683FE
:101AA00006830683068306830683068306830683EE
:101AB00006830683068306830683068306830683DE
:101AC00006830683068306830683068306830683CE
:101AD000068306830683068306832683268B268B4E
:101AE000268B478B478B468B478B468B268B268BCB
:101AF000268B268B268B268B268B268B468B468B1E
:101B0000468B468B468B468B468B468B468B468B4D
:101B1000468B468B468B468B468B468B678B678BFB
:101B2000678B678B678B6793678B889387938893A3
:101B300088938893889388938893889388938893CD
:101B400088938893889388938893678B678B478B58
:101B5000468B468B268B2683068306830683068365
:101B60000683068306830683068306830683068B25
:101B700005836DAC72C515D6D9E698DE36DE51C543
:101B8000EFBC30C592CD77DE36D697E60B9C058349
:101B900006830683068306830683068306830683FD
:101BA00006830683068306830683068306830683ED
:101BB00006830683068306830683068306830683DD
:101BC00006830683068306830683068306830683CD
:101BD00006830683068306830683068306830683BD
:101BE00006830683068306830683068306830683AD
:101BF000068306830683068306830683068306839D
:101C0000068306830683068306830683068306838C
:101C1000B3CD15CEF5CD35D6F5CDF5CD15CEF5CD6B
:101C2000F4CDEA9B06830583068306830683068339
:101C3000068306830683068306830683068306835C
:101C4000068306830683068306830683068306834C
:101C5000068306830683068306830683068306833C
:101C6000068306830683068306830683068306832C
:101C7000068306830683068306830683068306831C
:101C8000068306830683068306830683068306830C
:101C900006830683068306830683068306830683FC
:101CA00006830683068306830683068306830683EC
:101CB0000683068306830683068306832683268B94
:101CC000268B468B478B468B478B468B468B268BCA
:101CD000268B268B268B268B268B268B468B468B3C
:101CE000468B468B468B468B468B468B468B468B6C
:101CF000468B468B468B468B468B468B678B678B1A
:101D0000678B678B678B6793678B889387938893C1
:101D100088938893889388938893889388938893EB
:101D200088938893889388936893678B678B678B76
:101D3000468B468B268B2683068306830683068383
:101D4000068306830683068306830683068306834B
:101D500027830FBD72CD15D6D9E698DE36D672C56B
:101D6000EFBC10C572CD57DEB4CD77DEB2CD0683A1
:101D7000068306830683068306830683068306831B
:101D8000068306830683068306830683068306830B
:101D900006830683068306830683068306830683FB
:101DA00006830683068306830683068306830683EB
:101DB00006830683068306830683068306830683DB
:101DC00006830683068306830683068306830683CB
:101DD00006830683068306830683068306830683BB
:101DE00006830683068306830683068306830683AB
:101DF00072C515CE15D6D4CD15CE15CE15CEF5CDD2
:101E0000F4CD51C5068305830683068306830683C6
:101E1000068306830683068306830683068306837A
:101E2000068306830683068306830683068306836A
:101E3000068306830683068306830683068306835A
:101E4000068306830683068306830683068306834A
:101E5000068306830683068306830683068306833A
:101E6000068306830683068306830683068306832A
:101E7000068306830683068306830683068306831A
:101E8000068306830683068306830683068306830A
:101E90000683068306830683068306830683268BD2
:101EA000268B268B468B468B268B468B468B468B0A
:101EB000268B268B268B268B268B268B468B468B5A
:101EC000468B468B468B468B468B268B468B468BAA
:101ED000468B468B468B468B468B468B678B678B38
:101EE000678B678B678B678B6793889387938893E0
:101EF000889388938893889388938893889388930A
:101F000088938893889388938893678B678B678B74
:101F1000468B468B268B268B068306830683068399
:101F2000068306830683068306830683068305836A
:101F30004CACEFBC51C5F4D5B9E677DE36D672CDE0
:101F4000CEBC10C572C557DE51C597E656DEC99B9B
:101F50000683068306830683068306830683068339
:101F60000683068306830683068306830683068329
:101F70000683068306830683068306830683068319
:101F80000683068306830683068306830683068309
:101F900006830683068306830683068306830683F9
:101FA00006830683068306830683068306830683E9
:101FB00006830683068306830683068306830683D9
:101FC00006830683068306830683068306830683C9
:101FD00030BD15CE15D6B3C515D6F5CD15CEF5CD7C
:101FE000F5CDD4CD0B9C068306830683068306833A
:101FF0000683068306830683068306830683068399
:102000000683068306830683068306830683068388
:102010000683068306830683068306830683068378
:102020000683068306830683068306830683068368
:102030000683068306830683068306830683068358
:102040000683068306830683068306830683068348
:102050000683068306830683068306830683068338
:102060000683068306830683068306830683068328
:1020700006830683068306830683068306832683F8
:10208000268B268B268B268B268B468B468B468B68
:10209000468B468B268B468B268B268B268B468B38
:1020A000468B468B468B468B468B468B468B468BA8
:1020B000468B468B468B468B468B468B478B678B76
:1020C000678B678B678B678B678B88936793889326
:1020D0008893889388938893889388938893889328
:1020E00088938893889388938893678B678B678B93
:1020F000478B468B268B268B0683068306830683B7
:102100000683068306830683068306830683058388
:102110006DACCFBC51C5D4D5B8E677DE36DE93CDF5
:102120008EB4EFBC51C556DE30C577DE77DE8DACA0
:102130000683068306830683068306830683068357
:102140000683068306830683068306830683068347
:102150000683068306830683068306830683068337
:102160000683068306830683068306830683068327
:102170000683068306830683068306830683068317
:10218000068306830683068306830683068B0683FF
:1021900006830683068306830683068306830683F7
:1021A00006830683068306830683068306830683E7
:1021B000EFB415CE15D6F5CD16D6F5CD15CE15CE78
:1021C000F5CDF5CD51C506830683068306830683C8
:1021D00006830683068306830683068306830683B7
:1021E00006830683068306830683068306830683A7
:1021F0000683068306830683068306830683068397
:102200000683068306830683068306830683068386
:102210000683068306830683068306830683068376
:102220000683068306830683068306830683068366
:102230000683068306830683068306830683068356
:102240000683068306830683068306830683068346
:102250000683068306830683068306830683068336
:102260002683268B268B468B468B468B468B468B4E
:10227000468B268B468B468B268B268B268B468B56
:10228000468B468B468B468B468B268B468B468BE6
:10229000468B468B468B468B468B468B678B678B74
:1022A000678B678B678B678B678B88936793889344
:1022B0008893889388938893889388938893889346
:1022C00088938893889388938893678B678B678BB1
:1022D000478B468B468B268B0683068306830683B5
:1022E0000683068306830683068306830683278385
:1022F000EFBCEFBC30C5D4CDB8E677DE36DEB3CD6B
:102300008DB4CEBC10BD56DE31BD56DE77E671C54C
:10231000268B06830683068306830683068306834D
:102320000683068306830683068306830683068365
:102330000683068306830683068306830683068355
:102340000683068306830683068306830683068345
:102350000683068306830683068306830683068335
:10236000068306830683068306830683068B06831D
:102370000683068306830683068306830683068315
:102380000683068306830683068306830683068305
:10239000AEAC15CE15D6F5CD36D6F5CD15CEF5CDE0
:1023A00015CEF4CDD4CD2BA40683068306830683F5
:1023B00006830683068306830683068306830683D5
:1023C00006830683068306830683068306830683C5
:1023D00006830683068306830683068306830683B5
:1023E00006830683068306830683068306830683A5
:1023F0000683068306830683068306830683068395
:102400000683068306830683068306830683068384
:102410000683068306830683068306830683068374
:102420000683068306830683068306830683068364
:102430000683068306830683068306830683068354
:102440002683268B2683268B468B468B468B468B94
:10245000468B468B468B468B268B468B468B468B14
:10246000268B468B468B468B468B468B468B468B04
:10247000468B468B468B468B468B468B478B678BB2
:10248000678B678B678B678B678B88938893889341
:102490008893889388938893889388938893889364
:1024A00088938893889388938893678B678B678BCF
:1024B000678B468B468B268326830683068306839B
:1024C0000683068306830683068306830683ADB4EC
:1024D00092CD10BD30C5B3CD97E697DE56DED4D58C
:1024E0008DACAEBC0FBD35DE51BD35DE98E671C595
:1024F0004BA406830683068306830683068306832E
:102500000683068306830683068306830683068383
:102510000683068306830683068306830683068373
:102520000683068306830683068306830683068363
:102530000683068306830683068306830683068353
:102540000683068306830683068306830683068343
:102550000683068306830683068306830683068333
:102560000683068306830683068306830683068323
:102570004CA415CE15D6F5CD36D615CE15CEF5CD47
:1025800015CEF5CDF4CD51C5268306830683068B83
:1025900026830683068306830683068306830683D3
:1025A00006830683068306830683068306830683E3
:1025B00006830683068306830683068306830683D3
:1025C00006830683068306830683068306830683C3
:1025D00006830683068306830683068306830683B3
:1025E00006830683068306830683068306830683A3
:1025F0000683068306830683068306830683068393
:102600000683068306830683068306830683068382
:102610000683068306830683068306830683068372
:102620000683268326832683268B268B268B468B42
:10263000468B468B468B468B468B468B268B268B52
:10264000268B268B468B468B468B268B468B468B62
:10265000468B468B468B468B468B468B478B678BD0
:10266000678B678B678B678B678B88938793889360
:102670008893889388938893889388938893889382
:102680008893889388938893889387936793678BBD
:10269000668B468B468B268B2683068306830683B2
:1026A000068306830683068306830683268B30BD56
:1026B000B3D510BD30C592C577DE77DE57DED4CDF9
:1026C000AEB48DB4CFBCF4D572C515D6B8E651C53D
:1026D00010BD05830683068326830683068306834F
:1026E00006830683068306830683068306830683A2
:1026F0000683068306830683068306830683068392
:102700000683068306830683068306830683068381
:102710000683068306830683068306830683068371
:102720000683068306830683068306830683068361
:102730000683068306830683068306830683068351
:102740000683068306830683068306830683068341
:102750000B9C15D615CE15D615CE15CE15CE15CE8D
:1027600015CEF5CDF4CDB3CD2BA406830683068B11
:1027700026830683068306830683068306830683F1
:102780000683068306830683068306830683068301
:1027900006830683068306830683068306830683F1
:1027A00006830683068306830683068306830683E1
:1027B00006830683068306830683068306830683D1
:1027C00006830683068306830683068306830683C1
:1027D00006830683068306830683068306830683B1
:1027E00006830683068306830683068306830683A1
:1027F0000683068306830683068306830683068391
:1028000006830683268326832683268B478B468B67
:10281000468B468B468B468B468B268B268B268B90
:10282000268B268B468B468B468B468B468B468B60
:10283000468B468B468B468B468B468B468B678BEF
:10284000678B678B678B678B678B678B88938893A6
:1028500088938893889388938893889388938893A0
:10286000889388938893889388938893678B6793DA
:10287000678B478B468B268B2683068306830683CE
:10288000068306830683068306830683478315D65D
:10289000B3CD0FBD30C551C556DE97DE56DEF4D53B
:1028A000AEB46CACCEBCD3D5B3CDD4CDB8E672C586
:1028B000B3D52783068306830683068306830683B0
:1028C00006830683068306830683068306830683C0
:1028D00006830683068306830683068306830683B0
:1028E00006830683068306830683068306830683A0
:1028F0000683068306830683068306830683068390
:10290000068306830683068306830683068306837F
:10291000068306830683068306830683068306836F
:10292000068306830683068306830683068306835F
:10293000CA9335D615CE15D615D615D615CE15CEC5
:1029400015CE15CEF5CDD4CD71C52783068306836C
:10295000068306830683068306830683068306832F
:10296000068306830683068306830683068306831F
:10297000068306830683068306830683068306830F
:1029800006830683068306830683068306830683FF
:1029900006830683068306830683068306830683EF
:1029A00006830683068306830683068306830683DF
:1029B00006830683068306830683068306830683CF
:1029C00006830683068306830683068306830683BF
:1029D000068306832683068306830683068306838F
:1029E00006830683068326832683268B268B468BC7
:1029F000468B468B468B468B468B268B268B268BAF
:102A0000268B268B468B468B468B268B468B468B9E
:102A1000468B468B468B468B468B468B468B678B0D
:102A2000678B678B678B6793678B678B67938893DD
:102A300088938893889388938893889388938893BE
:102A4000889388938893889388938893678B6793F8
:102A5000678B478B468B268B2683068306830683EC
:102A60000683068306830683068306834CA436DE2C
:102A7000D3D5EFBC10C551C536DE97DE57D6F4D599
:102A8000CEBC4CACCEBC92CDD4D5B3CDB8E692C5BD
:102A9000D3D5EA9B068B06830683068306830683CB
:102AA00006830683068306830683068306830683DE
:102AB00006830683068306830683068306830683CE
:102AC00006830683068306830683068306830683BE
:102AD00006830683068306830683068306830683AE
:102AE000068306830683068306830683068306839E
:102AF000068306830683068306830683068306838E
:102B0000068306830683068306830683068306837D
:102B1000898B35D615D635D615D616D6F5CD15CE24
:102B200015CEF5CDF5CDD4CDD4CD8DAC06830683B1
:102B3000068306830683068306830683068306834D
:102B4000068306830683068306830683068306833D
:102B5000068306830683068306830683068306832D
:102B6000068306830683068306830683068306831D
:102B7000068306830683068306830683068306830D
:102B800006830683068306830683068306830683FD
:102B900006830683068306830683068306830683ED
:102BA00006830683068306830683068306830683DD
:102BB00006830683068306830683068306830683CD
:102BC00006830683068326832683268B268B468BE5
:102BD000468B468B468B468B468B268B468B268BAD
:102BE000268B468B468B468B468B468B468B468B7D
:102BF000468B468B468B468B468B468B468B678B2C
:102C0000678B678B678B6793678B679387938893D3
:102C100088938893889388938893889388938893DC
:102C200088938893889388938893889387936793EE
:102C3000678B468B468B468B268B068306830683E3
:102C4000068306830683068305830683F4D556DE52
:102C5000D4D5F0BC0FC530C515D677DE57DEF5D517
:102C6000EFBC4CACCEBC31C5F4D592C5B8E6B3CD03
:102C7000B3D5EFBC068305830683268306830683CC
:102C800006830683068306830683068306830683FC
:102C900006830683068306830683068306830683EC
:102CA00006830683068306830683068306830683DC
:102CB00006830683068306830683068306830683CC
:102CC00006830683068306830683068306830683BC
:102CD00006830683068306830683068306830683AC
:102CE000068306830683068306830683068306839C
:102CF000688B35D616D616D615D636D6F5CD15CE62
:102D000015CE15CEF5CDF4CDD4CD92CD688B0683FE
:102D1000068306830683068306830683068306836B
:102D2000068306830683068306830683068306835B
:102D3000068306830683068306830683068306834B
:102D4000068306830683068306830683068306833B
:102D5000068306830683068306830683068306832B
:102D6000068306830683068306830683068306831B
:102D7000068306830683068306830683068306830B
:102D800006830683068306830683068306830683FB
:102D900006830683068306830683068306830683EB
:102DA00006830683068306832683268B268B468B23
:102DB000468B468B468B468B468B468B268B268BCB
:102DC000268B468B468B468B468B478B468B468B9A
:102DD000468B468B468B468B468B468B468B678B4A
:102DE000678B678B678B679367936793679388930A
:102DF00088938893889388938893889388938893FB
:102E0000889388938893889388938893689367932B
:102E1000678B478B468B468B268B06830683068300
:102E20000683068306830683068B2783D8E677DE30
:102E3000D4CD10C5EFBC10C5D4CD77DE56DEF5D5A8
:102E4000EFBC2BA4AEB4EFBCF4D551BDB8E6B3CD06
:102E5000B3CDD3D5268306830683068306830683F4
:102E6000068306830683068306830683068306831A
:102E7000068306830683068306830683068306830A
:102E800006830683068306830683068306830683FA
:102E900006830683068306830683068306830683EA
:102EA00006830683068306830683068306830683DA
:102EB00006830683068306830683068306830683CA
:102EC00006830683068306830683068306830683BA
:102ED000268315D616D615D615D616D615CE15CEEA
:102EE00015CE15CEF5CDF5CDF4CDB3CDCEB405834D
:102EF000068306830683068306830683068306838A
:102F00000683068306830683068306830683068379
:102F10000683068306830683068306830683068369
:102F20000683068306830683068306830683068359
:102F30000683068306830683068306830683068349
:102F40000683068306830683068306830683068339
:102F50000683068306830683068306830683068329
:102F60000683068306830683068306830683068319
:102F70000683068306830683068306830683068309
:102F8000068306830683068326832683268B468B49
:102F9000468B468B468B468B468B468B268B268BE9
:102FA000268B468B468B468B468B468B468B468BB9
:102FB000468B468B468B468B468B468B468B478B88
:102FC000678B678B67936793678B67936793889328
:102FD0008893889388938893889388938893889319
:102FE000889388938893889388938893889367932A
:102FF000678B678B468B268B268B0683068306831F
:1030000006830683068306830683898BD9E697DECB
:10301000D4CD30C5EFBCEFBCB3CD77DE56D6F5D5F9
:10302000EFBC2CAC8CB4AEB4F4D50FBDB8E6D4CDA7
:1030300093CDF4D58993058306830683068306839F
:103040000683068306830683068306830683068338
:103050000683068306830683068306830683068328
:103060000683068306830683068306830683068318
:103070000683068306830683068306830683068308
:1030800006830683068306830683068306830683F8
:1030900006830683068306830683068306830683E8
:1030A00006830683068306830683068306830683D8
:1030B0000683F4CD36D615D616D615D615D615CE2A
:1030C00015CE15CEF5CDF5CDF4CDB4C5B2CD8993E1
:1030D00005830683068306830683068306830683A9
:1030E0000683068306830683068306830683068398
:1030F0000683068306830683068306830683068388
:103100000683068306830683068306830683068377
:103110000683068306830683068306830683068367
:103120000683068306830683068306830683068357
:103130000683068306830683068306830683068347
:103140000683068306830683068306830683068337
:103150000683068306830683068306830683068327
:1031600006830683068306830683268B2683268BA7
:10317000468B468B468B468B468B468B468B468BC7
:10318000468B468B468B468B468B468B478B468BB6
:10319000468B468B468B468B468B468B468B468BA7
:1031A000678B678B67936793678B67936893889345
:1031B0008893889388938893889388938893889337
:1031C0008893889388938893889388938893679348
:1031D000678B478B468B468B268B2683068306831D
:1031E000068306830683068306830B9CD9E698E64E
:1031F000F4D551C5CFBCEFBC92C577E636D6F4D531
:10320000CFBC4CAC6CB48EB4D3D5EFBCB8E6D4D53F
:10321000B3CDF4D54CAC05830683068306830683C1
:103220000683068306830683068306830683068356
:103230000683068306830683068306830683068346
:103240000683068306830683068306830683068336
:103250000683068306830683068306830683068326
:103260000683068306830683068306830683068316
:103270000683068306830683068306830683068306
:1032800006830683068306830683068306830683F6
:103290000683B3CD35D615CE16D615D636D615CE71
:1032A00015CE15CEF5CDF5CDF4CDD4CDB3CDF0BC46
:1032B00026830583068306830683068B068306839F
:1032C00006830683068306830683068306830683B6
:1032D00006830683068306830683068306830683A6
:1032E0000683068306830683068306830683068396
:1032F0000683068306830683068306830683068386
:103300000683068306830683068306830683068375
:103310000683068306830683068306830683068365
:103320000683068306830683068306830683068355
:103330000683068306830683068306830683068345
:103340000683068306830683068326832683268BCD
:10335000468B468B468B468B468B468B468B468BE5
:10336000268B468B468B468B468B468B478B468BF4
:10337000468B468B468B468B468B468B468B468BC5
:10338000678B67936793678B67936793679388935C
:103390008893889388938893889388938893889355
:1033A0008893889388938893889388938893879346
:1033B000678B678B468B468B268B2683068306831B
:1033C0000683068306830683068310BDB9E698DE6E
:1033D00015D692CDAEB4EFBC51C577E636D6F4D54E
:1033E000EFBC2CAC4CAC8DB4B2CDCFB4D9E6D4D5B7
:1033F000B3CDD4D530C50683068306830683068302
:103400000683068306830683068306830683068374
:103410000683068306830683068306830683068364
:103420000683068306830683068306830683068354
:103430000683068306830683068306830683068344
:103440000683068306830683068306830683068334
:103450000683068306830683068306830683068324
:103460000683068306830683068306830683068314
:10347000068372C515D615D616D616D636D615CEEF
:1034800015CE15CE15CEF5CDF4CDD4CDB3C592CD98
:10349000EA9B0683068306830683068306830683E8
:1034A00006830683068306830683068306830683D4
:1034B00006830683068306830683068306830683C4
:1034C00006830683068306830683068306830683B4
:1034D00006830683068306830683068306830683A4
:1034E0000683068306830683068306830683068394
:1034F0000683068306830683068306830683068384
:103500000683068306830683068306830683068373
:103510000683068306830683068306830683268343
:103520000683068306830683068306830683268333
:10353000268B468B468B468B468B468B468B468B23
:10354000268B468B468B468B468B468B478B478B11
:10355000468B468B468B468B468B468B468B468BE3
:10356000678B678B6793678B678B67938893889369
:103570008893889388938893889388938893889373
:1035800088938893A8938893889388938893889343
:103590006793678B468B468B268B26830683068331
:1035A00006830683068306830683D4CDD9E698E690
:1035B00015D672CDCFBC10C530BD57DE36D6F4D58A
:1035C000EFBC4CAC4CAC6DB472CDCFB4D8E6F4D5F6
:1035D000B3CDF4D5D3D5068306830683068306834D
:1035E0000683068306830683068306830683068393
:1035F0000683068306830683068306830683068383
:103600000683068306830683068306830683068372
:103610000683068306830683068306830683068362
:103620000683068306830683068306830683068352
:103630000683068306830683068306830683068342
:103640000683068306830683068306830683068332
:10365000068330BD15CE16D616D636D636D615CE3E
:1036600015CE15CEF5CDF5CDF4CDF4CD93C592C5DF
:1036700030C5478B0583068306830683068306834E
:1036800006830683068306830683068306830683F2
:1036900006830683068306830683068306830683E2
:1036A00006830683068306830683068306830683D2
:1036B00006830683068306830683068306830683C2
:1036C00006830683068306830683068306830683B2
:1036D00006830683068306830683068306830683A2
:1036E0000683068306830683068306830683068392
:1036F0000683068306830683068306830683068382
:103700000683068306830683068306830683268351
:10371000268B468B468B468B468B468B468B468B41
:10372000268B468B468B268B468B468B468B468B51
:10373000468B468B468B468B468B468B468B468B01
:10374000678B678B6793678B6793679367938893A0
:103750008893889388938893889388938893889391
:103760008893889388938893889388938893879382
:103770006793678B478B468B268B2683068306834E
:103780000683068306830683278BB8E6D9E698DE90
:1037900035D693CDCFBCEFBC30C556DE15D6F4D5AB
:1037A00010BD4CAC4BAC6CAC31C5CFB4D8E6D4D565
:1037B000F4D5F4D5F4D5488B0683068306830683B7
:1037C00006830683068306830683068306830683B1
:1037D00006830683068306830683068306830683A1
:1037E0000683068306830683068306830683068391
:1037F0000683068306830683068306830683068381
:103800000683068306830683068306830683068370
:103810000683068306830683068306830683068360
:103820000683068306830683068306830683068350
:103830000683EFB435D636D616D636D636D615CE5E
:1038400015CE15D615CEF5CDF4CDF4CDB4CD93CDA2
:1038500072C54CAC06830683068306830683068303
:103860000683068306830683068306830683068310
:103870000683068306830683068306830683068300
:1038800006830683068306830683068306830683F0
:1038900006830683068306830683068306830683E0
:1038A00006830683068306830683068306830683D0
:1038B00006830683068306830683068306830683C0
:1038C00006830683068306830683068306830683B0
:1038D00006830683068306830683068306830683A0
:1038E0000683068306830683068306830683068390
:1038F000268B268B468B468B468B468B468B468B80
:10390000468B468B468B468B468B468B468B468B2F
:10391000468B468B468B468B468B468B468B468B1F
:10392000478B678B678B67936793679367938893DE
:1039300088938893889388938893889388938893AF
:1039400088938893889388938893889388936793C0
:103950006793678B478B468B268B2683068306836C
:103960000683068305830683EA9BFAE6D9E698DE9A
:1039700036D6B3CDCFBCEFBC10BD35DE15D6D4D511
:1039800010C56CAC2BAC4CAC10BDEFBCB8E6B4CDE4
:1039900014D6F5D5F4D52BA4258306830683068398
:1039A00006830683068306830683068306830683CF
:1039B00006830683068306830683068306830683BF
:1039C00006830683068306830683068306830683AF
:1039D000068306830683068306830683068306839F
:1039E000068306830683068306830683068306838F
:1039F000068306830683068306830683068306837F
:103A0000068306830683068306830683068306836E
:103A10000583AEAC35D636D636D636D636D616D69D
:103A200015CE15D615CE15CEF5CDD4CDD3CDB3CD7F
:103A300072C510BD478B0683068306830683068303
:103A4000068306830683068306830683068306832E
:103A5000068306830683068306830683068306831E
:103A6000068306830683068306830683068306830E
:103A700006830683068306830683068306830683FE
:103A800006830683068306830683068306830683EE
:103A900006830683068306830683068306830683DE
:103AA00006830683068306830683068306830683CE
:103AB00006830683068306830683068306830683BE
:103AC00006830683068306830683068306830683AE
:103AD0002683268B268B468B468B468B468B468BC6
:103AE000468B468B468B468B468B468B468B468B4E
:103AF000478B468B468B468B468B468B468B468B3D
:103B0000478B678B678B67936793679367938893FC
:103B100088938893889388938893889388938893CD
:103B200088938893889388938893889388936793DE
:103B30006793678B468B468B268B2683068306838B
:103B40000683068306830583F0B4D9E6D9E698DEBA
:103B500036DED4D5CFBCEFBC30C515D615D6D4D5FE
:103B6000EFBC4CAC0BA44CACCFBC10BD98E693CDD5
:103B700035DE15DEF4D5CEB42683058306830683B1
:103B800006830683068306830683068306830683ED
:103B900006830683068306830683068306830683DD
:103BA00006830683068306830683068306830683CD
:103BB00006830683068306830683068306830683BD
:103BC00006830683068306830683068306830683AD
:103BD000068306830683068306830683068306839D
:103BE000068306830683068306830683068306838D
:103BF00005836CA415D636D616D636D636D636D626
:103C000015CE15D615CEF5CDF5CDD4CDD3CDB3CDBE
:103C100072C551C52BA406830583068306830683DC
:103C2000068306830683068306830683068306834C
:103C3000068306830683068306830683068306833C
:103C4000068306830683068306830683068306832C
:103C5000068306830683068306830683068306831C
:103C6000068306830683068306830683068306830C
:103C700006830683068306830683068306830683FC
:103C800006830683068306830683068306830683EC
:103C900006830683068306830683068306830683DC
:103CA00006830683068306830683068306830683CC
:103CB00026832683268B268B468B468B468B468B0C
:103CC000468B468B468B468B468B468B468B468B6C
:103CD000468B478B468B468B468B468B468B468B5B
:103CE000468B478B67936793679367936793889334
:103CF00088938893889388938893889388938893EC
:103D000088938893889388938893889388938893DB
:103D10006793678B468B468B268B268306830683A9
:103D2000068306830683268356D6D9E6D9E698DE2F
:103D300076DED4D5EFBCEFBC10BDD4D5F5D5D4D547
:103D4000EFBC6DAC2BA44CACCEB410BD77E672CDFD
:103D500056DE35D6F4D530C5068306830683068342
:103D6000068306830683068306830683068306830B
:103D700006830683068306830683068306830683FB
:103D800006830683068306830683068306830683EB
:103D900006830683068306830683068306830683DB
:103DA00006830683068306830683068306830683CB
:103DB00006830683068306830683068306830683BB
:103DC00006830683068306830683068306830683AB
:103DD000058B0B9C36D635D636D636D636D636D665
:103DE000F5CD15CE15D6F5CDF5CDF4CDD3CDB3CDDE
:103DF00092CD72C510BD478B05830683268306834B
:103E0000068306830683068306830683068306836A
:103E1000068306830683068306830683068306835A
:103E2000068306830683068306830683068306834A
:103E3000068306830683068306830683068306833A
:103E4000068306830683068306830683068306832A
:103E5000068306830683068306830683068306831A
:103E6000068306830683068306830683068306830A
:103E700006830683068306830683068306830683FA
:103E800006830683068306830683068305830683EB
:103E900006832683268B468B468B468B468B468B2A
:103EA000468B468B468B468B468B468B468B468B8A
:103EB000468B468B478B468B468B468B468B468B79
:103EC000468B678B678B6793678B67936793889342
:103ED000889388938893889388938893889388930A
:103EE000889388938893889388938893889367931B
:103EF0006793678B678B468B268B268B068306839F
:103F00000683058305834CA4F9E6D9E6D9E6B8DE35
:103F100057DEF4D510BDCEBCEFBCD3D515D6B3CD8E
:103F200010BD6DAC2BA46CACCEB430C557DE93CDB8
:103F300056DE15D6F4D5D3D5278B068306830683A4
:103F40000683068306830683068306830683068329
:103F50000683068306830683068306830683068319
:103F60000683068306830683068306830683068309
:103F700006830683068306830683068306830683F9
:103F800006830683068306830683068306830683E9
:103F900006830683068306830683068306830683D9
:103FA00006830683068306830683068306830683C9
:103FB000058BCA9336D635D636D636D636D636D6CD
:103FC00015CE15CE15CE15CEF5CDF4CDD4CDB3CDC1
:103FD00093CD72C551C54CAC068305830683068319
:103FE0000683068306830683068306830683068389
:103FF0000683068306830683068306830683068379
:104000000683068306830683068306830683068368
:104010000683068306830683068306830683068358
:104020000683068306830683068306830683068348
:104030000683068306830683068306830683068338
:104040000683068306830683068306830683068328
:104050000683068306830683068306830683068318
:10406000068306830683068306830683058305830A
:1040700006830683268B468B468B468B468B468B68
:10408000468B468B468B468B468B468B468B468BA8
:10409000468B468B468B468B468B468B468B468B98
:1040A000468B678B678B6793679367936793889358
:1040B0008893889388938893889388938893889328
:1040C0008893889388938893889388938893679339
:1040D00067936793678B468B268B268B06830683B5
:1040E00006830583068372C5D9E6D9E6D9E6B8E624
:1040F00077DEF5D551C5CEBCEFBC93CD15D693CDAB
:1041000010BD8DB42BA46CACAEB431C556DE93CDCE
:1041100077DE15DEF4D5F4D5C99B068306830683C6
:104120000683068306830683068306830683068347
:104130000683068306830683068306830683068337
:104140000683068306830683068306830683068327
:104150000683068306830683068306830683068317
:104160000683068306830683068306830683068307
:1041700006830683068306830683068306830683F7
:1041800006830683068306830683068306830683E7
:104190000683688B36D636D636D636D636D636D65B
:1041A00015D615CE15D615CEF5CDF4CDD4CDB3CDCF
:1041B000B3CD92C551C50FBD688B058306830683B9
:1041C00006830683068306830683068306830683A7
:1041D0000683068306830683068306830683068397
:1041E0000683068306830683068306830683068387
:1041F0000683068306830683068306830683068377
:104200000683068306830683068306830683068366
:104210000683068306830683068306830683068356
:104220000683068306830683068306830683068346
:104230000683068306830683068306830683068336
:104240000683068306832683068306830683068306
:10425000068306832683268B468B468B468B468BAE
:10426000478B468B468B468B468B468B478B468BC4
:10427000468B468B468B468B468B468B468B468BB6
:10428000468B678B6793679367936793679388936E
:104290008893889388938893889388938893889346
:1042A0008893889388938893889388938893879337
:1042B00067936793678B468B268B268B06830683D3
:1042C0000683688B068398E6D9E6D9E6D9E6B8E690
:1042D00077DEF4D572C5AEB4EFBC71C515D693CDFB
:1042E00010BD8DB42CAC8DB4AEB410BD36DEB3CDE4
:1042F00077DE35DEF5D5D4D54CAC06830683068350
:104300000683068306830683068306830683068365
:104310000683068306830683068306830683068355
:104320000683068306830683068306830683068345
:104330000683068306830683068306830683068335
:104340000683068306830683068306830683068325
:104350000683068306830683068306830683068315
:104360000683068306830683068306830683058306
:104370000683278335D636D636D636D636D636D6C3
:1043800036D615CE15D615CEF5CDF5CDD4CDD3CDAB
:10439000B3CD93CD51C530BD6DAC06830683068386
:1043A00006830683068306830683068306830683C5
:1043B00006830683068306830683068306830683B5
:1043C00006830683068306830683068306830683A5
:1043D0000683068306830683068306830683068395
:1043E0000683068306830683068306830683068385
:1043F0000683068306830683068306830683068375
:104400000683068306830683068306830683068364
:104410000683068306830683068306830683068354
:104420000683068306830683068306830683068344
:10443000068306832683268B468B468B468B468BCC
:10444000478B468B468B468B468B668B478B468BC2
:10445000468B478B468B468B468B468B468B468BD3
:10446000468B678B678B67936793679367936793B5
:104470008893889388938893889388938893889364
:104480008893889388938893889388938893889354
:104490006793678B678B468B268B268B06830683F9
:1044A00006836DAC0B9CFAE6D9E6D9E6D9E6B8DE10
:1044B00077DE15D692CDCEB4EFBC51C5F5D592C5F9
:1044C000EFBC8DB44CAC8DB4CFB431C535DEF4D572
:1044D00077DE36DE15D6F4D5CEBC0683068306839A
:1044E0000683068306830683068306830683068384
:1044F0000683068306830683068306830683068374
:104500000683068306830683068306830683068363
:104510000683068306830683068306830683068353
:104520000683068306830683068306830683068343
:104530000683068306830683068306830683068333
:104540000683068306830683068306830683068323
:1045500006830683F4CD36D636D636D636D636D64C
:1045600036D615CE15D615CE15CEF5CDD4CDD4CDA7
:10457000B3CDB3CD71C551C530C5C993068306838C
:104580000683068B068306830683068306830683DB
:1045900006830683068306830683068306830683D3
:1045A00006830683068306830683068306830683C3
:1045B00006830683068306830683068306830683B3
:1045C00006830683068306830683068306830683A3
:1045D0000683068306830683068306830683068393
:1045E0000683068306830683068306830683068383
:1045F0000683068306830683068306830683068373
:104600000683068306830683068306830683068362
:104610000683068326832683268B468B468B468B12
:10462000468B468B468B468B468B468B478B468B01
:10463000468B478B478B468B468B468B468B468BF0
:10464000478B478B678B67936793679367936793F2
:104650008893889388938893889388938893889382
:104660008893889388938893889388938893679393
:1046700067936793678B468B268B268B0683058310
:10468000068310BDF0B4D9E6D9E6D9E6D9E6B9E695
:1046900077DE15D6B3CDCFBCEFBC30C5F4D572C52F
:1046A00010BDAEB44CAC8DB4CFB431C515D615D653
:1046B00077DE36DE15D6F5D551C50683068306832B
:1046C0000683068306830683068326830683068382
:1046D0000683068306830683068306830683068392
:1046E0000683068306830683068306830683068382
:1046F0000683068306830683068306830683068372
:104700000683068306830683068306830683068361
:104710000683068306830683068306830683068351
:104720000683068306830683068306830583058343
:1047300005830583B3C536D636D636D636D636D6B5
:1047400036D615CE15CE15CE15CEF5CDF4CDD4CDAD
:10475000B3CD93CD72C531BD30C5CEB406830683CB
:104760000583068306830683068306830683068302
:1047700006830683068306830683068306830683F1
:1047800006830683068306830683068306830683E1
:1047900006830683068306830683068306830683D1
:1047A00006830683068306830683068306830683C1
:1047B00006830683068306830683068306830683B1
:1047C00006830683068306830683068306830683A1
:1047D0000683068306830683068306830683068391
:1047E0000683068306830683068306830683068381
:1047F000058305830683068B268B268B468B468B8B
:10480000468B468B468B468B468B468B468B468B20
:10481000468B468B468B468B468B468B468B468B10
:10482000468B468B678B678B6793678B6793679322
:1048300067938893689388938893889388938893E1
:1048400088938893889388938893889388936793B1
:104850006793678B478B468B268B268B0683058356
:10486000478BD3CD92C5D9E6D9E6D9E6B9E6B8E605
:1048700077DE36D6B3CDCFB4CFBC0FBDD4D572C59D
:1048800010BD8EB46DAC8DB4CFB451C515D616D64F
:1048900077DE36DE15D6F5D592CD478B06830683B7
:1048A00006830683068306830683068306830683C0
:1048B00006830683068306830683068306830683B0
:1048C00006830683068306830683068306830683A0
:1048D0000683068306830683068306830683068390
:1048E0000683068306830683068306830583058382
:1048F0000583068305830583058305830583058377
:104900000583058305830583058306830683058365
:104910000583058351C536D636D636D636D636D635
:1049200036D615D615CE15CE15CEF5D5F4CDD4CDBB
:10493000D3CD93CD72C551C531BD30BD0AA4058319
:104940000583058305830583058305830583058327
:104950000583058305830583068305830583058316
:104960000683068305830683058305830583058304
:1049700005830583058305830583058305830583F7
:1049800005830583058305830583058305830583E7
:1049900005830683058305830583068306830583D4
:1049A00006830583058305830583058305830583C6
:1049B00005830583058305830683058305830683B5
:1049C00005830683058305830583068305830683A4
:1049D0000583058305830683268B268B268B468BD2
:1049E000468B468B468B468B468B468B468B468B3F
:1049F000468B468B468B468B468B468B468B468B2F
:104A0000468B468B6793678B679367936793679330
:104A100067938893889388938893889388938893DF
:104A200088938893889388938893889388936793CF
:104A300067936793478B468B268B268B068305836C
:104A4000EA9BB3CDF5CDD9E6D9E6D9E6D9E6B9E604
:104A500077DE36D6D4D510BDCFBCEFB4D3CD72C57A
:104A60000FBD8DB46DAC8DB4CFB451C5F5D536D670
:104A700077DE36DE15DEF4D592CDC99B068306833C
:104A800006830583058306830583058306830583E3
:104A900006830583068305830583058305830583D4
:104AA00005830583058305830583058305830583C6
:104AB00005830583058305830583058305830583B6
:104AC00005830583058305830583058306830683A4
:104AD000068306830683068306830683268306836E
:104AE000068306830683068305830683068306837F
:104AF0000683058310BD36D636D636D636D636D69C
:104B000036D636D615CE15CE15CEF5D5F4CDD4CDB8
:104B1000D4CDB3CD72C572C551C510BDEFBC478BA6
:104B20000583058306830583068B0683068B068B28
:104B3000068B06830583058305830583068B058322
:104B400006830683058326830683068306830683FE
:104B50000683068306830683058305830583068310
:104B600006830583268306830683068306830683DE
:104B700005830683068306830683058306830583F0
:104B800005830583058306830683058305830683E2
:104B90000583068306830583068305830683068BC8
:104BA00006830683058306830683068B068B068BA6
:104BB0000683068305830683068B268B268B468B0E
:104BC000468B468B468B468B468B468B468B678B3C
:104BD000678B668B468B468B468B668B468B468BEC
:104BE000468B478B67936793679367936793679346
:104BF00088938893889388938893889388938893DD
:104C000088938893889388938893889388938893CC
:104C100087936793478B468B468B268B058305834B
:104C2000CFB4B3C536D6D9E6D9E6D9E6D9DEB8E6EB
:104C300077DE36DEF4D5F0BCCEBCCEB4B3CD72C5D3
:104C400010BD8DB48DB48DB4CFBC51C5F5D536D65D
:104C500077DE56DE15D6F4D552CD4BAC0683068BE7
:104C6000058B068B0683068B0683068B068B0583D6
:104C70000683068B05830683068B068B068B068BC5
:104C8000068B068B068B068B068B068B068B068B9C
:104C9000068B068B068B068B068B068B068B068B8C
:104CA000068B068B068B068B068B068B068B068B7C
:104CB000068B068B0683068306830583068305839E
:104CC0000683068B0683068B06830683068B058385
:104CD00005830683AEAC36D636D636D636D636D62D
:104CE00036D636D615CE15CEF5CDF5CDF4CDF4CDE0
:104CF000D4CDD3CD92CD51C551C530BD10BD6CAC16
:104D00000683058B068B0583068B0683068B068B35
:104D1000068B068B05830683058306830683068B35
:104D2000068B0683068306830683068B0683068B23
:104D300006830683068B068B05830683068306831C
:104D400006830683068B0683068306830683068313
:104D5000068306830683068306830683068305830C
:104D60000683058305830683068306830683068BF5
:104D70000683068B06830583068B06830683068BD4
:104D8000068306830583068306830683068B268BAC
:104D90000683058305830583068B268B268B268B4E
:104DA000468B4693469346934693468B468B668B3B
:104DB000679367936793468B468B679346934693B7
:104DC0004693468B4793679367936793679367937D
:104DD00088938893889388938893889388938893FB
:104DE00088938893889388938893889388938893EB
:104DF00067936793468B468B468B268B0683058B82
:104E000093C5D4CD57DED9E6D9E6B9E6D9E6B8E6FA
:104E100077DE36DEF4D530BDAEB4CEBC92CD71C5F2
:104E2000CFBC8DB4ADB48EB4EFBC72C5F5D536D65B
:104E300077DE36DE15DE14D672CDADB40683068B72
:104E4000068B068B0583068B06830683068B068BF3
:104E5000068B068B06830683068B068B068B068BDA
:104E6000068B068B068B068B068B068B068B068BBA
:104E7000068B068B068B068B068B068B068B068BAA
:104E8000068B068B068B068B068B068B068B0583A3
:104E90000683068B0583058306830683068B068BB4
:104EA0000683068B068306830683068B068B0583A3
:104EB000068B05834CA436D636D636D636D636D6AD
:104EC00036D636D6F5CD15CEF5CDF5CDF4CDF4CD1F
:104ED000D4CDD3CDB3CD72C551C531C510BDCEBC77
:104EE0008893058B0683068306830583058B068BD3
:104EF000068B068B05830583068B0683068B06834C
:104F000005830683068B06830683058B0683068B43
:104F1000068306830683068B0683068B068B068331
:104F20000683068B05830683068306830683068332
:104F3000068305830683068B068306830583068B1B
:104F400006830583058305830583058B0583068317
:104F500006830583068306830683068B068B0683FA
:104F60000683068B0583068306830683068B068BE2
:104F7000068B0583068B0583068B268B268B468B3B
:104F8000468B4693469346934693468B4693469369
:104F90006793669366936793679346936693468B8E
:104FA0004693669347936793679367936793679373
:104FB0008893889388938893889388938893889319
:104FC0008893889388938893889388938893889309
:104FD000679367936793468B468B268B068B268B4E
:104FE00097DEF4CD77DED9E6D9E6B9E6B9E6B8E6DC
:104FF00077DE36D6F5D551C5CEBCAEB451C551C558
:10500000CFBC8DB48DB48EB4EFBC72C5F5D556D679
:1050100057DE36DE15DEF4D572CDEEBC0683068B88
:10502000068B068B0683068306830683068B068B18
:105030000683068B0683068B068B068B068B068BF8
:10504000068B068B068B068B068B068B068B068BD8
:10505000068B068B068B068B068B068B068B068BC8
:10506000068B068B068B068B068B068B068B0683C0
:10507000068B068305830683068B068B068B068BC1
:10508000068B06830683068305830683068B0683C9
:1050900006830683EA9B36D636D636D636D636D63D
:1050A00036D636D615D615CEF5CDF5CDF5CDF4CD13
:1050B000F4CDD3CDB3CD72C551C531C510BD0FBD33
:1050C000ADB4068306830683068306830583068BB9
:1050D000068B068B068B068306830683068B068368
:1050E000068B06830683068B068305830683068B61
:1050F000068B06830683068B068B06830683068350
:105100000683068306830683068306830683068B4F
:1051100006830683068306830583068B0683068340
:10512000068306830683068306830683068B068B27
:10513000068306830683068B06830683068B068317
:10514000068B0583068B068B05830683068B268BD1
:10515000068B068B0683068B058B068B268B268B90
:10516000468B468B469366934693468B469346936F
:1051700067936793669347936793469366934693C3
:1051800046936793478B6793679367936793679398
:105190008793889388938893889388938893889338
:1051A0008893889388938893889388938893879328
:1051B0006793679367934693468B268B058B68931B
:1051C000D9E615D698DEB9E6B9E6B9E6B9E6B8DEAD
:1051D00077DE36D6F5D571C5ADB4AEBC31C551C597
:1051E000CEBC8DB4ADB4AEB4EFBC72CDF5D556D651
:1051F00056DE36DE35D6F4D572CD51C50583068B25
:1052000005830683068B068B068B0683068B068337
:10521000068B0683068B0683068B068B068B068B16
:10522000068B068B068B068B068B068B068B068BF6
:10523000068B068B068B068B068B068B068B068BE6
:10524000068B068B068B068B068B068B068B068BD6
:105250000683068305830683068B068306830683FF
:105260000683068306830683068B068306830683EE
:10527000068B068B889355D636D635D636D636D697
:1052800036D636D636D615CE15D6F5CDF5CDF4CDE7
:10529000D4CDD3CDB3CD92C572C531C530BD0FBD10
:1052A000EFBCA993068B06830683068B068B068BC1
:1052B000068B0683068B06830683068B068306838E
:1052C000068B068B068B06830683068B0683068376
:1052D000068B0683068306830683068B0683068376
:1052E0000683068B06830683068B0683068B06835E
:1052F000068B0683068B0683068305830683068B4F
:10530000068B0683068B0683068B0583058306833F
:105310000683068306830683068B068B0683068335
:105320000683058306830683068306830683068B2E
:10533000068B068B06830683068B068B268B268BB5
:10534000468B468B46934693669346934693469385
:1053500067936793679347934793679346934693FF
:1053600046936793478B67936793679367936793B6
:105370006793889388938893889388938893889376
:105380008893889388938893889388938893879346
:1053900067936793478B4693468B268B268BEA9BB6
:1053A000D9E636D698DED9E6B9E6B9E6B9DEB8E68A
:1053B00077DE36DEF5D571C58DB48EB4EFBC51C540
:1053C000CEBCAEBC8DB4AEB4EFBC72CDF5D556DE5E
:1053D00057DE36DE36DED4D572CD92CD0683068B0F
:1053E000068B058B0683068B0683068B068B068B46
:1053F00006830583268B0683068B068B068B068B1E
:10540000068B068B068B068B068B068B068B068B14
:10541000068B068B068B068B068B068B068B068B04
:10542000068B068B068B068B068B068B068B068BF4
:10543000068B068B0683068B068B0683068B0683FC
:105440000683068306830683068B0683068306830C
:10545000068B068B268335D636D636D636D636D646
:1054600036D636D636D6F5CD15D6F5CDF5CDF4CD26
:10547000F4CDD3CDB3CD93CD72C551C510BD10BD04
:1054800010BDADB40683068B0583068306830683B1
:105490000683068B06830683068306830683068BB4
:1054A000068B068B068B06830683068B0683068394
:1054B00006830683068306830683068306830683A4
:1054C0000683068B0683068306830683068305838D
:1054D0000583068306830683068305830683068386
:1054E0000683068305830583058305830683068378
:1054F000068306830683068B06830683058306835D
:10550000068B0683068B0583068305830583068B3E
:10551000268B068B06830683058B068B068B268BD4
:10552000268B468B468B46934693469346934693EB
:1055300067936793679347936793679367936693BC
:1055400046936693478B67936793679387936793B5
:105550008793879388938893889388938893889375
:105560008893889388938893889388938893879364
:1055700067936793678B4693468B268B068B6DAC40
:10558000B8E657DE98DEB9E6B9E6B8E6B8DEB8E6C2
:1055900077DE56DEF5D592CDAEB48DB4AEB451C53E
:1055A000CEB46DAC8DB4AEB40FBD92CD15D656DE73
:1055B00056DE56DE36DEF5D593CDB3D5478B058363
:1055C0000683068B068B0683068B068B0683068373
:1055D0000683068B068B06830583068B068B068B5C
:1055E000068B068B068B068B068B068B068B068B33
:1055F000068B068B068B068B068B068B068B068B23
:10560000068B068B068B068B068B068B068B068B12
:10561000068B06830683068306830683068B068332
:10562000068B06830683068B068B0683068306831A
:105630000683068B0683F4CD36D636D636D636D6D6
:1056400036D636D636D615CE15D615CEF5CDF4CD02
:10565000F4CDD4CDB3CDB3CD92C551C510BD10BDE1
:1056600010BDEFBCA9930583068B068306830683D2
:10567000068305830683068305830683068B0683DC
:10568000068B068B068B0683068B068B068B068B9A
:1056900006830683068B068B0683068306830583B3
:1056A0000683068B068B0683068306830683068B9A
:1056B000068B068B06830583068306830683058394
:1056C0000683058306830683068305830683068394
:1056D00006830683068B058306830683068306837B
:1056E00006830583068B0683068305830683068B64
:1056F000268B068B0683068306830683068B268B02
:10570000268B468B468B46936693469366934693C9
:1057100067936793679367934793679367936793D9
:1057200046934693479367936793679367938793EB
:1057300067938893889388938893889388938893B2
:105740008893889388938893889388938893879382
:105750006793679347934693468B268B068B30BDA2
:10576000B8E677DE98DEB9E6B8DEB8DEB8DEB8DED9
:1057700097DE36DE15D692CD8DACAEB48DB451C564
:10578000AEB44CAC8DB4CEBC0FBD92C515D656D6BA
:1057900056DE36DE35DE15D6B3CDB3D58893058B10
:1057A00006830683068B068B068B068B068B068B81
:1057B000068B068B068305830683068B068B068B7A
:1057C000068B068B068B068B068B068B068B068B51
:1057D000068B068B068B068B068B068B068B068B41
:1057E000068B068B068B068B068B068B068B068B31
:1057F000068B06830583058305830683068B068354
:10580000068306830683068B05830583068306834A
:10581000068B068B058351C536D636D636D636D698
:1058200036D636D636D616D6F5CD15D6F5CDF5D52F
:10583000F4CDD4CDD3CDB3CD92C572C550C510BD76
:1058400010BDCFB4CDB40683058B0683068B068BC3
:1058500006830683068B0583068B0683068B0683E9
:105860000683068B068B0683068B068306830583D9
:10587000068B0683068B068B0683058306830683C9
:105880000683068B0683068B0583068306830583C2
:105890000683068B068306830683068B06830683B0
:1058A00006830583068306830683068306830683B1
:1058B0000683068306830683058305830683068B9A
:1058C000068306830683058306830583068B06838A
:1058D000268B268B068B068B06830683068B268BF0
:1058E000268B468B468B4693469366934693469308
:1058F00067936793679367934793679367936793F8
:105900004693669347936793679367936793679309
:1059100088938893889388938893889388938893AF
:10592000889388938893889388938893889388939F
:105930006793679347934693468B268B0583F4D5ED
:10594000B8E698DEB9E6B9E6B8DEB8DEB8DEB8DEAD
:1059500097DE36D6F4D592CDAEB48DB46DAC30C5ED
:105960008DB46CAC8DB4AEB410BD92C515D656D600
:1059700056D656DE36DE15D6B3CDB3D52BA4058B61
:10598000068B0683068B068B05830683068B068BA8
:105990000683068B068B068B068B0683068B068B8F
:1059A000068B068B068B068B068B068B068B068B6F
:1059B000068B068B068B068B068B068B068B068B5F
:1059C000068B068B068B068B068B068B068B068B4F
:1059D000068B06830583068B0683068B0583068369
:1059E0000683068B06830583068B068B0683068358
:1059F000068B068B0583EFB436D636D636D636D62A
:105A000036D636D636D636D6F5CDF5CD15D6F5CD35
:105A1000F4CDD4CDD3CDB3CD93CD72C551C510BD8A
:105A20000FBDEFBCEFBCC99B0583058B0683068BBE
:105A3000068B0583068306830683068B0583058311
:105A4000068B06830683068306830683068B0683FE
:105A50000683068B06830683068B068305830683EF
:105A60000683068306830683068B068306830683E6
:105A70000683068B058306830583068306830683D8
:105A800006830683068306830683068306830583CF
:105A90000683068B068B06830683058305830683B0
:105AA0000683058306830683068B068B068B068397
:105AB000268B268B068B0683058306830683068B3F
:105AC000268B468B468B468B46936693469367930D
:105AD00066936793679367936793679367936793F7
