:020000040800F2
:1000000090160020F50F00082D0300082F030008AC
:1000100033030008370300083B030008000000001A
:100020000000000000000000000000003F03000886
:1000300041030008000000004303000845030008D6
:100040000F1000080F1000080F1000080F10000814
:100050000F1000080F1000080F1000080F10000804
:100060000F1000080F1000080F1000080F100008F4
:100070000F1000080F1000080F1000080F100008E4
:100080000F1000080F1000080F1000080F100008D4
:100090000F1000080F1000080F1000080F100008C4
:1000A0000F1000080F1000080F1000080F100008B4
:1000B0000F1000080F1000080F1000080F100008A4
:1000C0000F1000080F1000080F1000080F10000894
:1000D0000F1000080F1000080F1000080F10000884
:1000E0000F1000080F1000080F1000080F10000874
:1000F0000F1000080F1000080F1000080F10000864
:100100000F1000080F1000080F1000080F10000853
:100110000F1000080F1000080F1000080F10000843
:100120000F1000080F1000080F1000080F10000833
:1001300000F002F800F03CF80AA090E8000C8244BD
:100140008344AAF10107DA4501D100F031F8AFF29A
:10015000090EBAE80F0013F0010F18BFFB1A43F0A5
:10016000010318470837000028370000103A24BF61
:1001700078C878C1FAD8520724BF30C830C144BF0C
:1001800004680C607047000000230024002500264E
:10019000103A28BF78C1FBD8520728BF30C148BFEA
:1001A0000B6070471FB503F051F81FBD10B510BDAF
:1001B00002F035FD1146FFF7F5FF00F009F802F0F7
:1001C00053FD03B4FFF7F2FF03BC02F05BFD000038
:1001D00008B500F02FFF01F0CBFB01F02DFE01F080
:1001E00016FC002001F057FC01F0B6F801F06AFCA3
:1001F00001F040FE02F070FB002000F0E0FF4FF63F
:10020000FF7002F039F94FF6FF7000232BA2194658
:100210000090184602F09FFA4FF6FF701F232BA2A2
:1002200028210090002002F096FA4FF6FF701F235D
:100230002AA23C210090002002F08DFA01F0C3FFB9
:1002400048B94FF6FF70002329A2142100901846E8
:1002500002F081FA09E04FF6FF704FF4784327A2CD
:1002600014210090002002F076FA02F0B5F804465E
:1002700026480078042808D14FF6FF701F2324A2D7
:1002800028210090682002F066FA204800780628AD
:1002900008D14FF6FF701F2320A22821009068206C
:1002A00002F059FA4FF6FF70220D4FF478433C21CB
:1002B0000090682002F06FFA00BFFEE7544620432A
:1002C00061726420496E6974210000005446204325
:1002D00061726420547970653A00000054462043EE
:1002E0006172642053697A653A202020204D6200B3
:1002F0005446204361726420206F6B0054462043B3
:10030000617264204572726F720000002E0000203E
:1003100053445F545950455F5632000053445F5474
:100320005950455F5632484300000000704700BFF7
:10033000FEE700BFFEE700BFFEE700BFFEE7704735
:10034000704770477047000000210020674A12681C
:1003500042F48032654B1A6000BF644A126802F4AE
:100360000030491C10B9B1F5A06FF6D15F4A126890
:1003700012F4003F01D0012000E00020012842D10A
:100380005B4A126842F01002594B1A601A46126812
:1003900022F003021A601A46126842F002021A6042
:1003A000524A5268514B5A601A4652685A601A466D
:1003B000526842F480625A601A46526822F47C12F3
:1003C0005A601A46526842F4E8125A601A46126895
:1003D00042F080721A6000BF444A126812F0007F37
:1003E000FAD0424A526822F00302404B5A601A4641
:1003F000526842F002025A6000BF3C4A526802F062
:100400000C02082AF9D1704710B5FFF79DFF10BD07
:1004100010B53648006840F00100344908600846CD
:10042000406834490840314948600846006832490C
:1004300008402E4908600846006820F480200860C3
:100440000846406820F4FE0048604FF41F008860B2
:10045000FFF7DAFF4FF000602849086010BD10B5C3
:10046000002100200022214B5B6803F00C0121B128
:10047000042906D0082928D107E0214B214C23600C
:1004800027E01F4B1F4C236023E0184B5B6803F4ED
:100490007010164B5B6803F48032022303EB90402C
:1004A00022B9194B4343174C23600DE00F4B5B6897
:1004B00013F4003F04D0144B4343124C236003E079
:1004C0000F4B43430F4C236003E00D4B0D4C236057
:1004D00000BF00BF054B5B68C3F303130B4CE15C2B
:1004E000084B1B68CB40074C236010BD0010024036
:1004F000002002400000FFF8FFFFF6FE08ED00E0DC
:1005000000127A000000002000093D0004000020D5
:1005100031490143314A1160704770B50021002311
:100520000F22C4780CB32D4C246804F4E064C4F5A5
:10053000E064210AC1F10403CA40447804FA03F1DB
:100540008478144021430901254C0678A15504788C
:1005500004F01F050124AC4005786D114FF0E02632
:1005600006EB8505C5F8004109E0047804F01F0595
:100570000124AC401B4D0678761145F8264070BD2D
:10058000194A0A400243154B1B1F1A60704739B1C4
:10059000124A121D12680243104B1B1D1A6006E01E
:1005A0000E4A121D126882430C4B1B1D1A607047C5
:1005B000042808D14FF0E021096941F004014FF00F
:1005C000E022116107E04FF0E021096921F0040108
:1005D0004FF0E022116170470000FA050CED00E0D9
:1005E00000E400E080E100E080FFFF1F10B504465A
:1005F000CA48844208D10121042000F025FB0021D3
:10060000042000F021FB46E0C548844208D10121C6
:10061000082000F019FB0021082000F015FB3AE04B
:10062000C048844208D10121102000F00DFB0021B8
:10063000102000F009FB2EE0BB48844208D10121C4
:10064000202000F001FB0021202000F0FDFA22E034
:10065000B648844208D10121402000F0F5FA00217B
:10066000402000F0F1FA16E0B148844208D101219F
:10067000802000F0E9FA0021802000F0E5FA0AE08D
:10068000AC48844207D10121801500F0DDFA002139
:10069000A01500F0D9FA10BD10B50121084600F0F0
:1006A000D3FA0021012000F0CFFA10BD2DE9F0416E
:1006B000024600250026002000230024002791F890
:1006C00003C00CF00F0591F803C01CF0100F03D00D
:1006D00091F802C04CEA0505B1F800C01CF0FF0F0C
:1006E00031D0146800202BE04FF0010C0CFA00F31D
:1006F000B1F800C00CEA03069E4220D183004FF0FF
:100700000F0C0CFA03F7BC4305FA03FC4CEA040493
:1007100091F803C0BCF1280F06D14FF0010C0CFA80
:1007200000FCC2F814C00AE091F803C0BCF1480F05
:1007300005D14FF0010C0CFA00FCC2F810C0401CAF
:100740000828D1D31460B1F800C0BCF1FF0F34DD2C
:10075000546800202EE000F1080C4FF0010808FA60
:100760000CF3B1F800C00CEA03069E4221D18300CD
:100770004FF00F0C0CFA03F7BC4305FA03FC4CEAEC
:10078000040491F803C0BCF1280F05D100F1080C56
:1007900008FA0CF8C2F8148091F803C0BCF1480FB5
:1007A00007D100F1080C4FF0010808FA0CF8C2F864
:1007B0001080401C0828CED35460BDE8F0814FF66D
:1007C000FF710180022181700421C17070470246CF
:1007D000002093680B4201D0012000E00020704708
:1007E0000146886880B2704702460020D3680B42F9
:1007F00001D0012000E0002070470146C86880B2A7
:10080000704701617047416170470AB1016100E0C2
:1008100041617047C16070474FF480320A43826182
:100820008161826182698269704702460020424B81
:1008300018684FF68073184040EA021008433E4B98
:10084000186070473D49C8617047F0B50A460023FB
:1008500000240021002500F00046B6F1004F02D12F
:10086000354EF16901E0344E7168C0F3034583B23F
:1008700000F44016B6F5401F08D121F070612E4EED
:10088000766826F070662C4F7E6012E000F48016C9
:10089000B6F5801F06D1032606FA05F4A14341F000
:1008A000706106E0460D360103FA06F6B14341F0E9
:1008B000706122B1460D360103FA06F6314300F0AD
:1008C0000046B6F1004F02D11B4EF16101E01A4E15
:1008D0007160F0BD30B500228B071C0F0F2303FAA7
:1008E00004F2154B08338C1053F824309343124C08
:1008F00008348D1044F8253023468C1053F82430EA
:100900008C07240F00FA04F423430B4C08348D1099
:1009100044F8253030BD0A4908607047000801409E
:10092000000C01400010014000140140001801407B
:10093000001C014000200140000001400000204256
:10094000DC002042DC48006840F00100DA49086021
:1009500008464068D9490840D749486008460068B9
:10096000D7490840D44908600846006820F4802030
:1009700008600846406820F4FE0048604FF41F00FD
:1009800088607047CC49096821F48031CA4A1160F7
:100990001146096821F480211160B0F5803F03D031
:1009A000B0F5802F0ED106E0C349096841F48031CB
:1009B000C14A116007E0C049096841F4A021BE4A5C
:1009C000116000E000BF00BF704710B50146002273
:1009D000002300204A11012A02D1B74C236806E007
:1009E000022A02D1B44C236A01E0B34C636A01F0DD
:1009F0001F02012494401C4201D0012000E000208D
:100A000010BD70B500240025002600BF3120FFF77F
:100A1000DCFF0646641CB4F5A06F01D0002EF5D0B3
:100A20003120FFF7D2FF08B1012500E0002528465C
:100A300070BD01460020A04A106820F0F80040EA8E
:100A4000C100106070479F4908607047024600204F
:100A5000994B586820F47C1042EA01031843964BE6
:100A60005860704797490866704701460020924ACF
:100A7000506820F003000843506070478E4840687B
:100A800000F00C007047014600208B4A506820F0AF
:100A9000F00008435060704701460020864A5068C5
:100AA00020F4E06008435060704701460020824A0D
:100AB000506820F4605040EAC1005060704729B18E
:100AC0007D4A527A02437C4B5A7206E07A4A527A45
:100AD000C343DBB21A40784B5A7270477A490860B8
:100AE000704701460020744A506820F44040084393
:100AF000506070470021754A11706F4A82F82010CB
:100B0000012802D0042808D103E001216F4A1170A6
:100B100004E005216D4A117000E000BF00BF70477E
:100B20006B49086070476449096A0143624A11626F
:100B30007047674944390860704730B5002100228A
:100B4000002400235C4D6D6805F00C0121B10429DF
:100B500005D0082923D105E05E4D056022E05D4DFA
:100B600005601FE0544D6D6805F47012524D6D68BC
:100B700005F48034022505EB92421CB9564D5543CD
:100B800005600BE04C4D6D6815F4003F03D0524DED
:100B90005543056002E04F4D5543056002E04D4D61
:100BA000056000BF00BF444D6D6805F0F001090904
:100BB0004A4D6B5C0568DD4045603F4D6D6805F44E
:100BC000E061090A454D6B5C4568DD4085603A4D42
:100BD0006D6805F46051C90A404D6B5C4568DD40A5
:100BE000C560354D6D6805F44041890B3C4D6B5C2B
:100BF000C568B5FBF3F5056130BD29B12E4A5269D0
:100C000002432D4B5A6104E02B4A526982432A4B1E
:100C10005A61704729B1284A92690243264B9A616A
:100C200004E0254A92698243234B9A61704729B1B7
:100C3000214AD2690243204BDA6104E01E4AD2699C
:100C400082431D4BDA61704729B11B4AD2680243C7
:100C5000194BDA6004E0184AD2688243164BDA6016
:100C6000704729B1144A12690243134B1A6104E018
:100C7000114A12698243104B1A6170471449403976
:100C8000086070470F49C86470470B49C8717047C6
:100C90000948406A40F08070074948627047014641
:100CA0000020054A92680A4201D0012000E000209D
:100CB0007047014988727047001002400000FFF839
:100CC000FFFFF6FE00004242D800424220100240E0
:100CD0008004424200127A0000093D001400002006
:100CE0002400002010B50446BF48844208D10121E9
:100CF0008014FFF7A9FF0021A014FFF7A5FF16E05D
:100D0000BA48844208D101210014FFF7AAFF00214C
:100D10002014FFF7A6FF0AE0B548844207D101215D
:100D2000C013FFF79EFF0021E013FFF79AFF10BDED
:100D300010B50022028802F441520B884C882343EC
:100D40008C882343CC8823430C8923434C89234339
:100D50008C892343CC8923431A430280838B4FF22F
:100D6000FF74234083830B8A038210BD2DE9F04F6B
:100D700085B005460C464FF0000902274FF00008E9
:100D80004FF0010B0026B246A88B4FF240010840FD
:100D9000A88302202884B5F81C90A068022801D1FD
:100DA00000BF36E0A08810B94FF0010B01E04FF012
:100DB000020B8E48854200D100E000BF6846FFF775
:100DC000BCFEDDF800A0E088B0F5007F0AD14FEA54
:100DD0001A2000EB80004000A168B0FBF1F0401D3C
:100DE00086B20BE04FEA4B10BAFBF0F000EB80004C
:100DF0004000A168B0FBF1F0401D86B20A20B6FBAE
:100E0000F0F606F00108A6EB0800C0F34F074FEA22
:100E10000828022F01DBFF2F02DD02274FF0000818
:100E2000E08840EA080038432884A088A189084364
:100E3000618808432188084340F4006040EA0909BA
:100E4000A5F81C9005B0BDE8F08F0021018041801D
:100E50008180C180018141818181C181072101821D
:100E600070470021018041808180C1800221816022
:100E700000218181704721B1028842F04002028046
:100E800004E002884FF6BF731A400280704721B118
:100E9000828B42F48062828304E0828B4FF6FF33C0
:100EA0001A408283704770B5002400230C1101257D
:100EB000A540ABB21AB185881D43858004E08588C2
:100EC000DE43B6B23540858070BD10B51AB1838857
:100ED0000B43838004E08388CC43A4B22340838007
:100EE00010BD81817047014688897047A1F57E4217
:100EF000FF3A04D0028842F48072028004E0028843
:100F00004FF6FF631A400280704721B1828842F099
:100F10000402828004E082884FF6FB731A408280CC
:100F2000704702884FF2FF731A40028002880A431A
:100F300002807047018841F480510180704721B1DF
:100F4000028842F40052028004E002884DF6FF73EA
:100F50001A400280704702460020012901D0108B00
:100F600000E0908A70470146088A7047B1F5804FCB
:100F700004D1028842F48042028004E002884BF6E9
:100F8000FF731A40028070470246002013890B420B
:100F900001D0012000E000207047CA430281704761
:100FA000F0B50246002000240023002501F00F07C1
:100FB0000126BE40B4B20B1101269E40B3B2968802
:100FC00006EA03051689264202D00DB1012000E091
:100FD0000020F0BD10B5002201F00F040123A34052
:100FE0009AB2D343038110BD003001400038004065
:100FF000003C00400948804709480047FEE7FEE7FB
:10100000FEE7FEE7FEE7FEE7FEE7FEE7FEE7FEE7B8
:1010100004480549054A064B7047000011040008C2
:10102000310100089010002090160020901200203E
:101030009012002010B56FF00400FFF7B9FA2A48AB
:1010400000682A49B0FBF1F0294908700846007889
:101050004FF47A7148432749088010BD0146244A5D
:1010600012784A434FF0E0235A6100229A611A46EF
:10107000126942F001021A6100BF4FF0E0221069CC
:1010800010F0010F02D010F4803FF6D04FF0E022B4
:10109000126922F001024FF0E0231A6100229A61E6
:1010A00070470146134A12884A434FF0E0235A61C1
:1010B00000229A611A46126942F001021A6100BFC9
:1010C0004FF0E022106910F0010F02D010F4803FC1
:1010D000F6D04FF0E022126922F001024FF0E02337
:1010E0001A6100229A6170470000002000127A0005
:1010F000280000202A00002008B501210846FFF73B
:1011000089FD0121FE48FFF7A0FB01211C20FFF70C
:1011100081FD4FF6FF70ADF8000010208DF8030040
:1011200003208DF802006946F648FFF7BFFA4FF436
:10113000E060ADF800006946F348FFF7B7FA4FF4F6
:101140000040ADF800006946F048FFF7AFFA08BD6F
:10115000012806D1EC49096941F40071EA4A11619C
:1011600006E028B9E849496941F40071E64A51614D
:101170007047012806D1E449096941F48061E24AD7
:10118000116106E028B9E049496941F48061DE4A0D
:1011900051617047012808D1DC491031096841F4D8
:1011A0000041DA4A1032116008E038B9D7491431E9
:1011B000096841F40041D54A143211607047012892
:1011C00006D1D149096941F48071CF4A116106E025
:1011D00028B9CD49496941F48071CB4A51617047C2
:1011E0004FF6FF71C74A14321160111F0860704733
:1011F00000B503460020FFF7ABFF1846FFF7F0FFEE
:101200000020FFF7B6FF0120FFF7B3FF00BD00B5D8
:1012100003460120FFF79CFF1846FFF7E1FF00207F
:10122000FFF7A7FF0120FFF7A4FF00BD30B505467B
:101230000C462846FFF7DCFF2046FFF7E8FF30BDED
:1012400070B504462046FFF7D3FF4FF08830AD4914
:101250000860091D08604FF6FF70AA490C3108604C
:101260000120FFF775FF0020FFF794FF0520FFF72F
:10127000F5FE0120FFF78EFFA2480830006885B216
:101280004FF033309F490860091D08604FF6FF702A
:101290009C490C310860284670BD2DE9F043074693
:1012A0000C4615461E46DDE9078999480088A0F5D9
:1012B00010516D3927D15020FFF79AFF3846FFF7BC
:1012C000A6FF5120FFF794FF2846FFF7A0FF52200A
:1012D000FFF78EFF2046FFF79AFF5320FFF788FFA6
:1012E0003046FFF794FF2020FFF782FF4046FFF7CC
:1012F0008EFF2120FFF77CFF4846FFF788FF222062
:10130000FFF776FF26E082480088A0F510517D396E
:1013100020D12A20FFF76CFF3812FFF778FFF8B2D0
:10132000FFF775FF2812FFF772FFE8B2FFF76FFFB4
:101330002B20FFF75DFF2012FFF769FFE0B2FFF7F8
:1013400066FF3012FFF763FFF0B2FFF760FF2C205B
:10135000FFF74EFFBDE8F08310B5FFF7CDFE01208B
:10136000FFF72DFF0120FFF715FF0120FFF701FF19
:101370000520FFF796FE0020FFF721FF3220FFF740
:1013800090FE01210020FFF751FF3220FFF789FE78
:101390000020FFF755FF5E49088008460088A0F549
:1013A0001341253911D05A480088A0F51341283936
:1013B0000BD057480088A0F513413D3905D054485B
:1013C0000088A0F5134120397DD142F26D4050498B
:1013D00008804FF480710120FFF728FF4FF4E0618F
:1013E0000220FFF723FF41F230010320FFF71EFF29
:1013F00000210420FFF71AFF40F202210820FFF726
:1014000015FF00210920FFF711FF00210A20FFF737
:101410000DFF00210C20FFF709FF00210D20FFF731
:1014200005FF00210F20FFF701FF00211020FFF72B
:10143000FDFE07211120FFF7F9FE00211220FFF722
:10144000F5FE00211320FFF7F1FE01210720FFF731
:10145000EDFE3220FFF725FE41F290611020FFF7EC
:10146000E5FE40F227211120FFF7E0FE3220FFF7D2
:1014700018FE9D211220FFF7D9FE3220FFF711FE42
:101480004FF4C8511320FFF7D1FE3220FFF709FEB9
:1014900025212920FFF7CAFE0D212B20FFF7C6FECC
:1014A0003220FFF7FEFD00212020FFF7BFFE0021C4
:1014B0002120FFF7BBFE3220FFF7F3FD072130208C
:1014C000FFF7B4FE00E07CE040F203313120FFF78B
:1014D000ADFE03213220FFF7A9FE40F206213520A0
:1014E000FFF7A4FE08213620FFF7A0FE40F20641D8
:1014F0003720FFF79BFE4FF4417138200AE00000CF
:1015000000023000000C01400010014000080140C2
:101510002C000020FFF78AFE07213920FFF786FE06
:1015200040F201613C20FFF781FE08213D20FFF7DA
:101530007DFE00215020FFF779FEEF215120FFF7BB
:1015400075FE00215220FFF771FE40F23F1153203B
:10155000FFF76CFE4FF427416020FFF767FE012183
:101560006120FFF763FE00216A20FFF75FFE002184
:101570008020FFF75BFE00218120FFF757FE00214E
:101580008220FFF753FE00218320FFF74FFE00214A
:101590008420FFF74BFE00218520FFF747FE102136
:1015A0009020FFF743FE4FF4C0619220FFF73EFE0C
:1015B00040F233110720FFF739FE2220FFF718FE13
:1015C00017E142F27D40E9490880CF20FFF710FE85
:1015D0000020FFF71CFEC120FFF719FE3020FFF7A7
:1015E00016FEED20FFF704FE6420FFF710FE032037
:1015F000FFF70DFE1220FFF70AFE8120FFF707FE1E
:10160000E820FFF7F5FD8520FFF701FE1020FFF72A
:10161000FEFD7A20FFF7FBFDCB20FFF7E9FD392027
:10162000FFF7F5FD2C20FFF7F2FD0020FFF7EFFD9F
:101630003420FFF7ECFD0220FFF7E9FDF720FFF76C
:10164000D7FD2020FFF7E3FDEA20FFF7D1FD0020C2
:10165000FFF7DDFD0020FFF7DAFDC020FFF7C8FD32
:101660001B20FFF7D4FDC120FFF7C2FD0120FFF7CB
:10167000CEFDC520FFF7BCFD3020FFF7C8FD3020B0
:10168000FFF7C5FDC720FFF7B3FDB720FFF7BFFD8C
:101690003620FFF7ADFD0820FFF7B9FD3A20FFF730
:1016A000A7FD5520FFF7B3FDB120FFF7A1FD0020F6
:1016B000FFF7ADFD1A20FFF7AAFDB620FFF798FD52
:1016C0000A20FFF7A4FDA220FFF7A1FDF220FFF7FB
:1016D0008FFD0020FFF79BFD2620FFF789FD0120ED
:1016E000FFF795FDE020FFF783FD0F20FFF78FFD4B
:1016F0002A20FFF78CFD2820FFF789FD0820FFF73F
:1017000086FD0E20FFF783FD0820FFF780FD5420A3
:10171000FFF77DFDA920FFF77AFD4320FFF777FD56
:101720000A20FFF774FD0F20FFF771FD0020FFF77F
:101730006EFD0020FFF76BFD0020FFF768FD002025
:10174000FFF765FDE120FFF753FD0020FFF75FFD88
:101750001520FFF75CFD1720FFF759FD0720FFF765
:1017600056FD1120FFF753FD0620FFF750FD2B20FB
:10177000FFF74DFD5620FFF74AFD3C20FFF747FDE0
:101780000520FFF744FD1020FFF741FD0F20FFF774
:101790003EFD3F20FFF73BFD3F20FFF738FD0F20C8
:1017A000FFF735FD2B20FFF723FD0020FFF72FFD6E
:1017B0000020FFF72CFD0120FFF729FD3F20FFF758
:1017C00026FD2A20FFF714FD0020FFF720FD002052
:1017D000FFF71DFD0020FFF71AFDEF20FFF717FDB3
:1017E0001120FFF705FD7820FFF75BFC2920FFF7AC
:1017F000FFFC10BD10B504465C480088A0F51051F0
:101800006D3951D1092C4ED2DFE804F04D050E1789
:101810002029323B44004FF480510320FFF706FD9E
:101820002220FFF7E5FC3EE041F210010320FFF724
:10183000FDFC2220FFF7DCFC35E04FF48151032052
:10184000FFF7F4FC2220FFF7D3FC2CE041F230013B
:101850000320FFF7EBFC2220FFF7CAFC23E041F254
:1018600008010320FFF7E2FC2220FFF7C1FC1AE089
:1018700041F218010320FFF7D9FC2220FFF7B8FC42
:1018800011E041F228010320FFF7D0FC2220FFF7EE
:10189000AFFC08E041F238010320FFF7C7FC22202B
:1018A000FFF7A6FC00BF5FE030480088A0F51051AC
:1018B0007D3959D1092C56D2DFE804F055050F19AE
:1018C000232D37414B003620FFF792FCC820FFF74D
:1018D0009EFC2C20FFF78CFC45E03620FFF788FCAF
:1018E0008820FFF794FC2C20FFF782FC3BE0362099
:1018F000FFF77EFC4820FFF78AFC2C20FFF778FCDE
:1019000031E03620FFF774FC0820FFF780FC2C2024
:10191000FFF76EFC27E03620FFF76AFCE820FFF7B0
:1019200076FC2C20FFF764FC1DE03620FFF760FCFE
:10193000A820FFF76CFC2C20FFF75AFC13E03620A0
:10194000FFF756FC6820FFF762FC2C20FFF750FCE5
:1019500009E03620FFF74CFC2820FFF758FC2C202C
:10196000FFF746FC00BF00BF10BD00002C000020A8
:1019700008B501210420FFF74DF90220ADF8000061
:1019800010208DF8030003208DF8020069460B48F3
:10199000FEF78CFE02210948FEF733FF08BD10B5A3
:1019A0000446012C04D102210448FEF72CFF03E079
:1019B00002210248FEF725FF10BD0000000801408B
:1019C00070B50546002405E0601CC4B2C82C01DDDA
:1019D000002070BD02213948FFF7D6FA0028F3D065
:1019E00029463648FFF77DFA002405E0601CC4B2A2
:1019F000C82C01DD0020ECE701213048FFF7C4FAD4
:101A00000028F3D02D48FFF76EFAC0B2E1E700B529
:101A100087B001210420FFF7FDF801210803FFF73B
:101A2000F9F8E020ADF8180018208DF81B0003200D
:101A30008DF81A0006A92248FEF738FEE02120485A
:101A4000FEF7DFFE0020ADF804004FF48270ADF821
:101A500006000020ADF808000220ADF80A000120C1
:101A6000ADF80C004002ADF80E003820ADF81000C3
:101A70000020ADF812000720ADF8140001A90F48AE
:101A8000FFF756F901210D48FFF7F5F9FF20FFF7A1
:101A900097FF07B000BD10B50446084800884FF610
:101AA000C77108400549088008460088204308801F
:101AB00001210248FFF7DFF910BD000000300140AE
:101AC0000008014008B501211020FFF7A3F84FF4EA
:101AD0000050ADF8000010208DF8030003208DF8B1
:101AE00002006946D248FEF7E1FD4FF40051D048AC
:101AF000FEF787FE08BD10B500244FF40051CC4816
:101B0000FEF781FE0520FFF75BFFFF20FFF758FF80
:101B100004464FF40051C648FEF773FE204610BD40
:101B200010B504464FF40051C148FEF76CFE012089
:101B3000FFF746FF2046FFF743FF4FF40051BC4834
:101B4000FEF75FFE10BD10B54FF40051B848FEF728
:101B50005AFE0620FFF734FF4FF40051B448FEF759
:101B600050FE10BD10B54FF40051B148FEF74BFECA
:101B70000420FFF725FF4FF40051AD48FEF741FE6A
:101B800010BD10B500244FF40051A948FEF73BFEEC
:101B90009020FFF715FF0020FFF712FF0020FFF74E
:101BA0000FFF0020FFF70CFFFF20FFF709FF44EABB
:101BB0000024FF20FFF704FF04434FF400519C482A
:101BC000FEF71FFE204610BD2DE9F04106460C46EB
:101BD00017464FF400519648FEF715FE0320FFF715
:101BE000EFFEC4F30740FFF7EBFEC4F30720FFF757
:101BF000E7FEE0B2FFF7E4FE002505E0FF20FFF777
:101C0000DFFE7055681C85B2BD42F7DB4FF4005112
:101C10008748FEF7F6FDBDE8F08110B500BFFFF77D
:101C20006AFF00F001000128F9D010BD2DE9F04154
:101C300006460C461746FFF786FF4FF400517C48D6
:101C4000FEF7E1FD0220FFF7BBFEC4F30740FFF7FC
:101C5000B7FEC4F30720FFF7B3FEE0B2FFF7B0FE14
:101C6000002504E0705DFFF7ABFE681C85B2BD4245
:101C7000F8DB4FF400516E48FEF7C3FDFFF7CDFFD0
:101C8000BDE8F0812DE9F04107460E461446F0B25A
:101C9000C0F58075AC4200DC254612E02A4631468C
:101CA0003846FFF7C3FFAC4200D10BE02F442E446F
:101CB000601B84B2B4F5807F02DD4FF4807500E0D4
:101CC0002546EBE700BFBDE8F08110B504462403CC
:101CD000FFF739FFFFF7A1FF4FF400515448FEF71B
:101CE00092FD2020FFF76CFEC4F30740FFF768FE6B
:101CF000C4F30720FFF764FEE0B2FFF761FE4FF484
:101D000000514B48FEF77DFDFFF787FF10BD2DE921
:101D1000F04781460F4616464FEA1738C7F30B0ABD
:101D2000CAF58054A64200DC344644E04FEA08314C
:101D30004FF480523F48FFF747FF002508E00AEBC9
:101D400005003C49085CFF2800D003E0681C85B210
:101D5000A542F4DB00BFA54216DA4046FFF7B5FF07
:101D6000002507E019F8050005EB0A01314A505437
:101D7000681C85B2A542F5DB4FEA08314FF480526A
:101D80002C48FFF77FFF04E0224639464846FFF71C
:101D900079FFA64200D10FE008F101084FF0000AD8
:101DA000A1442744301B86B2B6F5805F02DD4FF4B4
:101DB000805400E03446B9E700BFBDE8F08710B5B5
:101DC000FFF7C1FEFFF729FF4FF400511848FEF757
:101DD0001AFDC720FFF7F4FD4FF400511448FEF739
:101DE00010FDFFF71AFF10BD10B54FF40051104859
:101DF000FEF709FDB920FFF7E3FD4FF400510C4851
:101E0000FEF7FFFC0320FFF729F910BD10B54FF4D2
:101E100000510748FEF7F7FCAB20FFF7D1FD4FF468
:101E200000510348FEF7EDFC0320FFF717F910BD42
:101E3000001001403000002008B501212420FEF7E9
:101E4000E9FE0420ADF8000048208DF80300694643
:101E50000648FEF72BFC0120ADF8000028208DF885
:101E6000030069460248FEF721FC08BD001401404A
:101E70000008014008B501210420FEF7CBFE4FF415
:101E80000060ADF8000010208DF8030003208DF8ED
:101E9000020069467E48FEF709FC4FF400617C4869
:101EA000FEF7AFFC4FF48050ADF8000028208DF80D
:101EB000030069467648FEF7F9FB08BD2DE9FF41AE
:101EC00080460020ADF80800ADF80A008DF80C003F
:101ED0004FF480516E48FEF77AFC00287ED1012035
:101EE000FFF7DFF84FF480516948FEF770FC0028D7
:101EF00074D14FF400616648FEF785FC3820FFF787
:101F0000CAFD9020FFF75CFD8DF800000020FFF770
:101F100057FD8DF80000D020FFF752FD8DF801002D
:101F20000020FFF74DFD8DF802009020FFF748FDDF
:101F30008DF803000020FFF743FD8DF80400D0204A
:101F4000FFF73EFD8DF805000020FFF739FD8DF805
:101F500006009020FFF734FD8DF807009DF8000083
:101F600040019DF8011040EAE1059DF804004001A0
:101F70009DF8051040EAE1079DF8020040019DF838
:101F8000031040EAE1049DF8060040019DF80710A7
:101F900040EAE106A64202DC701D844204DBB44242
:101FA00020DC601D86421DDAAF4202DC781D8542CE
:101FB00004DBBD4216DC681D874213DA01208DF870
:101FC0000C00A01900EBD071C1F34F01ADF808105F
:101FD000E81900EBD071C1F34F0100E00DE0ADF85E
:101FE0000A1002E000208DF80C000020FFF753FDDE
:101FF0004FF400612648FEF704FC0298C8F8000080
:10200000BDF80C00A8F80400BDE8FF812DE9F04FF1
:1020100085B0804602A8FFF751FFBDF808B0BDF8B3
:102020000A000490584600F00AFF8146194A1A4BEC
:1020300000F018FF06460022184B01F01DF8044678
:1020400000F0D0FE80B2ADF80800049800F0F7FE72
:10205000134A144BCDE9000100F004FF06460022AC
:10206000114B01F009F881460022104B00F0F8FFF7
:10207000044600F0B7FE80B2ADF80A000298C8F836
:102080000000BDF80C00A8F8040005B0BDE8F08F12
:1020900000080140F7AB00DF6DDEB03F00003040CC
:1020A00022A5D93C0E83B53F00002C4000007440AF
:1020B00008B501210420FEF7ADFD1020ADF80000A9
:1020C0008DF8030003208DF802006946E848FEF70A
:1020D000EDFA1021E648FEF794FB08BD10B5002488
:1020E00000BFFF20FFF76CFCFF2801D1002010BDCE
:1020F000641C6FF07F408442F3D30120F7E710B5F2
:102100001021DB48FEF77DFBFF20FFF759FC10BDD7
:1021100010B51021D648FEF776FBFFF7DFFF08B9B0
:10212000002010BDFFF7EBFF0120FAE72DE9F04199
:1021300005460C4617464FF00008FFF7E0FFFFF793
:10214000E7FF10B1FF20BDE8F0811021C848FEF77D
:1021500058FBFF20FFF734FCFF20FFF731FCFF2086
:10216000FFF72EFC1021C248FEF74DFB45F0400062
:10217000FFF726FC200EFFF723FCC4F30740FFF710
:102180001FFCC4F30720FFF71BFCE0B2FFF718FCAD
:102190003846FFF715FC0C2D02D1FF20FFF710FC8D
:1021A0004FF01F0800BFFF20FFF70AFC064616F09D
:1021B000800F06D05FEA0800A8F1010101F0FF08D6
:1021C000F1D13046BFE7F8B5FFF772FF3820FFF7CF
:1021D00062FC002404E0FF20FFF7F2FB601CC4B2A5
:1021E0000A2CF8DB142600BF952200210846FFF7D1
:1021F0009DFF0546012D04D03000A6F101018EB2ED
:10220000F2D100209B490870012D50D187224FF454
:10221000D5710820FFF78AFF012848D1002406E085
:10222000FF20FFF7CDFB0DF80400601CC4B2042CA6
:10223000F6DB9DF80200012839D19DF80300AA2899
:1022400035D14FF6FE7600BF012200213720FFF77F
:102250006DFF012291072920FFF768FF054625B190
:102260003000A6F101018EB2EED1EEB101220021C3
:102270003A20FFF75BFFB8B9002406E0FF20FFF724
:102280009FFB0DF80400601CC4B2042CF6DB9DF823
:10229000000010F0400F03D006207649087006E0D9
:1022A00004207449087002E0002072490870FFF7AA
:1022B00026FF0020FFF7EFFB6E48007808B10020F2
:1022C000F8BD0DB12846FBE7AA20F9E72DE9F0415A
:1022D00005460F46FFF713FFFFF71AFF10B1FF2067
:1022E000BDE8F08163480078062800D06D02012225
:1022F00029461120FFF71AFF0646B6B900BFFF2096
:10230000FFF75EFBFE28FAD1002405E0FF20FFF76F
:1023100057FB3855601C84B2B4F5007FF6DBFF2014
:10232000FFF74EFBFF20FFF74BFBFFF7E8FE3046C1
:10233000D6E770B5054640F6FF7401E0601E84B232
:10234000FF20FFF73DFBA84201D0002CF6D10CB9CD
:10235000FF2070BD0020FCE770B504460E46154610
:1023600010214348FEF74FFAFE20FFF7E2FF28B1A5
:1023700010213F48FEF745FA012070BD04E0FF2020
:10238000FFF71EFB2070641C3000A6F101018EB225
:10239000F5D1FF20FFF714FBFF20FFF711FB012D04
:1023A00006D110213248FEF72CFAFF20FFF708FB78
:1023B0000020E2E770B50546FF2200210920FFF763
:1023C000B5FE04460CB1204670BD012210212846FE
:1023D000FFF7C2FF0020F7E72DE9FF416846FFF74E
:1023E000E9FF18B1002004B0BDE8F0819DF80000BD
:1023F00000F0C000402809D19DF8080005029DF8B2
:102400000900401C0544AD026D022EE09DF8060057
:1024100000F0030424029DF807000444A4009DF882
:10242000080004EB90149DF8090000F00306760004
:102430009DF80A0006EBD016B61C012703E07804CD
:10244000070C701EC6B2002EF9D1601C00FB07F508
:102450009DF8050000F00F04012703E07804070C45
:10246000601E84B2002CF9D17D432846BBE70000F2
:10247000000801402E0000207CB506460020009098
:1024800040F23F13EF2201460190FEF706FF0024C1
:102490000AE0002504E03046FEF7B9FE681CC5B22C
:1024A000F02DF8DB601C84B2B4F5A07FF1DB7CBDBD
:1024B0007CB504460D4616462B4622462946204644
:1024C000CDE90045FEF7E9FE3046FEF7A0FE7CBDF3
:1024D0002DE9F04104460D4616461F46DDF81880EA
:1024E000EA1B91B2A219D0B24246FFF7E1FFAA1B44
:1024F00091B2E219D0B24246FFF7DAFFAA1991B2BF
:10250000E219D0B24246FFF7D3FFEA1991B2A219FD
:10251000D0B24246FFF7CCFFEA1991B2A21BD0B26B
:102520004246FFF7C5FFAA1991B2E21BD0B242465C
:10253000FFF7BEFFAA1B91B2E21BD0B24246FFF7E3
:10254000B7FFEA1B91B2A21BD0B24246FFF7B0FF21
:10255000BDE8F0812DE9FF4F81B0824616461F4647
:10256000DDF838B0002435460320A0EB460924E00E
:10257000BBF1000F0DD0A04608E04346224600976D
:1025800050460299FFF7A4FF08F10108A845F4DDC1
:1025900006E02B462246009750460299FFF798FF27
:1025A000641CB9F1000F03DAA000801D814404E02F
:1025B000601B80000A3081446D1EAC42D8DD05B03E
:1025C000BDE8F08F2DE9FC5F04460D4616461F4618
:1025D0003B46324629462046CDE90045FEF75DFEE2
:1025E000301B401C1FFA80FB781B401C1FFA80FA2E
:1025F0004FF000080FE04FF0000906E00C98FEF7DE
:1026000006FE09F101001FFA80F9D945F6DB08F151
:1026100001001FFA80F8D045EDDBBDE8FC9F2DE9F5
:10262000F84304460F4615461E46DDF8208005B1E6
:102630000EB9BDE8F883B819401E83B26019401E78
:10264000C2B23946E0B2CDF80080FFF7BBFF00BF51
:10265000EFE72DE9FF4F83B004460D469246DDF8C3
:1026600040B0DFF87082AAF1200008EB0018BBF13F
:10267000010F38D0119848B905F10F0083B2E21D5F
:1026800029462046CDE90045FEF707FE11980128AE
:102690000BD104F10F00CDE90005E81D83B204F170
:1026A0000F0229462046FEF7F8FD002718E0002615
:1026B00010E098F80000C6F107020121914008429D
:1026C00003D00698FEF7A3FD02E05846FEF79FFDF3
:1026D000701CC6B2082EECDB08F10108781CC7B2EA
:1026E000102FE4DB34E0A14600272FE0002627E08E
:1026F0002B46224629462046CDE90045FEF7CDFD72
:1027000098F80000C6F107020121914008420CD060
:102710000698FEF77CFD601CC4B2A4EB09000828F3
:102720000CD14C46681C85B208E0601CC4B2A4EB16
:102730000900082802D14C46681C85B2701CC6B23C
:10274000082ED5DB08F10108781CC7B2102FCDDBAD
:1027500007B0BDE8F08F2DE9FC4706460F4614464A
:102760009846DDF82890002510E0207880280DDAC2
:102770000020CDE90090227806EBC501C8B243469F
:102780003946FFF766FF681CC5B2641C2078002834
:10279000EBD1BDE8FC872DE9FF4707468846144684
:1027A0009946DDF830A042F21070B4FBF0F00A2137
:1027B000B0FBF1F201FB12008DF808004FF47A70C3
:1027C000B4FBF0F0B0FBF1F201FB12008DF8090050
:1027D0006420B4FBF0F0B0FBF1F201FB12008DF8C5
:1027E0000A000A20B4FBF0F0B0FBF1F201FB12008A
:1027F0008DF80B000A20B4FBF0F100FB11408DF8BE
:102800000C0042F21070B4FBF0F008B1052517E09F
:102810004FF47A70B4FBF0F008B1042510E06420A6
:10282000B4FBF0F008B103250AE00A20B4FBF0F095
:1028300008B1022504E00CB1012501E004B901252D
:10284000002612E00020C5F10501314402ABCDE9BC
:1028500000A0595C3031CAB207EBC601C8B24B4682
:102860004146FFF7F6FE701CC6B2AE42EADBBDE899
:10287000FF872DE9FC4705460F46144698460A9EF9
:102880000A2094FBF0F00A2190FBF1F201FB120008
:10289000303000F0FF09002043464A463946CDE972
:1028A00000602846FFF7D5FE0A2094FBF0F100FBFC
:1028B0001140303000F0FF09002043464A463946B7
:1028C000CDE9006005F10800C0B2FFF7C2FEBDE827
:1028D000FC8700005A32000810B500F05DF810BD0A
:1028E00070B50446002500F070F8A02000F0D9F87B
:1028F00000F0AEF8204600F0D4F800F0A9F800F09F
:1029000064F8A12000F0CDF800F0A2F8002000F05B
:1029100045F9054600F07BF8284670BD70B50546C0
:102920000C4600F052F8A02000F0BBF800F090F840
:10293000284600F0B6F800F08BF8204600F0B1F819
:1029400000F086F800F063F80A20FEF7AAFB70BDDD
:1029500070B505460C46164606E021782846FFF776
:10296000DDFF681CC5B2641C3000A6F10101CEB2C7
:10297000F3D170BD70B506460C46154608E03046EA
:10298000721CD6B2FFF7ACFF04F8010B681EC5B28B
:10299000002DF4D170BD000008B501211020FEF714
:1029A00039F94FF4C050ADF8000010208DF8030045
:1029B00003208DF8020069469248FDF777FE4FF438
:1029C000C0519048FDF71DFF08BD10B58D48406807
:1029D00020F470408B4948600846406840F44050FD
:1029E00048600120884908608849C1F8B0014FF06B
:1029F0000400FEF733FB0020834908604FF0040019
:102A0000FEF72CFB00208149C1F8B00110BD10B5C4
:102A10007C48406820F470407A4948600846406825
:102A200040F4405048600020794908607749C1F877
:102A3000AC014FF00400FEF711FB0120744908605F
:102A40007249C1F8AC014FF00400FEF707FB10BD5E
:102A500010B500246B48406820F470406949486014
:102A60000846406840F4004048600120664908601C
:102A7000FEF7F4FA01206549C1F8B001FEF7EEFA5D
:102A800007E0601CC4B2FA2C03DDFFF7C0FF012091
:102A900010BD604800680028F3D15D49086000BFA0
:102AA000F6E770B505465748406820F47040554930
:102AB00048600846406840F440504860002054494F
:102AC000086004461FE005FA04F010F0800F03D000
:102AD00001204D49086002E000204B4908604FF09A
:102AE0000200FEF7BBFA0120494908604FF00200DE
:102AF000FEF7B4FA00204549C1F8B0010220FEF704
:102B0000ADFA601CC4B2082CDDDB70BD10B500202E
:102B10003F4908603B48406820F4704039494860AC
:102B20000846406840F4405048604FF00000374984
:102B3000C1F8AC014FF00200FEF790FA01203449D1
:102B400008604FF00200FEF789FA00202F49C1F813
:102B5000B00110BD10B500202D490860294840681B
:102B600020F47040274948600846406840F44050CF
:102B700048604FF001002549C1F8AC014FF0020058
:102B8000FEF76CFA0120224908604FF00200FEF7C0
:102B900065FA00201D49C1F8B00110BD70B50546A9
:102BA00000241848406820F47040164948600846E0
:102BB000406840F400404860002618E000201449B6
:102BC00008604FF00200FEF749FA01200F49C1F8F2
:102BD000B001FEF743FA6006040E0E48006808B123
:102BE000601CC4B20120FEF739FA701CC6B2082E70
:102BF000E4DB15B9FFF7AEFF01E0FFF787FF2046E2
:102C000070BD000000100140AC01224200002242D1
:102C1000B00122422C01224270477047704775462E
:102C200000F028F8AE4605006946534620F007003C
:102C3000854618B020B5FEF7EBF9BDE820404FF00F
:102C400000064FF000074FF000084FF0000B21F096
:102C50000701AC46ACE8C009ACE8C009ACE8C00963
:102C6000ACE8C0098D4670470446AFF300802046AB
:102C7000FDF7A7FA00487047301000200048704761
:102C80003410002001491820ABBEFEE726000200E8
:102C90007047000010B591EA030F48BF83F000436E
:102CA00000F1F281841A71EB030C05D2121943EB87
:102CB0000C03001B61EB0C01DFF824E14FEA115417
:102CC000A4EB135C1EEA430F18BF9EEA445F73D067
:102CD00023EA0E03DCF1200E21EA045143F48013B1
:102CE00032D322FA0CFE10EB0E0023FA0CFE41EB5D
:102CF0000E01CCF1200E03FA0EFE10EB0E0051F186
:102D00000001B1F5801FCCF1200E32D201EB04514D
:102D100012FA0EF2BDE8104058BF7047401C38BF91
:102D20005FEA420218BF7047002814BF20F001007C
:102D300041F100014FEA410313F5001F38BF70470E
:102D4000A1F1C04100F086B9012A43EB0302ACF1C6
:102D5000200CDCF11F0E32BF4FF0000E23FA0CF3F3
:102D600010EB030041EB0451B4EB115FD0D0A1EBA9
:102D7000045101F5801149085FEA300001EB04516C
:102D80000ED350F1000038BF12FA0EFE08D1BDE894
:102D90001040C9E7401C38BF5FEA4202CAD1C3E70E
:102DA000BDE810404FEA410313F5001F38BF7047DC
:102DB000A1F1C04100F04EB99EEA445F08D011EA8B
:102DC0005E0FBDE8104004BF01F0004100207047D5
:102DD000BDE8104070B500F0EFF800BF64FBBE3EE8
:102DE0000000E0FF4FEA1153A3F58063D3F11E0307
:102DF000A8BFD3F1200C08DB4FF0004242EAC12209
:102E000052EA505232FA03F0704709420BD4102BA9
:102E1000C4BF0020704703F5787CBCF1FF3F05D0AC
:102E20004FF0FF3070474FF00000704770B500F072
:102E3000C3F800BF4992248000207047F0E7B0FA41
:102E400080F310FA03F10AD0C3F11D0303F5806388
:102E50004FEA41504FEA035202EBD12170474FF045
:102E600000007047DFF848C170B51CEA111E1EBF94
:102E70001CEA13159EEA0C0F95EA0C0F00F06F8008
:102E800081EA030423EA4C134EEAD47E21EA4C1172
:102E900041F4801143F48013AE44A1FB024CA0FB2B
:102EA0000365AEF17F7E361955EB0C05A1FB034C93
:102EB0004CF10003A0FB021C16EB0C06654153F11C
:102EC0000003094218BF46F0010613F4007F0BD13E
:102ED0004FEA03314FEA0530340341EA155140EA25
:102EE00016506FF003020AE04FEAC3214FEAC520F3
:102EF000F40241EA555140EA56506FF0020202EBEB
:102F00002E4201EB025585EACE710AD05FEA440CED
:102F100018BF24F0004450F1000041F1000120EA04
:102F2000D47040F2FE7C624500D270BDA84214BF4E
:102F30004FF080444FF04044002E08BF0024BEF103
:102F4000806FA8BFA1F1C041BDE8704080F28280CF
:102F50004FF0000001F1C04101F0004170479EEACE
:102F60000C0F0CEA131518BF95EA0C0F06D04FF0A2
:102F7000000081EA030E0EF0004170BD00F01CF865
:102F80008900013E00F007B800F009B84FEA430C91
:102F90005FEA5C5C08D081EA030100F05BB84FEAAD
:102FA000410C5FEA5C5CF6D14FF0000001497047CC
:102FB0000000FF070000F87F0EF1020E2EF0030E56
:102FC0005EF8046B364205D4012A43EB030515F580
:102FD000001F12D8012841EB010C1CF5001F0CD872
:102FE0000ED14FEAD17C15F5001F0CEB4C0C0CF107
:102FF000020C08BF4CEBD37C04E04FF0080C01E05E
:103000004FEAD37C0CEB4C0526FA05F606F00706D2
:10301000B6F1040C06D20EEB860CBDE870404CF005
:10302000010C6047DFE80CF0090B02024FF0004191
:103030004FF00000A1F5002170BD1946104601288F
:1030400051EB010418BFD4F5001484BF002001F037
:10305000004170BD0808A0F500114FEA310170472A
:1030600091EA030F10B581F000413FF51BAE83F0EC
:10307000004300F009B8000010B591EA030F48BF03
:1030800083F000433FF50EAE841A71EB030C07D2B8
:1030900012198CF0004C43EB0C03001B61EB0C018C
:1030A000DFF8A4E14FEA1154A4EB135C1EEA430FCE
:1030B00018BF9EEA445F00F0B08023EA6E035242DC
:1030C00021EA0451C3EB6E0338BF5B1EDCF1200E16
:1030D00025D322FA0CFE10EB0E0043FA0CFE41EB56
:1030E0000E01CCF1200E03FA0EFE10EB0E0051F192
:1030F0000001CCF1200E29D412FA0EF201EB04519A
:10310000BDE8104058BF7047401C1CBFB2F1004FD3
:10311000704700280CBF491C20F00100704712EBDB
:10312000020E43EB030218BF4FF0010E4EEA4202BB
:10313000ACF1200CDCF11E0E54D943FA0CFE10EB5E
:103140000E0051F1FF31CCF11E0ED5D50EF1010E5E
:1031500012FA0EFE404141EB010101EB445C5FEAD3
:103160005C5C10D910EBDE7001EB045138BFBEF18E
:10317000004FBDE8104018BF704700280CBF491C25
:1031800020F00100704730D24FEAD42C11F5001125
:1031900024F400641BD0B1FA81F20B3AA41AA41EE5
:1031A000D2F12003914030FA03F31943904001EB30
:1031B000CC71002C01EB0451BDE81040A8BF704752
:1031C00001F1C0414FF0000001F000417047B0FA3A
:1031D00080F310FA03F100D110BDE41A173C480542
:1031E000C90AE4E701EB045110BD491001EB045199
:1031F000BDE810404FEA300002E04FF00001704798
:103200004A0008BF0042F8D0B2F5001F28BF70473F
:1032100001F000414FF0000070479EEA445F07D084
:1032200011EA5E0FBDE8104004BF00210020704786
:10323000BDE8104070B5FFF7BFFE00BF40DFF63EAF
:1032400083F00041104670470000E0FF10B5FFF723
:1032500015FD4FF00001016010BD000000000000EE
:10326000000000000000000000000000001010102E
:10327000101010100000181800000012362448002A
:1032800000000000000000000000000000242424D2
:10329000FE484848FE484848000000001038545492
:1032A0005030181414545438101000000044A4A8CE
:1032B000A8A8541A2A2A2A440000000000304848CE
:1032C00048506EA494888976000000606020C00099
:1032D00000000000000000000000000204080810C8
:1032E00010101010100808040200004020101008F0
:1032F0000808080808101020400000000000101006
:10330000D63838D610100000000000000000101061
:103310001010FE101010100000000000000000004F
:10332000000000000000606020C0000000000000FD
:1033300000007F000000000000000000000000000E
:1033400000000000000060600000000001020204B4
:1033500004080810102020404000000000182442FB
:103360004242424242422418000000000010701005
:10337000101010101010107C00000000003C4242A1
:10338000420404081020427E00000000003C42423B
:1033900004180402024244380000000000040C1427
:1033A000242444447E04041E00000000007E4040AB
:1033B000405864020242443800000000001C2440CF
:1033C000405864424242241800000000007E4444F9
:1033D000080810101010101000000000003C4242BD
:1033E000422418244242423C0000000000182442BB
:1033F0004242261A020224380000000000000000A9
:10340000181800000000181800000000000000005C
:10341000001000000000001010200000000204084E
:1034200010204020100804020000000000000000EE
:10343000FE000000FE000000000000000040201020
:10344000080402040810204000000000003C424232
:103450006202040808001818000000000038445AEE
:10346000AAAAAAAAB442443800000000001010180A
:103470002828243C444242E70000000000F844446D
:1034800044784442424244F800000000003E424278
:1034900080808080804244380000000000F8444270
:1034A00042424242424244F80000000000FC4248CE
:1034B00048784848404242FC0000000000FC424876
:1034C00048784848404040E000000000003C444448
:1034D0008080808E844444380000000000E742422F
:1034E00042427E42424242E700000000007C10104F
:1034F000101010101010107C00000000003E080892
:10350000080808080808080888F0000000EE444889
:1035100050705048484444EE0000000000E0404035
:1035200040404040404042FE0000000000EE6C6C15
:103530006C6C5454545454D60000000000C76262AE
:1035400052524A4A4A4646E200000000003844828D
:1035500082828282828244380000000000FC424263
:1035600042427C40404040E000000000003844827D
:1035700082828282B2CA4C380600000000FC4242BD
:10358000427C4848444442E300000000003E42427E
:10359000402018040242427C0000000000FE92100D
:1035A00010101010101010380000000000E7424208
:1035B000424242424242423C0000000000E7424296
:1035C00044242428281810100000000000D69292ED
:1035D0009292AAAA6C4444440000000000E74224EE
:1035E00024181818242442E70000000000EE444488
:1035F000282810101010103800000000007E8404ED
:1036000008081020204242FC0000001E101010107C
:1036100010101010101010101E000000404020204C
:1036200010101008080404040202007808080808B2
:1036300008080808080808087800001C2200000094
:10364000000000000000000000000000000000007A
:10365000000000000000000000FF00606020C000CB
:10366000000000000000000000000000000000005A
:10367000003C421E2242423F0000000000C0404089
:1036800040586442424264580000000000000000BC
:10369000001C22404040221C0000000000060202E4
:1036A000021E22424242261B0000000000000000D1
:1036B000003C427E4040423C00000000000F1110E0
:1036C000107E10101010107C0000000000000000A0
:1036D000003E444438403C42423C000000C0404070
:1036E000405C6242424242E700000000003030008D
:1036F000007010101010107C00000000000C0C0076
:10370000001C0404040404044478000000C0404089
:10371000404E4850684844EE000000000070101011
:10372000101010101010107C0000000000000000AD
:1037300000FE4949494949ED000000000000000031
:1037400000DC6242424242E700000000000000004C
:10375000003C42424242423C0000000000000000A7
:1037600000D864424242447840E00000000000007B
:10377000001E22424242221E0207000000000000FA
:1037800000EE3220202020F80000000000000000A1
:10379000003E42403C02427C00000000000000105D
:1037A000107C10101010100C000000000000000031
:1037B00000C642424242463B0000000000000000BA
:1037C00000E7422424281010000000000000000040
:1037D00000D79292AAAA4444000000000000000012
:1037E000006E241818182476000000000000000065
:1037F00000E742242428181010E000000000000018
:10380000007E44081010227E00000003040404041B
:103810000408040404040404030008080808080851
:1038200008080808080808080808006010101010A8
:1038300010081010101010106000304C43000000F1
:103840000000000000000000000000000010101840
:1038500038383C3C7C7E7EFF0000000000FF7E7E0E
:103860007C3C3C3838181010000000008C380008F0
:1038700000000020300000006C010008BC38000887
:1038800030000020601600008801000800A24A04F1
:103890000000000000000000010203040607080900
:1038A00000000000010203040102030406070809E6
:0C38B000020406080000000000000000F8
:0400000508000131BD
:00000001FF
