:020000040800F2
:10000000101300207D0C0008C5020008C70200087C
:10001000CB020008CF020008D30200080000000055
:10002000000000000000000000000000D7020008EF
:10003000D902000800000000DB020008DD02000811
:10004000970C0008970C0008970C0008970C000804
:10005000970C0008970C0008970C0008970C0008F4
:10006000970C0008970C0008970C0008970C0008E4
:10007000970C0008970C0008970C0008970C0008D4
:10008000970C0008970C0008970C0008970C0008C4
:10009000970C0008970C0008970C0008970C0008B4
:1000A000970C0008970C0008970C0008970C0008A4
:1000B000970C0008970C0008970C0008970C000894
:1000C000970C0008970C0008970C0008970C000884
:1000D000970C0008970C0008970C0008970C000874
:1000E000970C0008970C0008970C0008970C000864
:1000F000970C0008970C0008970C0008970C000854
:10010000970C0008970C0008970C0008970C000843
:10011000970C0008970C0008970C0008970C000833
:10012000970C0008970C0008970C0008970C000823
:1001300000F002F800F060F80AA090E8000C824499
:100140008344AAF10107DA4501D100F055F8AFF276
:10015000090EBAE80F0013F0010F18BFFB1A43F0A5
:10016000010318472C1400004C14000010F8013B48
:100170000A4413F0030408BF10F8014B1D1108BF17
:1001800010F8015B641E05D010F8016B641E01F8C5
:10019000016BF9D1002D15D010F8014B03F00C03C1
:1001A0000C2BA1EB04040ABF10F8013BA4EB831451
:1001B000A4EB032405F1010314F8016B5B1E01F8A5
:1001C000016BF9D5914238BF10F8013BD1D370478C
:1001D0000023002400250026103A28BF78C1FBD850
:1001E000520728BF30C148BF0B6070471FB501F0F0
:1001F000C8F91FBD10B510BD01F089F91146FFF710
:10020000F5FF00F009F801F0A7F903B4FFF7F2FFDA
:1002100003BC01F0AFF900001CB500F04FFD01F088
:100220004BF900F0DDFE002000F00DFE4FF6FF70F0
:1002300001F024F943E0002639E0002533E006EB25
:100240008600C004000C05EB8501C904090C06EB0F
:100250008607FF002737BBB205EB8507FF0027376E
:10026000BAB206EB8607FF04CDE90010390C05EBA6
:100270008507FF04380C00F054FE00240EE01049FE
:1002800011F81410012202EB44020D4B9A5C01EBB1
:10029000022188B200F0FFFD601C84B2B4F5C86F83
:1002A000EDDB681C85B2062DC9DB701C86B2082EFA
:1002B000C3DBC82000F039FD1F2001F0DFF8BAE7EA
:1002C00000000020704700BFFEE700BFFEE700BF50
:1002D000FEE700BFFEE770477047704770470000B9
:1002E00000210020674A126842F48032654B1A6090
:1002F00000BF644A126802F40030491C10B9B1F51D
:10030000A06FF6D15F4A126812F4003F01D00120BD
:1003100000E00020012842D15B4A126842F010023E
:10032000594B1A601A46126822F003021A601A46E4
:10033000126842F002021A60524A5268514B5A60E7
:100340001A4652685A601A46526842F480625A60ED
:100350001A46526822F47C125A601A46526842F4D5
:10036000E8125A601A46126842F080721A6000BFA2
:10037000444A126812F0007FFAD0424A526822F0D2
:100380000302404B5A601A46526842F002025A6019
:1003900000BF3C4A526802F00C02082AF9D17047AB
:1003A00010B5FFF79DFF10BD10B53648006840F04E
:1003B0000100344908600846406834490840314922
:1003C000486008460068324908402E4908600846DF
:1003D000006820F4802008600846406820F4FE0091
:1003E00048604FF41F008860FFF7DAFF4FF00060AD
:1003F0002849086010BD10B5002100200022214BC3
:100400005B6803F00C0121B1042906D0082928D12A
:1004100007E0214B214C236027E01F4B1F4C23603A
:1004200023E0184B5B6803F47010164B5B6803F411
:100430008032022303EB904022B9194B4343174CFF
:1004400023600DE00F4B5B6813F4003F04D0144BA6
:100450004343124C236003E00F4B43430F4C236094
:1004600003E00D4B0D4C236000BF00BF054B5B68E4
:10047000C3F303130B4CE15C084B1B68CB40074CE8
:10048000236010BD00100240002002400000FFF871
:10049000FFFFF6FE08ED00E000127A00800C00205D
:1004A00000093D00840C002031490143314A1160AC
:1004B000704770B5002100230F22C4780CB32D4C77
:1004C000246804F4E064C4F5E064210AC1F1040383
:1004D000CA40447804FA03F18478144021430901A6
:1004E000254C0678A155047804F01F050124AC4082
:1004F00005786D114FF0E02606EB8505C5F8004143
:1005000009E0047804F01F050124AC401B4D067877
:10051000761145F8264070BD194A0A400243154B32
:100520001B1F1A60704739B1124A121D126802432C
:10053000104B1B1D1A6006E00E4A121D1268824302
:100540000C4B1B1D1A607047042808D14FF0E021A6
:10055000096941F004014FF0E022116107E04FF01A
:10056000E021096921F004014FF0E0221161704798
:100570000000FA050CED00E000E400E080E100E09E
:1005800080FFFF1F10B50446CA48844208D10121EC
:10059000042000F025FB0021042000F021FB46E0B0
:1005A000C548844208D10121082000F019FB002130
:1005B000082000F015FB3AE0C048844208D1012130
:1005C000102000F00DFB0021102000F009FB2EE0B0
:1005D000BB48844208D10121202000F001FB00210A
:1005E000202000F0FDFA22E0B648844208D1012123
:1005F000402000F0F5FA0021402000F0F1FA16E06A
:10060000B148844208D10121802000F0E9FA00219C
:10061000802000F0E5FA0AE0AC48844207D10121CD
:10062000801500F0DDFA0021A01500F0D9FA10BD08
:1006300010B50121084600F0D3FA0021012000F096
:10064000CFFA10BD2DE9F04102460025002600201A
:1006500000230024002791F803C00CF00F0591F847
:1006600003C01CF0100F03D091F802C04CEA05053E
:10067000B1F800C01CF0FF0F31D0146800202BE04F
:100680004FF0010C0CFA00F3B1F800C00CEA0306BD
:100690009E4220D183004FF00F0C0CFA03F7BC43AD
:1006A00005FA03FC4CEA040491F803C0BCF1280FDE
:1006B00006D14FF0010C0CFA00FCC2F814C00AE09D
:1006C00091F803C0BCF1480F05D14FF0010C0CFAB2
:1006D00000FCC2F810C0401C0828D1D31460B1F847
:1006E00000C0BCF1FF0F34DD546800202EE000F1A3
:1006F000080C4FF0010808FA0CF3B1F800C00CEA3E
:1007000003069E4221D183004FF00F0C0CFA03F731
:10071000BC4305FA03FC4CEA040491F803C0BCF1A5
:10072000280F05D100F1080C08FA0CF8C2F8148063
:1007300091F803C0BCF1480F07D100F1080C4FF04D
:10074000010808FA0CF8C2F81080401C0828CED323
:100750005460BDE8F0814FF6FF7101800221817085
:100760000421C17070470246002093680B4201D0FB
:10077000012000E0002070470146886880B2704781
:1007800002460020D3680B4201D0012000E0002087
:1007900070470146C86880B2704701617047416187
:1007A00070470AB1016100E041617047C160704764
:1007B0004FF480320A438261816182618269826979
:1007C000704702460020424B18684FF6807318406D
:1007D00040EA021008433E4B186070473D49C8612B
:1007E0007047F0B50A46002300240021002500F0E0
:1007F0000046B6F1004F02D1354EF16901E0344EAA
:100800007168C0F3034583B200F44016B6F5401F8B
:1008100008D121F070612E4E766826F070662C4F5C
:100820007E6012E000F48016B6F5801F06D1032624
:1008300006FA05F4A14341F0706106E0460D360169
:1008400003FA06F6B14341F0706122B1460D36015C
:1008500003FA06F6314300F00046B6F1004F02D12C
:100860001B4EF16101E01A4E7160F0BD30B50022FF
:100870008B071C0F0F2303FA04F2154B08338C105F
:1008800053F824309343124C08348D1044F825302B
:1008900023468C1053F824308C07240F00FA04F4FC
:1008A00023430B4C08348D1044F8253030BD0A49E1
:1008B0000860704700080140000C01400010014032
:1008C0000014014000180140001C014000200140BC
:1008D0000000014000002042DC002042DC480068AB
:1008E00040F00100DA49086008464068D9490840EC
:1008F000D749486008460068D7490840D44908608D
:100900000846006820F4802008600846406820F40B
:10091000FE0048604FF41F0088607047CC490968AA
:1009200021F48031CA4A11601146096821F48021FE
:100930001160B0F5803F03D0B0F5802F0ED106E0F6
:10094000C349096841F48031C14A116007E0C049D8
:10095000096841F4A021BE4A116000E000BF00BF59
:10096000704710B501460022002300204A11012AD9
:1009700002D1B74C236806E0022A02D1B44C236AA4
:1009800001E0B34C636A01F01F02012494401C4251
:1009900001D0012000E0002010BD70B5002400252A
:1009A000002600BF3120FFF7DCFF0646641CB4F5CB
:1009B000A06F01D0002EF5D03120FFF7D2FF08B193
:1009C000012500E00025284670BD01460020A04A10
:1009D000106820F0F80040EAC100106070479F499D
:1009E0000860704702460020994B586820F47C103C
:1009F00042EA01031843964B5860704797490866CE
:100A0000704701460020924A506820F003000843D6
:100A1000506070478E48406800F00C0070470146F7
:100A200000208B4A506820F0F00008435060704767
:100A300001460020864A506820F4E0600843506078
:100A4000704701460020824A506820F4605040EA16
:100A5000C1005060704729B17D4A527A02437C4BF5
:100A60005A7206E07A4A527AC343DBB21A40784B94
:100A70005A7270477A490860704701460020744AEC
:100A8000506820F440400843506070470021754A88
:100A900011706F4A82F82010012802D0042808D172
:100AA00003E001216F4A117004E005216D4A1170C5
:100AB00000E000BF00BF70476B49086070476449A1
:100AC000096A0143624A1162704767494439086004
:100AD000704730B500210022002400235C4D6D6872
:100AE00005F00C0121B1042905D0082923D105E026
:100AF0005E4D056022E05D4D05601FE0544D6D6860
:100B000005F47012524D6D6805F48034022505EB32
:100B100092421CB9564D554305600BE04C4D6D6833
:100B200015F4003F03D0524D5543056002E04F4D90
:100B30005543056002E04D4D056000BF00BF444DC8
:100B40006D6805F0F00109094A4D6B5C0568DD40F0
:100B500045603F4D6D6805F4E061090A454D6B5CE9
:100B60004568DD4085603A4D6D6805F46051C90AFD
:100B7000404D6B5C4568DD40C560354D6D6805F4E2
:100B80004041890B3C4D6B5CC568B5FBF3F50561D5
:100B900030BD29B12E4A526902432D4B5A6104E0FF
:100BA0002B4A526982432A4B5A61704729B1284A1D
:100BB00092690243264B9A6104E0254A9269824376
:100BC000234B9A61704729B1214AD2690243204BD5
:100BD000DA6104E01E4AD26982431D4BDA61704734
:100BE00029B11B4AD2680243194BDA6004E0184A63
:100BF000D2688243164BDA60704729B1144A1269F1
:100C00000243134B1A6104E0114A12698243104BEC
:100C10001A61704714494039086070470F49C86429
:100C200070470B49C87170470948406A40F08070AE
:100C300007494862704701460020054A92680A4207
:100C400001D0012000E00020704701498872704700
:100C5000001002400000FFF8FFFFF6FE00004242D5
:100C6000D8004242201002408004424200127A0022
:100C700000093D00940C0020A40C00200948804786
:100C800009480047FEE7FEE7FEE7FEE7FEE7FEE76E
:100C9000FEE7FEE7FEE7FEE704480549054A064B86
:100CA00070470000A903000831010008100D002062
:100CB00010130020100F0020100F002010B56FF04F
:100CC0000400FFF741FC2A4800682A49B0FBF1F014
:100CD00029490870084600784FF47A71484327493B
:100CE000088010BD0146244A12784A434FF0E023A1
:100CF0005A6100229A611A46126942F001021A6191
:100D000000BF4FF0E022106910F0010F02D010F484
:100D1000803FF6D04FF0E022126922F001024FF03E
:100D2000E0231A6100229A6170470146134A128833
:100D30004A434FF0E0235A6100229A611A46126931
:100D400042F001021A6100BF4FF0E022106910F07A
:100D5000010F02D010F4803FF6D04FF0E02212696C
:100D600022F001024FF0E0231A6100229A617047DD
:100D7000800C002000127A00A80C0020AA0C002091
:100D800008B501210846FFF711FF0121FE48FFF7D2
:100D900028FD01211C20FFF709FF4FF6FF70ADF879
:100DA000000010208DF8030003208DF80200694632
:100DB000F648FFF747FC4FF4E060ADF800006946E5
:100DC000F348FFF73FFC4FF40040ADF800006946E0
:100DD000F048FFF737FC08BD012806D1EC49096946
:100DE00041F40071EA4A116106E028B9E84949690D
:100DF00041F40071E64A51617047012806D1E44987
:100E0000096941F48061E24A116106E028B9E049CC
:100E1000496941F48061DE4A51617047012808D177
:100E2000DC491031096841F40041DA4A103211609E
:100E300008E038B9D7491431096841F40041D54A6E
:100E4000143211607047012806D1D149096941F473
:100E50008071CF4A116106E028B9CD49496941F452
:100E60008071CB4A516170474FF6FF71C74A143207
:100E70001160111F0860704700B503460020FFF79E
:100E8000ABFF1846FFF7F0FF0020FFF7B6FF012089
:100E9000FFF7B3FF00BD00B503460120FFF79CFF3D
:100EA0001846FFF7E1FF0020FFF7A7FF0120FFF73B
:100EB000A4FF00BD30B505460C462846FFF7DCFF11
:100EC0002046FFF7E8FF30BD70B504462046FFF727
:100ED000D3FF4FF08830AD490860091D08604FF618
:100EE000FF70AA490C3108600120FFF775FF002050
:100EF000FFF794FF0520FFF7F5FE0120FFF78EFFB7
:100F0000A2480830006885B24FF033309F4908602E
:100F1000091D08604FF6FF709C490C310860284697
:100F200070BD2DE9F04307460C4615461E46DDE927
:100F3000078999480088A0F510516D3927D15020B4
:100F4000FFF79AFF3846FFF7A6FF5120FFF794FFFF
:100F50002846FFF7A0FF5220FFF78EFF2046FFF73D
:100F60009AFF5320FFF788FF3046FFF794FF2020B9
:100F7000FFF782FF4046FFF78EFF2120FFF77CFF3F
:100F80004846FFF788FF2220FFF776FF26E08248D9
:100F90000088A0F510517D3920D12A20FFF76CFF81
:100FA0003812FFF778FFF8B2FFF775FF2812FFF746
:100FB00072FFE8B2FFF76FFF2B20FFF75DFF2012F3
:100FC000FFF769FFE0B2FFF766FF3012FFF763FF3C
:100FD000F0B2FFF760FF2C20FFF74EFFBDE8F08373
:100FE00010B5FFF7CDFE0120FFF72DFF0120FFF721
:100FF00015FF0120FFF701FF0520FFF796FE0020F7
:10100000FFF721FF3220FFF790FE01210020FFF7BC
:1010100051FF3220FFF789FE0020FFF755FF5E49A0
:10102000088008460088A0F51341253911D05A4898
:101030000088A0F5134128390BD057480088A0F547
:1010400013413D3905D054480088A0F5134120399B
:101050007DD142F26D40504908804FF480710120EB
:10106000FFF728FF4FF4E0610220FFF723FF41F272
:1010700030010320FFF71EFF00210420FFF71AFFB5
:1010800040F202210820FFF715FF00210920FFF799
:1010900011FF00210A20FFF70DFF00210C20FFF7B0
:1010A00009FF00210D20FFF705FF00210F20FFF7AA
:1010B00001FF00211020FFF7FDFE07211120FFF79F
:1010C000F9FE00211220FFF7F5FE00211320FFF7A3
:1010D000F1FE01210720FFF7EDFE3220FFF725FE8C
:1010E00041F290611020FFF7E5FE40F22721112028
:1010F000FFF7E0FE3220FFF718FE9D211220FFF7D8
:10110000D9FE3220FFF711FE4FF4C8511320FFF72C
:10111000D1FE3220FFF709FE25212920FFF7CAFE64
:101120000D212B20FFF7C6FE3220FFF7FEFD002128
:101130002020FFF7BFFE00212120FFF7BBFE322059
:10114000FFF7F3FD07213020FFF7B4FE00E07CE05D
:1011500040F203313120FFF7ADFE03213220FFF7CB
:10116000A9FE40F206213520FFF7A4FE0821362013
:10117000FFF7A0FE40F206413720FFF79BFE4FF439
:10118000417138200AE0000000023000000C0140EC
:101190000010014000080140AC0C0020FFF78AFE5F
:1011A00007213920FFF786FE40F201613C20FFF75E
:1011B00081FE08213D20FFF77DFE00215020FFF732
:1011C00079FEEF215120FFF775FE00215220FFF735
:1011D00071FE40F23F115320FFF76CFE4FF42741A0
:1011E0006020FFF767FE01216120FFF763FE002109
:1011F0006A20FFF75FFE00218020FFF75BFE0021E1
:101200008120FFF757FE00218220FFF753FE0021C7
:101210008320FFF74FFE00218420FFF74BFE0021C3
:101220008520FFF747FE10219020FFF743FE4FF483
:10123000C0619220FFF73EFE40F233110720FFF716
:1012400039FE2220FFF718FE17E142F27D4099494E
:101250000880CF20FFF710FE0020FFF71CFEC12002
:10126000FFF719FE3020FFF716FEED20FFF704FE12
:101270006420FFF710FE0320FFF70DFE1220FFF79A
:101280000AFE8120FFF707FEE820FFF7F5FD852025
:10129000FFF701FE1020FFF7FEFD7A20FFF7FBFDB0
:1012A000CB20FFF7E9FD3920FFF7F5FD2C20FFF7F4
:1012B000F2FD0020FFF7EFFD3420FFF7ECFD0220E8
:1012C000FFF7E9FDF720FFF7D7FD2020FFF7E3FD4B
:1012D000EA20FFF7D1FD0020FFF7DDFD0020FFF73A
:1012E000DAFDC020FFF7C8FD1B20FFF7D4FDC120A9
:1012F000FFF7C2FD0120FFF7CEFDC520FFF7BCFDC3
:101300003020FFF7C8FD3020FFF7C5FDC720FFF7ED
:10131000B3FDB720FFF7BFFD3620FFF7ADFD082076
:10132000FFF7B9FD3A20FFF7A7FD5520FFF7B3FD02
:10133000B120FFF7A1FD0020FFF7ADFD1A20FFF758
:10134000AAFDB620FFF798FD0A20FFF7A4FDA22012
:10135000FFF7A1FDF220FFF78FFD0020FFF79BFDB7
:101360002620FFF789FD0120FFF795FDE020FFF71C
:1013700083FD0F20FFF78FFD2A20FFF78CFD28202B
:10138000FFF789FD0820FFF786FD0E20FFF783FD9C
:101390000820FFF780FD5420FFF77DFDA920FFF70F
:1013A0007AFD4320FFF777FD0A20FFF774FD0F2039
:1013B000FFF771FD0020FFF76EFD0020FFF76BFDCA
:1013C0000020FFF768FD0020FFF765FDE120FFF733
:1013D00053FD0020FFF75FFD1520FFF75CFD172090
:1013E000FFF759FD0720FFF756FD1120FFF753FDCA
:1013F0000620FFF750FD2B20FFF74DFD5620FFF78D
:101400004AFD3C20FFF747FD0520FFF744FD102073
:10141000FFF741FD0F20FFF73EFD3F20FFF73BFDAB
:101420003F20FFF738FD0F20FFF735FD2B20FFF79A
:1014300023FD0020FFF72FFD0020FFF72CFD0120EA
:10144000FFF729FD3F20FFF726FD2A20FFF714FDB7
:101450000020FFF720FD0020FFF71DFD0020FFF713
:101460001AFDEF20FFF717FD1120FFF705FD78208B
:10147000FFF75BFC2920FFF7FFFC10BD7CB506469B
:101480000020009040F23F13EF2201460190FFF749
:1014900048FD00240AE0002504E03046FFF7FBFC8D
:1014A000681CC5B2F02DF8DB601C84B2B4F5A07FD7
:1014B000F1DB7CBDAC0C002008B501210420FFF756
:1014C00075FB0220ADF8000010208DF8030003200A
:1014D0008DF8020069460B48FFF7B4F8022109486D
:1014E000FFF75BF908BD10B50446012C04D10221B9
:1014F0000448FFF754F903E002210248FFF74DF9D1
:1015000010BD0000000801407047704770477546E5
:1015100000F028F8AE4605006946534620F0070063
:10152000854618B020B5FFF7B7FBBDE820404FF067
:1015300000064FF000074FF000084FF0000B21F0BD
:101540000701AC46ACE8C009ACE8C009ACE8C0098A
:10155000ACE8C0098D4670470446AFF300802046D2
:10156000FEF753FE00487047B00C0020004870475B
:10157000B40C002001491820ABBEFEE72600020093
:10158000704710B5FFF7F2FF4FF00001016010BD8A
:10159000B015000800000020B00C00006C0100082D
:1015A000E01D0008B00C002060060000D00100081B
:1015B0000219FF01100EBEF77DEFBAD6B6B5F39C47
:1015C000B294B304000A3134A5F7BDFBDE7DEFFF12
:1015D000011010BEF7FBDEF39CCB5AC73904218201
:1015E00010420200112A410883184529C7390C63AB
:1015F00075AD3CE7BEF74E40113CE7B2940842C3DC
:10160000188210042145298631022345295C000BEC
:10161000264108C3180842F39C3CE74F3008FBDE24
:101620000C63C318C38E830842022005C739C7392B
:1016300058000B24042141088210CB5ABAD64E60C0
:1016400005CB5A82104C7004094A49024152215478
:10165000040B1E452983180000C84138C6386005B0
:101660007DEF8E734E100E094A8A523084CF7B8AEA
:1016700052494A4A042007CB5ACF7B0C63A8215217
:1016800012C352031E494AA42007F39CC318042125
:101690004E2198200972947DEF7DEFB2944E600B3D
:1016A0008A5275ADBEF7BAD64D6BA4040819C3189B
:1016B0004108CF7B7C486007BAD6084282104E248E
:1016C000058E73FBDEEA280BBAD68E73084230848F
:1016D0003CE72C4005B6B5494AF4254808051845AD
:1016E00029B6B57023718C22419C28114A52B294BC
:1016F000BEF7BEF7B294CF7BCF7B494A88900A0CE5
:101700006338C6BAD60C6387A20B163084924007A2
:101710003CE7CB5A41089E24074A528A52F39C5018
:101720001012C739C3180C63CB5AB6B5B294CB5A52
:1017300075ADFAF2615025EA0805148A5279CE7621
:101740002B38C60C43C8419EA005494AB18CA0184D
:101750000674A57DEF7CC8640579CE0C63E629ECA0
:1017600027452958011250440734A5821086313C80
:1017700025D4474D6BBE100479CE0D4243CF7BD8A4
:10178000480775AD08428631362594000512C31806
:10179000B294F2118A628CEE25CE201B8A524A4AFC
:1017A000D07B7AC67BBE906BC9398831C939B38486
:1017B000BBC6F8B5CC5A4E615027C420420D122C3E
:1017C0000374063CE78A4AC3DC11013C1D42093A16
:1017D000084A096B497BC67A05834683C57AC67277
:1017E000097B485A8731882188840321A02D2C0346
:1017F0000A134A863408F7C582500541C7DE124AEB
:10180000542022097B889BC6B321D4A0DCE1E4618B
:10181000ED61ED21EDA0E420DC80CB43ABC482067A
:101820005A4721464EE00A29041982108218F39C77
:10183000F2101A7DEF4D9300A082B8C731093249EA
:101840004A867A43C36BEDF4F6EBFD200210046088
:10185000FDA002126002180F20FDE0FCA0FC60F465
:10186000C1DB839AC54982E00A19C420823800503E
:10187000CB6AA2140BFBEE04A100C000F0C3A0E0F1
:10188000300D42059B20FCA4FC69FDE8FD6350413E
:101890004C214E31501006FC20FC41D350E80C196D
:1018A000C438826841880070495A34901CFBF68223
:1018B000C000D086C146F141C84579895288628608
:1018C0006AC67AC4BBE1FC60A0140DE0FC60E403CE
:1018D000938472446AC541DCC00C5841A84098000A
:1018E000B000600C6B501C177DEFCE83828800F82F
:1018F000C4D80CF38AFA82E882B04569C751AC04B7
:1019000018153A865A839BA2BC22CD21CDA1C422B0
:10191000B4C47A063A862610070531C4504190D0E7
:101920001004A800A004C630922D54043024C3181B
:10193000053982A800F8C3F84DFB4DFBC7F9C3F089
:1019400082D8C3B0048145614651864986494641E3
:101950004502100D05490461829041B000D000C8D5
:101960004E1406A800B84158922E109C036DDA055B
:101970002FCF7B8805501F86298641049940E84176
:10198000F886F9CBFA49FA82F800F800F000E8414D
:10199000D841D041C00212C84812E00212D85020EB
:1019A00008B800A8418882484E400500004529F249
:1019B0002C07BEF7F39C82108C0519F41008313007
:1019C0007CF3DC86E14613F841020212000252E881
:1019D00050200AC841A08A9A0C6304119E2C07412A
:1019E0000800004D6B40034C07FBDE084242102408
:1019F000061C05494A38BEC6031004D686A9CC2267
:101A0000E056D14E22F0B0114E2C0ED0C3988A8AE7
:101A1000B2A4BAC6F7B50842FC0521502C074529E7
:101A2000F7BDFFFFA2046D74062F0C633803140F7B
:101A300079D646B900E042C882A882B041D89C302D
:101A400004F041E80221082C14D804C108924D8BFF
:101A500034A5FBC6FBD6BACE3CE7308456052150F0
:101A60002D5C0520077DEF494A0000501E46C00648
:101A70002F308427034033F7DD09DA83F801F04281
:101A8000C08298499AF3B4F3CC71BC8EBB8EBB3044
:101A9000BC71BCF3BCB6BDFBCEBEE77DE73BDFBA95
:101AA000D679CEFBDE75AD8631502DFE052FFBDEDF
:101AB000640521502C0745298739B2945405FC1040
:101AC00034DD0CEB09FA00F001D800D88BD27DEAA6
:101AD000031ABE5E2005FBDEFBDE502007BAD67877
:101AE000C6C7399C21502407C73979CE00008E140F
:101AF00004042105901EB34005100AFFF775DDC7E9
:101B0000E9C7F901A20C071200E849E2FBEE36082A
:101B100081505006B9CE084200012005C73938C6A9
:101B2000502DB60721A431F01006FF38DEC4D09E38
:101B3000358000051408D2FBE650219E2150400557
:101B400079CEC739EE200500008631501C06000012
:101B5000C318CBD40421062D700618077DEFCFBB28
:101B6000C3B074E006D082B84DB3F02DB205723D1B
:101B7000501805FAD6F7BDBA1DE207615041482456
:101B80000975ADCF7B41088631F215440C0C12EF7C
:101B900074B5309C309C72A4BBD62409633CE7A08A
:101BA0002C093CE7718C81080C631203200D0000A6
:101BB0008A5238C675AD718CB6B52225580F1ECF26
:101BC0007326092D900730043BDFFA9E1004FBDEDC
:101BD000B9EE2C0DC420718CBAD6718CCB5AB2944C
:101BE00020062DB2072D7C0700091EB6B546290533
:101BF0001975A550619E1008BAD6FCDE4E63429E50
:101C00002FF7BDBC0325A4CD980617F49CE8031557
:101C100021B6522DEC06814E0C0E12FBDEBBD6D146
:101C20007383188639349DBD8E06001012FF35D699
:101C3000EBCC43B340510519F58CBEEF4C514E151A
:101C40003CEC113CDF3ABE4F63824940A323B4CC45
:101C5000833ABEB6081C09BFF7B5BD829220F4CC0A
:101C600005340BE4408284418F6B77AD3DDA32FE60
:101C70004C814EC019FBDE3DE7BBCE369D0B6B4160
:101C80006A60C420FE60F5008BC76A38C6EA1C088B
:101C90007DEF4B7B80B2A0CC052DD2056411C0CB6B
:101CA000C18A45624D6BB394F7BD3DDFFFF7882CC9
:101CB0001D7DE73DDFBAC675A58D7B847A40B3E014
:101CC000ECE0FDE0FD60F520E5A0D40A6BEA08AD8C
:101CD000A0053006CC9340EB60502D30063C24200C
:101CE000F5A0D4C0BB429B458B6B9CAE9C718CB362
:101CF00094339D34A5F2A4F0B4CA9B049B40BB204E
:101D0000E42004062152D008E0FD20C4885A38F4AB
:101D1000400978D646AB40DB20F4542DD20631562C
:101D20004016DCC0B3C05186290D638F7B0D5BC7A5
:101D300041018200C3C0E324112622F59E0C071046
:101D4000809B86623084C408181F38C62D9C05937A
:101D500043A382B3C2BBC2BB22B482A34293C37A61
:101D600085620B637184B6B5BE200FC6B5AD7094A5
:101D70004A8B06830493049B43020C0C1293048346
:101D800008738D73B39479CE7208300D3CDF38BE82
:101D900075B533A533A5F39C02880894F39C35A54B
:101DA000F8BD58140D7EEFBBD6F8BDB6AD75AD3499
:101DB000A502AC089D35A5B7AD79C6EE0B6C050044
:101DC000A24A042004600901020304060708090C62
:101DD00061105C04020406F203030000000000002E
:0400000508000131BD
:00000001FF
