:020000040800F2
:100000009006002055190008EF010008F1010008D2
:10001000F5010008F9010008FD01000800000000DA
:1000200000000000000000000000000001020008C5
:100030000302000800000000050200080702000893
:100040006F1900086F1900086F1900086F19000870
:100050006F1900086F1900086F1900086F19000860
:100060006F1900086F1900086F1900086F19000850
:100070006F1900086F1900086F1900086F19000840
:100080006F1900086F1900086F1900086F19000830
:100090006F1900086F1900086F1900086F19000820
:1000A0006F1900086F1900086F1900086F19000810
:1000B000051B00086F1900086F1900086F19000868
:1000C0006F1900086F1900086F1900086F190008F0
:1000D0006F1900086F1900086F1900086F190008E0
:1000E0006F1900086F1900086F1900086F190008D0
:1000F0006F1900086F1900086F1900086F190008C0
:100100006F1900086F1900086F1900086F190008AF
:100110006F1900086F1900086F1900086F1900089F
:100120006F1900086F1900086F1900086F1900088F
:1001300000F002F800F03CF80AA090E8000C8244BD
:100140008344AAF10107DA4501D100F031F8AFF29A
:10015000090EBAE80F0013F0010F18BFFB1A43F0A5
:10016000010318475C1A00007C1A0000103A24BFF3
:1001700078C878C1FAD8520724BF30C830C144BF0C
:1001800004680C607047000000230024002500264E
:10019000103A28BF78C1FBD8520728BF30C148BFEA
:1001A0000B6070471FB501F004FD1FBD10B510BDF9
:1001B00001F0C5FC1146FFF7F5FF00F008F801F06B
:1001C000E3FC03B4FFF7F2FF03BC01F0EBFC01F02A
:1001D000E1FB4FF4A06000F0FBF801F03DFC41F6BC
:1001E0001F4142F20F7001F05FFC00BFFEE7704755
:1001F00000BFFEE700BFFEE700BFFEE700BFFEE76F
:10020000704770477047704700210020674A1268A6
:1002100042F48032654B1A6000BF644A126802F4EF
:100220000030491C10B9B1F5A06FF6D15F4A1268D1
:1002300012F4003F01D0012000E00020012842D14B
:100240005B4A126842F01002594B1A601A46126853
:1002500022F003021A601A46126842F002021A6083
:10026000524A5268514B5A601A4652685A601A46AE
:10027000526842F480625A601A46526822F47C1234
:100280005A601A46526842F4E8125A601A461268D6
:1002900042F080721A6000BF444A126812F0007F78
:1002A000FAD0424A526822F00302404B5A601A4682
:1002B000526842F002025A6000BF3C4A526802F0A3
:1002C0000C02082AF9D1704710B5FFF79DFF10BD49
:1002D00010B53648006840F001003449086008460F
:1002E000406834490840314948600846006832494E
:1002F00008402E4908600846006820F48020086005
:100300000846406820F4FE0048604FF41F008860F3
:10031000FFF7DAFF4FF000602849086010BD10B504
:10032000002100200022214B5B6803F00C0121B169
:10033000042906D0082928D107E0214B214C23604D
:1003400027E01F4B1F4C236023E0184B5B6803F42E
:100350007010164B5B6803F48032022303EB90406D
:1003600022B9194B4343174C23600DE00F4B5B68D8
:1003700013F4003F04D0144B4343124C236003E0BA
:100380000F4B43430F4C236003E00D4B0D4C236098
:1003900000BF00BF054B5B68C3F303130B4CE15C6C
:1003A000084B1B68CB40074C236010BD0010024077
:1003B000002002400000FFF8FFFFF6FE08ED00E01D
:1003C00000127A000000002000093D000400002017
:1003D00031490143314A1160704770B50021002353
:1003E0000F22C4780CB32D4C246804F4E064C4F5E7
:1003F000E064210AC1F10403CA40447804FA03F11D
:100400008478144021430901254C0678A1550478CD
:1004100004F01F050124AC4005786D114FF0E02673
:1004200006EB8505C5F8004109E0047804F01F05D6
:100430000124AC401B4D0678761145F8264070BD6E
:10044000194A0A400243154B1B1F1A60704739B105
:10045000124A121D12680243104B1B1D1A6006E05F
:100460000E4A121D126882430C4B1B1D1A60704706
:10047000042808D14FF0E021096941F004014FF050
:10048000E022116107E04FF0E021096921F0040149
:100490004FF0E022116170470000FA050CED00E01A
:1004A00000E400E080E100E080FFFF1F10B504469B
:1004B000CA48844208D10121042000F025FB002114
:1004C000042000F021FB46E0C548844208D1012108
:1004D000082000F019FB0021082000F015FB3AE08D
:1004E000C048844208D10121102000F00DFB0021FA
:1004F000102000F009FB2EE0BB48844208D1012106
:10050000202000F001FB0021202000F0FDFA22E075
:10051000B648844208D10121402000F0F5FA0021BC
:10052000402000F0F1FA16E0B148844208D10121E0
:10053000802000F0E9FA0021802000F0E5FA0AE0CE
:10054000AC48844207D10121801500F0DDFA00217A
:10055000A01500F0D9FA10BD10B50121084600F031
:10056000D3FA0021012000F0CFFA10BD2DE9F041AF
:10057000024600250026002000230024002791F8D1
:1005800003C00CF00F0591F803C01CF0100F03D04E
:1005900091F802C04CEA0505B1F800C01CF0FF0F4D
:1005A00031D0146800202BE04FF0010C0CFA00F35E
:1005B000B1F800C00CEA03069E4220D183004FF040
:1005C0000F0C0CFA03F7BC4305FA03FC4CEA0404D5
:1005D00091F803C0BCF1280F06D14FF0010C0CFAC2
:1005E00000FCC2F814C00AE091F803C0BCF1480F47
:1005F00005D14FF0010C0CFA00FCC2F810C0401CF1
:100600000828D1D31460B1F800C0BCF1FF0F34DD6D
:10061000546800202EE000F1080C4FF0010808FAA1
:100620000CF3B1F800C00CEA03069E4221D183000E
:100630004FF00F0C0CFA03F7BC4305FA03FC4CEA2D
:10064000040491F803C0BCF1280F05D100F1080C97
:1006500008FA0CF8C2F8148091F803C0BCF1480FF6
:1006600007D100F1080C4FF0010808FA0CF8C2F8A5
:100670001080401C0828CED35460BDE8F0814FF6AE
:10068000FF710180022181700421C1707047024610
:10069000002093680B4201D0012000E00020704749
:1006A0000146886880B2704702460020D3680B423A
:1006B00001D0012000E0002070470146C86880B2E8
:1006C000704701617047416170470AB1016100E004
:1006D00041617047C16070474FF480320A438261C4
:1006E0008161826182698269704702460020424BC3
:1006F00018684FF68073184040EA021008433E4BDA
:10070000186070473D49C8617047F0B50A4600233C
:1007100000240021002500F00046B6F1004F02D170
:10072000354EF16901E0344E7168C0F3034583B280
:1007300000F44016B6F5401F08D121F070612E4E2E
:10074000766826F070662C4F7E6012E000F480160A
:10075000B6F5801F06D1032606FA05F4A14341F041
:10076000706106E0460D360103FA06F6B14341F02A
:10077000706122B1460D360103FA06F6314300F0EE
:100780000046B6F1004F02D11B4EF16101E01A4E56
:100790007160F0BD30B500228B071C0F0F2303FAE8
:1007A00004F2154B08338C1053F824309343124C49
:1007B00008348D1044F8253023468C1053F824302B
:1007C0008C07240F00FA04F423430B4C08348D10DB
:1007D00044F8253030BD0A490860704700080140E0
:1007E000000C0140001001400014014000180140BD
:1007F000001C014000200140000001400000204298
:10080000DC002042DC48006840F00100DA49086062
:1008100008464068D9490840D749486008460068FA
:10082000D7490840D44908600846006820F4802071
:1008300008600846406820F4FE0048604FF41F003E
:1008400088607047CC49096821F48031CA4A116038
:100850001146096821F480211160B0F5803F03D072
:10086000B0F5802F0ED106E0C349096841F480310C
:10087000C14A116007E0C049096841F4A021BE4A9D
:10088000116000E000BF00BF704710B501460022B4
:10089000002300204A11012A02D1B74C236806E048
:1008A000022A02D1B44C236A01E0B34C636A01F01E
:1008B0001F02012494401C4201D0012000E00020CE
:1008C00010BD70B500240025002600BF3120FFF7C1
:1008D000DCFF0646641CB4F5A06F01D0002EF5D0F5
:1008E0003120FFF7D2FF08B1012500E0002528469E
:1008F00070BD01460020A04A106820F0F80040EAD0
:10090000C100106070479F49086070470246002090
:10091000994B586820F47C1042EA01031843964B27
:100920005860704797490866704701460020924A10
:10093000506820F003000843506070478E484068BC
:1009400000F00C007047014600208B4A506820F0F0
:10095000F00008435060704701460020864A506806
:1009600020F4E06008435060704701460020824A4E
:10097000506820F4605040EAC1005060704729B1CF
:100980007D4A527A02437C4B5A7206E07A4A527A86
:10099000C343DBB21A40784B5A7270477A490860F9
:1009A000704701460020744A506820F440400843D4
:1009B000506070470021754A11706F4A82F820100C
:1009C000012802D0042808D103E001216F4A1170E8
:1009D00004E005216D4A117000E000BF00BF7047C0
:1009E0006B49086070476449096A0143624A1162B1
:1009F0007047674944390860704730B500210022CC
:100A0000002400235C4D6D6805F00C0121B1042920
:100A100005D0082923D105E05E4D056022E05D4D3B
:100A200005601FE0544D6D6805F47012524D6D68FD
:100A300005F48034022505EB92421CB9564D55430E
:100A400005600BE04C4D6D6815F4003F03D0524D2E
:100A50005543056002E04F4D5543056002E04D4DA2
:100A6000056000BF00BF444D6D6805F0F001090945
:100A70004A4D6B5C0568DD4045603F4D6D6805F48F
:100A8000E061090A454D6B5C4568DD4085603A4D83
:100A90006D6805F46051C90A404D6B5C4568DD40E6
:100AA000C560354D6D6805F44041890B3C4D6B5C6C
:100AB000C568B5FBF3F5056130BD29B12E4A526911
:100AC00002432D4B5A6104E02B4A526982432A4B60
:100AD0005A61704729B1284A92690243264B9A61AC
:100AE00004E0254A92698243234B9A61704729B1F9
:100AF000214AD2690243204BDA6104E01E4AD269DE
:100B000082431D4BDA61704729B11B4AD268024308
:100B1000194BDA6004E0184AD2688243164BDA6057
:100B2000704729B1144A12690243134B1A6104E059
:100B3000114A12698243104B1A61704714494039B7
:100B4000086070470F49C86470470B49C871704707
:100B50000948406A40F08070074948627047014682
:100B60000020054A92680A4201D0012000E00020DE
:100B70007047014988727047001002400000FFF87A
:100B8000FFFFF6FE00004242D80042422010024021
:100B90008004424200127A0000093D001400002047
:100BA0002400002010B50446FE48844208D10121EB
:100BB000C014FFF7A9FF0021E014FFF7A5FFC4E070
:100BC000B4F1804F08D101210846FFF7AAFF0021A8
:100BD0000120FFF7A6FFB8E0F348844208D10121C5
:100BE0000220FFF79EFF00210220FFF79AFFACE0F2
:100BF000EE48844208D101210420FFF792FF002132
:100C00000420FFF78EFFA0E0E948844208D10121CB
:100C10000820FFF786FF00210820FFF782FF94E0FD
:100C2000E448844208D101211020FFF77AFF002117
:100C30001020FFF776FF88E0DF48844208D10121C9
:100C40002020FFF76EFF00212020FFF76AFF7CE0E5
:100C5000DA48844208D101214014FFF755FF0021F2
:100C60006014FFF751FF70E0D548844209D101219B
:100C7000C804FFF749FF00214FF40020FFF744FFAD
:100C800063E0D048844209D101210805FFF73CFF09
:100C900000214FF48010FFF737FF56E0CA48844226
:100CA00009D101214805FFF72FFF00214FF4001063
:100CB000FFF72AFF49E0C548844208D101214020BE
:100CC000FFF72FFF00214020FFF72BFF3DE0C0483A
:100CD000844208D101218020FFF723FF00218020DA
:100CE000FFF71FFF31E0BB48844208D10121801586
:100CF000FFF717FF0021A015FFF713FF25E0B64807
:100D0000844209D101210804FFF7FEFE00214FF4BF
:100D10008030FFF7F9FE18E0B048844209D1012184
:100D20004804FFF7F1FE00214FF40030FFF7ECFE1E
:100D30000BE0AB48844208D101218804FFF7E4FEB0
:100D400000214FF48020FFF7DFFE10BD0022028853
:100D5000944B98420ED0994B98420BD0B0F1804FF3
:100D600008D0914B984205D0904B984202D0904BBE
:100D7000984204D14FF68F731A404B881A438D4B1B
:100D8000984207D08C4B984204D04FF6FF431A404C
:100D9000CB881A4302808B8883850B880385814B1F
:100DA00098420BD0854B984208D08B4B984205D087
:100DB0008A4B984202D08A4B984201D10B7A038623
:100DC00001238382704770B5002400220023058C24
:100DD0004FF6FE7635400584028C8388048B4FF6EF
:100DE0008F752C40B51E2C400D882C43751E2A4053
:100DF0000D892A434D882A436A4DA8420BD06F4D76
:100E0000A84208D0744DA84205D0744DA84202D023
:100E1000734DA84213D14FF6F7752A404D892A43E6
:100E20004FF6FB752A408D882A434FF6FF652B400D
:100E30004FF6FF552B408D892B43CD892B43838063
:100E40000483CD888586028470BD70B5002400229D
:100E50000023058C4FF6EF7635400584028C83889D
:100E6000048B48F6FF752C404FF6FF452C400D884B
:100E70002D0644EA15444FF6DF752A400D892D05ED
:100E800042EA15424D882D0542EA1542454DA842D9
:100E900002D04A4DA8421BD14FF67F752A404D899A
:100EA0002D0542EA15424FF6BF752A408D882D0563
:100EB00042EA15424FF6FF352B404FF2FF752B40AB
:100EC0008D89AD0443EA1543CD89AD0443EA15434A
:100ED00083800483CD880587028470BD70B50024AB
:100EE00000220023058C4FF6FF6635400584028CF6
:100EF0008388848B4FF68F752C404FF6FC752C4001
:100F00000D882C434FF6FF552A400D892D0642EAE5
:100F100015424D882D0642EA1542224DA84202D0C4
:100F2000264DA8421BD14FF2FF752A404D892D0650
:100F300042EA15424FF6FF352A408D882D0642EAD7
:100F400015424EF6FF752B404DF6FF752B408D89EF
:100F50002D0543EA1543CD892D0543EA15438380CA
:100F60008483CD888587028470BD70B500220023FC
:100F70000024058C4EF6FF7635400584038C84886A
:100F8000828B48F6FF752A404FF6FF452A400D88B0
:100F90002D0642EA15424DF6FF752B400D892D07AF
:100FA00020E00000002C0140000400400008004048
:100FB000000C0040001000400014004000340140CC
:100FC000004C014000500140005401400018004016
:100FD000001C00400020004000400140004401404F
:100FE0000048014043EA15434D882D0743EA154365
:100FF000F84DA84202D0F84DA84206D14BF6FF7535
:101000002C408D89AD0544EA154484808283CD88C7
:10101000A0F84050038470BD828B4FF2FF331A401A
:101020008283828B0B0642EA134282837047F0B5BB
:101030000C461546002200210026078C4EF6FF7C48
:1010400007EA0C070784828B018C27073E0C40F6C9
:10105000FF473A402F0642EA17421F0742EA17426B
:10106000DC4FB8420ED0DC4FB8420BD0B0F1804F0D
:1010700008D0DA4FB84205D0D94FB84202D0D94F84
:10108000B84206D14DF6FF77394046F480573943D0
:1010900005E047F6FF57394044F4805739438283CF
:1010A0000184F0BD828B4FF6F3731A408283828BEA
:1010B0000A4382837047F0B50C4615460022002192
:1010C0000026078C4FF6FF6C07EA0C070784828B1B
:1010D000018C27063E0C4FF60C773A401F0545EA77
:1010E00017473A43BB4FB8420ED0BB4FB8420BD064
:1010F000B0F1804F08D0B94FB84205D0B84FB842D0
:1011000002D0B84FB84206D14FF6FF57394046F4E7
:101110008077394305E04FF2FF57394044F4807738
:10112000394382830184F0BD028B4FF2FF331A40B2
:101130000283028B0B0642EA134202837047F0B52A
:101140000C461546002200210026078C4FF6EF7C46
:1011500007EA0C070784028B018C27053E0C40F63A
:10116000FF473A401F0742EA17422F0642EA17425A
:10117000984FB8420ED0984FB8420BD0B0F1804F84
:1011800008D0964FB84205D0954FB84202D0954F3F
:10119000B84206D14FF6DF77394046F010073943A1
:1011A00005E04FF65F77394044F01007394302837A
:1011B0000184F0BD028B4FF6F3731A400283028B59
:1011C0000A4302837047F0B50C4615460022002101
:1011D000068C4FF6FE773E400684028B018C4FF65C
:1011E0000C7632401E0545EA16463243794EB0422F
:1011F0000ED0794EB0420BD0B0F1804F08D0774E70
:10120000B04205D0764EB04202D0764EB04206D102
:101210004FF6FD76314044F00106314305E04FF6CC
:10122000F576314044F00106314302830184F0BD7C
:1012300070B505460C46674885420ED06648854223
:101240000BD0B5F1804F08D06448854205D0644882
:10125000854202D06348854200D100E000BF20886B
:1012600050B92389A28861882846FFF7ACFFE1883E
:101270002846FFF79FFF25E0208804280AD123890C
:10128000A28861882846FFF75AFFE1882846FFF7C1
:101290004BFF17E0208808280AD12389A28861889B
:1012A0002846FFF708FFE1882846FFF7FBFE09E024
:1012B0002389A28861882846FFF7B9FEE18828467D
:1012C000FFF7AAFE70BD2DE9F04105460C46002649
:1012D0000127608808B9022600E00026A0880128BE
:1012E00001D1022700E001272088A0B92389A28824
:1012F00061882846FFF767FFE1882846FFF75AFF15
:1013000023893A4631462846FFF719FFE1882846E7
:10131000FFF70AFF13E02389A28861882846FFF7B8
:101320000EFFE1882846FFF7FFFE23893A46314643
:101330002846FFF748FFE1882846FFF73BFFBDE856
:10134000F0810A884B881A438B881A43CB881A434A
:101350000B891A434B891A438B891A43A0F84420FE
:1013600070474FF6FF71818000210180C18041806C
:10137000017270470021018041808180C18001811C
:1013800041818181C181704700210180418001211B
:1013900081800021C180018170470021018041804E
:1013A0008180C180018141818181704721B10288A2
:1013B00042F00102028004E002884FF6FE731A40F8
:1013C0000280704781B1B0F8442042F40042A0F896
:1013D00044200FE0002C0140003401400004004094
:1013E00000080040000C0040B0F84420C2F30E0298
:1013F000A0F84420704710B51AB183890B4383814C
:1014000004E08389CC43A4B22340838110BD818250
:10141000704741EA0203A0F84830704710B51AB18E
:1014200083890B43838104E08389CC43A4B22340A6
:10143000838110BD01894FF6F87211400181704718
:101440000A46002101894FF68F731940114301812B
:10145000704730B504460D4629462046FFF7F0FF99
:10146000208940F00700208130BD2DE9F04104467D
:101470000D4616461F46602D06D13B4601223146D9
:101480002046FFF75CFE05E03B4601223146204640
:10149000FFF799FE29462046FFF7D2FF208940F04A
:1014A00007002081BDE8F08130B50C46002101899C
:1014B000C9B21D0642EA154525432943018130BDC5
:1014C0002DE9F04105460E4617469846002443464E
:1014D0003A4631462846FFF7E7FF2C894FF6F87069
:1014E000044044F007044FF68F70044044F0700449
:1014F0002C81BDE8F081F0B504460D4616461F4626
:101500003B46324629462046FFF7CEFF208940F46D
:1015100080402081F0BD0185828270470A4600210B
:1015200001884FF68F731940114301807047F0B561
:101530000C4615461E460021002200230189028B1D
:10154000038C4FF6F877394021434FF6FC473A4079
:1015500040F201173A434FF6DD773B40370545EA45
:1015600017473B43018102830384F0BD0A460021F3
:10157000018B4FF68F7319401143018370470A4660
:101580000021018B48F6FF731940130641EA13410D
:10159000018370470A460021818B4FF68F731940F3
:1015A0001143818370470A460021818B48F6FF73FF
:1015B0001940130641EA13418183704721B1028823
:1015C00042F08002028004E002884FF67F731A40E6
:1015D0000280704721B1828842F00402828004E0D8
:1015E00082884FF6FB731A408280704721B182884F
:1015F00042F00802828004E082884FF6F7731A40B6
:101600008280704721B1828842F00102828004E02A
:1016100082884FF6FE731A40828070470A46002186
:10162000018B4FF6F77319401143018370470A4647
:101630000021018B4FF2FF731940130641EA134159
:10164000018370470A460021818B4FF6F7731940DA
:101650001143818370470A460021818B4FF2FF734B
:101660001940130641EA1341818370470A4600215D
:10167000018B4FF6FB7319401143018370470A46F3
:101680000021018B4FF6FF331940130641EA134145
:10169000018370470A460021818B4FF6FB73194086
:1016A0001143818370470A460021818B4FF6FF3337
:1016B0001940130641EA1341818370470A4600210D
:1016C000018B4FF67F7319401143018370470A461F
:1016D0000021018BC1F30E01130641EA134101837E
:1016E00070470A460021818B4FF67F7319401143E2
:1016F000818370470A460021818BC1F30E011306D6
:1017000041EA1341818370470A460021018C4FF65C
:10171000FD7319401143018470470A460021018C72
:101720004FF6F77319401143018470470A460021B0
:10173000018C4FF6DF731940130541EA1341018410
:1017400070470A460021018C4FF67F73194013053C
:1017500041EA1341018470470A460021018C4FF68B
:10176000FF531940130641EA1341018470470A46AA
:101770000021018C4FF2FF731940130641EA134117
:10178000018470470A460021018C4DF6FF73194011
:10179000130741EA13410184704730B50023012447
:1017A0008C40A3B2048CDD43ADB22C400484048C85
:1017B00002FA01F5ADB22C43048430BD30B50023EC
:1017C00004248C40A3B2048CDD43ADB22C400484CD
:1017D000048C02FA01F5ADB22C43048430BD70B51F
:1017E0000346002000241846183001258D40ACB275
:1017F0001D8CE643B6B235401D8409B1082909D1D4
:1018000000EB6100056825F070050560056815436B
:1018100005600CE00D1FADB200EB6500056825F416
:10182000E04505600568160645EA1645056070BD89
:1018300021B1028842F00202028004E002884FF6E1
:10184000FD731A400280704721B1028842F0040201
:10185000028004E002884FF6FB731A400280704752
:1018600021B1828842F08002828004E082884FF6B3
:101870007F731A408280704702884FF6F7731A40D0
:10188000028002880A430280704782884FF68F7375
:101890001A40828082880A438280704702894FF60C
:1018A000F8731A40028102890A4302817047028953
:1018B0004FF67F731A40028102890A430281704702
:1018C00081847047818570478186704701877047A2
:1018D00081877047A0F84010704702884FF6FF4399
:1018E0001A40028002880A43028070470146888EAF
:1018F00070470146088F70470146888F7047014640
:10190000B1F8400070470146888C70470146088D49
:10191000704702460020138A0B4201D0012000E0EC
:1019200000207047CA430282704730B5024600204B
:1019300000230024158A05EA0103958905EA0104BC
:1019400013B10CB1012000E0002030BDCA43028277
:10195000704700000948804709480047FEE7FEE756
:10196000FEE7FEE7FEE7FEE7FEE7FEE7FEE7FEE74F
:1019700004480549054A064B70470000D10200089B
:101980003101000890000020900600209002002005
:101990009002002010B56FF00400FEF769FD2A48A0
:1019A00000682A49B0FBF1F0294908700846007820
:1019B0004FF47A7148432749088010BD0146244AF4
:1019C00012784A434FF0E0235A6100229A611A4686
:1019D000126942F001021A6100BF4FF0E022106963
:1019E00010F0010F02D010F4803FF6D04FF0E0224B
:1019F000126922F001024FF0E0231A6100229A617D
:101A000070470146134A12884A434FF0E0235A6157
:101A100000229A611A46126942F001021A6100BF5F
:101A20004FF0E022106910F0010F02D010F4803F57
:101A3000F6D04FF0E022126922F001024FF0E023CD
:101A40001A6100229A6170470000002000127A009B
:101A5000280000202A00002008B501210420FFF7FB
:101A600039F80220ADF8000010208DF803000320A3
:101A70008DF8020069460B48FEF778FD02210948FF
:101A8000FEF71FFE08BD10B50446012C04D102214B
:101A90000448FEF718FE03E002210248FEF711FE9B
:101AA00010BD0000000801407FB505460C4601212D
:101AB0000846FFF71CF8ADF80850ADF804400020C8
:101AC000ADF80600ADF80A0001A94FF08040FFF71D
:101AD0003DF9012211469007FFF78DFC1C208DF87F
:101AE000000000208DF8010003208DF80200012085
:101AF0008DF803006846FEF770FC01218807FFF7A8
:101B000055FC7FBD10B501218807FFF70EFF78B1A6
:101B100001218807FFF71AFF0648007808B901205D
:101B200000E000200349087008460078FFF7ABFF8B
:101B300010BD00002C0000207047704770477546AC
:101B400000F028F8AE4605006946534620F007002D
:101B5000854618B020B5FFF70BFFBDE820404FF0D9
:101B600000064FF000074FF000084FF0000B21F087
:101B70000701AC46ACE8C009ACE8C009ACE8C00954
:101B8000ACE8C0098D4670470446AFF3008020469C
:101B9000FEF717FB004870473000002000487047F0
:101BA0003400002001491820ABBEFEE726000200E9
:101BB000704710B5FFF7F2FF4FF00001016010BD54
:101BC000E01B000800000020300000006C0100084D
:101BD000101C00083000002060060000880100088A
:101BE00000A24A04000000000000000001020304FB
:101BF00006070809000000000102030401020304B3
:101C000006070809020406080000000000000000A2
:0400000508000131BD
:00000001FF
