:020000040800F2
:1000000060070020BD100008F9020008FB0200088C
:10001000FF020008030300080703000800000000B7
:100020000000000000000000000000000B030008BA
:100030000D030008000000000F0300081103000872
:10004000D7100008D7100008D7100008D7100008F4
:10005000D7100008D7100008D7100008D7100008E4
:10006000D7100008D7100008D7100008D7100008D4
:10007000D7100008D7100008D7100008D7100008C4
:10008000D7100008D7100008D7100008D7100008B4
:10009000D7100008D7100008D7100008D7100008A4
:1000A000D7100008D7100008D7100008D710000894
:1000B000D7100008D7100008D7100008D710000884
:1000C000D7100008D7100008D7100008D710000874
:1000D000D710000885120008D7100008D7100008B4
:1000E000D7100008D7100008D7100008D710000854
:1000F000D7100008D7100008D7100008D710000844
:10010000D7100008D7100008D7100008D710000833
:10011000D7100008D7100008D7100008D710000823
:10012000D7100008D7100008D7100008D710000813
:1001300000F002F800F03CF80AA090E8000C8244BD
:100140008344AAF10107DA4501D100F031F8AFF29A
:10015000090EBAE80F0013F0010F18BFFB1A43F0A5
:1001600001031847FC1200001C130000103A24BFC2
:1001700078C878C1FAD8520724BF30C830C144BF0C
:1001800004680C607047000000230024002500264E
:10019000103A28BF78C1FBD8520728BF30C148BFEA
:1001A0000B6070471FB501F053F91FBD10B510BDAE
:1001B00001F008F91146FFF7F5FF00F009F801F02A
:1001C00039F903B4FFF7F2FF03BC00F0F9FF0000B8
:1001D000002400F093FF4FF4A06000F07FF94FF48B
:1001E000165001F000F801F093F84BE02648008823
:1001F00010F4004F1FD02448008800F03F0623A0D1
:1002000001F0A2F800250DE02648415D264800F0E7
:100210008EFE00BF4021244800F0F7FE0128F9D1EE
:10022000681CC5B2B542EFDB20A001F08DF80020BC
:100230001549088026E0601C84B24FF4FA6094FBF4
:10024000F0F100FB114010B91AA001F07DF8C820B0
:1002500094FBF0F100FB114030B91FA001F074F8DD
:100260000221244800F0B3FA4FF4C87094FBF0F177
:1002700000FB114018B902211E4800F0AAFA06201E
:1002800000F073FFB2E700002C0000200D0AC4FA52
:10029000B7A2CBCDB5C4CFFBCFA2CEAA3A0D0A0DE3
:1002A0000A00000034000020003801400D0A0D0A49
:1002B000000000000D0AC6F4B9E2B5E7D7D3205319
:1002C000544D3332D7CFB5E76120B4AEBFDACAB5EB
:1002D000D1E90D0A0D0A0000C7EBCAE4C8EBCAFD5C
:1002E000BEDD2CD2D4BBD8B3B5BCFCBDE1CAF80A84
:1002F0000000000000080140704700BFFEE700BF9B
:10030000FEE700BFFEE700BFFEE77047704770479B
:100310007047000000210020674A126842F48032D2
:10032000654B1A6000BF644A126802F40030491C31
:1003300010B9B1F5A06FF6D15F4A126812F4003F10
:1003400001D0012000E00020012842D15B4A126860
:1003500042F01002594B1A601A46126822F003024A
:100360001A601A46126842F002021A60524A526833
:10037000514B5A601A4652685A601A46526842F403
:1003800080625A601A46526822F47C125A601A46F9
:10039000526842F4E8125A601A46126842F08072BB
:1003A0001A6000BF444A126812F0007FFAD0424A35
:1003B000526822F00302404B5A601A46526842F0DB
:1003C00002025A6000BF3C4A526802F00C02082A3E
:1003D000F9D1704710B5FFF79DFF10BD10B5364835
:1003E000006840F00100344908600846406834491C
:1003F00008403149486008460068324908402E49A3
:1004000008600846006820F48020086008464068BC
:1004100020F4FE0048604FF41F008860FFF7DAFF09
:100420004FF000602849086010BD10B50021002081
:100430000022214B5B6803F00C0121B1042906D096
:10044000082928D107E0214B214C236027E01F4BCE
:100450001F4C236023E0184B5B6803F47010164BAD
:100460005B6803F48032022303EB904022B9194BFE
:100470004343174C23600DE00F4B5B6813F4003FC0
:1004800004D0144B4343124C236003E00F4B43430F
:100490000F4C236003E00D4B0D4C236000BF00BFE9
:1004A000054B5B68C3F303130B4CE15C084B1B6803
:1004B000CB40074C236010BD0010024000200240DA
:1004C0000000FFF8FFFFF6FE08ED00E000127A00E2
:1004D0000000002000093D000400002031490143D4
:1004E000314A1160704770B5002100230F22C47893
:1004F0000CB32D4C246804F4E064C4F5E064210AD4
:10050000C1F10403CA40447804FA03F1847814402A
:1005100021430901254C0678A155047804F01F05F4
:100520000124AC4005786D114FF0E02606EB8505FF
:10053000C5F8004109E0047804F01F050124AC402F
:100540001B4D0678761145F8264070BD194A0A40C1
:100550000243154B1B1F1A60704739B1124A121D16
:1005600012680243104B1B1D1A6006E00E4A121D52
:10057000126882430C4B1B1D1A607047042808D177
:100580004FF0E021096941F004014FF0E0221161D0
:1005900007E04FF0E021096921F004014FF0E0226B
:1005A000116170470000FA050CED00E000E400E086
:1005B00080E100E080FFFF1F10B50446CA48844276
:1005C00008D10121042000F025FB0021042000F0C7
:1005D00021FB46E0C548844208D10121082000F0F3
:1005E00019FB0021082000F015FB3AE0C0488442C6
:1005F00008D10121102000F00DFB0021102000F097
:1006000009FB2EE0BB48844208D10121202000F0E4
:1006100001FB0021202000F0FDFA22E0B6488442D0
:1006200008D10121402000F0F5FA0021402000F01F
:10063000F1FA16E0B148844208D10121802000F08F
:10064000E9FA0021802000F0E5FA0AE0AC48844293
:1006500007D10121801500F0DDFA0021A01500F07E
:10066000D9FA10BD10B50121084600F0D3FA0021D7
:10067000012000F0CFFA10BD2DE9F041024600251F
:100680000026002000230024002791F803C00CF06E
:100690000F0591F803C01CF0100F03D091F802C0B1
:1006A0004CEA0505B1F800C01CF0FF0F31D014680A
:1006B00000202BE04FF0010C0CFA00F3B1F800C061
:1006C0000CEA03069E4220D183004FF00F0C0CFA77
:1006D00003F7BC4305FA03FC4CEA040491F803C099
:1006E000BCF1280F06D14FF0010C0CFA00FCC2F847
:1006F00014C00AE091F803C0BCF1480F05D14FF0D7
:10070000010C0CFA00FCC2F810C0401C0828D1D320
:100710001460B1F800C0BCF1FF0F34DD5468002054
:100720002EE000F1080C4FF0010808FA0CF3B1F8C4
:1007300000C00CEA03069E4221D183004FF00F0C4B
:100740000CFA03F7BC4305FA03FC4CEA040491F8E5
:1007500003C0BCF1280F05D100F1080C08FA0CF811
:10076000C2F8148091F803C0BCF1480F07D100F122
:10077000080C4FF0010808FA0CF8C2F81080401C71
:100780000828CED35460BDE8F0814FF6FF71018098
:10079000022181700421C1707047024600209368D5
:1007A0000B4201D0012000E000207047014688681C
:1007B00080B2704702460020D3680B4201D001206E
:1007C00000E0002070470146C86880B270470161B0
:1007D0007047416170470AB1016100E041617047B3
:1007E000C16070474FF480320A4382618161826147
:1007F00082698269704702460020424B18684FF6B2
:100800008073184040EA021008433E4B186070475E
:100810003D49C8617047F0B50A4600230024002115
:10082000002500F00046B6F1004F02D1354EF169C7
:1008300001E0344E7168C0F3034583B200F4401602
:10084000B6F5401F08D121F070612E4E766826F073
:1008500070662C4F7E6012E000F48016B6F5801FA3
:1008600006D1032606FA05F4A14341F0706106E0C3
:10087000460D360103FA06F6B14341F0706122B12C
:10088000460D360103FA06F6314300F00046B6F194
:10089000004F02D11B4EF16101E01A4E7160F0BDB4
:1008A00030B500228B071C0F0F2303FA04F2154BFF
:1008B00008338C1053F824309343124C08348D10B5
:1008C00044F8253023468C1053F824308C07240F2D
:1008D00000FA04F423430B4C08348D1044F82530FF
:1008E00030BD0A490860704700080140000C014013
:1008F000001001400014014000180140001C01409C
:10090000002001400000014000002042DC002042A5
:10091000DC48006840F00100DA4908600846406899
:10092000D9490840D749486008460068D749084077
:10093000D44908600846006820F480200860084612
:10094000406820F4FE0048604FF41F008860704744
:10095000CC49096821F48031CA4A116011460968FE
:1009600021F480211160B0F5803F03D0B0F5802FD5
:100970000ED106E0C349096841F48031C14A1160D3
:1009800007E0C049096841F4A021BE4A116000E0B7
:1009900000BF00BF704710B50146002200230020B1
:1009A0004A11012A02D1B74C236806E0022A02D17B
:1009B000B44C236A01E0B34C636A01F01F020124C6
:1009C00094401C4201D0012000E0002010BD70B511
:1009D00000240025002600BF3120FFF7DCFF06467B
:1009E000641CB4F5A06F01D0002EF5D03120FFF7C4
:1009F000D2FF08B1012500E00025284670BD014660
:100A00000020A04A106820F0F80040EAC100106001
:100A100070479F490860704702460020994B58680C
:100A200020F47C1042EA01031843964B586070474B
:100A300097490866704701460020924A506820F0A6
:100A400003000843506070478E48406800F00C0077
:100A50007047014600208B4A506820F0F0000843A0
:100A60005060704701460020864A506820F4E060DC
:100A700008435060704701460020824A506820F4C5
:100A8000605040EAC1005060704729B17D4A527AF7
:100A900002437C4B5A7206E07A4A527AC343DBB275
:100AA0001A40784B5A7270477A490860704701467D
:100AB0000020744A506820F440400843506070475A
:100AC0000021754A11706F4A82F82010012802D067
:100AD000042808D103E001216F4A117004E00521C8
:100AE0006D4A117000E000BF00BF70476B4908609D
:100AF00070476449096A0143624A11627047674955
:100B000044390860704730B50021002200240023DA
:100B10005C4D6D6805F00C0121B1042905D0082950
:100B200023D105E05E4D056022E05D4D05601FE0CC
:100B3000544D6D6805F47012524D6D6805F48034A3
:100B4000022505EB92421CB9564D554305600BE05A
:100B50004C4D6D6815F4003F03D0524D5543056070
:100B600002E04F4D5543056002E04D4D056000BF6A
:100B700000BF444D6D6805F0F00109094A4D6B5CFA
:100B80000568DD4045603F4D6D6805F4E061090A88
:100B9000454D6B5C4568DD4085603A4D6D6805F4F8
:100BA0006051C90A404D6B5C4568DD40C560354DFC
:100BB0006D6805F44041890B3C4D6B5CC568B5FB25
:100BC000F3F5056130BD29B12E4A526902432D4B20
:100BD0005A6104E02B4A526982432A4B5A6170479A
:100BE00029B1284A92690243264B9A6104E0254ABA
:100BF00092698243234B9A61704729B1214AD26995
:100C00000243204BDA6104E01E4AD26982431D4B45
:100C1000DA61704729B11B4AD2680243194BDA6086
:100C200004E0184AD2688243164BDA60704729B153
:100C3000144A12690243134B1A6104E0114A126903
:100C40008243104B1A61704714494039086070475D
:100C50000F49C86470470B49C87170470948406A1A
:100C600040F0807007494862704701460020054AFD
:100C700092680A4201D0012000E00020704701493B
:100C800088727047001002400000FFF8FFFFF6FE78
:100C900000004242D80042422010024080044242FA
:100CA00000127A0000093D001400002024000020FA
:100CB00010B50446FC48844209D101218803FFF79E
:100CC000A9FF00214FF48040FFF7A4FF32E0F7486E
:100CD000844209D101214804FFF7A9FF00214FF404
:100CE0000030FFF7A4FF25E0F148844209D101213B
:100CF0008804FFF79CFF00214FF48020FFF797FF47
:100D000018E0EC48844209D10121C804FFF78FFFA5
:100D100000214FF40020FFF78AFF0BE0E6488442F1
:100D200008D101210805FFF782FF00214FF4801050
:100D3000FFF77DFF10BD2DE9F04786B005460E4652
:100D40000024A24600BFA1460027B08900B100BF21
:100D50002F462C8A4CF6FF700440F08804432C8206
:100D6000AC894EF6F3100440B0883189084371898C
:100D700008430443AC81AC8A4FF6FF400440B0897D
:100D80000443AC8201A8FFF7BEFEC748874202D1E8
:100D9000DDF810A001E0DDF80CA0A88910F4004FE8
:100DA00008D00AEBCA0000EB0A1031684900B0FB1A
:100DB000F1F807E00AEBCA0000EB0A10316889007D
:100DC000B0FBF1F86420B8FBF0F0040120096421C5
:100DD00001FB1089A88910F4004F08D0322000EBE5
:100DE000C900B0FBF1F000F00700044308E0322036
:100DF00000EB09106421B0FBF1F000F00F00044398
:100E00002C8106B0BDE8F0874FF416510160002137
:100E10008180C18001810C21418100218181704745
:100E200010B502460020108A4FF2FF0318400B88CD
:100E30004C8823438C882343CC8823431843108257
:100E400010BD0021018041808180C180704721B1A7
:100E5000828942F40052828104E082894DF6FF7358
:100E60001A4082817047F0B5034600240026002511
:100E70000020A1F510676A3F00D100BF1846C1F3FA
:100E8000421401F01F06012707FA06F5012C01D1D3
:100E90000C3004E0022C01D1103000E014301AB103
:100EA00007682F43076002E00768AF430760F0BDA3
:100EB00010B51AB1838A0B43838204E0838ACC4342
:100EC000A4B22340838210BD028A4FF6F0731A4009
:100ED0000282028A0A430282704782894FF2FF73BC
:100EE0001A40828182890A438281704721B18289B6
:100EF00042F00202828104E082894FF6FD731A40BB
:100F000082817047028A4FF6DF731A400282028A9A
:100F10000A430282704721B1028A42F4804202826F
:100F200004E0028A4BF6FF731A4002827047C1F355
:100F300008028280704701468888C0F30800704725
:100F4000818941F0010181817047028BD2B2028315
:100F5000028B42EA012202837047028B02F47F4235
:100F60000283028B0A430283704721B1828A42F0D6
:100F70002002828204E0828A4FF6DF731A40828266
:100F8000704721B1828A42F01002828204E0828A94
:100F90004FF6EF731A408282704721B1828A42F085
:100FA0000802828204E0828A4FF6F7731A40828236
:100FB000704721B1828942F40042828103E0828934
:100FC000C2F30E028281704721B1828A42F400622C
:100FD000828204E0828A4FF2FF731A408282704755
:100FE000828A4FF6FB731A408282828A0A43828287
:100FF000704721B1828A42F00202828204E0828A32
:101000004FF6FD731A408282704702460020B1F508
:10101000007F00D100BF13880B4201D0012000E007
:101020000020704701F40072B2F5007F00D100BFCC
:10103000CA430280704770B5024600240023002591
:101040000020A1F510666A3E00D100BFC1F3421531
:1010500001F01F03012606FA03F3012D02D1968940
:10106000334006E0022D02D1168A334001E0968A11
:1010700033400C12012606FA04F41688344013B1EA
:101080000CB1012000E0002070BD10B5002200234B
:10109000A1F510646A3C00D100BF0A1201249440FB
:1010A000A3B2DC43048010BD00380140004400407E
:1010B00000480040004C0040005000400948804774
:1010C00009480047FEE7FEE7FEE7FEE7FEE7FEE72A
:1010D000FEE7FEE7FEE7FEE704480549054A064B42
:1010E00070470000DD0300083101000860010020A6
:1010F00060070020600300206003002010B56FF03F
:101100000400FFF73BFA2A4800682A49B0FBF1F0D7
:1011100029490870084600784FF47A7148432749F6
:10112000088010BD0146244A12784A434FF0E0235C
:101130005A6100229A611A46126942F001021A614C
:1011400000BF4FF0E022106910F0010F02D010F440
:10115000803FF6D04FF0E022126922F001024FF0FA
:10116000E0231A6100229A6170470146134A1288EF
:101170004A434FF0E0235A6100229A611A461269ED
:1011800042F001021A6100BF4FF0E022106910F036
:10119000010F02D010F4803FF6D04FF0E022126928
:1011A00022F001024FF0E0231A6100229A61704799
:1011B0000000002000127A00280000202A000020F1
:1011C000014600BF704770B504460D4600BF402180
:1011D0004B48FFF71AFF0028F9D0E1B24848FFF763
:1011E000A6FE204670BD10B586B00446012144F22B
:1011F0000400FFF7F5FC4248FFF75AFD4FF400707A
:10120000ADF8140003208DF8160018208DF8170093
:1012100005A93C48FFF730FA4FF48060ADF81400A0
:1012200004208DF8170005A93648FFF725FA019428
:101230000020ADF80800ADF80A00ADF80C00ADF8DC
:1012400010000C20ADF80E0001A92D48FFF773FD2A
:1012500025208DF8000003208DF801008DF8020094
:1012600001208DF803006846FFF73DF9012240F2A6
:1012700025512348FFF7F7FD01212148FFF7E7FD3E
:1012800006B010BD10B540F225511D48FFF7D3FE42
:1012900010B31B48FFF74FFEC4B21B48008810F480
:1012A000004F2BD11848008810F4804F0CD00A2C26
:1012B00003D000201449088020E01348008840F43F
:1012C00000401149088019E00D2C06D10E48008815
:1012D00040F480400C49088010E00B480088C0F3BF
:1012E0000D000A490C5408480088401C0649088033
:1012F00008460088C72801DD0020088010BD0000D6
:1013000000380140000801402C000020340000207B
:1013100008B501210420FFF763FC0220ADF80000AE
:1013200010208DF8030003208DF802006946044860
:10133000FFF7A2F902210248FFF749FA08BD0000B1
:1013400000080140704700000FB4044910B503AA1B
:10135000029800F009F810BC5DF814FB3000002082
:101360007047704770477047074B70B50C467B4419
:1013700000F011F80546204600F020F810B14FF0BB
:10138000FF3070BD284670BD55FEFFFF01694A1C45
:1013900002610878704700B58FB0CDE901310021B6
:1013A000059105497944CDE903101146684600F0DE
:1013B0002EF80FB000BD0000E5FFFFFFC06800F091
:1013C00080007047754600F03BF8AE460500694660
:1013D000534620F00700854618B020B5FFF77CFE85
:1013E000BDE820404FF000064FF000074FF0000826
:1013F0004FF0000B21F00701AC46ACE8C009ACE8A7
:10140000C009ACE8C009ACE8C0098D4670472DE9B9
:10141000F04106460024D6E90170F568804602E0F6
:101420004146B847641C3046A8470028F8D12046FA
:10143000BDE8F0810446AFF300802046FEF7C1FE10
:1014400000487047FC000020004870470001002061
:1014500010B5FFF7F9FF4FF00001016010BD00006B
:101460008014000800000020340000006C01000817
:10147000B4140008340000202C0700008801000884
:1014800000A24A0400000000000000000102030462
:10149000060708090000000001020304010203041A
:1014A000060708090204060800000000000000000A
:0414B0000000000038
:0400000508000131BD
:00000001FF
