:020000040800F2
:10000000000005209D1A0308091A03080B1A0308AB
:100010000D1A03080F1A0308111A03080000000044
:10002000000000000000000000000000131A030898
:10003000151A030800000000171A0308191A03080C
:10004000ED1A0308ED1A0308ED1A0308ED1A030868
:10005000ED1A0308ED1A0308ED1A0308ED1A030858
:10006000ED1A0308ED1A0308ED1A0308ED1A030848
:10007000ED1A0308ED1A0308ED1A0308ED1A030838
:10008000ED1A0308ED1A0308ED1A0308ED1A030828
:10009000ED1A0308ED1A0308ED1A0308ED1A030818
:1000A000ED1A0308ED1A0308ED1A0308ED1A030808
:1000B000ED1A0308ED1A0308ED1A0308ED1A0308F8
:1000C000ED1A0308ED1A0308ED1A0308ED1A0308E8
:1000D000ED1A0308ED1A0308ED1A0308ED1A0308D8
:1000E000ED1A0308ED1A0308ED1A0308ED1A0308C8
:1000F000ED1A0308ED1A0308ED1A0308ED1A0308B8
:10010000ED1A0308ED1A0308ED1A0308ED1A0308A7
:10011000ED1A0308ED1A0308ED1A0308ED1A030897
:1001200015370008ED1A0308ED1A0308ED1A030845
:10013000ED1A0308ED1A0308ED1A0308ED1A030877
:10014000ED1A0308ED1A0308ED1A0308ED1A030867
:10015000ED1A0308ED1A0308ED1A0308ED1A030857
:10016000ED1A0308ED1A0308ED1A0308ED1A030847
:10017000ED1A0308ED1A0308ED1A03080000000049
:10018000ED1A0308ED1A0308ED1A0308ED1A030827
:10019000ED1A0308ED1A0308ED1A0308ED1A030817
:1001A000ED1A0308ED1A0308ED1A0308ED1A030807
:1001B000ED1A0308ED1A0308ED1A0308ED1A0308F7
:0801C000ED1A0308ED1A030813
:1001C80010B5054C237833B9044B13B10448AFF389
:1001D80000800123237010BDA00200200000000051
:1001E800041C030808B5034B1BB103490348AFF3CC
:1001F800008008BD00000000A4020020041C0308C1
:1002080053B94AB9002908BF00281CBF4FF0FF3175
:100218004FF0FF3000F074B9ADF1080C6DE904CE71
:1002280000F006F8DDF804E0DDE9022304B07047C9
:100238002DE9F047089D04468E46002B4DD18A4291
:10024800944669D9B2FA82F252B101FA02F3C2F1C4
:10025800200120FA01F10CFA02FC41EA030E944055
:100268004FEA1C48210CBEFBF8F61FFA8CF708FB76
:1002780016E341EA034306FB07F199420AD91CEB4E
:10028800030306F1FF3080F01F81994240F21C8180
:10029800023E63445B1AA4B2B3FBF8F008FB1033C8
:1002A80044EA034400FB07F7A7420AD91CEB0404FD
:1002B80000F1FF3380F00A81A74240F207816444CD
:1002C800023840EA0640E41B00261DB1D440002352
:1002D800C5E900433146BDE8F0878B4209D9002DB6
:1002E80000F0EF800026C5E9000130463146BDE840
:1002F800F087B3FA83F6002E4AD18B4202D38242AA
:1003080000F2F980841A61EB030301209E46002D58
:10031800E0D0C5E9004EDDE702B9FFDEB2FA82F2AD
:10032800002A40F09280A1EB0C014FEA1C471FFA0B
:100338008CFE0126200CB1FBF7F307FB131140EAF2
:1003480001410EFB03F0884208D91CEB010103F1BF
:10035800FF3802D2884200F2CB804346091AA4B281
:10036800B1FBF7F007FB101144EA01440EFB00FE55
:10037800A64508D91CEB040400F1FF3102D2A645BA
:1003880000F2BB800846A4EB0E0440EA03409CE759
:10039800C6F12007B34022FA07FC4CEA030C20FA06
:1003A80007F401FA06F31C43F9404FEA1C4900FA26
:1003B80006F3B1FBF9F8200C1FFA8CFE09FB1811A3
:1003C80040EA014108FB0EF0884202FA06F20BD916
:1003D8001CEB010108F1FF3A80F08880884240F266
:1003E8008580A8F102086144091AA4B2B1FBF9F0AA
:1003F80009FB101144EA014100FB0EFE8E4508D9A5
:100408001CEB010100F1FF346CD28E456AD9023829
:10041800614440EA0840A0FB0294A1EB0E01A1420E
:10042800C846A64656D353D05DB1B3EB080261EB7C
:100438000E0101FA07F722FA06F3F1401F43C5E956
:10044800007100263146BDE8F087C2F12003D8408C
:100458000CFA02FC21FA03F3914001434FEA1C47CE
:100468001FFA8CFEB3FBF7F007FB10360B0C43EAC0
:10047800064300FB0EF69E4204FA02F408D91CEB70
:10048800030300F1FF382FD29E422DD9023863446E
:100498009B1B89B2B3FBF7F607FB163341EA03410E
:1004A80006FB0EF38B4208D91CEB010106F1FF385D
:1004B80016D28B4214D9023E6144C91A46EA004654
:1004C80038E72E46284605E70646E3E61846F8E6E6
:1004D8004B45A9D2B9EB020864EB0C0E0138A3E72F
:1004E8004646EAE7204694E74046D1E7D0467BE710
:1004F800023B614432E7304609E76444023842E788
:10050800704700BF10F8012B11F8013B012A28BFE2
:100518009A42F7D0D01A7047034613F8012B002AE5
:10052800FBD1181A013870477047000010B504460F
:100538000E4B18784FF47A73B3FBF0F30C4A10683B
:10054800B0FBF3F000F0B0F868B90F2C01D9012026
:100558000AE0002221464FF0FF3000F063F8054B17
:100568001C60002000E0012010BD00BF000000203A
:10057800340200200400002008B5094B1A6842F430
:1005880000721A601A6842F480721A60032000F040
:1005980037F80F20FFF7CAFFFFF7C6FF002008BD96
:1005A800003C0240034A1168034B1B780B4413605C
:1005B800704700BFBC02002000000020014B1868F3
:1005C800704700BFBC02002038B50446FFF7F6FFAD
:1005D8000546B4F1FF3F02D0044B1B781C44FFF7DB
:1005E800EDFF401BA042FAD338BD00BF0000002039
:1005F800024A136843F4806313607047003801406F
:100608000649CB6823F4E0631B041B0C000200F4CA
:10061800E0600343024A1A43CA60704700ED00E0F5
:100628000000FA0500B5174BDB68C3F30223C3F1DA
:10063800070CBCF1040F28BF4FF0040C03F1040EA3
:10064800BEF1060F14D9033B4FF0FF3E0EFA0CFC27
:1006580021EA0C0199400EFA03F322EA0303194335
:10066800002807DB0901C9B2074B19545DF804FBE0
:100678000023E9E700F00F000901C9B2034B195440
:10068800F4E700BF00ED00E000E400E014ED00E056
:1006980000F01F02400901239340024A42F820302B
:1006A800704700BF00E100E00138B0F1807F0BD255
:1006B8004FF0E0235861054AF02182F8231000200A
:1006C800986107221A6170470120704700ED00E029
:1006D800704708B5FFF7FCFF08BD30B405682C6803
:1006E80024F480242C60046863608368402B05D060
:1006F800036899600368DA6030BC704703689A60E1
:100708000368D960F8E7000010B40168CAB2103A6B
:100718000A4BA3FB02431B09094CE35CC3655F2A30
:1007280007D9084B0B4004338365806D5DF8044B93
:100738007047044B0B408365F7E700BFABAAAAAA32
:10074800A81C030800FCFFFF836A826992B9012B89
:100758000AD0022B02D00BB100207047C36A13F0F5
:10076800807F28D100207047C36AB3F1C07F24D0AE
:1007780000207047B2F5005F09D0022B25D9032B62
:1007880025D1C36A13F0807F23D100207047032B43
:1007980003D8DFE803F01404140A00207047C36A82
:1007A80013F0807F0DD100207047C36AB3F1C07F7A
:1007B80009D00020704701207047012070470120B0
:1007C80070470120704701207047012070470020C2
:1007D800704701207047000070B50446FFF7EEFE31
:1007E800002C5BD00546002384F83430022384F8BB
:1007F80035302268136823F00103136023681A68F0
:1008080012F0010F0AD0FFF7D9FE431B052BF5D9CB
:1008180020236365032084F8350070BD1A682048DA
:1008280010406168A2680A43E1680A4321690A43E3
:1008380061690A43A1690A43E1690A43216A0A43D3
:100848000243616A04291ED01A602668756925F07A
:100858000705636A1D43042B07D1A36A1D43E36A96
:100868001BB12046FFF770FF90B975612046FFF76E
:100878004BFFE26D3F2393408360002060650123B6
:1008880084F83530C9E7E16A206B01430A43DBE7A6
:1008980040236365012084F83500BEE70120BCE7EA
:1008A8003F8010F000282DD038B5054690F8350067
:1008B800C0B2022825D02A68136823F00103136008
:1008C8002B6800241C602B685C602B689C602B687C
:1008D800DC602B681C612B6821225A612846FFF7CF
:1008E80013FFEA6D3F2393408360EC632C646C64D0
:1008F800AC64EC642C656C6585F8354085F834404B
:10090800204638BD0120704738B50446856D90F8FB
:100918003400012830D0012084F8340094F83500E0
:10092800C0B2012804D0002384F83430022038BD36
:10093800022084F83500002060652046FFF7CDFED0
:10094800E26D3F239340AB602268136843F01603BF
:1009580013602268536943F080035361236C23B109
:100968002268136843F0080313602268136843F091
:10097800010313600020DAE70220D8E7F0B583B05E
:10098800044600230193724B1D68724BA3FB053587
:10099800AD0A876D3E68C26D08239340334210D07C
:1009A80003681A6812F0040F0BD01A6822F00402C8
:1009B8001A60C26D08239340BB60436D43F0010386
:1009C8004365E26D01239340334209D0226852699E
:1009D80012F0800F04D0BB60636D43F002036365BF
:1009E800E26D04239340334209D02268126812F062
:1009F800020F04D0BB60636D43F004036365E26DCE
:100A080010239340334224D02268126812F0080F52
:100A18001FD0BB6023681A6812F4802F0DD01B68A2
:100A280013F4002F04D1236C9BB12046984710E0A3
:100A3800A36C73B1204698470BE01A6812F4807FC4
:100A480003D11A6822F008021A60236C0BB1204601
:100A58009847E26D20239340334255D022681268AC
:100A680012F0100F50D0BB6094F83530DBB2052B74
:100A78000ED023681A6812F4802F33D01B6813F441
:100A8800002F2AD1636C002B3ED0204698473BE0CC
:100A98002268136823F0160313602268536923F051
:100AA80080035361236CA3B12268136823F0080301
:100AB8001360E26D3F239340BB60002384F8343019
:100AC800012384F83530236D002B3FD0204698470A
:100AD8003CE0A36C002BE7D1EBE7E36BA3B1204626
:100AE800984711E01A6812F4807F09D11A6822F039
:100AF80010021A60002384F83430012384F835305A
:100B0800E36B0BB120469847636DFBB1636D13F03F
:100B1800010F17D0052384F835302268136823F0B5
:100B280001031360019B01330193AB4204D823688E
:100B38001B6813F0010FF5D1002384F8343001232A
:100B480084F83530E36C0BB12046984703B0F0BD0C
:100B580034020020B5814E1B034690F8340001286A
:100B680027D0012083F8340093F83500C0B201285B
:100B780004D00120002283F834207047052916D8B4
:100B8800DFE801F00306090C0F12DA630846F1E703
:100B98001A640020EEE75A640020EBE79A6400200C
:100BA800E8E7DA640020E5E71A650020E2E70020BC
:100BB800E0E702207047000000230F2B00F2E280DC
:100BC800F0B583B03AE0092200E00022AA4032439F
:100BD80002346D4D45F824206C4A14686FEA0C0203
:100BE80024EA0C054E6816F4803F01D04CEA04054F
:100BF800664C2560646802EA04054E6816F4003FF6
:100C080001D04CEA0405614C6560A46802EA040559
:100C18004E6816F4801F01D04CEA04055B4CA560B1
:100C2800E46822404D6815F4001F01D04CEA040224
:100C3800564CE26001330F2B00F2A28001229A4049
:100C48000C6804EA020C32EA0404F3D14C68122C52
:100C580018BF022C10D1DD08083550F8257003F0B4
:100C68000704A6000F24B44027EA040E0C69B44018
:100C780044EA0E0440F8254006684FEA430E032470
:100C880004FA0EF4E54326EA04064C6804F003046B
:100C980004FA0EF4344304604C68661E112C18BF25
:100CA800012E01D9122C0FD186682E40CC6804FA87
:100CB8000EF434438460446824EA02024C68C4F3A6
:100CC80000149C4014434460C26815408A6802FAC4
:100CD8000EF22A43C2604A6812F0805FAAD02C4AFA
:100CE800546C44F480445464526C02F4804201927F
:100CF800019A9C08A51C244A52F8256003F00302B7
:100D080095000F22AA4026EA0206224A90423FF4A2
:100D18005CAF02F58062904222D002F58062904278
:100D280020D002F5806290421ED002F58062904287
:100D38001CD002F5806290421AD002F5806290427F
:100D480018D002F58062904216D002F58062904277
:100D580014D002F5806290423FF435AF0A2235E79D
:100D6800012233E7022231E703222FE704222DE78D
:100D780005222BE7062229E7072227E7082225E78D
:100D880003B0F0BD704700BF00380140003C01408F
:100D980000380240000002400AB18161704709042E
:100DA80081617047436959404161704703689A6996
:100DB80012F0020F01D000229A6203689A6912F0B9
:100DC800010F03D19A6942F001029A61704730B469
:100DD800029D046860684FEA555C0CF4806C4CF026
:100DE8007F7C4CF4583C4CF47F7C4CF0030C20EA9C
:100DF8000C00C1F3090141EA0241194329430143A7
:100E0800616030BC7047F8B505460E461746036862
:100E18009B6913F0100F01D10020F8BD2B689C6965
:100E280014F0200F12D1B6F1FF3FF7D026B1FFF72B
:100E3800C5FBC01BB042F1D9202385F841300023FF
:100E480085F8423085F840300320E6E71022DA6161
:100E58002B682024DC612846FFF7A8FF2A6853681E
:100E680023F0FF7323F48B3323F4FF7323F0010380
:100E7800536004236B6485F84140002385F84230B1
:100E880085F840300120C8E770B504460D4616467F
:100E980023689B6913F0020F1CD13246294620466D
:100EA800FFF7B1FFC0B9B5F1FF3FF1D025B1FFF7AA
:100EB80085FB801BA842EBD9636C43F02003636475
:100EC800202384F84130002384F8423084F84030ED
:100ED800032000E0002070BD0120FCE72DE9F0416F
:100EE8000646884617461D463468A46938EA04034E
:100EF8000CBF4FF0010C4FF0000CBC4513D1B5F1FD
:100F0800FF3FF1D02DB1FFF759FB069BC01AA8424D
:100F1800EAD9202386F84130002386F8423086F843
:100F28004030032000E00020BDE8F0812DE9F041C9
:100F380082B0044690461D46089E099F1E4B0093AA
:100F48004FF08073EAB2FFF742FF3A463146204637
:100F5800FFF79AFF30B1636C042B01D003200FE038
:100F680001200DE0012D0ED123685FFA88F29A6204
:100F780000973346002280212046FFF7AFFFC0B913
:100F880002B0BDE8F08123684FEA18229A623A4617
:100F980031462046FFF778FF30B1636C042B01D04F
:100FA8000320EDE70120EBE723685FFA88F29A62F5
:100FB800DEE70320E4E700BF002000802DE9F041D0
:100FC80082B0044690461D46089E099F1D4B00931B
:100FD8000023EAB2FFF7FBFE3A4631462046FFF708
:100FE80053FF30B1636C042B01D003200FE00120C4
:100FF8000DE0012D0ED123685FFA88F29A620097FE
:101008003346002240212046FFF768FFC0B902B0EE
:10101800BDE8F08123684FEA18229A623A463146C1
:101028002046FFF731FF30B1636C042B01D0032059
:10103800EDE70120EBE723685FFA88F29A62DEE7C2
:101048000320E4E70020008070B505460C461646EC
:101058002B689B6913F0200F19D132462146284688
:10106800FFF7D1FEA8B924B1FFF7A8FA801BA04268
:10107800EED96B6C43F020036B64202385F8413074
:10108800002385F8423085F84030032070BD0020E9
:10109800FCE70120FAE77047002857D010B504464E
:1010A80090F84130002B41D0242384F84130226845
:1010B800136823F0010313606368226823F07063E8
:1010C80013612268936823F400439360E368012B5B
:1010D80031D0A368226843F404439360E368022B89
:1010E8002FD0226851681A4B0B4353602268D3688B
:1010F80023F40043D360236962691343A16922681A
:1011080043EA0123D360E369216A22680B43136031
:101118002268136843F001031360002060642023F1
:1011280084F84130206384F8420010BD80F84030D4
:10113800FFF7B1FFB8E7A368226843F40043936060
:10114800CCE723684FF400625A60CAE70120704771
:10115800008000027047A8B110B50446242380F827
:1011680041300268136823F001031360FFF7F2FFB0
:101178000020606484F84100206384F8420084F809
:10118800400010BD012070472DE9F04F83B00D4697
:10119800BDF834A00E9F90F84110C9B2202940F044
:1011A800CE800446904699460C9BBAF1000F18BFB2
:1011B800002B00F0C88090F84030012B00F0C5806B
:1011C8004FF0010B80F840B0FFF7F8F906460090A1
:1011D80019235A464FF400412046FFF77FFE0028A6
:1011E80040F0B580212384F84130402384F8423010
:1011F800002363640C9A6262A4F82AA063630196D0
:1012080000974B46424629462046FFF78FFE60B1BD
:10121800636C042B04D0002384F8403003208FE053
:10122800002384F8403058468AE0638D9BB2FF2B38
:101238000AD9FF222285002300934FF080732946A4
:101248002046FFF7C4FD23E0628D92B22285002379
:1012580000934FF00073D2B229462046FFF7B7FD3E
:1012680016E0636C042B01D0032069E0012067E0DD
:10127800628D92B22285002300934FF00073D2B2A0
:1012880029462046FFF7A3FD638D9BB2002B33D080
:10129800324639462046FFF7F7FD0028E1D1636A58
:1012A8005A1C626222681B789362638D9BB2013B71
:1012B8009BB26385238D013B9BB22385002BE3D131
:1012C800638D9BB2002BDFD000963B460022802125
:1012D8002046FFF703FE00283BD1638D9BB2FF2B0E
:1012E800C6D9FF222285002300934FF08073294638
:1012F8002046FFF76CFDC7E7324639462046FFF720
:10130800A3FE30B1636C042B01D0032018E0012048
:1013180016E023682022DA6121684B6823F0FF7306
:1013280023F48B3323F4FF7323F001034B6084F819
:101338004120002384F8423084F8403000E0022045
:1013480003B0BDE8F08F0120FAE70220F8E7032098
:10135800F6E70320F4E700002DE9F04F83B00D46CF
:10136800BDF834A00E9F90F84110C9B2202940F072
:10137800C8800446904699460C9BBAF1000F18BFE6
:10138800002B00F0C28090F84030012B00F0BF80A5
:101398004FF0010B80F840B0FFF710F906460090B7
:1013A80019235A464FF400412046FFF797FD0028BD
:1013B80040F0AF80222384F84130402384F8423043
:1013C800002363640C9A6262A4F82AA063630196FE
:1013D80000974B46424629462046FFF7EFFD60B18D
:1013E800636C042B04D0002384F84030032089E088
:1013F800002384F84030584684E0638D9BB2FF2B6D
:101408000AD9FF222285464B00934FF08073294664
:101418002046FFF7DCFC1CE0628D92B22285404B2F
:1014280000934FF00073D2B229462046FFF7CFFC55
:101438000FE0628D92B22285002300934FF0007373
:10144800D2B229462046FFF7C2FC638D9BB2002B1F
:1014580034D000963B46002204212046FFF73EFD8B
:10146800002858D123685A6A636A591C61621A7045
:10147800228D013A92B22285638D9BB2013B9BB2C9
:101488006385002AE1D1638D9BB2002BDDD00096E5
:101498003B4680212046FFF721FD00283DD1638D82
:1014A8009BB2FF2BC5D9FF222285002300934FF062
:1014B800807329462046FFF78AFCC6E7324639463C
:1014C8002046FFF7C1FD30B1636C042B01D0032027
:1014D80018E0012016E023682022DA6121684B68B1
:1014E80023F0FF7323F48B3323F4FF7323F00103FA
:1014F8004B6084F84120002384F8423084F840305F
:1015080000E0022003B0BDE8F08F0120FAE70220D6
:10151800F8E70320F6E70320F4E70320F2E700BF2B
:101528000024008090F8410070470000F0B54D6835
:101538000468E368C3F30B431D444FEAC21C04EB81
:10154800C214D4F8883003F47043C4F888300B68A8
:101558000468E668C6F30B463344013304EBC2144F
:1015680043EA0543C4F88830CD680468E368C3F3E8
:101578000A031D4404EBC21EDEF88C3003F47043EA
:10158800CEF88C308B680468E668C6F30A0E73449C
:10159800013304EBC21443EA0543C4F88C300368F2
:1015A80003EBC213D3F8944024F00704C3F8944023
:1015B800036803EBC2130C69C3F8944091F83170C7
:1015C80091F832608D69046804EBC21404F1840E4A
:1015D800D4F89C300024CEF8184091F8303043EA13
:1015E800072343EA0643066806EBC21E43EA05637F
:1015F800CEF89C300EF1840E036803EBC213D3F8C7
:10160800985025F0FF05C3F89850036803EBC21300
:101618004D69C3F89850036803EBC213D3F8A06070
:101628002E4D3540C3F8A0500D6A036803EBC21372
:10163800CE693543C3F8A050036803EBC213D3F84F
:10164800AC50C3F8AC40036803EBC2124B6AC2F853
:10165800AC300B696BB1012B39D0022B18BF042BAE
:1016680037D0032B37D0072B01D0012502E0022504
:1016780000E0042502686244D2F8B04004F0E02497
:10168800C2F8B0408A6A05FB02F44B680A689B1AE4
:1016980005FB03F303330268624443EA0443C2F8D8
:1016A800B03003686344D3F8B4400D4A2240C3F80D
:1016B800B42003686344CA6AC3F8B42003689C442E
:1016C800DCF8843043F00103CCF88430F0BD032506
:1016D800D0E70225CEE70225CCE700BFF8F8FFFFE8
:1016E80000F8FFFF70470000002877D038B504469F
:1016F80090F8A130002B6CD0022384F8A130226826
:10170800936923F07043936121688A696368A068CC
:101718000343E06803432069034313438B61216853
:101728008A682F4B1A408A6020688268A1696569B7
:1017380041EA05410A4382602168CA681A40CA60C2
:101748002068C268216AE56941EA05410A43C26026
:1017580021680A691A400A6120680269A16A656AF3
:1017680041EA05410A43026121684A6913404B6115
:10177800E06A21684B69226B42EA004213434B61DD
:1017880094F8350094F836301B042168CA6A02F0D0
:101798007F42CA622168CA6A43EA002394F8340087
:1017A80003431343CB622268536B43F00403536330
:1017B8002268536B43F0020353632268936943F032
:1017C800010393610020C4F8A400012384F8A13028
:1017D80038BD80F8A030FFF785FF8DE701207047FE
:1017E80000F800F0F8B590F8A030012B2CD0044692
:1017F8000D461646012780F8A070022380F8A13014
:101808004FF0340C0CFB020C0CF1380C8E46BEE881
:101818000F00ACE80F00BEE80F00ACE80F00BEE810
:101828000F00ACE80F00DEF80030CCF8003032468C
:1018380029462046FFF77AFE23685F6284F8A17084
:10184800002084F8A000F8BD0220FCE790F8A10071
:101858007047000010B582B01B4B1A6C42F08052E2
:101868001A641B6C03F080530193019B174A136899
:1018780043F480331360FEF7A1FE0446134B5B6804
:1018880013F4803F08D1FEF799FE001BB0F57A7F6C
:10189800F4D9032002B010BD0C4A136843F4003396
:1018A8001360FEF78BFE0446084B5B6813F4003F99
:1018B80007D1FEF783FE001BB0F57A7FF4D9032029
:1018C800E8E70020E6E700BF00380240007000406B
:1018D800002800F0D98170B582B00446036813F07F
:1018E800010F29D0954B9B6803F00C03042B1AD0E9
:1018F800924B9B6803F00C03082B0FD06368B3F579
:10190800803F40D0002B54D18C4B1A6822F480328F
:101918001A601A6822F480221A6039E0874B5B68E3
:1019280013F4800FEAD0854B1B6813F4003F03D0F3
:101938006368002B00F0AA81236813F0020F74D0AB
:101948007E4B9B6813F00C0F5ED07C4B9B6803F0BA
:101958000C03082B53D0E368002B00F08980774AEA
:10196800136843F001031360FEF728FE0546734B26
:101978001B6813F0020F72D1FEF720FE401B0228ED
:10198800F5D9032087E16D4A136843F48033136067
:1019980063682BB3FEF712FE0546684B1B6813F409
:1019A800003FC9D1FEF70AFE401B6428F5D9032081
:1019B80071E1B3F5A02F09D0604B1A6822F4803288
:1019C8001A601A6822F480221A60E1E75B4B1A68F1
:1019D80042F480221A601A6842F480321A60D7E70B
:1019E800FEF7ECFD0546554B1B6813F4003FA3D0EA
:1019F800FEF7E4FD401B6428F5D903204BE14F4B6B
:101A08005B6813F4800FA6D14C4B1B6813F0020FD0
:101A180003D0E368012B40F03B81484A136823F068
:101A2800F803216943EAC1031360236813F0080F20
:101A380046D0636983B3414A536F43F00103536748
:101A4800FEF7BCFD05463D4B5B6F13F0020F37D127
:101A5800FEF7B4FD401B0228F5D903201BE1374AE5
:101A6800136823F0F803216943EAC1031360DCE734
:101A7800324A136823F001031360FEF79FFD054601
:101A88002E4B1B6813F0020FCFD0FEF797FD401BBB
:101A98000228F5D90320FEE0284A536F23F00103FA
:101AA8005367FEF78BFD0546244B5B6F13F0020F5F
:101AB80006D0FEF783FD401B0228F5D90320EAE093
:101AC800236813F0040F7DD01C4B1B6C13F0805F50
:101AD8001ED11A4B1A6C42F080521A641B6C03F028
:101AE80080530193019B0125154B1B6813F4807FDC
:101AF80010D0A368012B25D0002B3BD10F4B1A6FB8
:101B080022F001021A671A6F22F004021A671EE017
:101B18000025E9E70A4A136843F480731360FEF767
:101B28004DFD0646064B1B6813F4807FE1D1FEF796
:101B380045FD801B6428F5D90320ACE0003802403D
:101B480000700040564A136F43F001031367A368FF
:101B580033B3FEF733FD0646514B1B6F13F0020FEC
:101B68002FD1FEF72BFD801B41F288339842F3D921
:101B7800032090E0052B09D0494B1A6F22F001028F
:101B88001A671A6F22F004021A67E0E7444B1A6FCB
:101B980042F004021A671A6F42F001021A67D6E788
:101BA800FEF70CFD06463E4B1B6F13F0020F08D0E4
:101BB800FEF704FD801B41F288339842F3D90320D5
:101BC80069E0F5B9A369002B64D0354A926802F040
:101BD8000C02082A61D0022B19D0314A136823F06D
:101BE80080731360FEF7EAFC04462D4B1B6813F064
:101BF800007F47D0FEF7E2FC001B0228F5D903203E
:101C080049E0274A136C23F080531364DAE7244A27
:101C1800136823F080731360FEF7D0FC0546204B51
:101C28001B6813F0007F06D0FEF7C8FC401B022893
:101C3800F5D903202FE0E369226A1343626A43EA75
:101C48008213A26A5208013A43EA0243E26A43EA6B
:101C5800026343F00053124A5360136843F08073E1
:101C68001360FEF7ABFC04460D4B1B6813F0007FB6
:101C780006D1FEF7A3FC001B0228F5D903200AE0D1
:101C8800002008E0002006E001207047012002E063
:101C9800012000E0002002B070BD0120FBE700BF7A
:101CA8000038024008B5254B9B6803F00C03042B51
:101CB8003FD0082B3FD1214B5A6802F03F025B68A6
:101CC80013F4800F12D01D4B5968C1F388111C48BA
:101CD8000023A1FB0001FEF793FA184B5B68C3F3DE
:101CE800014301335B00B0FBF3F025E0134B596867
:101CF800C1F3881C4FEA4C11B1EB0C006EEB0E0ED1
:101D08004FEA8E1343EA90638101091A63EB0E03CD
:101D1800DB0043EA5173C90011EB0C0C43F10003DB
:101D2800990200234FEA8C2041EA9C51FEF768FA99
:101D3800D3E7034800E0034808BD00BF003802406D
:101D480040787D010024F400002800F09F8070B5E1
:101D58000D460446514B1B6803F00F038B420BD210
:101D68004E4A136823F00F030B431360136803F004
:101D78000F038B4240F08C80236813F0020F17D0BA
:101D880013F0040F04D0464A936843F4E053936079
:101D9800236813F0080F04D0414A936843F4604362
:101DA80093603F4A936823F0F003A1680B43936064
:101DB800236813F0010F31D06368012B20D0022B68
:101DC80025D0374A126812F0020F63D034498A6866
:101DD80022F0030213438B60FEF7F0FB0646304BFC
:101DE8009B6803F00C036268B3EB820F16D0FEF712
:101DF800E5FB801B41F288339842F0D9032044E088
:101E0800274A126812F4003FE0D101203DE0244A3D
:101E1800126812F0007FD9D1012036E01F4B1B68F1
:101E280003F00F03AB420AD91C4A136823F00F03CF
:101E38002B431360136803F00F03AB422CD12368C4
:101E480013F0040F06D0164A936823F4E053E168B0
:101E58000B439360236813F0080F07D0104A936868
:101E680023F46043216943EAC1039360FFF71AFF33
:101E78000B4B9B68C3F303130A4AD35CD8400A4B45
:101E880018600F20FEF752FB002070BD012070473C
:101E98000120FAE70120F8E70120F6E7003C0240BC
:101EA80000380240F422050834020020F0B583B05F
:101EB8000446066816F001060DD0AF4B9A6822F466
:101EC80000029A609A68416B0A439A60436B002B40
:101ED80000F02B810026256815F4002511D0A64AAC
:101EE800D2F88C3023F44013E16B0B43C2F88C30EA
:101EF800E36BB3F5801F00F01A81002B00F0198105
:101F08000025236813F4801F0FD09B4AD2F88C3029
:101F180023F44003216C0B43C2F88C30236CB3F5D7
:101F2800800F00F0088103B90125236813F0807F32
:101F380000D0012613F0200F40F0FF80236813F033
:101F4800100F0CD08C4BD3F88C2022F08072C3F881
:101F58008C20D3F88C20A16B0A43C3F88C2023680B
:101F680013F4804F08D0844AD2F8903023F44033D9
:101F7800616E0B43C2F89030236813F4004F08D009
:101F88007D4AD2F8903023F44023A16E0B43C2F867
:101F98009030236813F4803F08D0774AD2F8903005
:101FA80023F44013E16E0B43C2F89030236813F416
:101FB800003F08D0704AD2F8903023F44003216FD4
:101FC8000B43C2F89030236813F0400F08D06A4AD8
:101FD800D2F8903023F00303616C0B43C2F89030C1
:101FE800236813F0800F08D0634AD2F8903023F0AA
:101FF8000C03A16C0B43C2F89030236813F4807F64
:1020080008D05D4AD2F8903023F03003E16C0B43DE
:10201800C2F89030236813F4007F08D0564AD2F8EB
:10202800903023F0C003216D0B43C2F89030236831
:1020380013F4806F08D0504AD2F8903023F44073DC
:10204800616D0B43C2F89030236813F4006F08D019
:10205800494AD2F8903023F44063A16D0B43C2F88B
:102068009030236813F4805F08D0434AD2F8903048
:1020780023F44053E16D0B43C2F89030236813F406
:10208800005F08D03C4AD2F8903023F44043216ED8
:102098000B43C2F89030236813F4800F08D0364AF7
:1020A800D2F8903023F08063A16F0B43C2F89030D0
:1020B800236813F4001F0DD02F4AD2F8903023F074
:1020C8000063E16F0B43C2F89030E36FB3F1006F28
:1020D80000F09E80236813F0080F00D0012513F448
:1020E800802F08D0244AD2F8903023F04073616FD3
:1020F8000B43C2F89030236813F4000F09D01E4A2E
:10210800D2F8903023F08053D4F880100B43C2F8F3
:102118009030002E7ED12368B3F1007F7AD0012D54
:1021280000F00B81002003B0F0BD0126D3E60126A4
:10213800E3E60125E5E60126F5E60F4B1A6C42F0C9
:1021480080521A641B6C03F080530193019B0B4A65
:10215800136843F480731360FEF730FA0746074BA1
:102168001B6813F4807F0BD1FEF728FAC01B642884
:10217800F5D90320D7E700BF0038024000700040BF
:10218800A84B1B6F13F4407315D0226B02F44072F6
:102198009A4210D0A34B1A6F22F44072196F41F47F
:1021A80080311967196F21F4803119671A671B6F1D
:1021B80013F0010F12D1236B03F44072B2F5407F84
:1021C8001DD0984A936823F4F813936095490B6FD0
:1021D800226BC2F30B0213430B67AFE6FEF7EEF96F
:1021E8000746904B1B6F13F0020FE4D1FEF7E6F998
:1021F800C01B41F288339842F3D9032093E78948FA
:10220800826822F4F812884919400A438260DDE79F
:1022180001255FE7834A136823F080631360FEF7A4
:10222800CDF906467F4B1B6813F0006F06D0FEF70A
:10223800C5F9801B6428F5D9032074E7236813F0D7
:10224800010F13D0636B8BB9764AD2F88430D2F879
:102258008410606803F4403343EA801301F070612E
:102268000B43A16843EA0173C2F88430236813F46E
:10227800002F03D0E26BB2F5801F06D013F4801F45
:102288001ED0236CB3F5800F1AD1664AD2F8843079
:10229800D2F88410606803F4403343EA8013E0689E
:1022A80043EA006301F0E0410B43C2F88430D2F8FE
:1022B8008C3023F01F03616A01390B43C2F88C305C
:1022C800236813F0807F11D0564AD2F88400D2F8E0
:1022D8008410666823691B0443EA861300F0706063
:1022E800034301F0E0410B43C2F88430236813F044
:1022F800007F0DD0626823691B0443EA8213E268F9
:1023080043EA0263A26843EA0273464AC2F8843089
:10231800444A136843F080631360FEF74FF906469A
:10232800404B1B6813F0006F7FF4F9AEFEF746F9D7
:10233800801B6428F4D90320F5E63A4A136823F091
:1023480080531360FEF73AF90546364B1B6813F0C5
:10235800005F06D0FEF732F9401B6428F5D9032048
:10236800E1E6236813F4002F01D0E26B22B113F4E5
:10237800801F1DD0236CDBB92A4AD2F88830D2F8E6
:102388008810606903F4403343EA8013A06943EA84
:10239800006301F0E0410B43C2F88830D2F88C307A
:1023A80023F4F853A16A013943EA0123C2F88C30B7
:1023B800236813F4001F03D0E36FB3F1006F35D027
:1023C800236813F0080F19D0164AD2F88810D2F8EB
:1023D8008830606903F4403343EA801301F0706188
:1023E8000B43E16943EA0173C2F88830D2F88C30B4
:1023F80023F44033E16A0B43C2F88C30094A13686E
:1024080043F080531360FEF7D9F80446054B1B6868
:1024180013F0005F1DD1FEF7D1F8001B6428F5D931
:10242800032080E600380240FFFCFF0F0A4AD2F87A
:102438008800D2F888106569236A1B0443EA85136B
:1024480000F07060034301F0E0410B43C2F88830AC
:10245800B6E7002067E600BF003802407047E0B1E9
:1024680038B50D46044690F82C308BB1022384F819
:102478002C30214651F8040B00F03EF862682946DA
:10248800206800F073F8012384F82C30002038BD50
:1024980080F82D30FFF7E2FFE8E70120704738B5F4
:1024A800044690F82C00C0B202280DD00D46022335
:1024B80084F82C30206800F0ADF82B68022B04D08B
:1024C800012384F82C30002038BD052384F82C30F3
:1024D8000020F9E710B5044690F82C00C0B2022895
:1024E80009D0022384F82C30206800F0AAF80123D0
:1024F80084F82C30002010BD30B40B68012B18D0A4
:102508000368194A1A404B688C682343CC682343F4
:102518000C6923434C6923438C692343CC692343C7
:102528000C6A2343496A0B4313430360002030BC01
:102538007047046824F4F844CB690A6A1A434B6A62
:102548001A4322434368084C1C404B688D682B4350
:10255800CD682B430D692B434D692B4389690B4388
:10256800234302604360E1E70080FFFF10B5012AC2
:1025780025D0826802F070420B68013B4C6804F178
:10258800FF3C43EA0C138C6804F1FF3C43EA0C233C
:10259800CC6804F1FF3C43EA0C330C6904F1FF3CBE
:1025A80043EA0C434C6904F1FF3C43EA0C53896944
:1025B800013943EA016313438360002010BD836837
:1025C800134C1C40CA6802F1FF3C4B695A1E1205A5
:1025D80042EA0C322243C36803F0704C0B68013B9B
:1025E8004C6804F1FF3E43EA0E138C6804F1FF3E89
:1025F80043EA0E230C6904F1FF3E43EA0E4389695E
:10260800013943EA016343EA0C038260C360D4E7FB
:10261800FF0F0FFF10B483B00246002001900B6833
:102628004C6823438C6804F1FF3C43EA4C13C968A7
:1026380043EA41230193019B136103B05DF8044B06
:102648007047436943EA410343610020704770477C
:102658000020704770470000014B1878704700BF92
:10266800C402002008B5FFF7F7FF00B108BD00F06D
:1026780095FA024B01221A70F8E700BFC402002045
:1026880008B5C82000F0BCFAFFF7ECFF08BD70B52C
:1026980082B0064600248DF80740FFF7E3FF254681
:1026A80001E00134E4B285F00103022C8CBF002361
:1026B80003F0010363B1A821F0B200F08BFA8DF8A2
:1026C80007009DF80730DBB2512BEAD10125E8E776
:1026D8009DF8070002B070BD00B583B000238DF8E7
:1026E80007300221C0B200F075FA8DF807009DF896
:1026F800073003F00F038DF807309DF80730DBB281
:10270800052B02D900238DF807309DF80720044BCC
:102718005A7000229A709DF8070003B05DF804FB18
:10272800C40200202DE9F04782B0154600238DF839
:1027380007304F4A93785278934280F096800F463C
:10274800092B06D8DFE803F0530B131B232B333B6D
:10275800434B4FF00008C146C24641464EE04FF099
:102768000B084FF00C094FF0090A0A2146E04FF018
:1027780011084FF012094FF00F0A10213EE04FF0F8
:1027880017084FF018094FF0150A162136E04FF0D8
:102798001D084FF01E094FF01B0A1C212EE04FF0B8
:1027A80023084FF024094FF0210A222126E04FF098
:1027B80029084FF02A094FF0270A28211EE04FF078
:1027C8002F084FF030094FF02D0A2E2116E04FF058
:1027D80035084FF036094FF0330A34210EE04FF038
:1027E8003B084FF03C094FF0390A3A2106E04FF018
:1027F80005084FF006094FF0030A0421C4B2204629
:1028080000F0E8F98DF807009DF80730194E33807D
:102818005146204600F0DEF98DF807009DF8073094
:102828001B0203F47063328813439BB233803B80EE
:102838004946204600F0CEF98DF807009DF807308C
:1028480033804146204600F0C5F98DF807009DF811
:1028580007301B0203F47063328813439BB2338042
:102868002B80034A93780133937002B0BDE8F08758
:10287800C4020020C002002008B50122A421C0B271
:1028880000F094F908BD08B50022A421C0B200F0F8
:102898008DF908BD08B5FFF7F6FF08BD10B582B081
:1028A8000C4600238DF807300121C0B200F092F9E0
:1028B8008DF807009DF80730236002B010BD0000B6
:1028C8002DE9F04182B01D4600238DF80730334BC7
:1028D8005B788B425ED91646092906D8DFE801F0F5
:1028E80036090E13181D22272C310027B846394601
:1028F80030E00E274FF00D0809212BE014274FF088
:1029080013080F2126E01A274FF01908152121E096
:1029180020274FF01F081B211CE026274FF0250811
:10292800212117E02C274FF02B08272112E032270E
:102938004FF031082D210DE038274FF037083321AB
:1029480008E03E274FF03D08392103E008274FF003
:1029580007080321C4B2204600F03CF98DF80700AF
:102968009DF807309B09089A13604146204600F0FD
:1029780031F98DF807009DF8073033603946204655
:1029880000F028F98DF807009DF807301B0903F0BF
:1029980004032B6002B0BDE8F08100BFC402002030
:1029A80070B58AB0444B834243D0444C236B43F008
:1029B80002032363236B03F002030393039B4FF487
:1029C8008073059312230693002507950223089325
:1029D800042309933A4E05A93046FEF7EDF84FF463
:1029E8000073059305A93046FEF7E6F8236C43F417
:1029F80000132364236C03F400130493049B236AD9
:102A080043F400132362236A23F4001323622A4643
:102A18000F211F20FDF706FE1F20FDF739FE2A466D
:102A28000F212020FDF7FEFD2020FDF731FE0AB022
:102A380070BD224C236B43F080032363236B03F0A8
:102A480080030193019B802305931223069300259D
:102A5800079502230893042309931A4E05A93046C3
:102A6800FEF7AAF84FF48073059305A93046FEF7E0
:102A7800A3F8236C43F400032364236C03F40003DA
:102A88000293029B236A43F400032362236A23F41C
:102A9800000323622A460F214820FDF7C3FD482082
:102AA800FDF7F6FD2A460F214920FDF7BBFD492019
:102AB800FDF7EEFDBBE700BFC8020020003802406A
:102AC80000040240001C024010B50446FEF72AFD2F
:102AD800A0B90C4B9C4212D00B4B23600B4B63608C
:102AE8000023A3600122E26023616361E361236242
:102AF8002046FFF755FF2046FEF7CEFA10BD044BDF
:102B08002360EBE7C80200200054004032279140C0
:102B1800005C004010B50446FEF71DFB2046FFF799
:102B2800D3FF10BD70B584B005460C464FF47A71DA
:102B38000291BDF824100191089900912146FEF7F1
:102B480023FB064610B9304604B070BD214628461E
:102B5800FFF7E0FFF7E770B584B005460C464FF481
:102B68007A710291BDF824100191089900912146CB
:102B7800FEF7F2FB064610B9304604B070BD214698
:102B88002846FFF7C7FFF7E700B1704708B50221ED
:102B98000148FEF707F908BD0020024008B50248C1
:102BA800FFF792FF08BD00BFC802002000B585B03E
:102BB8008DF80F20012301930DF10F0200920A46B0
:102BC80001460348FFF7AEFF05B05DF804FB00BF00
:102BD800C802002000B585B00A4600238DF80F30E2
:102BE800012301930DF10F01009101460348FFF7FE
:102BF800B2FF9DF80F0005B05DF804FBC802002085
:102C080008B5FDF7E1FC08BD2DE9F04383B0814626
:102C18004FF00008CDF80480204C012626601027CC
:102C28006760A660C4F80C801D4D4FF6FF72214600
:102C38002846FFF734FC3046FDF7C6FC0223236024
:102C48006760A660C4F80C804FF6FF7221462846DC
:102C5800FFF725FC0323236067600823A360C4F8FB
:102C68000C804FF6FF7221462846FFF718FC4FF4F8
:102C780008730193042323606760A660019BE360E7
:102C88004FF6FF7221462846FFF709FC49462846B9
:102C9800FFF720FC03B0BDE8F08300BF1403002059
:102CA800A003002070B58EB00646534B9A6B42F0D5
:102CB80001029A639A6B02F001020192019A1A6B5F
:102CC80042F480021A631A6B02F480020292029A9A
:102CD8001A6B42F004021A631A6B02F004020392A0
:102CE800039A1A6B42F008021A631A6B02F0080280
:102CF8000492049A1A6B42F010021A631A6B02F0DB
:102D080010020592059A1A6B42F020021A631A6B98
:102D180002F020020692069A1A6B42F040021A63E9
:102D28001A6B02F040020792079A1A6B42F080026F
:102D38001A631B6B03F080030893089B02230A9312
:102D480001220B920C930C230D930823099309A9D4
:102D58002A48FDF731FF4CF20373099309A9284863
:102D6800FDF72AFF4FF68373099309A92548FDF754
:102D780023FF4FF63F03099309A92348FDF71CFFDA
:102D880048F23313099309A92048FDF715FF2823B2
:102D9800099309A91E48FDF70FFF1E4C0025656021
:102DA8008023A3604FF40073E3604FF480632361D2
:102DB8004FF4805363614FF48043A361E5614FF49E
:102DC8000033236265620323A362E5622563124B25
:102DD80023603463A6632046FDF764FD2046FDF7B3
:102DE800FBFC2A460F213820FDF71CFC3820FDF794
:102DF8004FFC0EB070BD00BF003802400008024012
:102E0800000C02400010024000140240001802406A
:102E1800001C0240400300201064024038B51B4CDF
:102E28001B4B23601B4D02232B6007216960042282
:102E3800AA60E9602B616B61AB6100216160A160F0
:102E4800E26010232361402363614FF48073A36120
:102E5800E1614FF4006323624FF480536362A1621F
:102E68002046FFF71FFF29462046FFF7F8FA48B12A
:102E7800094B01221A7040F20360FFF7C5FE064BAA
:102E8800187838BD044B00221A70F4E7A00300201C
:102E9800400100A0240300203000002010B50D4B95
:102EA80018800D4B19800D4C236870209847636873
:102EB80070209847512801D0032010BD084A14609B
:102EC8007020084A1070084A08211170E368984772
:102ED8000020F2E706040020080400200800002073
:102EE80000040020D40300200404002010B582B0A0
:102EF80004460023019301A91E4B1878FFF7CEFC66
:102F0800019B1C2B12D81C2B31D8DFE803F0193099
:102F180030303030303030303030303030301C30BD
:102F2800303020303030243030302800402B1AD058
:102F3800492B03D10623A362002019E0012017E0E2
:102F48000020A06214E00123A362002010E0022305
:102F5800A36200200CE00323A362002008E00423FE
:102F6800A362002004E00523A362002000E0012002
:102F780002B010BDD403002070B592B005460023FE
:102F8800059304930393694B1B681B69684A10787F
:102F980098472870002800F0C68000241FE012AA75
:102FA80002EB440232F8241C22F80C1C32F8301CC4
:102FB80022F8181C27E09BB25B1A9BB256E092B22B
:102FC800921B92B25FE005EB44035980231D05EB89
:102FD80043039E807BE02B190122DA7601342B789B
:102FE800A34240F29D80514B1B685B6906AA02EB25
:102FF800440209A901EB44014D48007898474D4B1C
:103008001B78012BCBD013F0020F08D012AA02EBC9
:10301800440131F8242CC2F5805221F80C2C13F00D
:10302800040F08D012AA02EB440131F8302CC2F583
:10303800805221F8182C13F0080F0AD012AB03EBBA
:10304800440333F8242C23F8182C33F8302C23F8B5
:103058000C2C12AB03EB440333F80C1C364B53F81F
:1030680024309942A7D99BB2CB1A9BB212AA02EB81
:10307800440232F8186C314A52F8242096429ED9FC
:1030880092B2B21A92B21344052B05DD2A4B43F8CB
:1030980024102A4B43F82460254B1878702892D0C6
:1030A800254B53F82420264B1B8802FB03F31B0BEC
:1030B80005EB44025380214B53F82420214B1B88F5
:1030C80002FB03F31B0B221D05EB4202938003ABAB
:1030D800009304AB05AA2146FFF7F2FB2B19059ACA
:1030E8009A75049A83F82020039B032B3FF676AF4A
:1030F80001A252F823F000BFDF2F000811310008A9
:1031080019310008213100082B190222DA7665E707
:103118002B190322DA7661E72B190022DA765DE7AC
:103128002846FFF7E3FE12B070BD00BF0004002080
:10313800D403002004040020D8030020EC0300205E
:1031480006040020080400207047000038B5B1F9D3
:103158000000B1F90430B1F902C0B1F90610002B32
:1031680007DB002905DBB0F5F07F02DABCF5887FC4
:1031780000DB38BD20EAE0702CEAEC7440F2DF1581
:10318800AB42A8BF2B4640F20F15A942A8BF29465B
:10319800274D28602748046027480360274B19609B
:1031A800274B1C60274B1A60274B0022C3F884204A
:1031B800BFF34F8FD3F88040C4F34E3000E0184679
:1031C800C4F3C90243F6E07303EA401343EA827387
:1031D8001D49C1F874321346013A002BF2D1431E3F
:1031E8000028ECD1BFF34F8FBFF36F8FBFF34F8F22
:1031F800BFF36F8F0022C1F85022BFF34F8FBFF388
:103208006F8F0B4B1A680C4B1B689B1A0C4909688B
:10321800C1EB011102EB41125200013302F1C0422D
:10322800084909680948FDF76FFB0028A1D0FEE7A7
:1032380008040220100402200C04022014040220B6
:10324800180402206C02022000ED00E00C040020AB
:1032580008B5094B1A68936943F001039361012289
:103268004FF480510548FDF797FD012208210448D5
:10327800FDF792FD08BD00BFD802022000200240E1
:103288000028024008B5064808230360C0234361AC
:103298000523C3614FF48033C362FEF707FE08BD00
:1032A80084030220F0B58FB04A4B5A6C42F080621A
:1032B8005A645A6C02F080620092009A1A6B42F4C7
:1032C80000021A631A6B02F400020192019A1A6B47
:1032D80042F010021A631A6B02F010020292029A6C
:1032E8001A6B42F040021A631A6B02F04002039212
:1032F800039A1A6B42F480721A631A6B02F4807292
:103308000492049A1A6B42F400721A631A6B02F45C
:1033180000720592059A1A6B42F480621A631A6B5E
:1033280002F480620692069A1A6B42F480721A635B
:103338001A6B02F480720792079A1A6B42F4806241
:103348001A631B6B03F480630893089B102309938B
:1033580002240A9400230B930C940E250D9509A9B9
:103368001D48FDF729FC4FF4805709970A94092353
:103378000D9309A91948FDF71FFC4FF466430993FB
:103388000A940D95164E09A93046FDF715FC4EF620
:10339800FF7309930A940D9509A91248FDF70CFCCF
:1033A800F72309930A940D950F4C09A92046FDF7B8
:1033B80003FC099701250A9509A93046FDF7FCFB8E
:1033C800082309930A9509A92046FDF7F5FB0FB0D4
:1033D800F0BD00BF00380240001002400018024053
:1033E80000200240002402400028024010B5284C6A
:1033F800282363610923A3613523E3610B23236237
:1034080040F21B13A36240F21523636240F21D13BE
:10341800236340F23523E362FFF734FF4FF4F07380
:1034280023664FF488736366002384F8343084F885
:10343800353084F836306360A360E3602361154B50
:1034480023602046FEF702FA98B11148FEF74CF9BE
:1034580001224FF480511048FDF79EFC01220821FB
:103468000E48FDF799FCFFF7D9FCFDF7C1F80023DA
:1034780008E0FFF717FFE8E75A0002F1C042002111
:1034880011800133B3F5FF3FF6D3002010BD00BF14
:10349800D8020220006801400020024000280240B3
:1034A80010B58EB0002201924FF4F0710291039290
:1034B8004FF488730493022405940A90FF20069021
:1034C80007928DF834208DF835208DF836204FF48A
:1034D800C0600890072009900B910C9301A902483D
:1034E800FEF780F90EB010BDD802022010B582B0E8
:1034F8001F4B1A6B42F480021A631B6B03F48003A0
:103508000193019B1B4800234360802282604FF493
:103518000072C2604FF4806202614FF4006242613F
:103528004FF400528261C3614FF4003202620422F8
:1035380042628362C36203630F4B0360FDF74CF979
:1035480000B1FEE70B4C0D4A00212046FDF704FBB5
:103558000B4A04212046FDF7FFFA002211463820C5
:10356800FDF760F83820FDF793F802B010BD00BFF2
:10357800003802400C04002010640240DD350008C9
:103588005131000810B4124B0022C3F88420BFF355
:103598004F8FD3F88040C4F34E3000E01846C4F390
:1035A800C90243F6E07303EA401343EA8273084909
:1035B800C1F874321346013A002BF2D1431E002899
:1035C800ECD1BFF34F8FBFF36F8F5DF8044B70479B
:1035D80000ED00E038B5284B1A6801321A60274B15
:1035E8001B689A4230DD264B0022C3F88420BFF3C3
:1035F8004F8FD3F88040C4F34E3000E01846C4F330
:10360800C90243F6E07303EA401343EA82731C4994
:10361800C1F874321346013A002BF2D1431E002838
:10362800ECD1BFF34F8FBFF36F8FBFF34F8FBFF353
:103638006F8F0022C1F85022BFF34F8FBFF36F8FF7
:10364800104821F08EFD38BD0F4B1C680F4B1B68CE
:103658001B1B01330E4D296801EB43012960C2EBA6
:10366800021204EB4212520002F1C042FDF74CF97B
:103678000028E8D0FEE700BF180402201404022046
:1036880000ED00E08C020220080402200C04022055
:103698006C02022038B5164B1B6833BBFFF7A6FE39
:1036A8004FF0C040FFF7FCFEFFF7D2FDFFF71EFF0B
:1036B800104D4FF4FF43104A1049284621F064FC8E
:1036C8000F4C204621F036FC4FF4F07323804FF462
:1036D800887363800B4B63610B4BE362E5602046A4
:1036E80021F060FC024B186038BD2EF0FCF900BFD9
:1036F80080030220700202206C0301206C04002069
:103708008C020220553100088D35000808B50248A2
:10371800FDF734F908BD00BF0C04002038B50C468D
:103728000020FFF731FA0E4D2846FFF725FC2B78CD
:1037380063B1B5F902202280B5F90C3063800949DC
:103748000A80094A13800123A37338BD054B1B88DF
:103758002380054B1B8863800023A373F5E700BF14
:103768001C040220680402206A04022010B54FF4E9
:1037780088714FF4F070FFF791FB064C204621F05A
:1037880008FD01232370044B6360204621F016FDD9
:1037980010BD00BF48040220253700082DE9F04F6E
:1037A8009DB0064606F0D0FA804642F2D17107F085
:1037B800A2FA404629F0E6F90A90B54929F0EEF94F
:1037C800404629F06BFC04460B90B2492AF01CF9DC
:1037D800DFF824A30022514620460AF04BFD40465C
:1037E80029F05CFC8146AC4C002221460AF042FDDF
:1037F800AA4948462AF008F9002148462AF084F9DF
:10380800404629F04BFC07460C90A54D002229465E
:103818000AF030FDA34938462AF0F6F8404629F068
:103828003DFC0D90A0492AF0EFF8404629F036FCFF
:1038380007460E90002229460AF01CFD9B4938468F
:103848002AF0E2F8404629F029FC0F9098492AF01E
:10385800DBF8404626F030FC0546089042F2D1716C
:1038680007F049FA284629F019FC054691492AF03B
:10387800CBF800231A460921284607F0BDFA40462E
:1038880026F01AFC05460990802106F0E1FA42F27A
:10389800D171284607F02FFA284629F0FFFB054684
:1038A80085492AF0B1F800231A460921284607F06D
:1038B800A3FA21F011FC03F0EFFB1FF079F807469B
:1038C800012106F04DFA304606F03EFA054642F26E
:1038D800D17107F010FA284629F0E0FB83461090D2
:1038E80076492AF091F80022514658460AF0C2FC5F
:1038F800284629F0D3FB8346119071492AF084F8B1
:103908000022214658460AF0B5FC28462DF048F812
:10391800834601212DF07DF86A49CDF818B0584644
:103928002DF04AF8DFF8D4B13B46002259460698F4
:1039380003F046FD284629F0B1FB079062492AF0BA
:1039480063F80022214607980AF094FC28462DF0D7
:1039580027F8059001212DF05CF8012105982DF03C
:1039680093FE5A4905982DF027F83B460022594600
:10397800059803F025FD284629F090FB074612908C
:1039880053492AF041F80022214638460AF072FCD1
:10399800284628F0D5F813904E4928F01BF92846F8
:1039A80029F07CFB074614904B492AF02DF8002299
:1039B800214638460AF05EFC28462CF0F1FF0746FF
:1039C800159001212DF025F800231A464349384661
:1039D80003F0F6FC304606F0B7F9074629F05EFB1F
:1039E800834616903E492AF00FF800225146584661
:1039F8000AF040FC384629F051FB824617903949B5
:103A08002AF002F80022214650460AF033FC3846D4
:103A18002BF0FEFE834642F25F0107F054F90023C3
:103A28001A463149584603F0CBFC584607F0DFF8F0
:103A3800384629F033FB824618902C4929F0E4FFD8
:103A48000022214650460AF015FC38462CF0A6F80C
:103A58001990384629F022FB82461A90244929F009
:103A6800D3FF0022214650460AF004FC38462CF0C9
:103A780095F81B901F4B1B78022B41D0012B00F0AF
:103A88007981002B00F0B8821DB0BDE8F08F00BF2F
:103A98007C410308206D0408C00402202C6D040832
:103AA800B80402206C6D0408706D0408806D040869
:103AB800846D0408986D0408A06D0408A86D0408B6
:103AC800B86D0408C46D0408D06D0408DC6D0408E2
:103AD800EC6D0408F46D0408086E0408816D000894
:103AE800146E0408206E0408054400082C6E0408AF
:103AF800386E04087C040220C80402200D46000821
:103B0800964A9749304616F0DDFD012402940026B6
:103B180001960094022332460321404616F022FE05
:103B2800904A9149404616F0CDFD4FF0050ACDF870
:103B380008A0019600942346324621460A9816F0BA
:103B480011FE02940196009402231A4631460B98FE
:103B580016F008FE02940194009604230222032121
:103B6800484616F0FFFD02944FF00308CDF8048094
:103B780000942346022221460C9816F0F3FD029485
:103B8800CDF8048000942346424631460D9816F03D
:103B9800E9FD02940423019300942346022221465E
:103BA8000E9816F0DFFD0294042301930094234637
:103BB800424631460F9816F0D5FD4FF00209CDF870
:103BC8000890CDF8048000942346042241460898C2
:103BD80016F0C8FDCDF80890CDF80480009423466F
:103BE80052464146099816F0BDFD0294019400968C
:103BF800234632464146284616F0B4FD5B4A5C49E6
:103C0800284616F05FFD0294019600944B46324612
:103C18003146109816F0A6FD0294CDF80480009461
:103C2800234632464146069816F09CFD0294CDF88C
:103C380004900096234632463146119816F092FDBC
:103C48000294CDF804800094234622464146059804
:103C580016F088FD0294CDF804900096234622467B
:103C68003146079816F07EFD0294062501950094CA
:103C7800234622464146159816F074FD0294CDF865
:103C880004A00096234622463146149816F06AFD91
:103C9800029401950094234632464146139816F043
:103CA80061FD0294CDF804A00096234632463146C1
:103CB800129816F057FD02940194CDF8008023461F
:103CC80022464146384616F04DFD284A28493846CE
:103CD80016F0F8FC0294019600944B4632463146A1
:103CE800169816F03FFD0294CDF8048000944B46D8
:103CF80032462146584616F035FD0294CDF8049018
:103D08000096234632463146179816F02BFD02944A
:103D1800019500942346224631461B9816F022FD51
:103D28000294CDF804A000962346324631461A98EC
:103D380016F018FD02940195009423463246314648
:103D4800199816F00FFD0294CDF804A000962346AA
:103D580022463146189816F005FD95E664010020C4
:103D68004C010020AC0000207C0000200001002055
:103D7800C80000209A4A9B49304616F0A3FC01244B
:103D880002940026019600940223324603214046FD
:103D980016F0E8FC7821089806F095FF7821099834
:103DA80006F091FF904A9149404616F08BFC4FF07F
:103DB800040ACDF808A0019600962346324621460B
:103DC8000A9816F0CFFC02940196009402231A4632
:103DD80031460B9816F0C6FC029401940096022313
:103DE8001A460321484616F0BDFC02944FF002081B
:103DF800CDF8048000942346032231460D9816F02E
:103E0800B1FC0294CDF80480009423464246214632
:103E18000C9816F0A7FC0294CDF804A00094234651
:103E2800424621460E9816F09DFC0294CDF804A057
:103E380000942346032231460F9816F093FC02940F
:103E48004FF00509CDF804900094234622463146E8
:103E5800089816F087FC0294CDF804900094234645
:103E680003224146099816F07DFC029401940096BD
:103E7800234632460321284616F074FC5C4A5D4905
:103E8800284616F01FFC02940196009443463246D9
:103E98003146109816F066FC0294CDF8048000961E
:103EA800434632463146119816F05CFC02940325CD
:103EB80001950096434632462946069816F052FC6C
:103EC8000294CDF804A0009643463246314607983E
:103ED80016F048FC0294CDF804900096434632460A
:103EE8002946059816F03EFC029406230193009695
:103EF800434632463146149816F034FC02940723A0
:103F080001930096434632462946159816F02AFC36
:103F1800029408230193009643463246314612988C
:103F280016F020FC0294092301930096434632467A
:103F38002946139816F016FC02940194009523461E
:103F480022462946384616F00DFC294A29493846A2
:103F580016F0B8FB02940196009443463246314667
:103F6800169816F0FFFB02940195009443463246DA
:103F78002146584616F0F6FB0294CDF804800096C8
:103F8800234632463146179816F0ECFB0294CDF8DA
:103F980004A000962346324631461A9816F0E2FBF2
:103FA8000294CDF8049000962346324631461B9879
:103FB80016F0D8FB02940623019300962346324656
:103FC8003146189816F0CEFB029407230193009609
:103FD800234632463146199816F0C4FB54E500BF13
:103FE8005C010020440100209C000020700000209B
:103FF800E8000020C00000209D4A9E49304616F087
:1040080061FB9D4A9D49404616F05CFB9C4E9D4CC9
:1040180032462146284616F055FB32462146384698
:1040280016F050FB012402940026019600942346C2
:1040380032460321404616F095FB32460221484697
:104048000AF06AFC02940196009402233246214643
:104058000A9816F087FB02940194009402233246D2
:1040680021460B9816F07EFB02944FF00208CDF81B
:1040780004800096434632460321484616F072FBF8
:1040880002944FF00309CDF8049000942346324679
:1040980021460C9816F066FB0294CDF80490009423
:1040A8002346224631460D9816F05CFB02944FF0E9
:1040B800040ACDF804A000942346324621460E98FF
:1040C80016F050FB0294CDF804A000942346224633
:1040D80031460F9816F046FB02940523019300948D
:1040E800434632464946089816F03CFB029406239C
:1040F80001930094434632464946099816F032FB2C
:10410800029401940096234632464946284616F002
:1041180029FB029401960094434632463146109892
:1041280016F020FB0294CDF80480009643463246F0
:104138003146119816F016FB0294CDF804900096BB
:10414800434632464946069816F00CFB0294CDF8D1
:1041580004A00096434632463146079816F002FB03
:104168000294052301930096434632464946059832
:1041780016F0F8FA02940623019300964346324655
:104188003146149816F0EEFA02940723019300962C
:10419800434632464946159816F0E4FA0294082335
:1041A80001930096434632463146129816F0DAFAE1
:1041B80002940923019300964346324649461398D0
:1041C80016F0D0FA42F2D171384606F094FD029406
:1041D800CDF804800096234632464946384616F004
:1041E800C1FA029401960094434632463146169825
:1041F80016F0B8FA0294CDF80480009623463246A9
:104208003146179816F0AEFA0294CDF8049000944F
:10421800434632462146584616F0A4FA0294CDF891
:1042280004A000962346324631461A9816F09AFAA8
:104238000294052301930096234632463146199885
:1042480016F090FA0294CDF804A000962346224670
:104258003146189816F086FA0294052301930096C1
:104268002346224631461B9816F07CFA0CE400BF20
:1042780054010020400100208C000020680000202C
:10428800D0000020B8000020F0B591B0054603F03A
:104298007BF804461A2803D01B2C2DD011B0F0BD92
:1042A800284603F075F80646436BB3F5C02F07D0D0
:1042B800736BB3F5A02FEFD133690022DA70EBE707
:1042C800836B022BF4D10DF1080C464F0FCFACE8ED
:1042D8000F000FCFACE80F0097E80F008CE80F0035
:1042E800336C10AA02EB830353F8383C3E4A316B17
:1042F800F06A22F0A9FFDBE7284603F049F80446F4
:10430800436BB3F5A02FC9D102A80EF02DF8E268CF
:10431800D38851885B1A9BB201331DB2B2F90030C1
:10432800ADF80030B2F90430ADF80430B2F902202B
:10433800ADF80220A16B2D4B53F8213005FB03F398
:104348002B4EA6FB03135B0913FA82F30433ADF873
:104358000630002021F0A6FCADF80C000423ADF8CF
:1043680008306A4602A920680EF026F8BDF8062033
:10437800043AADF80220A16B1E4B53F8213005FB1F
:1043880003F3A6FB03135B0913FA82F3ADF80630B7
:10439800052021F087FCADF80C000023ADF80830AB
:1043A8006A4602A920680EF007F8BDF90620ADF8A4
:1043B8000220A16B104B53F8213005FB03F3A6FB39
:1043C80003135B0913FA82F3ADF80630092021F0D4
:1043D80069FCADF80C006A4602A920680DF0ECFFF4
:1043E8005CE700BF201C0308486E0408E47004085A
:1043F8001F85EB51BC7004080C71040870B5A2B09D
:10440800054602F0C1FF0446284602F0B9FF132C06
:1044180004D006461B2C0BD022B070BD284602F0F3
:10442800B7FFB0F900303C2BB8BF3C230380F3E75B
:10443800284602F0ADFF0446436BB3F5403FEBD18D
:104448002021304605F02CFD0028E5D0304625F027
:104458000AFE0346684A082106A822F0F5FE002352
:10446800029341F6FF7201920093644A126806A90A
:1044780005A824F09AFAE1680A888B889B1A9BB2EF
:1044880001331BB2002B6FDB02EB63039BB2BDF958
:1044980014201046002A69DBA3EB60039DB2ADF837
:1044A800203015FA82F2ADF824204B880A3B9AB2E4
:1044B800ADF82630BDF81630D31AADF822300020FA
:1044C80020F040FE1D2853DC0123ED1AADF82850DA
:1044D800BDF82450002020F035FE1D2855DC0123AE
:1044E8002B44ADF82C30BDF82250002020F02AFED5
:1044F8001D2857DC0123EB1AADF82A30BDF82650E9
:10450800002020F01FFE1D2859DC01232B44ADF8A4
:104518002E3014A80DF028FF0321122021F0E4FB0F
:10452800ADF85400002020F00DFE00EB8000EF28CD
:1045380052DC0123ADF850300AAA14A920680DF006
:104548003BFF0CA80CF050F84FF6FF73ADF83C3069
:104558002A4B1B680C9320680023009306AB08AA1B
:104568000CA90CF061F857E701338DE7501C93E76D
:10457800002020F0E7FD00F10A03214A82FB031224
:10458800DB17C3EBE2039BB29FE7002020F0DAFDC4
:1045980000F10A031A4A82FB0312DB17C3EBE2039A
:1045A8009BB29DE7002020F0CDFD00F10A03144ADC
:1045B80082FB0312DB17C3EBE2039BB29BE70020ED
:1045C80020F0C0FD00F10A030D4A82FB0312DB173D
:1045D800C3EBE2039BB299E7002020F0B3FD00EBA8
:1045E800800000F15003064A82FB0312DB17C3EB7D
:1045F800A2131BB29EE700BF4C6E0408840402207D
:1046080067666666F8B5054602F0BEFE04462846AB
:1046180002F0B6FE0646284602F0BCFE05460E2C01
:1046280006D00F2C39D01F3CE4B2012C4BD9F8BD71
:1046380003F0CAFD03F0CEFD0228F8D03146284623
:104648001EF0C2F920F048FD20F04CFD4000294939
:1046580081FB0031A1EBE071002209B228460AF083
:10466800C7F8254C206807F0C3FC276820F034FD04
:1046780020F050FD84B2284606F02AFC81B2611A67
:1046880009B2384606F037FB0121284605F0A1FBA0
:104698000021304608F047FCC9E700211EF094F9D4
:1046A800154B1C6820F018FD20F034FD014620460B
:1046B80006F021FB0121284605F052FB3146002077
:1046C80003F08EFDB3E70C4B1C6820F005FD20F0CD
:1046D80021FD0146204606F00EFB0121284605F083
:1046E8003FFB0221304605F0BFFB3146002003F0B6
:1046F80077FD9CE756555555D004022030B591B04A
:10470800044602F041FE072801D011B030BD204612
:1047180002F040FE044606F0D3FB054620F0DCFC20
:1047280020F0E0FC0346002815DB43F34F039D42CD
:1047380013DA684620F0C0FE0094114B0193002361
:10474800079308934FF480730993C8230A93684624
:1047580020F0FAFED9E7431CE7E7684620F0ACFEF4
:104768000094074B01934FF4807307930893002339
:104778000993C8230A93684620F0E6FEC5E700BF00
:10478800C558000838B50C46074D0A460146286842
:104798001FF03DFC002128680AF010F92246034961
:1047A80029F06FF938BD00BF9C0402204C6E040844
:1047B8002DE9F047C6685B4B1B78002B00F08A8018
:1047C800594A1368893B1360B3F5AF6F02D2554B52
:1047D80000221A70554B1B78002B00F08880544A31
:1047E8001368033B1360B3F5AF6F02D24F4B00223F
:1047F8001A70504B1B78002B00F086804E4A1368C5
:10480800393B1360B3F5AF6F02D24A4B00221A70DE
:10481800DFF81491D9F80040DFF81481D8F8003097
:10482800E518454F3A68154404EB440204EB42147A
:10483800B4FBF5F403EB430203EB4213B3FBF5F5CA
:10484800DFF804A100223168DAF800001FF006FC46
:1048580022463168DAF800001FF01AFC621C716801
:10486800DAF800001FF0FAFB2C44621C7168DAF8D1
:1048780000001FF00DFCA21CB168DAF800001FF060
:10488800EDFB6322B168DAF800001FF001FCDAF8EA
:1048980000000AF068F804466FF004010AF08EF888
:1048A800D9F80020254929F0ECF86FF002012046DC
:1048B8000AF084F8D8F80020214929F0E2F84FF0EE
:1048C800FF3120460AF07AF83A681E4929F0D9F8EB
:1048D800BDE8F087144A13687433136041F29412E8
:1048E80093427FF677AF0F4B01221A7072E7104A96
:1048F80013680933136041F2941293427FF679AF3B
:104908000A4B01221A7074E70B4A13684C33136080
:1049180041F2941293427FF67BAF064B01221A7044
:1049280076E700BF7D040220980100207E04022063
:10493800A00100207F0402209C010020506E040882
:10494800606E04086C6E04088C04022038B50C46AE
:10495800084D0A46014628681FF09AFB28680AF0A5
:1049680002F84FF0FF310AF029F82246024929F0EF
:1049780088F838BD88040220786E040838B50C46DB
:10498800084D0A46014628681FF082FB286809F08E
:10499800EAFF6FF002010AF011F82246024929F0F5
:1049A80070F838BD88040220886E040838B50C46B3
:1049B800084D0A46014628681FF06AFB286809F076
:1049C800D2FF6FF0040109F0F9FF2246024929F0ED
:1049D80058F838BD88040220986E04082DE9F04381
:1049E800A9B0054602F0D0FC0446284602F0C8FCEF
:1049F8000646082C18BF012C04D01A2C05D029B063
:104A0800BDE8F08306F094FDF9E7284602F0C0FC03
:104A18000446436BB3F5C02F00F08180B3F5A02F97
:104A2800EDD1616A00296DD0A06A00286AD0B0F97A
:104A38000030B1F90220B1F9001003250195B0F951
:104A4800020000900FA80DF073FA00210FA80DF0D6
:104A58008FF90746304606F03BFA06F11408F38A48
:104A680002460028C0F2908003EBE203B6F91A2050
:104A78000192002500951BB2FF22414609A80DF0BE
:104A880055FC294609A80DF073F905461AA80DF03A
:104A98006BFC7F238DF86B30A3691B88ADF86C30F5
:104AA80023680DF1140942469968484620F05DFED6
:104AB8002368D3F80880C3F80890626AB2F9003016
:104AC800ADF81C30A16A0B88013BADF82030B1F974
:104AD8000230B2F902209342A8BF1346ADF81E3047
:104AE800B6F91A30ADF8223007AA1AA920680DF0D5
:104AF80063FC2368C3F8088038460DF07DF9284622
:104B08000DF07AF9656C30461CF0B3FBA36B984244
:104B18003CD022690023D3842269D3856FE7826B56
:104B2800022A7FF47BAF30461CF096F8022815D095
:104B38001AADBD4E0FCE0FC50FCE0FC596E80F00AC
:104B480085E80F00236C28AA02EB830353F8383C4E
:104B5800B64A216BE06A22F077FB50E71AADB44EF3
:104B68000FCE0FC50FCE0FC596E80F0085E80F00D2
:104B7800236C28AA02EB830353F8383CAB4A216B19
:104B8800E06A22F061FB3AE7C21D6DE730461CF08F
:104B980063F8012800F0A98023692A899A85236986
:104BA8000F22DA85236900229A86236CA14A0821FC
:104BB80005A822F049FB0023029341F6FF720192F7
:104BC80000939D4A126805A904A823F0EEFE30461A
:104BD8001CF042F8022800F09080E1680B888A886F
:104BE800D21A92B2013212B2002AC0F2D68003EB76
:104BF80062039BB2BDF910201046002AC0F2CF8094
:104C0800A3EB6003ADF81C3092B212FA83F3ADF84F
:104C180020304E88002020F095FAC0EB0010EF28D5
:104C280000F3BF800123F31A9AB2ADF82230BDF821
:104C38001230D31AADF81E30BDF81C60002020F0E9
:104C480081FA1D2800F3BC800123F31AADF8243043
:104C5800BDF82060002020F075FA1D2800F3BD8003
:104C680001233344ADF82830BDF81E60002020F041
:104C780069FA1D2800F3BE800123F31AADF8263027
:104C8800BDF82260002020F05DFA1D2800F3BF80E7
:104C980001233344ADF82A301AA80DF065FB2B899F
:104CA800ADF86C30002020F04DFA00EB8000EF28C2
:104CB80000F3C6800123ADF8683009AA1AA9206854
:104CC8000DF07AFB0FA80BF08FFC4FF6FF73ADF8D1
:104CD8004830594B1B680F9320680023009305AB9D
:104CE80007AA0FA90BF0A0FC89E623694FF6FF720B
:104CF8009A8423690222DA8457E7E3685F880020F0
:104D080020F020FAC0EB0010EF2823DC0123FB1A67
:104D18009AB2ADF82230BDF81230D31AADF81E3071
:104D2800002130461CF07EFA85421FD0E3681A88BD
:104D38009B889B1A9BB201331BB2002B2BDB02EB27
:104D480063039AB2ADF82030BDF81030D31AADF82D
:104D58001C3071E7002020F0F5F9C0EB001000F1DD
:104D68005003A02293FBF2F39BB2D0E7E3681A88C2
:104D78009B889B1A9BB20133C3F3C03101FA83F3BA
:104D880002EB6303ADF81C30BDF8102012FA83F370
:104D9800ADF8203050E70133D1E7013227E7501C46
:104DA8002EE7002020F0CEF9C0EB001000F15003F0
:104DB800224A82FB0312DB17C3EBA2139BB232E732
:104DC800002020F0BFF900F10A031C4A82FB0312FD
:104DD800DB17C3EBE2039BB237E7002020F0B2F900
:104DE80000F10A03154A82FB0312DB17C3EBE20347
:104DF8009BB236E7002020F0A5F900F10A030F4A1C
:104E080082FB0312DB17C3EBE2039BB235E70020FA
:104E180020F098F900F10A03084A82FB0312DB1715
:104E2800C3EBE2039BB234E7201C0308486E040876
:104E3800501C0308746E04088404022067666666C2
:104E4800002020F07FF900EB800000F15003044AB5
:104E580082FB0312DB17C3EBA2131BB22BE700BFC5
:104E6800676666662DE9F04F89B00D4617461E46FF
:104E780004F06AFF044642F2D17105F03CFF0121BB
:104E8800204614F055FE204628F008F982462946A7
:104E980028F0BAFD0022A349504609F0EBF9204654
:104EA8001FF002F805460022114609F065FB4FF491
:104EB80000320021284609F05FFB42F264012846CF
:104EC80005F001FF204604F03FFF80460D22114601
:104ED80005F029FF4FF480320021404609F04CFBD1
:104EE800DFF8589200224946404609F0C3F90020ED
:104EF80020F0D8FE01460022404609F0C9FC2046B1
:104F080028F0CCF80590394628F07EFD204604F0BC
:104F18001BFF07460D22114605F005FF4FF48032AE
:104F28000021384609F028FB00224946384609F096
:104F3800A1F9052020F0B6FE01460022384609F006
:104F4800A7FC204628F0AAF80690314628F05CFD18
:104F5800204604F0F9FE06460D22114605F0E3FE50
:104F68004FF480320021304609F006FB0022494602
:104F7800304609F07FF9092020F094FE014600220E
:104F8800304609F085FC204628F088F807901299E9
:104F980028F03AFD644B1B78012B65D0634A6449BD
:104FA800204615F08FFB4FF00109CDF8089000243A
:104FB80001940094022322462146504615F0D2FB64
:104FC800CDF80890CDF8049000940223224621469B
:104FD800284615F0C7FBCDF808904FF0020ACDF827
:104FE80004A000944B4622462146404615F0BAFBE1
:104FF800CDF808904FF00308CDF8048000944B4694
:1050080022462146384615F0ADFBCDF80890042716
:10501800019700944B4622462146304615F0A2FBE4
:10502800CDF80890CDF804A000944B464A46414676
:10503800059815F097FBCDF80890CDF804800094FA
:105048004B464A464146069815F08CFBCDF8089029
:10505800019700944B464A464146079815F082FB53
:10506800284609B0BDE8F08F324A3349204615F08A
:1050780029FB012402944FF00009CDF80490CDF8E3
:10508800009004234A464946504615F06BFB4FF002
:10509800030ACDF808A00194CDF8009023464A46AB
:1050A8004946284615F05EFB02944FF0020BCDF8F6
:1050B80004B0009423465A464946404615F052FB30
:1050C8000294CDF804A0009423465A46494638462F
:1050D80015F048FB029404270197009423465A468A
:1050E8004946304615F03EFB0294CDF804B00094D2
:1050F800234652465146059815F034FB0294CDF8E4
:1051080004A00094234652465146069815F02AFBFF
:10511800029401970094234652465146079815F089
:1051280021FB9DE7C80402207C04022074010020B2
:10513800200100208001002028010020B004022066
:105148002DE9F04385B00C461646994604F0FCFD5F
:1051580005462E4A002109F00FFA42F2D17242F2B6
:105168006401284605F0DFFD294A2A49284615F03A
:10517800A9FA284627F006FD8046214627F00EFDAD
:105188000227029700240194009401232246214615
:10519800404615F0E7FA284627F080FF804631465A
:1051A80028F032FC012602960194009733463A46CD
:1051B8002146404615F0D6FA284627F06FFF80466C
:1051C800494628F021FC22461349404609F052F886
:1051D80002960196009433463A462146404615F019
:1051E800C1FA284627F05AFF80460C9928F00CFC93
:1051F800029601940097334603223946404615F03B
:10520800B1FA284605B0BDE8F08300BFFFFF0F00E4
:105218006C01002034010020C00402202DE9F04F69
:1052280087B00746042114F033FC384604F08CFD9F
:10523800064642F2D17242F2640105F074FD002282
:105248001E21304609F0FCFA304627F027FF824637
:10525800DA4928F0D9FBDA4C00222146504609F0F9
:1052680009F8304627F01AFF8146D64928F0CCFBCA
:105278000022D549484608F0FDFF304627F00EFFCA
:1052880005460490D14928F0BFFB00222146284654
:1052980008F0F0FF304627F001FF04460590CC499E
:1052A80028F0B2FB092020F0FDFC01460022204630
:1052B80009F022FB30461BF09FFCC64C20605023AF
:1052C80003930125029501954FF00608CDF800805B
:1052D80000231A4619461CF00DFC3223039302954D
:1052E80001950725009500231A46022120681CF025
:1052F80001FC022120681BF0BDFE00224146206807
:105308001BF086FC294620681BF0F9FE00231A468C
:10531800B149206802F054F8256828460AF0E0FCF4
:105328000146002228461BF024FF8046AB4D28602A
:10533800D4F800B05A213C2021F058F802B2414676
:1053480058461BF079FFD4F80080D5F800B05A21F0
:105358003C2021F04BF802B2594640461BF06CFF46
:10536800D4F80080D5F800B05A213C2021F03EF84E
:1053780002B2594640461BF05FFFD4F80080D5F8CA
:1053880000B05A213C2021F031F802B2594640467B
:105398001BF052FFD4F80080D5F800B05A213C2009
:1053A80021F024F802B2594640461BF045FFD4F8D4
:1053B8000080D5F800B05A213C2021F017F802B23D
:1053C800594640461BF038FFD4F80080D5F800B0A5
:1053D8005A213C2021F00AF802B2594640461BF0F7
:1053E8002BFFD4F80080D5F800B05A213C2020F0DB
:1053F800FDFF02B2594640461BF01EFFD4F800805C
:10540800D5F800B05A213C2020F0F0FF02B25946EE
:1054180040461BF011FFD4F80080D5F800B05A219F
:105428003C2020F0E3FF02B2594640461BF004FF3F
:10543800D4F80080D5F800B05A213C2020F0D6FFDF
:1054480002B2594640461BF0F7FE24682D685A21DF
:105458003C2020F0CBFF02B2294620461BF0ECFE90
:105468005F4B1B78022B00F0EA80012B00F044818F
:10547800002B00F0A381384604F066FC0446584B24
:105488001B78002B40F0F0814FF4000104F068FC19
:1054980042F26401204605F02EFC0121204614F05A
:1054A800F7FA0121204614F043FB4FF4000120468F
:1054B80004F056FC204627F0F1FD0546494928F03E
:1054C800A3FA00223E49284608F0D4FEDFF84881B6
:1054D800454E464D464B00934346324629462046A4
:1054E800FFF72EFE434B009343463246294620469B
:1054F800FFF726FE404B0093434632462946204696
:10550800FFF71EFE3D4B0093434632462946204690
:10551800FFF716FE3A4B009343463246294620468B
:10552800FFF70EFE384604F00FFC04462C4B1B78A0
:10553800002B40F0A4814FF4000104F011FC42F26A
:105548006401204605F0D7FB0121204614F0A0FA9B
:105558000121204614F0ECFA204627F09FFD05466D
:10556800284928F051FA00221549284608F082FEF9
:10557800204626F0C3F8244926F0CCF8204626F029
:10558800BDF8224926F0C6F8204626F0B7F80546A9
:105598001F4926F0BFF80121284604F059FC20468F
:1055A80026F0ACF805461B4926F0B4F880212846B9
:1055B80004F04EFC204626F0A1F82FE0A86E04085F
:1055C800C8040220B86E0408C0040220C86E04088B
:1055D800D46E04087804022091420008AC0402202A
:1055E8007C040220F06E0408086F0408B01C03084D
:1055F800146F04081C6F0408246F04082C6F040837
:10560800306F0408386F0408486F0408586F04089E
:10561800686F0408786F0408006F040805469D4900
:1056280026F078F88121284604F012FC204626F05E
:1056380065F8994926F06EF807B0BDE8F08F974CE9
:1056480042F264021146206805F06DFB24680020D0
:105658001FF078FDC0EB00104000EF283DDC012171
:105668000022204609F00CF98D4A8E49304615F083
:1056780029F8012502950024019400942B4622461E
:105688002146504615F06EF80295019500942B4678
:1056980022462146484615F065F8029503260196EC
:1056A80000942B4622462146049815F05BF8029593
:1056B8000423019300942B4622462146059815F0B1
:1056C80051F805230293019400962B462A46314649
:1056D8007248006815F046F8CDE600201FF032FD4C
:1056E800C0EB0010430050336F4A82FB0312D917F6
:1056F800C1EBA21109B2B3E7304606F079FC674C5A
:105708002568304605F0F8FB81B2143909B22846FD
:1057180005F0D9FA246800201FF014FDC0EB001032
:105728004000EF283BDC01210022204609F0A8F8C0
:105738005E4A5F49304614F0C5FF012402940025F3
:105748000195009423462A462946504615F00AF842
:10575800029401950094234622462946484615F0AE
:1057680001F802940194009423462A462946049895
:1057780014F0F8FF02940194009423462246294627
:10578800059814F0EFFF029402210191032300937E
:105798000B462A464148006814F0E4FF6BE60020F7
:1057A8001FF0D0FCC0EB0010430050333E4A82FB90
:1057B8000312D917C1EBA21109B2B5E7374D42F26E
:1057C8005F01286805F07FFA2C681FF085FC1FF040
:1057D800A1FC81B2463909B2204605F08CFA0022B4
:1057E8004FF49671286809F003F84FF4007128689F
:1057F8001BF01FFA2F4A3049304614F063FF012688
:1058080002960024019400943346224621465046CD
:1058180014F0A8FF029601960094334622462146CA
:10582800484614F09FFF02964FF00208CDF8048016
:105838000094334622462146049814F093FF0296BA
:10584800032301930094334622462146059814F019
:1058580089FF029604230193009433462246414669
:10586800286814F07FFF06E642F2640105F043FA67
:1058780000224FF49671204608F0BAFF0DE642F276
:10588800640105F038FA00224FF49671204608F0BA
:10589800AFFF59E6846F0408986F04087804022063
:1058A800480000203400002067666666600000201B
:1058B80040000020540000203C00002070B582B059
:1058C80005460E4609F04FF805F0FAFA84B20020B2
:1058D8001FF038FC00EB80008000EF2838DC012343
:1058E800E41A24B26D4B1B78002B6CD100201FF0FA
:1058F80029FC342303FB00F0EF2838DC0123009453
:105908004FF480720021304620F059FD01B228463C
:1059180005F0D9F900201FF015FC00EB80004000CD
:10592800EF2832DC4FF0FF3400201FF00BFC00EBB7
:1059380080004000EF2837DC4FF0FF332246062175
:10594800284605F059FAFF2E00DDFF2600249DE0C9
:1059580000201FF0F7FB00EB800083005033504A13
:1059680082FB0312DB17C3EBA2139BB2B8E700203C
:105978001FF0E8FB342200FB02F25032484981FB59
:105988000231D317C3EBA113B9E700201FF0DAFBEC
:1059980000EB800043005033414A82FB0312DC17BE
:1059A800A4EBA21424B2BFE700201FF0CBFB00EB4E
:1059B8008000430050333A4A82FB0312DB17A3EB03
:1059C800A2131BB2BAE700201FF0BCFBC0EB00100B
:1059D8008000EF2825DC012300944FF48072002119
:1059E800304620F0ECFC01B2284605F06CF90020A6
:1059F8001FF0A8FB00EB80004000EF281FDC4FF0F1
:105A0800FF3400201FF09EFB00EB80004000EF28D1
:105A180024DC4FF0FF3322460621284605F0ECF936
:105A280091E700201FF08EFBC0EB0010820050327F
:105A38001B4981FB0231D317C3EBA113CCE700202C
:105A48001FF080FB00EB800043005033144A82FBB8
:105A58000312DC17A4EBA21424B2D2E700201FF033
:105A680071FB00EB8000430050330D4A82FB0312A8
:105A7800DB17A3EBA2131BB2CDE72146284608F09B
:105A88009DFF0022F1B208F056FF0134284608F0C5
:105A9800AAFFA042F1D802B070BD00BF7C0402206A
:105AA8006766666670B592B0054601F06DFC0446FF
:105AB800284601F065FC0E2C03D0072C26D012B026
:105AC80070BD08F050FF054605F0FAF904461FF0CE
