:020000040800F2
:10000000A0160020111D0008990200089B0200089C
:100010009F020008A3020008A702000800000000D9
:10002000000000000000000000000000AB0200081B
:10003000AD02000800000000AF020008B102000895
:100040002B1D00082B1D00082B1D00082B1D000870
:100050002B1D00082B1D00082B1D00082B1D000860
:100060002B1D00082B1D00082B1D00082B1D000850
:100070002B1D00082B1D00082B1D00082B1D000840
:100080002B1D00082B1D00082B1D00082B1D000830
:100090002B1D00082B1D00082B1D00082B1D000820
:1000A0002B1D00082B1D00082B1D00082B1D000810
:1000B000D92A00082B1D00082B1D00082B1D000845
:1000C0002B1D00082B1D00082B1D00082B1D0008F0
:1000D0002B1D00082B1D00082B1D00082B1D0008E0
:1000E0002B1D00082B1D00082B1D00082B1D0008D0
:1000F0002B1D00082B1D00082B1D00082B1D0008C0
:100100002B1D00082B1D00082B1D00082B1D0008AF
:100110002B1D00082B1D00082B1D00082B1D00089F
:100120002B1D00082B1D00082B1D00082B1D00088F
:1001300000F002F800F03CF80AA090E8000C8244BD
:100140008344AAF10107DA4501D100F031F8AFF29A
:10015000090EBAE80F0013F0010F18BFFB1A43F0A5
:10016000010318476436000084360000103A24BFAB
:1001700078C878C1FAD8520724BF30C830C144BF0C
:1001800004680C607047000000230024002500264E
:10019000103A28BF78C1FBD8520728BF30C148BFEA
:1001A0000B6070471FB503F000F81FBD10B510BD00
:1001B00002F0C1FF1146FFF7F5FF00F009F802F069
:1001C000DFFF03B4FFF7F2FF03BC02F0E7FF00001C
:1001D00008B501F0BDFD4FF4A06000F04FF902F04A
:1001E00099F902F001FC01F045FF02F03DFA02F03E
:1001F00019FC002001F071FE4FF6FF7002F068FD5F
:100200004FF6FF7002F064FD4FF6FF70002314A25A
:1002100019460090184602F0CAFE4FF6FF701F23E1
:1002200012A21E210090002002F0C1FE4FF6FF70C6
:100230001F2316A250210090002002F0B8FE0DE00E
:1002400002F00AFD04464CB14FF6FF704FF47843BC
:10025000224650210090582002F037FFF0E70000BE
:10026000483138333820746573740000506C656110
:10027000736520746F7563682072656D6F74652097
:10028000636F6E74726F6C2100000000546865200B
:100290004465636F64653A00704700BFFEE700BFC6
:1002A000FEE700BFFEE700BFFEE7704770477047FC
:1002B0007047000000210020674A126842F4803233
:1002C000654B1A6000BF644A126802F40030491C92
:1002D00010B9B1F5A06FF6D15F4A126812F4003F71
:1002E00001D0012000E00020012842D15B4A1268C1
:1002F00042F01002594B1A601A46126822F00302AB
:100300001A601A46126842F002021A60524A526893
:10031000514B5A601A4652685A601A46526842F463
:1003200080625A601A46526822F47C125A601A4659
:10033000526842F4E8125A601A46126842F080721B
:100340001A6000BF444A126812F0007FFAD0424A95
:10035000526822F00302404B5A601A46526842F03B
:1003600002025A6000BF3C4A526802F00C02082A9E
:10037000F9D1704710B5FFF79DFF10BD10B5364895
:10038000006840F00100344908600846406834497C
:1003900008403149486008460068324908402E4903
:1003A00008600846006820F480200860084640681D
:1003B00020F4FE0048604FF41F008860FFF7DAFF6A
:1003C0004FF000602849086010BD10B500210020E2
:1003D0000022214B5B6803F00C0121B1042906D0F7
:1003E000082928D107E0214B214C236027E01F4B2F
:1003F0001F4C236023E0184B5B6803F47010164B0E
:100400005B6803F48032022303EB904022B9194B5E
:100410004343174C23600DE00F4B5B6813F4003F20
:1004200004D0144B4343124C236003E00F4B43436F
:100430000F4C236003E00D4B0D4C236000BF00BF49
:10044000054B5B68C3F303130B4CE15C084B1B6863
:10045000CB40074C236010BD00100240002002403A
:100460000000FFF8FFFFF6FE08ED00E000127A0042
:100470000000002000093D00040000203149014334
:10048000314A1160704770B5002100230F22C478F3
:100490000CB32D4C246804F4E064C4F5E064210A34
:1004A000C1F10403CA40447804FA03F1847814408B
:1004B00021430901254C0678A155047804F01F0555
:1004C0000124AC4005786D114FF0E02606EB850560
:1004D000C5F8004109E0047804F01F050124AC4090
:1004E0001B4D0678761145F8264070BD194A0A4022
:1004F0000243154B1B1F1A60704739B1124A121D77
:1005000012680243104B1B1D1A6006E00E4A121DB2
:10051000126882430C4B1B1D1A607047042808D1D7
:100520004FF0E021096941F004014FF0E022116130
:1005300007E04FF0E021096921F004014FF0E022CB
:10054000116170470000FA050CED00E000E400E0E6
:1005500080E100E080FFFF1F10B50446CA488442D6
:1005600008D10121042000F025FB0021042000F027
:1005700021FB46E0C548844208D10121082000F053
:1005800019FB0021082000F015FB3AE0C048844226
:1005900008D10121102000F00DFB0021102000F0F7
:1005A00009FB2EE0BB48844208D10121202000F045
:1005B00001FB0021202000F0FDFA22E0B648844231
:1005C00008D10121402000F0F5FA0021402000F080
:1005D000F1FA16E0B148844208D10121802000F0F0
:1005E000E9FA0021802000F0E5FA0AE0AC488442F4
:1005F00007D10121801500F0DDFA0021A01500F0DF
:10060000D9FA10BD10B50121084600F0D3FA002137
:10061000012000F0CFFA10BD2DE9F041024600257F
:100620000026002000230024002791F803C00CF0CE
:100630000F0591F803C01CF0100F03D091F802C011
:100640004CEA0505B1F800C01CF0FF0F31D014686A
:1006500000202BE04FF0010C0CFA00F3B1F800C0C1
:100660000CEA03069E4220D183004FF00F0C0CFAD7
:1006700003F7BC4305FA03FC4CEA040491F803C0F9
:10068000BCF1280F06D14FF0010C0CFA00FCC2F8A7
:1006900014C00AE091F803C0BCF1480F05D14FF037
:1006A000010C0CFA00FCC2F810C0401C0828D1D381
:1006B0001460B1F800C0BCF1FF0F34DD54680020B5
:1006C0002EE000F1080C4FF0010808FA0CF3B1F825
:1006D00000C00CEA03069E4221D183004FF00F0CAC
:1006E0000CFA03F7BC4305FA03FC4CEA040491F846
:1006F00003C0BCF1280F05D100F1080C08FA0CF872
:10070000C2F8148091F803C0BCF1480F07D100F182
:10071000080C4FF0010808FA0CF8C2F81080401CD1
:100720000828CED35460BDE8F0814FF6FF710180F8
:10073000022181700421C170704702460020936835
:100740000B4201D0012000E000207047014688687C
:1007500080B2704702460020D3680B4201D00120CE
:1007600000E0002070470146C86880B27047016110
:100770007047416170470AB1016100E04161704713
:10078000C16070474FF480320A43826181618261A7
:1007900082698269704702460020424B18684FF612
:1007A0008073184040EA021008433E4B18607047BF
:1007B0003D49C8617047F0B50A4600230024002176
:1007C000002500F00046B6F1004F02D1354EF16928
:1007D00001E0344E7168C0F3034583B200F4401663
:1007E000B6F5401F08D121F070612E4E766826F0D4
:1007F00070662C4F7E6012E000F48016B6F5801F04
:1008000006D1032606FA05F4A14341F0706106E023
:10081000460D360103FA06F6B14341F0706122B18C
:10082000460D360103FA06F6314300F00046B6F1F4
:10083000004F02D11B4EF16101E01A4E7160F0BD14
:1008400030B500228B071C0F0F2303FA04F2154B5F
:1008500008338C1053F824309343124C08348D1015
:1008600044F8253023468C1053F824308C07240F8D
:1008700000FA04F423430B4C08348D1044F825305F
:1008800030BD0A490860704700080140000C014073
:10089000001001400014014000180140001C0140FC
:1008A000002001400000014000002042DC00204206
:1008B000DC48006840F00100DA49086008464068FA
:1008C000D9490840D749486008460068D7490840D8
:1008D000D44908600846006820F480200860084673
:1008E000406820F4FE0048604FF41F0088607047A5
:1008F000CC49096821F48031CA4A1160114609685F
:1009000021F480211160B0F5803F03D0B0F5802F35
:100910000ED106E0C349096841F48031C14A116033
:1009200007E0C049096841F4A021BE4A116000E017
:1009300000BF00BF704710B5014600220023002011
:100940004A11012A02D1B74C236806E0022A02D1DB
:10095000B44C236A01E0B34C636A01F01F02012426
:1009600094401C4201D0012000E0002010BD70B571
:1009700000240025002600BF3120FFF7DCFF0646DB
:10098000641CB4F5A06F01D0002EF5D03120FFF724
:10099000D2FF08B1012500E00025284670BD0146C0
:1009A0000020A04A106820F0F80040EAC100106062
:1009B00070479F490860704702460020994B58686D
:1009C00020F47C1042EA01031843964B58607047AC
:1009D00097490866704701460020924A506820F007
:1009E00003000843506070478E48406800F00C00D8
:1009F0007047014600208B4A506820F0F000084301
:100A00005060704701460020864A506820F4E0603C
:100A100008435060704701460020824A506820F425
:100A2000605040EAC1005060704729B17D4A527A57
:100A300002437C4B5A7206E07A4A527AC343DBB2D5
:100A40001A40784B5A7270477A49086070470146DD
:100A50000020744A506820F44040084350607047BA
:100A60000021754A11706F4A82F82010012802D0C7
:100A7000042808D103E001216F4A117004E0052128
:100A80006D4A117000E000BF00BF70476B490860FD
:100A900070476449096A0143624A116270476749B5
:100AA00044390860704730B500210022002400233B
:100AB0005C4D6D6805F00C0121B1042905D00829B1
:100AC00023D105E05E4D056022E05D4D05601FE02D
:100AD000544D6D6805F47012524D6D6805F4803404
:100AE000022505EB92421CB9564D554305600BE0BB
:100AF0004C4D6D6815F4003F03D0524D55430560D1
:100B000002E04F4D5543056002E04D4D056000BFCA
:100B100000BF444D6D6805F0F00109094A4D6B5C5A
:100B20000568DD4045603F4D6D6805F4E061090AE8
:100B3000454D6B5C4568DD4085603A4D6D6805F458
:100B40006051C90A404D6B5C4568DD40C560354D5C
:100B50006D6805F44041890B3C4D6B5CC568B5FB85
:100B6000F3F5056130BD29B12E4A526902432D4B80
:100B70005A6104E02B4A526982432A4B5A617047FA
:100B800029B1284A92690243264B9A6104E0254A1A
:100B900092698243234B9A61704729B1214AD269F5
:100BA0000243204BDA6104E01E4AD26982431D4BA6
:100BB000DA61704729B11B4AD2680243194BDA60E7
:100BC00004E0184AD2688243164BDA60704729B1B4
:100BD000144A12690243134B1A6104E0114A126964
:100BE0008243104B1A6170471449403908607047BE
:100BF0000F49C86470470B49C87170470948406A7B
:100C000040F0807007494862704701460020054A5D
:100C100092680A4201D0012000E00020704701499B
:100C200088727047001002400000FFF8FFFFF6FED8
:100C300000004242D800424220100240800442425A
:100C400000127A0000093D0014000020240000205A
:100C500010B50446BF48844208D101218014FFF733
:100C6000A9FF0021A014FFF7A5FF16E0BA488442AF
:100C700008D101210014FFF7AAFF00212014FFF77B
:100C8000A6FF0AE0B548844207D10121C013FFF74F
:100C90009EFF0021E013FFF79AFF10BD10B5002260
:100CA000028802F441520B884C8823438C882343EA
:100CB000CC8823430C8923434C8923438C892343C9
:100CC000CC8923431A430280838B4FF2FF74234065
:100CD00083830B8A038210BD2DE9F04F85B0054652
:100CE0000C464FF0000902274FF000084FF0010BAF
:100CF0000026B246A88B4FF240010840A88302208C
:100D00002884B5F81C90A068022801D100BF36E005
:100D1000A08810B94FF0010B01E04FF0020B8E4894
:100D2000854200D100E000BF6846FFF7BCFEDDF859
:100D300000A0E088B0F5007F0AD14FEA1A2000EB4E
:100D400080004000A168B0FBF1F0401D86B20BE0CE
:100D50004FEA4B10BAFBF0F000EB80004000A168B6
:100D6000B0FBF1F0401D86B20A20B6FBF0F606F0AB
:100D70000108A6EB0800C0F34F074FEA0828022F2E
:100D800001DBFF2F02DD02274FF00008E08840EA78
:100D9000080038432884A088A18908436188084353
:100DA0002188084340F4006040EA0909A5F81C9036
:100DB00005B0BDE8F08F0021018041808180C180B5
:100DC000018141818181C181072101827047002118
:100DD000018041808180C180022181600021818168
:100DE000704721B1028842F04002028004E002888C
:100DF0004FF6BF731A400280704721B1828B42F4D4
:100E00008062828304E0828B4FF6FF331A40828334
:100E1000704770B5002400230C110125A540ABB22A
:100E20001AB185881D43858004E08588DE43B6B20B
:100E30003540858070BD10B51AB183880B4383801F
:100E400004E08388CC43A4B22340838010BD818119
:100E50007047014688897047A1F57E42FF3A04D069
:100E6000028842F48072028004E002884FF6FF6339
:100E70001A400280704721B1828842F004028280C9
:100E800004E082884FF6FB731A4082807047028824
:100E90004FF2FF731A40028002880A4302807047B3
:100EA000018841F480510180704721B1028842F4E9
:100EB0000052028004E002884DF6FF731A4002805F
:100EC000704702460020012901D0108B00E0908A73
:100ED00070470146088A7047B1F5804F04D10288F7
:100EE00042F48042028004E002884BF6FF731A400D
:100EF000028070470246002013890B4201D0012076
:100F000000E000207047CA4302817047F0B50246F6
:100F1000002000240023002501F00F070126BE4019
:100F2000B4B20B1101269E40B3B2968806EA0305BF
:100F30001689264202D00DB1012000E00020F0BD4C
:100F400010B5002201F00F040123A3409AB2D3434D
:100F5000038110BD0030014000380040003C0040DB
:100F600010B50446FE48844208D10121C014FFF7A1
:100F700021FE0021E014FFF71DFEC4E0B4F1804F14
:100F800008D101210846FFF722FE00210120FFF7CA
:100F90001EFEB8E0F348844208D101210220FFF789
:100FA00016FE00210220FFF712FEACE0EE4884425C
:100FB00008D101210420FFF70AFE00210420FFF7D9
:100FC00006FEA0E0E948844208D101210820FFF78D
:100FD000FEFD00210820FFF7FAFD94E0E44884427A
:100FE00008D101211020FFF7F2FD00211020FFF7AA
:100FF000EEFD88E0DF48844208D101212020FFF780
:10100000E6FD00212020FFF7E2FD7CE0DA48844283
:1010100008D101214014FFF7CDFD00216014FFF736
:10102000C9FD70E0D548844209D10121C804FFF709
:10103000C1FD00214FF40020FFF7BCFD63E0D04864
:10104000844209D101210805FFF7B4FD00214FF4C6
:101050008010FFF7AFFD56E0CA48844209D1012154
:101060004805FFF7A7FD00214FF40010FFF7A2FD90
:1010700049E0C548844208D101214020FFF7A7FD7F
:1010800000214020FFF7A3FD3DE0C048844208D185
:1010900001218020FFF79BFD00218020FFF797FDB5
:1010A00031E0BB48844208D101218015FFF78FFD54
:1010B0000021A015FFF78BFD25E0B648844209D139
:1010C00001210804FFF776FD00214FF48030FFF77F
:1010D00071FD18E0B048844209D101214804FFF7AE
:1010E00069FD00214FF40030FFF764FD0BE0AB48D1
:1010F000844208D101218804FFF75CFD00214FF4F0
:101100008020FFF757FD10BD00220288944B9842C3
:101110000ED0994B98420BD0B0F1804F08D0914B34
:10112000984205D0904B984202D0904B984204D1FF
:101130004FF68F731A404B881A438D4B984207D055
:101140008C4B984204D04FF6FF431A40CB881A4389
:1011500002808B8883850B880385814B98420BD056
:10116000854B984208D08B4B984205D08A4B9842C9
:1011700002D08A4B984201D10B7A038601238382E5
:10118000704770B5002400220023058C4FF6FE76D0
:1011900035400584028C8388048B4FF68F752C4074
:1011A000B51E2C400D882C43751E2A400D892A43FC
:1011B0004D882A436A4DA8420BD06F4DA84208D0F3
:1011C000744DA84205D0744DA84202D0734DA84278
:1011D00013D14FF6F7752A404D892A434FF6FB7518
:1011E0002A408D882A434FF6FF652B404FF6FF5566
:1011F0002B408D892B43CD892B4383800483CD885D
:101200008586028470BD70B5002400220023058C01
:101210004FF6EF7635400584028C8388048B48F6C0
:10122000FF752C404FF6FF452C400D882D0644EAF3
:1012300015444FF6DF752A400D892D0542EA154207
:101240004D882D0542EA1542454DA84202D04A4D2F
:10125000A8421BD14FF67F752A404D892D0542EAE1
:1012600015424FF6BF752A408D882D0542EA15427A
:101270004FF6FF352B404FF2FF752B408D89AD04A3
:1012800043EA1543CD89AD0443EA154383800483C3
:10129000CD880587028470BD70B50024002200232C
:1012A000058C4FF6FF6635400584028C8388848B5D
:1012B0004FF68F752C404FF6FC752C400D882C4353
:1012C0004FF6FF552A400D892D0642EA15424D88FA
:1012D0002D0642EA1542224DA84202D0264DA842D0
:1012E0001BD14FF2FF752A404D892D0642EA154267
:1012F0004FF6FF352A408D882D0642EA15424EF6FC
:10130000FF752B404DF6FF752B408D892D0543EA67
:101310001543CD892D0543EA154383808483CD8809
:101320008587028470BD70B5002200230024058CDF
:101330004EF6FF7635400584038C8488828B48F610
:10134000FF752A404FF6FF452A400D882D0642EAD8
:1013500015424DF6FF752B400D892D0720E000004A
:10136000002C01400004004000080040000C004038
:10137000001000400014004000340140004C0140C7
:10138000005001400054014000180040001C004083
:10139000002000400040014000440140004801405E
:1013A00043EA15434D882D0743EA1543F84DA842FB
:1013B00002D0F84DA84206D14BF6FF752C408D891E
:1013C000AD0544EA154484808283CD88A0F840505E
:1013D000038470BD828B4FF2FF331A408283828B6D
:1013E0000B0642EA134282837047F0B50C4615465D
:1013F000002200210026078C4EF6FF7C07EA0C072E
:101400000784828B018C27073E0C40F6FF473A4049
:101410002F0642EA17421F0742EA1742DC4FB84242
:101420000ED0DC4FB8420BD0B0F1804F08D0DA4F6D
:10143000B84205D0D94FB84202D0D94FB84206D1F0
:101440004DF6FF77394046F48057394305E047F6BB
:10145000FF57394044F48057394382830184F0BDFB
:10146000828B4FF6F3731A408283828B0A43828306
:101470007047F0B50C461546002200210026078C67
:101480004FF6FF6C07EA0C070784828B018C270656
:101490003E0C4FF60C773A401F0545EA17473A4392
:1014A000BB4FB8420ED0BB4FB8420BD0B0F1804F0B
:1014B00008D0B94FB84205D0B84FB84202D0B84FA3
:1014C000B84206D14FF6FF57394046F4807739438A
:1014D00005E04FF2FF57394044F480773943828367
:1014E0000184F0BD028B4FF2FF331A400283028B5E
:1014F0000B0642EA134202837047F0B50C461546CC
:10150000002200210026078C4FF6EF7C07EA0C072B
:101510000784028B018C27053E0C40F6FF473A40BA
:101520001F0742EA17422F0642EA1742984FB84275
:101530000ED0984FB8420BD0B0F1804F08D0964FE4
:10154000B84205D0954FB84202D0954FB84206D167
:101550004FF6DF77394046F01007394305E04FF684
:101560005F77394044F01007394302830184F0BDAE
:10157000028B4FF6F3731A400283028B0A430283F5
:101580007047F0B50C46154600220021068C4FF638
:10159000FE773E400684028B018C4FF60C7632407B
:1015A0001E0545EA16463243794EB0420ED0794EBA
:1015B000B0420BD0B0F1804F08D0774EB04205D08A
:1015C000764EB04202D0764EB04206D14FF6FD764E
:1015D000314044F00106314305E04FF6F5763140E5
:1015E00044F00106314302830184F0BD70B5054625
:1015F0000C46674885420ED0664885420BD0B5F14F
:10160000804F08D06448854205D06448854202D0A6
:101610006348854200D100E000BF208850B923898B
:10162000A28861882846FFF7ACFFE1882846FFF7CB
:101630009FFF25E0208804280AD12389A288618899
:101640002846FFF75AFFE1882846FFF74BFF17E0CF
:10165000208808280AD12389A28861882846FFF7B4
:1016600008FFE1882846FFF7FBFE09E02389A288EE
:1016700061882846FFF7B9FEE1882846FFF7AAFEF1
:1016800070BD2DE9F04105460C4600260127608813
:1016900008B9022600E00026A088012801D102270F
:1016A00000E001272088A0B92389A2886188284604
:1016B000FFF767FFE1882846FFF75AFF23893A467C
:1016C00031462846FFF719FFE1882846FFF70AFF51
:1016D00013E02389A28861882846FFF70EFFE1887E
:1016E0002846FFF7FFFE23893A4631462846FFF792
:1016F00048FFE1882846FFF73BFFBDE8F0810A88F4
:101700004B881A438B881A43CB881A430B891A4398
:101710004B891A438B891A43A0F8442070474FF62F
:10172000FF71818000210180C1804180017270477A
:101730000021018041808180C180018141818181BE
:10174000C1817047002101804180012181800021F9
:10175000C180018170470021018041808180C1806A
:10176000018141818181704721B1028842F00102EB
:10177000028004E002884FF6FE731A400280704730
:1017800081B1B0F8442042F40042A0F844200FE0B8
:10179000002C0140003401400004004000080040DB
:1017A000000C0040B0F84420C2F30E02A0F8442020
:1017B000704710B51AB183890B43838104E0838994
:1017C000CC43A4B22340838110BD8182704741EA9B
:1017D0000203A0F84830704710B51AB183890B4353
:1017E000838104E08389CC43A4B22340838110BD6C
:1017F00001894FF6F8721140018170470A460021B5
:1018000001894FF68F73194011430181704730B53C
:1018100004460D4629462046FFF7F0FF208940F098
:101820000700208130BD2DE9F04104460D461646E3
:101830001F46602D06D13B46012231462046FFF768
:101840005CFE05E03B46012231462046FFF799FE4B
:1018500029462046FFF7D2FF208940F0070020816B
:10186000BDE8F08130B50C4600210189C9B21D06E2
:1018700042EA154525432943018130BD2DE9F04158
:1018800005460E4617469846002443463A463146DA
:101890002846FFF7E7FF2C894FF6F870044044F024
:1018A00007044FF68F70044044F070042C81BDE8AB
:1018B000F081F0B504460D4616461F463B463246BB
:1018C00029462046FFF7CEFF208940F48040208142
:1018D000F0BD0185828270470A46002101884FF6DB
:1018E0008F731940114301807047F0B50C461546BF
:1018F0001E460021002200230189028B038C4FF633
:10190000F877394021434FF6FC473A4040F201173F
:101910003A434FF6DD773B40370545EA17473B43EF
:10192000018102830384F0BD0A460021018B4FF63A
:101930008F7319401143018370470A460021018BC0
:1019400048F6FF731940130641EA134101837047BB
:101950000A460021818B4FF68F7319401143818312
:1019600070470A460021818B48F6FF731940130621
:1019700041EA13418183704721B1028842F080021D
:10198000028004E002884FF67F731A40028070479D
:1019900021B1828842F00402828004E082884FF6FE
:1019A000FB731A408280704721B1828842F008029E
:1019B000828004E082884FF6F7731A408280704775
:1019C00021B1828842F00102828004E082884FF6D1
:1019D000FE731A40828070470A460021018B4FF641
:1019E000F77319401143018370470A460021018BA8
:1019F0004FF2FF731940130641EA13410183704708
:101A00000A460021818B4FF6F773194011438183F9
:101A100070470A460021818B4FF2FF73194013066D
:101A200041EA1341818370470A460021018B4FF63A
:101A3000FB7319401143018370470A460021018B53
:101A40004FF6FF331940130641EA134101837047F3
:101A50000A460021818B4FF6FB73194011438183A5
:101A600070470A460021818B4FF6FF331940130659
:101A700041EA1341818370470A460021018B4FF6EA
:101A80007F7319401143018370470A460021018B7F
:101A9000C1F30E01130641EA1341018370470A4660
:101AA0000021818B4FF67F7319401143818370476A
:101AB0000A460021818BC1F30E01130641EA13414E
:101AC000818370470A460021018C4FF6FD7319404F
:101AD0001143018470470A460021018C4FF6F773C9
:101AE00019401143018470470A460021018C4FF6CA
:101AF000DF731940130541EA1341018470470A4618
:101B00000021018C4FF67F731940130541EA134100
:101B1000018470470A460021018C4FF6FF5319409B
:101B2000130641EA1341018470470A460021018CE3
:101B30004FF2FF731940130641EA134101847047C5
:101B40000A460021018C4DF6FF731940130741EA44
:101B500013410184704730B5002301248C40A3B2A7
:101B6000048CDD43ADB22C400484048C02FA01F5F0
:101B7000ADB22C43048430BD30B5002304248C4026
:101B8000A3B2048CDD43ADB22C400484048C02FA71
:101B900001F5ADB22C43048430BD70B5034600207E
:101BA00000241846183001258D40ACB21D8CE64348
:101BB000B6B235401D8409B1082909D100EB610096
:101BC000056825F0700505600568154305600CE0A3
:101BD0000D1FADB200EB6500056825F4E04505601A
:101BE0000568160645EA1645056070BD21B10288F4
:101BF00042F00202028004E002884FF6FD731A40B0
:101C00000280704721B1028842F00402028004E0A1
:101C100002884FF6FB731A400280704721B1828818
:101C200042F08002828004E082884FF67F731A407F
:101C30008280704702884FF6F7731A40028002884C
:101C40000A430280704782884FF68F731A40828061
:101C500082880A438280704702894FF6F8731A40DF
:101C6000028102890A430281704702894FF67F731D
:101C70001A40028102890A430281704781847047B9
:101C800081857047818670470187704781877047DB
:101C9000A0F84010704702884FF6FF431A400280B8
:101CA00002880A43028070470146888E70470146C9
:101CB000088F70470146888F70470146B1F8400091
:101CC00070470146888C70470146088D7047024670
:101CD0000020138A0B4201D0012000E00020704751
:101CE000CA430282704730B5024600200023002418
:101CF000158A05EA0103958905EA010413B10CB1BF
:101D0000012000E0002030BDCA430282704700007D
:101D10000948804709480047FEE7FEE7FEE7FEE77F
:101D2000FEE7FEE7FEE7FEE7FEE7FEE704480549BB
:101D3000054A064B704700007D030008310100088A
:101D4000A0100020A0160020A0120020A012002049
:101D500010B56FF00400FEF7E1FB2A4800682A493D
:101D6000B0FBF1F029490870084600784FF47A7109
:101D700048432749088010BD0146244A12784A4347
:101D80004FF0E0235A6100229A611A46126942F02C
:101D900001021A6100BF4FF0E022106910F0010F3C
:101DA00002D010F4803FF6D04FF0E022126922F00A
:101DB00001024FF0E0231A6100229A617047014648
:101DC000134A12884A434FF0E0235A6100229A6175
:101DD0001A46126942F001021A6100BF4FF0E02278
:101DE000106910F0010F02D010F4803FF6D04FF0D0
:101DF000E022126922F001024FF0E0231A61002272
:101E00009A6170470000002000127A00280000202C
:101E10002A00002008B501210846FEF7B1FE012185
:101E2000FE48FEF7C8FC01211C20FEF7A9FE4FF674
:101E3000FF70ADF8000010208DF8030003208DF82E
:101E400002006946F648FEF7E7FB4FF4E060ADF8A4
:101E500000006946F348FEF7DFFB4FF40040ADF8A1
:101E600000006946F048FEF7D7FB08BD012806D1FF
:101E7000EC49096941F40071EA4A116106E028B9A8
:101E8000E849496941F40071E64A51617047012807
:101E900006D1E449096941F48061E24A116106E032
:101EA00028B9E049496941F48061DE4A51617047CF
:101EB000012808D1DC491031096841F40041DA4AAF
:101EC0001032116008E038B9D7491431096841F47B
:101ED0000041D54A143211607047012806D1D1491A
:101EE000096941F48071CF4A116106E028B9CD49F2
:101EF000496941F48071CB4A516170474FF6FF71D7
:101F0000C74A14321160111F0860704700B50346BC
:101F10000020FFF7ABFF1846FFF7F0FF0020FFF7A8
:101F2000B6FF0120FFF7B3FF00BD00B50346012057
:101F3000FFF79CFF1846FFF7E1FF0020FFF7A7FF20
:101F40000120FFF7A4FF00BD30B505460C4628462A
:101F5000FFF7DCFF2046FFF7E8FF30BD70B5044611
:101F60002046FFF7D3FF4FF08830AD490860091DC8
:101F700008604FF6FF70AA490C3108600120FFF796
:101F800075FF0020FFF794FF0520FFF7F5FE012005
:101F9000FFF78EFFA2480830006885B24FF033305B
:101FA0009F490860091D08604FF6FF709C490C317D
:101FB0000860284670BD2DE9F04307460C461546DB
:101FC0001E46DDE9078999480088A0F510516D3952
:101FD00027D15020FFF79AFF3846FFF7A6FF512080
:101FE000FFF794FF2846FFF7A0FF5220FFF78EFF70
:101FF0002046FFF79AFF5320FFF788FF3046FFF790
:1020000094FF2020FFF782FF4046FFF78EFF21203C
:10201000FFF77CFF4846FFF788FF2220FFF776FF97
:1020200026E082480088A0F510517D3920D12A2071
:10203000FFF76CFF3812FFF778FFF8B2FFF775FF74
:102040002812FFF772FFE8B2FFF76FFF2B20FFF7B0
:102050005DFF2012FFF769FFE0B2FFF766FF301265
:10206000FFF763FFF0B2FFF760FF2C20FFF74EFF92
:10207000BDE8F08310B5FFF7CDFE0120FFF72DFF7F
:102080000120FFF715FF0120FFF701FF0520FFF7F3
:1020900096FE0020FFF721FF3220FFF790FE01217E
:1020A0000020FFF751FF3220FFF789FE0020FFF7E5
:1020B00055FF5E49088008460088A0F51341253980
:1020C00011D05A480088A0F5134128390BD0574841
:1020D0000088A0F513413D3905D054480088A0F58B
:1020E000134120397DD142F26D40504908804FF4B0
:1020F00080710120FFF728FF4FF4E0610220FFF715
:1021000023FF41F230010320FFF71EFF00210420CE
:10211000FFF71AFF40F202210820FFF715FF002108
:102120000920FFF711FF00210A20FFF70DFF002112
:102130000C20FFF709FF00210D20FFF705FF00210C
:102140000F20FFF701FF00211020FFF7FDFE072100
:102150001120FFF7F9FE00211220FFF7F5FE002104
:102160001320FFF7F1FE01210720FFF7EDFE3220DB
:10217000FFF725FE41F290611020FFF7E5FE40F2E7
:1021800027211120FFF7E0FE3220FFF718FE9D21E6
:102190001220FFF7D9FE3220FFF711FE4FF4C8518D
:1021A0001320FFF7D1FE3220FFF709FE2521292059
:1021B000FFF7CAFE0D212B20FFF7C6FE3220FFF7E6
:1021C000FEFD00212020FFF7BFFE00212120FFF7A8
:1021D000BBFE3220FFF7F3FD07213020FFF7B4FEEE
:1021E00000E07CE040F203313120FFF7ADFE032137
:1021F0003220FFF7A9FE40F206213520FFF7A4FEAA
:1022000008213620FFF7A0FE40F206413720FFF7F5
:102210009BFE4FF4417138200AE0000000023000BC
:10222000000C014000100140000801402C0000207B
:10223000FFF78AFE07213920FFF786FE40F2016191
:102240003C20FFF781FE08213D20FFF77DFE0021A5
:102250005020FFF779FEEF215120FFF775FE002196
:102260005220FFF771FE40F23F115320FFF76CFE42
:102270004FF427416020FFF767FE01216120FFF73F
:1022800063FE00216A20FFF75FFE00218020FFF738
:102290005BFE00218120FFF757FE00218220FFF71F
:1022A00053FE00218320FFF74FFE00218420FFF71B
:1022B0004BFE00218520FFF747FE10219020FFF7FD
:1022C00043FE4FF4C0619220FFF73EFE40F233110F
:1022D0000720FFF739FE2220FFF718FE17E142F230
:1022E0007D408B490880CF20FFF710FE0020FFF7CC
:1022F0001CFEC120FFF719FE3020FFF716FEED206F
:10230000FFF704FE6420FFF710FE0320FFF70DFE29
:102310001220FFF70AFE8120FFF707FEE820FFF7F3
:10232000F5FD8520FFF701FE1020FFF7FEFD7A2066
:10233000FFF7FBFDCB20FFF7E9FD3920FFF7F5FDA7
:102340002C20FFF7F2FD0020FFF7EFFD3420FFF710
:10235000ECFD0220FFF7E9FDF720FFF7D7FD202075
:10236000FFF7E3FDEA20FFF7D1FD0020FFF7DDFDD9
:102370000020FFF7DAFDC020FFF7C8FD1B20FFF7A4
:10238000D4FDC120FFF7C2FD0120FFF7CEFDC5201F
:10239000FFF7BCFD3020FFF7C8FD3020FFF7C5FD7B
:1023A000C720FFF7B3FDB720FFF7BFFD3620FFF7CB
:1023B000ADFD0820FFF7B9FD3A20FFF7A7FD552036
:1023C000FFF7B3FDB120FFF7A1FD0020FFF7ADFD42
:1023D0001A20FFF7AAFDB620FFF798FD0A20FFF7A5
:1023E000A4FDA220FFF7A1FDF220FFF78FFD002042
:1023F000FFF79BFD2620FFF789FD0120FFF795FDE4
:10240000E020FFF783FD0F20FFF78FFD2A20FFF765
:102410008CFD2820FFF789FD0820FFF786FD0E20A0
:10242000FFF783FD0820FFF780FD5420FFF77DFDB7
:10243000A920FFF77AFD4320FFF777FD0A20FFF779
:1024400074FD0F20FFF771FD0020FFF76EFD0020E7
:10245000FFF76BFD0020FFF768FD0020FFF765FD2B
:10246000E120FFF753FD0020FFF75FFD1520FFF788
:102470005CFD1720FFF759FD0720FFF756FD1120DF
:10248000FFF753FD0620FFF750FD2B20FFF74DFD12
:102490005620FFF74AFD3C20FFF747FD0520FFF7D8
:1024A00044FD1020FFF741FD0F20FFF73EFD3F20C8
:1024B000FFF73BFD3F20FFF738FD0F20FFF735FD0D
:1024C0002B20FFF723FD0020FFF72FFD0020FFF753
:1024D0002CFD0120FFF729FD3F20FFF726FD2A20D4
:1024E000FFF714FD0020FFF720FD0020FFF71DFD82
:1024F0000020FFF71AFDEF20FFF717FD1120FFF76F
:1025000005FD7820FFF75BFC2920FFF7FFFC10BDDD
:102510002C00002008B501210420FEF731FB022029
:10252000ADF8000010208DF8030003208DF80200A4
:1025300069460B48FEF770F802210948FEF717F9C3
:1025400008BD10B50446012C04D102210448FEF751
:1025500010F903E002210248FEF709F910BD00005E
:102560000008014070B50546002405E0601CC4B2B7
:10257000C82C01DD002070BD02213948FEF7BAFCED
:102580000028F3D029463648FEF761FC002405E018
:10259000601CC4B2C82C01DD0020ECE701213048EA
:1025A000FEF7A8FC0028F3D02D48FEF752FCC0B27D
:1025B000E1E700B587B001210420FEF7E1FA01212F
:1025C0000803FEF7DDFAE020ADF8180018208DF8BA
:1025D0001B0003208DF81A0006A92248FEF71CF8FC
:1025E000E0212048FEF7C3F80020ADF804004FF4C6
:1025F0008270ADF806000020ADF808000220ADF8AA
:102600000A000120ADF80C004002ADF80E003820A1
:10261000ADF810000020ADF812000720ADF814004E
:1026200001A90F48FEF73AFB01210D48FEF7D9FB3F
:10263000FF20FFF797FF07B000BD10B5044608481C
:1026400000884FF6C7710840054908800846008891
:102650002043088001210248FEF7C3FB10BD0000A3
:10266000003001400008014008B501211020FEF7AC
:1026700087FA4FF40050ADF8000010208DF80300E9
:1026800003208DF802006946D548FDF7C5FF4FF4D9
:102690000051D348FEF76BF8FFF78BFF0020FFF7E0
:1026A000CCFF08BD10B500244FF40051CC48FEF714
:1026B00060F80520FFF756FFFF20FFF753FF0446A1
:1026C0004FF40051C648FEF752F8204610BD10B531
:1026D00004464FF40051C248FEF74BF80120FFF7C3
:1026E00041FF2046FFF73EFF4FF40051BC48FEF784
:1026F0003EF810BD10B54FF40051B948FEF739F857
:102700000620FFF72FFF4FF40051B548FEF72FF8D2
:1027100010BD10B54FF40051B148FEF72AF804205F
:10272000FFF720FF4FF40051AD48FEF720F810BD31
:1027300010B500244FF40051A948FEF71AF8902074
:10274000FFF710FF0020FFF70DFF0020FFF70AFF43
:102750000020FFF707FFFF20FFF704FF44EA0024F3
:10276000FF20FFF7FFFE04434FF400519C48FDF7A4
:10277000FEFF204610BD2DE9F04106460C461746E7
:102780004FF400519648FDF7F4FF0320FFF7EAFEEF
:10279000C4F30740FFF7E6FEC4F30720FFF7E2FEAD
:1027A000E0B2FFF7DFFE002505E0FF20FFF7DAFECD
:1027B0007055681C85B2BD42F7DB4FF40051884864
:1027C000FDF7D5FFBDE8F08110B500BFFFF76AFF48
:1027D00000F001000128F9D010BD2DE9F0410646B6
:1027E0000C461746FFF786FF4FF400517C48FDF773
:1027F000C0FF0220FFF7B6FEC4F30740FFF7B2FEAA
:10280000C4F30720FFF7AEFEE0B2FFF7ABFE0025F2
:1028100004E0705DFFF7A6FE681C85B2BD42F8DBE0
:102820004FF400516E48FDF7A2FFFFF7CDFFBDE862
:10283000F0812DE9F04107460E461446F0B2C0F58E
:102840008075AC4200DC254612E02A463146384607
:10285000FFF7C3FFAC4200D10BE02F442E44601BB6
:1028600084B2B4F5807F02DD4FF4807500E0254628
:10287000EBE700BFBDE8F08110B504462403FFF785
:1028800039FFFFF7A1FF4FF400515548FDF771FFE5
:102890002020FFF767FEC4F30740FFF763FEC4F391
:1028A0000720FFF75FFEE0B2FFF75CFE4FF4005138
:1028B0004B48FDF75CFFFFF787FF10BD2DE9F047A0
:1028C00081460F4616464FEA1738C7F30B0ACAF57A
:1028D0008054A64200DC344644E04FEA08314FF40D
:1028E00080524048FFF747FF002508E00AEB05004B
:1028F0003C49085CFF2800D003E0681C85B2A54273
:10290000F4DB00BFA54216DA4046FFF7B5FF00250D
:1029100007E019F8050005EB0A01324A5054681C1B
:1029200085B2A542F5DB4FEA08314FF480522D48BD
:10293000FFF77FFF04E0224639464846FFF779FF5C
:10294000A64200D10FE008F101084FF0000AA144AF
:102950002744301B86B2B6F5805F02DD4FF4805409
:1029600000E03446B9E700BFBDE8F08710B5FFF7D7
:10297000C1FEFFF729FF4FF400511948FDF7F9FE9A
:10298000C720FFF7EFFD4FF400511548FDF7EFFEAC
:10299000FFF71AFF10BD10B54FF400511048FDF7B6
:1029A000E8FEB920FFF7DEFD4FF400510C48FDF7BB
:1029B000DEFE0320FFF7E0F910BD10B54FF4005123
:1029C0000748FDF7D6FEAB20FFF7CCFD4FF40051D2
:1029D0000348FDF7CCFE0320FFF7CEF910BD000041
:1029E000001001403C00002008B501212420FEF722
:1029F000C7F80420ADF8000048208DF803006946B0
:102A00000648FDF709FE0120ADF8000028208DF8EA
:102A1000030069460248FDF7FFFD08BD00140140B0
:102A20000008014000B589B001210420FEF7A8F894
:102A300001210846FEF7B1F80820ADF82000282053
:102A40008DF8230003208DF8220008A99A48FDF78D
:102A5000E3FD08219848FDF78AFE42F21070ADF8B8
:102A600014004720ADF810000020ADF81600ADF8B6
:102A7000120004A94FF08040FEF746FB0C20ADF891
:102A800004000020ADF806000120ADF80800002089
:102A9000ADF80A000320ADF80C0001A94FF080400A
:102AA000FEF7A4FD01218807FEF75EFE1C208DF8CD
:102AB0001C0001208DF81D0003208DF81E00012050
:102AC0008DF81F0007A8FDF7DEFC01221121880701
:102AD000FEF76FFE09B000BD10B501218807FFF7B2
:102AE00002F9F8B17548007810F0800F26D07348CD
:102AF000007820F01000714908700846007810F046
:102B00000F0F04D10846007840F0400008706B4871
:102B1000007800F00F000E2805DA68480078401CA5
:102B2000664908700AE06548007820F08000634933
:102B300008700846007800F0F00008701021880640
:102B4000FFF7D1F8002811D05D48006878B1022164
:102B50004807FEF7F5FF00214FF08040FFF78EF8A1
:102B60005648007840F01000544908706FE04FF06C
:102B70008040FFF7A2F85349088000214FF08040C1
:102B8000FEF7DEFF4D48007810F0100F59D04B488B
:102B9000007810F0800F3FD04A480088B0F5967F4B
:102BA0000DDD48480088B0F5487F08DA46480068DF
:102BB00040004549086008460068086041E0414817
:102BC0000088B0F5AF6F0FDD3E480088B0F5E16FCB
:102BD0000ADA3D48006840003B4908600846006842
:102BE00040F0010008602CE03648008840F698016B
:102BF000884226DD3348008840F62821884220DAC2
:102C000032480078401C314908702C48007800F0A8
:102C1000F0002A49087014E02A48008841F268014F
:102C200088420EDD2748008841F25C21884208DA9C
:102C30002248007840F08000204908700020234995
:102C400008701E48007820F010001C4908701121FF
:102C50008807FFF745F810BD10B50020174B1B780B
:102C600013F0400F26D0184B1B68190E164B1B682B
:102C7000C3F30742D343DBB299420CD159B9124B8B
:102C80001B68C3F30721104B1B68DAB2D343DBB2D6
:102C9000994200D1084620B1084B1B7813F0800FF1
:102CA00008D1064B1B7823F04003044C237000230B
:102CB000064C237010BD00000008014030000020C9
:102CC0000C0121423A00002034000020380000208E
:102CD0007CB506460020009040F23F13EF220146EB
:102CE0000190FFF768F900240AE0002504E030466F
:102CF000FFF71BF9681CC5B2F02DF8DB601C84B22D
:102D0000B4F5A07FF1DB7CBD7CB504460D461646CC
:102D10002B46224629462046CDE90045FFF74BF9D0
:102D20003046FFF702F97CBD2DE9F04104460D461F
:102D300016461F46DDF81880EA1B91B2A219D0B2E0
:102D40004246FFF7E1FFAA1B91B2E219D0B2424618
:102D5000FFF7DAFFAA1991B2E219D0B24246FFF7A3
:102D6000D3FFEA1991B2A219D0B24246FFF7CCFFC5
:102D7000EA1991B2A21BD0B24246FFF7C5FFAA19C9
:102D800091B2E21BD0B24246FFF7BEFFAA1B91B23E
:102D9000E21BD0B24246FFF7B7FFEA1B91B2A21B7B
:102DA000D0B24246FFF7B0FFBDE8F0812DE9FF4FFA
:102DB00081B0824616461F46DDF838B000243546FD
:102DC0000320A0EB460924E0BBF1000F0DD0A04684
:102DD00008E043462246009750460299FFF7A4FFB9
:102DE00008F10108A845F4DD06E02B4622460097CD
:102DF00050460299FFF798FF641CB9F1000F03DAFF
:102E0000A000801D814404E0601B80000A308144E2
:102E10006D1EAC42D8DD05B0BDE8F08F2DE9FC5F3A
:102E200004460D4616461F463B4632462946204676
:102E3000CDE90045FFF7BFF8301B401C1FFA80FBAF
:102E4000781B401C1FFA80FA4FF000080FE04FF08B
:102E5000000906E00C98FFF768F809F101001FFA75
:102E600080F9D945F6DB08F101001FFA80F8D0455A
:102E7000EDDBBDE8FC9F2DE9F84304460F461546FF
:102E80001E46DDF8208005B10EB9BDE8F883B819FB
:102E9000401E83B26019401EC2B23946E0B2CDF87E
:102EA0000080FFF7BBFF00BFEFE72DE9FF4F83B0C6
:102EB00004460D469246DDF840B0DFF87082AAF174
:102EC000200008EB0018BBF1010F38D0119848B969
:102ED00005F10F0083B2E21D29462046CDE90045E9
:102EE000FFF769F8119801280BD104F10F00CDE923
:102EF0000005E81D83B204F10F0229462046FFF7C2
:102F00005AF8002718E0002610E098F80000C6F1F3
:102F1000070201219140084203D00698FFF705F807
:102F200002E05846FFF701F8701CC6B2082EECDB31
:102F300008F10108781CC7B2102FE4DB34E0A14689
:102F400000272FE0002627E02B4622462946204670
:102F5000CDE90045FFF72FF898F80000C6F1070209
:102F60000121914008420CD00698FEF7DEFF601C5C
:102F7000C4B2A4EB090008280CD14C46681C85B2E9
:102F800008E0601CC4B2A4EB0900082802D14C463A
:102F9000681C85B2701CC6B2082ED5DB08F101088A
:102FA000781CC7B2102FCDDB07B0BDE8F08F2DE93C
:102FB000FC4706460F4614469846DDF82890002543
:102FC00010E0207880280DDA0020CDE900902278EA
:102FD00006EBC501C8B243463946FFF766FF681CD9
:102FE000C5B2641C20780028EBD1BDE8FC872DE930
:102FF000FF470746884614469946DDF830A042F25E
:103000001070B4FBF0F00A21B0FBF1F201FB1200EA
:103010008DF808004FF47A70B4FBF0F0B0FBF1F2D9
:1030200001FB12008DF809006420B4FBF0F0B0FB46
:10303000F1F201FB12008DF80A000A20B4FBF0F057
:10304000B0FBF1F201FB12008DF80B000A20B4FB7B
:10305000F0F100FB11408DF80C0042F21070B4FB4F
:10306000F0F008B1052517E04FF47A70B4FBF0F0EA
:1030700008B1042510E06420B4FBF0F008B103258A
:103080000AE00A20B4FBF0F008B1022504E00CB11C
:10309000012501E004B90125002612E00020C5F158
:1030A0000501314402ABCDE900A0595C3031CAB210
:1030B00007EBC601C8B24B464146FFF7F6FE701C4F
:1030C000C6B2AE42EADBBDE8FF872DE9FC47054604
:1030D0000F46144698460A9E0A2094FBF0F00A21F7
:1030E00090FBF1F201FB1200303000F0FF090020EC
:1030F00043464A463946CDE900602846FFF7D5FEEB
:103100000A2094FBF0F100FB1140303000F0FF0981
:10311000002043464A463946CDE9006005F10800E3
:10312000C0B2FFF7C2FEBDE8FC870000B83100085E
:10313000704770477047754600F028F8AE460500A6
:103140006946534620F00700854618B020B5FEF7C3
:10315000EDFDBDE820404FF000064FF000074FF0B6
:1031600000084FF0000B21F00701AC46ACE8C009A5
:10317000ACE8C009ACE8C009ACE8C0098D467047AE
:103180000446AFF300802046FDF71BF80048704767
:103190003C100020004870474010002001491820D2
:1031A000ABBEFEE726000200704710B5FFF7F2FF46
:1031B0004FF00001016010BD0000000000000000A1
:1031C00000000000000000000000001010101010AF
:1031D00010100000181800000012362448000000EB
:1031E0000000000000000000000000242424FE482D
:1031F0004848FE48484800000000103854545030F9
:10320000181414545438101000000044A4A8A8A89E
:10321000541A2A2A2A440000000000304848485026
:103220006EA494888976000000606020C0000000D1
:103230000000000000000000000204080810101048
:1032400010101008080402000040201010080808A0
:103250000808081010204000000000001010D638A8
:1032600038D61010000000000000000010101010F0
:10327000FE10101010000000000000000000000010
:1032800000000000606020C000000000000000009E
:103290007F000000000000000000000000000000AF
:1032A0000000000060600000000001020204040849
:1032B0000810102020404000000000182442424224
:1032C000424242422418000000000010701010100A
:1032D00010101010107C00000000003C424242041C
:1032E00004081020427E00000000003C4242041806
:1032F0000402024244380000000000040C1424249C
:1033000044447E04041E00000000007E40404058FB
:1033100064020242443800000000001C244040586F
:1033200064424242241800000000007E4444080821
:1033300010101010101000000000003C4242422407
:1033400018244242423C000000000018244242423D
:10335000261A02022438000000000000000018189D
:10336000000000001818000000000000000000101D
:1033700000000000001010200000000204081020CF
:103380004020100804020000000000000000FE00C1
:103390000000FE00000000000000004020100804B3
:1033A00002040810204000000000003C424262027B
:1033B000040808001818000000000038445AAAAA9F
:1033C000AAAAB442443800000000001010182828AF
:1033D000243C444242E70000000000F844444478A2
:1033E0004442424244F800000000003E42428080D5
:1033F0008080804244380000000000F8444242428D
:103400004242424244F80000000000FC4248487832
:103410004848404242FC0000000000FC4248487816
:103420004848404040E000000000003C44448080A8
:10343000808E844444380000000000E7424242424B
:103440007E42424242E700000000007C1010101053
:1034500010101010107C00000000003E0808080842
:1034600008080808080888F0000000EE444850707A
:103470005048484444EE0000000000E04040404016
:103480004040404042FE0000000000EE6C6C6C6C5E
:103490005454545454D60000000000C76262525283
:1034A0004A4A4A4646E200000000003844828282CE
:1034B0008282828244380000000000FC4242424284
:1034C0007C40404040E0000000000038448282829E
:1034D0008282B2CA4C380600000000FC4242427CA4
:1034E0004848444442E300000000003E424240207D
:1034F00018040242427C0000000000FE92101010EE
:103500001010101010380000000000E74242424244
:1035100042424242423C0000000000E74242442452
:103520002428281810100000000000D692929292D1
:10353000AAAA6C4444440000000000E74224241876
:103540001818242442E70000000000EE4444282814
:1035500010101010103800000000007E84040808CD
:103560001020204242FC0000001E1010101010100D
:103570001010101010101E000000404020201010ED
:103580001008080404040202007808080808080863
:103590000808080808087800001C22000000000045
:1035A000000000000000000000000000000000001B
:1035B00000000000000000FF00606020C00000006C
:1035C0000000000000000000000000000000003CBF
:1035D000421E2242423F0000000000C040404058CE
:1035E0006442424264580000000000000000001CD9
:1035F00022404040221C0000000000060202021E81
:1036000022424242261B0000000000000000003C55
:10361000427E4040423C00000000000F1110107E2E
:1036200010101010107C0000000000000000003E90
:10363000444438403C42423C000000C04040405CB2
:103640006242424242E70000000000303000007059
:1036500010101010107C00000000000C0C00001C6A
:103660000404040404044478000000C04040404EB8
:103670004850684844EE0000000000701010101020
:1036800010101010107C000000000000000000FE70
:103690004949494949ED000000000000000000DCF4
:1036A0006242424242E70000000000000000003C8D
:1036B00042424242423C000000000000000000D8AC
:1036C00064424242447840E0000000000000001ED6
:1036D00022424242221E020700000000000000EECB
:1036E0003220202020F80000000000000000003EF2
:1036F00042403C02427C0000000000000010107CB0
:1037000010101010100C000000000000000000C697
:1037100042424242463B000000000000000000E739
:10372000422424281010000000000000000000D7F0
:103730009292AAAA44440000000000000000006E1B
:10374000241818182476000000000000000000E78C
:1037500042242428181010E0000000000000007E21
:1037600044081010227E000000030404040404082E
:1037700004040404040403000808080808080808EE
:103780000808080808080808006010101010100841
:103790001010101010106000304C430000000000AA
:1037A0000000000000000000000000101018383871
:1037B0003C3C7C7E7EFF0000000000FF7E7E7C3C67
:1037C0003C38381810100000E837000800000020CE
:1037D0003C0000006C010008243800083C00002078
:1037E000641600008801000800A24A0400000000DE
:1037F00000000000010203040607080900000000A1
:103800000102030401020304060708090204060872
:1038100000000000000000000000000000000000A8
:0438200000000000A4
:0400000508000131BD
:00000001FF
