S315080100000CE000201D00010831000108310001083B
S3150801001031000108310001083100010802F0AAB8CF
S31508010020DFF808D002F0A8F802F0A8B9F8DF012035
S31508010030FEE76E2900F06684702900F0B785662907
S3150801004039F04D85652939F04A85672939F047859B
S31508010050612939F0468503681B0A28BF41F08001EA
S31508010060692900F01384642900F01084752900F0C9
S315080100700D846F2900F04285782900F08385E929E6
S3150801008000F0DA84E42900F0D784F52900F0D48455
S31508010090EF2900F03F85F82900F082850368DB091E
S315080100A028BF41F08001632901F06083732901F0BB
S315080100B06583E32901F07083F32901F07583002034
S315080100C07047000040BA7047C0BA704700BEFEE7E5
S315080100D07047704753EA020C00F069802DE9F04B2E
S315080100E04FF00006002B1FBFB3FA83F503FA05F498
S315080100F024FA05F65E4012BF1643B2FA82F502FAF1
S3150801010005F4C5F120051EBF22FA05FC44EA0C04D4
S31508010110203556EA044C4FEA144418BF641C4FF0C4
S3150801012000084FF00009904271EB030C39D30029FE
S3150801013019BFB1FA81F701FA07F6B0FA80F700FAA2
S3150801014007F6C7F120071EBF20FA07FC46EA0C0688
S315080101502037B6FBF4FCA7EB0507103F07F01F0B8A
S31508010160CBF120060CFA0BFB2CFA06F644BFB34674
S315080101700026202FA4BF5E464FF0000B5BEA060C53
S3150801018008BF4FF0010B19EB0B09ABFB027C48EBDF
S315080101900608C01B06FB02CC0BFB03CC71EB0C015A
S315080101A0C1E70B46024641464846BDE8F08B13B502
S315080101B04FF000004FF0000100F0F7FABDE81C40CF
S315080101C07047B2F120030AD5C2F1200301FA02F100
S315080101D020FA03F300FA02F041EA0301704700FA34
S315080101E003F14FF000007047B2F120030AD5C2F1BE
S315080101F0200320FA02F001FA03F321FA02F140EA98
S315080102000300704721FA03F04FF000017047B2F17D
S3150801021020030AD5C2F1200320FA02F001FA03F3FA
S3150801022041FA02F140EA0300704741FA03F04FEA46
S31508010230E171704710B54C1084EA530404D5404265
S31508010240C1F1000138BF491E1B4204D55242C3F110
S31508010250000338BF5B1EFFF73DFF14F0804F04D043
S315080102604042C1F1000138BF491E14F0004F04D0C5
S315080102705242C3F1000338BF5B1E10BD7CB515465B
S315080102801A460C00009001D02044401E074B7B44BF
S3150801029069460190284600F050FB05461CB100202E
S315080102A0694600F05DFB28467CBD0000D9060000C2
S315080102B00A460146014800F09CBD0000286D001061
S315080102C02DE9F04782460E4614469846DDF82090F9
S315080102D094B1012C0BD04A465046650805FB0867C0
S315080102E03946904700280CD00DDA2C46F0E74A46E5
S315080102F031465046904710B10020BDE8F087304698
S31508010300FBE73846F9E7641B641E07EB0806DFE7D7
S31508010310401ECAB210F8011F8A4202D00029F9D13B
S315080103200020704740EA010310B59B070DD1042A46
S315080103300BD310C808C9121F9C42F8D021BA1ABAA1
S315080103400120914200D8801E10BD1AB1D30703D0EF
S31508010350521C07E0002010BD10F8013B11F8014BB3
S315080103601B1B07D110F8013B11F8014B1B1B01D1CF
S31508010370921EF1D1184610BD40EA0103024630B576
S315080103809B0710D14FF0013400E008C208C91D1BB4
S315080103909D4315EAC41FF8D013F0FF0102F8011BAB
S315080103A00DD01B0AF8E711F8013B002B02F8013BB7
S315080103B005D011F8013B002B02F8013BF3D130BD02
S315080103C0032A40F2308010F0030C00F0158011F872
S315080103D0013BBCF1020F624498BF11F801CB00F84A
S315080103E0013B38BF11F8013BA2F1040298BF00F89E
S315080103F001CB38BF00F8013B11F0030300F0678019
S31508010400083AC0F0088051F8043B083A51F804CB81
S31508010410A0E80810F5E7121D5CBF51F8043B40F847
S31508010420043BAFF30080D20724BF11F8013B11F852
S3150801043001CB48BF11F8012B24BF00F8013B00F896
S3150801044001CB48BF00F8012B7047431A28BF9A42CF
S315080104507FF6B6AF032A1044114440F2268010F005
S31508010460030F1EBF11F8013D521E00F8013D10F0A1
S31508010470030F7FF4F6AF11F0030300F06D80083A1D
S31508010480C0F00B8051F8043D083A51F804CD40F804
S31508010490043D40F804CDFFF7F3BF121D5CBF51F8C8
S315080104A0043D40F8043DAFF30080D20724BF11F89C
S315080104B0013D11F801CD48BF11F8012C24BF00F800
S315080104C0013D00F801CD48BF00F8012C704710B571
S315080104D0203AC0F00B80B1E81850203AA0E818502D
S315080104E0B1E81850A0E81850BFF4F5AF5FEA027CEE
S315080104F024BFB1E81850A0E8185044BF18C918C05D
S31508010500BDE810405FEA827C24BF51F8043B40F8FD
S31508010510043B08BF7047D20728BF31F8023B48BFE2
S3150801052011F8012B28BF20F8023B48BF00F8012B20
S315080105307047431A28BF9A427FF6C9AF104410F094
S31508010540030F11441EBF11F8013D521E00F8013D6B
S3150801055010F0030F7FF4F6AF103AC0F00A8010B519
S3150801056031E91850103A20E91850BFF4F9AFBDE83F
S315080105701040530724BF31E9081020E9081044BF89
S3150801058051F8043D40F8043D12F0030F08BF7047C7
S31508010590D20728BF31F8023D48BF11F8012C28BF00
S315080105A020F8023D48BF00F8012C704702F0FF030E
S315080105B043EA032242EA024200F002B84FF000027F
S315080105C00429C0F0128010F0030C00F01B80CCF156
S315080105D0040CBCF1020F18BF00F8012BA8BF20F8C4
S315080105E0022BA1EB0C0100F00DB85FEAC17C24BF18
S315080105F000F8012B00F8012B48BF00F8012B7047C2
S315080106004FF0000200B5134694469646203922BF9C
S31508010610A0E80C50A0E80C50B1F12001BFF4F7AFE7
S31508010620090728BFA0E80C5048BF0CC05DF804EBC9
S31508010630890028BF40F8042B08BF704748BF20F837
S31508010640022B11F0804F18BF00F8012B704710B527
S31508010650044610F0030F08BF11F0030F40F0158090
S315080106604FF0013E121FC0F20E8051F8043BA3EB76
S315080106700E0C2CEA030C1CEACE1C08BF40F8043BFE
S31508010680F0D0A1F1040102F10402521E08DB11F8AF
S31508010690013B002B00F8013BF7D11146FFF78EFF0E
S315080106A0204610BD4FF0013C50F8042B51F8043B8D
S315080106B09A4221D1A2EB0C03934313EACC1317D127
S315080106C050F8042B51F8043B9A4215D1A2EB0C03BE
S315080106D0934313EACC130BD150F8042B51F8043B7E
S315080106E09A4209D1A2EB0C03934313EACC13DBD04C
S315080106F04FF00000704700BFD01A01BAB1FA81F174
S3150801070001F0180122FA01F0CB40C1F12001DBB258
S31508010710C0B2C01A2CFA01F3D11A914311EAC311D6
S31508010720E6D1704770B5064C7C44064D7D4403E01E
S31508010730206820448047241DAC42F9D170BD0000D1
S31508010740E8340400F0340400A0E8004FF0C040F893
S3150801075004DB01B5AFF30080BDE8024001C100200A
S31508010760A1EC068BA1EC02BBA1EC06CBA1EC02FB2A
S31508010770704700F12C080C46B8EC068BB8EC02BBA6
S31508010780B8EC06CBB8EC02FB00F12C0858F8040DBE
S31508010790AFF3008058F8040D8546200008BF0120F4
S315080107A038E9F00018E9004F704731F075B810B50F
S315080107B000F0A8FB006810BD10B5044600F0A2FBC6
S315080107C0046010BD70B50446856900683026C10607
S315080107D000D42026C00708D070BDD4E901213046CF
S315080107E09047206A00F1010020626D1EF5D570BDA3
S315080107F070B5044685690068C00708D170BDD4E99B
S31508010800012120209047206A00F1010020626D1E17
S31508010810F5D570BD09684A0501D540B27047C905C5
S31508010820FCD500B2704709684A0501D5C0B27047C0
S31508010830C905FCD580B2704770B505460C46012A34
S3150801084005D02868800600D5EA69002302E001235D
S3150801085005E05B1C934202D2E05C0028F9D1A86945
S31508010860E618C01AA861286A184428622846FFF7BC
S31508010870A9FF04E0D5E9012114F8010B9047B44218
S31508010880F8D32846FFF7B4FF70BD00002DE9F04103
S315080108900746002510687529394616A411D0FFF7B1
S315080108A0B9FF002803DAC0F1000013A407E039688C
S315080108B08A0701D511A402E0490704D510A4012528
S315080108C001E0FFF7B0FF00210A2307F1240607E03C
S315080108D0B0FBF3F203FB1200303070541046491C8A
S315080108E00028F5D12B4622463846BDE8F04100F0EE
S315080108F052BB0000000000002D0000002B00000084
S315080109002000000011680268006A530501D50870C5
S315080109100BE0D30501D5088007E0130603D5C217F6
S31508010920C1E9000201E05206086001207047000093
S3150801093001694A1C02610878704700B58FB0CDE994
S3150801094001310021059105497944CDE90310114684
S31508010950684600F037F90FB000BD0000E5FFFFFF5C
S315080109600A6802F8010B0A607047D1E900239A4226
S3150801097002D2531C0B601070704700002DE9FF5F0F
S3150801098004468A461546DFF8AC80F8440027D8E9BC
S3150801099000103E46CDE9001011E03AF816106A46F5
S315080109A002A800F005FF411C07D02168890603D576
S315080109B0E269391891420ED8074406F10106206802
S315080109C0800602D5E069B84205DDAE42E5DB3AF8B4
S315080109D016000028E1D1A069C01BA0612046FFF7D7
S315080109E0F1FED8E90010CDE90010002016E03AF82A
S315080109F018106A4602A800F0DBFE8146401C0BD09F
S31508010A0000250DF1080B05E0D4E901211BF80500C5
S31508010A1090476D1C4D45F7D308F10100B042804659
S31508010A20E5DB206A384420622046FFF7E1FEBDE88F
S31508010A30FF9F0000A21504002DE9F0418046D21D52
S31508010A4022F007020026D2E90002F52914A512D0E0
S31508010A50002A06DA0023D0EB030063EB020211A594
S31508010A6008E0D8F800108B0701D50FA502E0490761
S31508010A7001D50EA501261146002408F1240704E034
S31508010A8000F044FA30323A55641C50EA0102F7D1B3
S31508010A9033462A4621464046BDE8F04100F07BBA76
S31508010AA0000000002D0000002B00000020000000BF
S31508010AB030B4002100F124040CE002F0070505F129
S31508010AC030054FEAD20242EA4372655401F1010147
S31508010AD04FEAD30352EA0305EFD10468002310A2B3
S31508010AE0250708D504F020040C4304D0C469012362
S31508010AF00CA2641EC46130BC00F04DBA10B50446A0
S31508010B0021461068FFF78FFE02462046BDE81040D1
S31508010B100023CDE7D21D22F00701D1E90023C7E75B
S31508010B200000000030000000F0B40F460168090516
S31508010B3002D5234C7C4402E0214C7C440E3400212E
S31508010B4000F124050BE002F00F064FEA1212A65D2A
S31508010B5042EA03724FEA13136E5401F1010152EA94
S31508010B600306F0D1224604680023240704D5702F12
S31508010B7005D009B111320223F0BC00F00CBA1032CB
S31508010B800123F9E770B504460D4621461068FFF7BB
S31508010B904AFE024629462046BDE870400023C3E7BF
S31508010BA0D21D22F00703D3E90023BDE703681268C3
S31508010BB043F0200303600823C3610023B4E7000060
S31508010BC0001404002DE9F05F4FF0000A0446894637
S31508010BD04FF0800BC0F820A02046E168884700281E
S31508010BE076D0252806D0D4E901219047206A401CF1
S31508010BF02062F1E7564F00267F442046E168884780
S31508010C002028054608DB312D06D207EB050010F82A
S31508010C10200C08B10643F0E7B00701D526F0040613
S31508010C20C4F81CA00027C4F818A02A2D09D0284604
S31508010C3030F061FE38B304EB8708303DC8F8185028
S31508010C4019E059F8041B204604EB87029161E16813
S31508010C508847012F054618D1E069002820DA26F0D1
S31508010C6020061DE0D8F8180000EB800005EB4000CF
S31508010C703038C8F818002046E1688847054630F03C
S31508010C803AFE0028EED1012F0AD02E2D08D1204692
S31508010C90E16888477F1C0546022F46F02006C4DB1B
S31508010CA0A069002803DA404246F00106A061F00770
S31508010CB001D026F010066C2D0BD0682D09D04C2DCD
S31508010CC036D06A2D34D0742D32D07A2D30D017E033
S31508010CD03BE0E1682F4620468847B84205460AD1D7
S31508010CE058466C2F01D04FF48060E16806432046D0
S31508010CF08847054604E040206C2F00D08000064353
S31508010D001DB3A5F14100192802D8203546F400661D
S31508010D104A462946204626604E46FFF78AF990B18B
S31508010D2001280DD0F61D26F0070000F1080953E742
S31508010D304C2D5046D9D058466A2DD6D00020D4E736
S31508010D4006F1040948E728464DE7206ABDE8F09F01
S31508010D50641304002DE9F0410646484231EA0000D1
S31508010D601DD02A20741C0025307000F0C7F80746EC
S31508010D70002057F82520110F1201092901F15703FF
S31508010D8000D8273B401C082804F8013BF3DB6D1CFF
S31508010D90052DEDDB002020703046BDE8F0810429E1
S31508010DA013D004DC012908D0022904D109E0082955
S31508010DB00FD0102911D00020EFE700F09FF8006846
S31508010DC00EE000F09BF840680AE000F097F88068AA
S31508010DD006E000F093F8C06802E000F08FF80069B9
S31508010DE028B120F0030050F8041C0844D5E741A0B7
S31508010DF0D3E72DE9F04709B14B0902D00020BDE838
S31508010E00F08732B113782A2B06D0BDE8F04700F0F7
S31508010E1025B8BDE8F0479DE7551C81460F464FF0BA
S31508010E20010800240026314615F8010B3928A0F1DE
S31508010E30300200D9273A491C082942EA0616F3DB8B
S31508010E4008FA04F0384203D000F058F840F8246054
S31508010E50641C052CE6DB39464846DAE72DE9F041FC
S31508010E6006460C46154688070AD51146224878448F
S31508010E7037F0C6FC070090D000F040F87F1C4760A9
S31508010E80E0070AD029461C4878441A38AFF300808F
S31508010E90070082D000F032F8076060070AD52946B4
S31508010EA0154878443438AFF30080070021D000F0A4
S31508010EB025F8876020070AD529460F4878444E3811
S31508010EC037F088FC070014D000F018F8C760E00670
S31508010ED00AD52946084878446838AFF300800500E2
S31508010EE007D000F00BF8056121463046BDE8F04110
S31508010EF030E752E743000000722C040000487047AF
S31508010F00546D001000487047686D001030B5B0F197
S31508010F100A024FEA900E71F100034EEA817EB0EBA8
S31508010F200E0061EB91014FEA101E4EEA017E10EBAD
S31508010F300E0041EB11114FEA102E4EEA016E10EB2D
S31508010F400E0041EB11214FEA104E4EEA014E10EB0D
S31508010F500E0041EB1141401841F100014FEAD00062
S31508010F6040EA41704FEAD10110EB80054FEA81044E
S31508010F7044EA907444EB01046D1944EB0404521BD2
S31508010F80A3414FF0000348BF0A3200D530BD401CCB
S31508010F9041F1000130BD2DE9F0470D460446924660
S31508010FA0994600F124080168880604D5E06921F00C
S31508010FB01001216000E001200027A84201DDA0EB15
S31508010FC00507A16907EB050202EB0300A1EB000087
S31508010FD0A0612068C00602D42046FFF7F3FB00266D
S31508010FE008E0D4E901211AF806009047206A401C56
S31508010FF0761C20624E45F4DB2068C0060AD52046D9
S31508011000FFF7E0FB06E0D4E9012130209047206A8A
S31508011010401C2062381EA7F10107F4DC07E0D4E979
S31508011020012118F805009047206A401C2062281EF5
S31508011030A5F10105F3DC2046FFF7DAFB216802205A
S31508011040090600D40120BDE8F08770472DE9FF4F56
S315080110500C461E464FF0FF378DB0D2E90001DDF888
S3150801106068800A908946C1F30A5505B93D460021AB
S3150801107008464FF00000B9F1000F00F4400005DA08
S3150801108000EB80004FF4400101EA50004FEA905A04
S31508011090BAF1010F00DDBA460A9850EA490030D084
S315080110A044F61050A5F2FF354543CAF100000B90EE
S315080110B02F14B8F1000F3DD075420B9A291E00DC9A
S315080110C0524600DA694206A800F0D8FB06AB07CB00
S315080110D003AB07C348460A9900F042FC8DE80700AE
S315080110E0A0F500501F3800900398002D25DD42F227
S315080110F01F015246084403A90390684600F0A1FE61
S3150801110024E0B8F1010F4FF0000001D1F24307E0E6
S31508011110302101E02154401CB042FBDB304600225D
S31508011120002121540D99C1F80880C1E9002011B0A8
S31508011130BDE8F08FBD1B6D1CBFE7A0F500505246F8
S315080111401F3803A90390684600F08FFE8DE8070053
S315080111500004000C03D04FF0FF30410800E01046B0
S31508011160B8F1000F03D00022009215461FE0751E44
S3150801117006D4FFF7CBFE02F1300262556D1EF8D593
S31508011180B3460122084302D000227F1C04E02078DE
S31508011190302801D100227F1E002A099789D01DE037
S315080111A0112D07DAFFF7B2FE303262556D1C50EA8F
S315080111B00102F5D108430FD10021681E05E0235C21
S315080111C0625C6354491C2254401E8142F7DBAB46DC
S315080111D0A81B401E099001E0009848B1002004F8B8
S315080111E00B000D98099AC0F80880C0E9002B9EE704
S315080111F011264FF000085CE72DE9F04F88460446B2
S31508011200D21D22F0070191B0D1E90001CDE90A0109
S315080112102CF06CFC02460B98C10F4FF02D0007D13C
S3150801122023682B205FEA837C02D4202000EAC300CE
S31508011230032A099001D0072A05DB034641462046C1
S3150801124000F0DEFA0BE12068800601D5E06900E0CE
S31508011250062011238146B8F1650F06D0B8F1660F4D
S3150801126016D0B8F1670F6ED130E00020B9F1110F31
S315080112700090484600DA431C0AAA01A90CA8FFF700
S31508011280E5FEDDE90C70002609F10105834646E015
S3150801129001204B4600904FF000470AAA01A90CA865
S315080112A0FFF7D4FEDDE90DB00C995D46002618B9A5
S315080112B009F1010001EB0005B9EB050003D4C0F102
S315080112C0FF3609F10105A5EB090029E0B9F1010F7E
S315080112D001DA4FF001090020B9F1110F00904846D3
S315080112E000DC03460AAA01A90CA8FFF7AFFEDDE94F
S315080112F00C704D4600268346206800070AD4AB4584
S3150801130000DA5D4601A8012D04DD411911F8011C19
S31508011310302907D04F4502DA17F1040F04DA012004
S31508011320824610E06D1EEEE7002F02DCED1B3E44FF
S3150801133003E0781CA84200DD0546A7EB060000F18C
S31508011340010A4FF000472068000703D4AA4501DBCC
S315080113504FF0FF3A0021B7F1004F0DF143088DF820
S31508011360431022D002202B23002F01DA7F422D239E
S315080113700A22011EA0F1010000DC4FB197FBF2F130
S3150801138002FB117C0F460CF1300C08F801CDF0E791
S31508011390A8F101004FF0450103702268120500D437
S315080113A06521A0F1010800F8011C09980FA9A1EB14
S315080113B0080707F1070700B1012000EB050101EB5A
S315080113C0EA70A1693844A1EB0000A0F10100A0610F
S315080113D02068C00602D42046FFF7F4F9099830B10F
S315080113E0D4E901219047206A00F1010020622068B2
S315080113F0C00620D52046FFF7E5F91CE0002E04DBE0
S31508011400B34502DD01A8805D00E03020D4E9012161
S315080114109047206A761C401CBAF1010A20620AD15B
S31508011420FFF76CFDC0680168405CD4E9012190476B
S31508011430206A401C2062281EA5F10105DEDC07E0B2
S31508011440D4E9012118F8010B9047206A401C206253
S31508011450381EA7F10107F3DC2046FFF7C9F9022078
S3150801146065E600002DE9F04F04460D46D21D22F02F
S31508011470070089B0D0E90097484639462CF036FB73
S315080114800246F80F4FF02D0306D120682B2381075A
S3150801149002D4202101EAC0038DF820300BB10120C6
S315080114A000E00020032A824601D0072A04DB2946E8
S315080114B0204600F0A5F93CE12068800601D40D25F7
S315080114C000E0E569C7F30A560D2D4ADA00214FEA0D
S315080114D0175B08464FF00000002F00F4400007DABA
S315080114E000EB80004FF4400100EBD07001EA600088
S315080114F04FEAA05CBCF1010F01DD4FF0FF3CAB00E8
S315080115000021182B06D30A46A3F118004FF0805183
S31508011510C14002E04FF48012DA400C33202B03D38A
S31508011520203B09FA03F001E007FA03F0BCF1000FCA
S315080115304FF0004801DD18B913E012D1404510D328
S3150801154019EB010357419946BCF1000F04D14045F7
S3150801155002D1974323EA0109BBEB175F01D006F1D4
S3150801156001067B4878442168090500D413384FF0F1
S31508011570300C08AA0AF1010102F80AC0037C002E00
S315080115800AF1020A5354694601DD4FF0310C4FF056
S3150801159001088DF800C002D0A6F2FF3603E059EA29
S315080115A0470200D06B4E002D02DC2268120704D5D3
S315080115B04FF002082E228DF80120C44600230BE0C5
S315080115C0C7F303423F01825C5B1C6D1E01F80820CC
S315080115D0052B08F1010801DA002DF1DC00220CE0E7
S315080115E000EB1973521C1B786D1E082A01F8083086
S315080115F008F101084FEA091901DA002DF0DC226821
S31508011600920602D514E0A8F10108E04505DD01EBD3
S31508011610080212F8012C302AF5D0B8F1000F07DDBF
S3150801162001EB080212F8012C2E2A01D1A8F10108B2
S31508011630002D05DD3E2201F808206D1E08F101087E
S31508011640407C002E01F8080008F1010806DA2D2071
S3150801165001F80800764208F1010804E02B2001F898
S31508011660080008F101080A274FF47A739E420ADB3B
S3150801167096FBF3F000F1300203FB106601F808202F
S3150801168008F1010801E0642E0BDB642396FBF3F0F5
S3150801169000F1300203FB106601F8082008F1010881
S315080116A001E00A2E07DB96FBF7F000F1300001F89E
S315080116B0080008F1010896FBF7F007FB106000F136
S315080116C0300001F80800A16908F1010808EB0502D4
S315080116D002EB0A00A1EB0000A0612068C00602D453
S315080116E02046FFF76FF8216A08AE01EB0A0020626F
S315080116F004E0D4E9012116F8010B9047BAF1010A71
S31508011700F7D22068C00602D52046FFF75BF86E4679
S3150801171009E016F8010B3E280FD0D4E901219047BC
S31508011720206A401C2062B8F10108F2D22046FFF770
S315080117305FF809B00220BDE8F08F206A28442062CC
S3150801174003E0D4E90121302090476D1EEBD3F8E779
S31508011750D30B040002FCFFFF10B5436913B1AFF3C5
S31508011760008001E0FFF768F8012010BD126800F15A
S3150801177024010A7000224A700122EDE711684FF030
S31508011780FF32E9E710B5436913B1AFF3008001E011
S31508011790FFF7F4F8012010BD126800F124018284D4
S315080117A00022C2840122EDE711684FF0FF32E9E712
S315080117B070B505460C46164600F01AF8036893F804
S315080117C00101012806D0FF2C0FD8185D68B1012048
S315080117D02C7070BDD3F807013246214603442846CA
S315080117E0BDE8704003F2071318474FF0FF3070BD8C
S315080117F010B5FFF783FB001D10BD00BF0570030080
S315080118002DE9F04104461F4603260168072A01F41B
S31508011810006003DB15A520B915A502E015A500B9D9
S3150801182015A521F010002060A069C01EA0610FB1A6
S31508011830401EA0612046FEF7C5FF4FB1D4E901213C
S3150801184038469047206A401C2062C01C206206E088
S31508011850206AFAE7D4E9012115F8010B9047761EAB
S31508011860F8D22046FEF7C4FFBDE8F0814E414E008E
S315080118706E616E00494E4600696E66002DE9F047B5
S31508011880814616468AB035487844D0E900238068EF
S315080118900092CDE90130314878440C38D0E9022369
S315080118A0006903924FF03702CDE9043041F69B30C7
S315080118B0014491FBF2F0A0F1800502FB10141B3CD8
S315080118C002D56442012000E00020DFF890A080469E
S315080118D00027FA44AAF1C60A0DE0E00709D0324604
S315080118E0684607EB47010AEB810100F0BEFA8DE86D
S315080118F0070064107F1C002CEFD1184F7F44B43FBA
S3150801190017E0E80713D007EB04100DF1180A90E861
S315080119100E00AAE80E00C068F04201D19819089095
S31508011920324606A903A800F0A0FA03AB07C36D1057
S31508011930641C002DE5D132466946B8F1000F03A8AB
S3150801194002D000F07EFA01E000F08FFAC9E9000141
S31508011950C9F808200AB0BDE8F0870000400904006C
S315080119605FEA400C08BF91F0000F4FEA8C234FEA5B
S31508011970C12243EA51514FEA1C5018BF00F5F04005
S315080119804FEA300018BF41F000415FEA6C5C00F095
S315080119902980BCF1FF3F08BF40F080407047130C17
S315080119A006BF12044FF0100C4FF0000C130E04BFC3
S315080119B012020CF1080C130F04BF12010CF1040CEE
S315080119C0930F04BF92000CF1020CD30F04BF52000F
S315080119D00CF1010C11464FF00002A0F11F00A0EB1B
S315080119E00C00704711F0004F08BF704731F00041F5
S315080119F03FF4D5AF0B0C06BF09044FF0100C4FF09E
S31508011A00000C0B0E04BF09020CF1080C0B0F04BFE6
S31508011A1009010CF1040C8B0F04BF89000CF1020CAF
S31508011A20CB0F04BF49000CF1010CCCF12003A0EB4C
S31508011A300C0022FA03F302FA0CF241EA030100F15F
S31508011A400100704720F07F4C80EA030023F07F47AE
S31508011A50ACEB070303F57C5300F0004003F1FF03E9
S31508011A602DE980494FEA154B09B44FEA144325EA93
S31508011A700B4E24EA03480FF2042606EB13274908FE
S31508011A803E785FEA320203FB0667C7F5000707FBE4
S31508011A9006F64FEA54374FEAD64606F1020607FB21
S31508011AA0066CCCF1005C4FEA1C472CEA074C07FB95
S31508011AB006F40CFB06F504EB15464FEA961634BFF9
S31508011AC000204FF000404FEAD13706FB07FC4FEAEA
S31508011AD01C4C0CFB0BF7D21B03FB0CF761EB070144
S31508011AE00CFB0EF7B0EB074072EB17420CFB08F73D
S31508011AF034BFA2EB0742B2EB074261EB17414FEA4B
S31508011B000C444FEA910706FB07FC4FEA1C4C0CFBF9
S31508011B100BF7B0EBC74072EB573203FB0CF734BF38
S31508011B20A2EBC742B2EBC74261EB57310CFB0EF78A
S31508011B30B0EBC70072EB57720CFB08F734BFA2EB88
S31508011B40C702B2EBC70261EB5771039F4FEA816186
S31508011B5041EA921104EBCC044FEAD1374FEA82628B
S31508011B6006FB07FC42EA90124FEA80604FEA1C4CDA
S31508011B700CFB0BF7D21B03FB0CF761EB07010CFB04
S31508011B800EF7B0EB074072EB17420CFB08F734BFB0
S31508011B90A2EB0742B2EB074261EB17414FEA8C55BC
S31508011BA04FEA910704EB9C2406FB07FC4FEA1C4C01
S31508011BB00CFB0BF7B0EBC74072EB573203FB0CF784
S31508011BC034BFA2EBC742B2EBC74261EB57310CFBFC
S31508011BD00EF7B0EBC70072EB57720CFB08F734BF70
S31508011BE0A2EBC702B2EBC70261EB577115EB4C25A5
S31508011BF04FEA816141EA92114FEA82624FEAD1378F
S31508011C0042EA901206FB07FC44F100044FEA8060A1
S31508011C104FEA1C4C0CFB0BF7D21B03FB0CF761EBD1
S31508011C2007010CFB0EF7B0EB074072EB17420CFBF2
S31508011C3008F734BFA2EB0742B2EB074261EB174143
S31508011C4015EB1C154FEA813141EA92414FEA82327E
S31508011C5042EA90424FEA80304FEA0C7644F100049A
S31508011C6048EA03434EEA0B484FF0000EB2EB080C64
S31508011C7071EB030724BF624639464EEB0E0E4FF051
S31508011C80000B0018524149414BEB0B0BB2EB080C08
S31508011C9071EB03077BF1000B24BF624639464EEB15
S31508011CA00E0E4FF0000B0018524149414BEB0B0B3E
S31508011CB0B2EB080C71EB03077BF1000B24BF6246FC
S31508011CC039464EEB0E0E51EA020718BF46F00106D9
S31508011CD016EB0E7655F1000254F1000103D5BDE865
S31508011CE08901BDE80088BDE88901BDE80048B61943
S31508011CF0524141EB0101A3F10103704780807F7EC8
S31508011D007D7C7B7A79787776767574737271717062
S31508011D106F6E6E6D6C6C6B6A6A6968686766666514
S31508011D206464636362616160605F5F5E5E5D5D5CA2
S31508011D305C5B5B5A5A595958585757565655555513
S31508011D405454535352525251515050504F4F4F4E73
S31508011D504E4D4D4D4C4C4C4B4B4B4A4A4A494949C1
S31508011D604848484747474746464645454544444403
S31508011D70444343434342424242414141002B26D414
S31508011D80770021D01CB54FEA370703B44FF010008E
S31508011D904FF010014FF000000FBCBDE810400BF1E9
S31508011DA0010BBBF1010F08BF5FEA170722BF12F14A
S31508011DB0010211F101014FF0004143F1000300F066
S31508011DC0004043EA00007047F9D35708DAE746EAC4
S31508011DD0064613F1400F4FEA16461FDD13F1200F91
S31508011DE0DFBF16430A46002120335B42C8D0C3F140
S31508011DF0200746EA064602FA07F74FEA164646EA72
S31508011E000706C3F1200722FA03F201FA07F721FAB6
S31508011E1003F14FF0000342EA0702B1E746EA020678
S31508011E2046EA06464FEA164646EA0106BCBF46EAB0
S31508011E300646360C4FF000034FF000024FF0000142
S31508011E409EE72DE9C048934630B491E8380007C8A3
S31508011E5031EA400C48BF34EA430C03D5FFF7F2FDDB
S31508011E60FFF78CFFF0BCBDE800882DE9C048934612
S31508011E7030B491E8380007C810F0804F08BF13F056
S31508011E80804F03D100F005F8FFF778FFF0BCBDE8F5
S31508011E90008820F07F4780EA030023F07F4C07EB98
S31508011EA00C03A3F57C5300F00040A3F1FE0392F066
S31508011EB0000F00F0B38095F0000F00F077802DE950
S31508011EC001494FEA11404FEA144621EA004800FB4E
S31508011ED006FC24EA064708FB06F607FB08F800FB9A
S31508011EE007F718EB06484CEB164C4FEA124B18EB62
S31508011EF007484FEA15464CEB174022EA0B4E0BFBF7
S31508011F0006FC25EA06470EFB06F607FB0EFE0BFB4B
S31508011F1007F71EEB064E4CEB164C4FF000061EEB70
S31508011F20074E4CEB174B18EB0B0840F1000018EB6A
S31508011F300E0B58EB000840F100008F1A4FF0000114
S31508011F403CBFC943661B14BFB5EB040C00213CBF5B
S31508011F50C943F61B4FEA17444EEA8E0E27EA044593
S31508011F604FEA1C4704FB07622CEA074C05FB07F7F7
S31508011F700CFB05F604FB0CFC16EB074642EB174275
S31508011F8016EB0C4642EB1C421BEB060658EB02020B
S31508011F90414146EA9E0601D5BDE80189B619524175
S31508011FA041EB0101A3F10103BDE801894FEA14459B
S31508011FB04FEA114724EA054621EA074C05FB07F4CF
S31508011FC006FB07F70CFB06F105FB0CFC11EB0741B9
S31508011FD044EB17444FEA124711EB0C4144EB1C44FE
S31508011FE022EA074C05FB07F206FB07F70CFB06F688
S31508011FF005FB0CFC16EB074642EB174216EB0C46A3
S3150801200042EB1C456A1854F1000148BF7047B619DE
S31508012010524141EB0101A3F10103704795F0000F0D
S3150801202037D04FEA11424FEA144721EA024624EA19
S31508012030074C02FB07F106FB07F70CFB06F402FB4C
S315080120400CFC14EB074441EB17414FEA154714EB17
S315080120500C4441EB1C4125EA074C02FB07F506FB3C
S3150801206007F70CFB06F602FB0CFC16EB074645EBDD
S31508012070174516EB0C4645EB1C42121951F10001A6
S3150801208048BF7047B619524141EB0101A3F101035B
S3150801209070474FEA14454FEA114724EA054621EAF3
S315080120A0074C05FB07F106FB07F70CFB06F24FF099
S315080120B0000605FB0CFC12EB074241EB174112EB3C
S315080120C00C4251EB1C4148BF7047921841EB010184
S315080120D0A3F1010370470000814208BF704702F06F
S315080120E0030332F0030205D050F804CB41F804CBC0
S315080120F0121FF9D1002BD8BF704710F8012B5B1EB0
S3150801210001F8012B002BF8DC704701F0030231F0CE
S3150801211003014FF0000303D040F8043B091FFBD12C
S31508012120002AD8BF704700F8013B521E002AFADC84
S31508012130704710B507480849084AFFF7CDFF084810
S315080121400849094AFFF7C8FFBDE81040074808498A
S31508012150DBE70000FC59070800000010000000003A
S31508012160FC59070800000010F0020000F0020010F8
S31508012170E86E0000FDF754BF10B500F052F801F003
S31508012180F1FE04490320486003F0FCFBBDE810405A
S31508012190FFF7CFBF002004E0344A0020116841F45C
S315080121A080311160116800F1010011F4003F02D17C
S315080121B0B0F5A06FF6D1106810F4003F02D02D4992
S315080121C02B4808602C48016841F0805101602B4872
S315080121D0016841F4404101602948016801600168CC
S315080121E041F400410160016841F4A05101601168A0
S315080121F041F080711160116811F0007FFBD0214A0E
S3150801220040F205711160016821F00301016001685E
S3150801221041F002010160016801F00C010829FAD1B7
S315080122207047194810B5016841F4700101600F48FB
S31508012230016841F001010160114A0021116002683B
S3150801224022F4102222F080720260031D0F4A1A60DE
S31508012250026822F4802202600D480160FFF79CFFA4
S315080122600C494FF00060086010BD000000380240BC
S3150801227008544007043802404038024000700040C4
S3150801228008380240003C024088ED00E01030002486
S315080122900C38024008ED00E0EFF3108272B60260D6
S315080122A07047016881F310887047EFF3058100686C
S315080122B009B14FF001007047016881F31088704732
S315080122C072B670470168EFF3108281F3108800BF78
S315080122D082F310887047EFF31080EFF3058180F0E1
S315080122E0010009B14FF000007047EFF3108072B694
S315080122F080F001007047EFF3108062B680F00100AC
S315080123007047EFF3108172B601607047016881F377
S315080123101088704770477047144A13071168586A3E
S31508012320D2F800C08C45F9D1704770B582B0044621
S3150801233000216846FFF7B0FFFFF7EEFF0646204685
S31508012340FFF7E9FF032894BF0024C41E3546FFF7AB
S31508012350E3FF401BA042FAD96846FFF7A2FF02B085
S3150801236070BDA8214843401F00F008BE2404004060
S3150801237080684068704780688068704710B584B087
S315080123806FF0030032496844884228BF314A03D3B3
S3150801239040F804298842FBD2304C2F486060304807
S315080123A0A06002F073FA2F482F490844A16808442F
S315080123B0A06004F035FE206002F0F1FC04F016F886
S315080123C002F005FD0020034600900322042127A000
S315080123D002F0EBF92BA32EA2304931A002F0E5F960
S315080123E0364937A002F0E1F901A902A802F042FA3A
S315080123F0DDE90110FEF7E2F838A034F02AFB274997
S3150801240037A034F026FB38A135A034F022FB20A1F1
S3150801241038A034F01EFB1BA136A034F01AFB0121AB
S315080124204EF6602005F0DEF90121022005F05AFB7F
S315080124300121084605F0D4F904F00EFD30A034F068
S3150801244008FB38A030F008F906F01CFF04B010BDEF
S31508012450000000200DF0ADBA0000010800000010D0
S31508012460FC59060000000000F00200002E4E6574BB
S315080124704D46207625642E25642E25642E25640D69
S315080124800A00000031383A30343A34370000000087
S31508012490536570203235203230313300C09C040830
S315080124A025732C204275696C6420446174653A0D64
S315080124B00A0925732025730D0A00000059440600F0
S315080124C041524D20436F6D70696C65722076657255
S315080124D073696F6E2025640D0A0000000C00000068
S315080124E0252D3135730D0A004275696C64204461E6
S315080124F074653A002020252D3133730D0A0000003A
S315080125000C6D61696E2065786974656421213F3FA8
S315080125103F2E202048616C74696E67204350550D23
S315080125200A0000006D61696E206578697465642129
S31508012530213F3F3F2E202048616C74696E67204316
S3150801254050550D0A0000000000210AF05BB80AF098
S3150801255047B810B50121C80501F02AFBBDE81040AE
S3150801256000214FF4000001F023BB000030B41A49E2
S315080125700268CA600A696FF30D020A610A6943684B
S315080125801A430A61CA69154B1A40CA610369856803
S31508012590C268D0F814C01B0245EA021243EA0C438A
S315080125A01A438469CB6942EA04621A43CA610A6A10
S315080125B002F07F420A62026A436AD1F820C0120217
S315080125C0C46942EA03424CEA040C4CEA02020A6272
S315080125D0806AC86230BC704700B00240C000FC0087
S315080125E00021016041608160C160016141618161D1
S315080125F0C16101624162816270470000DFF8D4C09F
S3150801260010B4DCF800100023334A1140CCF800104E
S31508012610DCF8001002681143CCF80010DCF834101D
S3150801262021F00701CCF83410DCF834104268114364
S31508012630CCF834104168002934D0012939D002294F
S315080126403CD00329C1683ED00269436909011202D7
S315080126501B0384681A4321431143DCF838201143CC
S31508012660CCF838108169CCF83C10DCF840106FF3CF
S315080126700D01CCF84010DCF84010C2691143CCF8C2
S315080126804010416ADCF8442002F04042CCF844206C
S31508012690DCF84420006A104340EA0140CCF84400C3
S315080126A010BC7047C16802694369090212041B0616
S315080126B0CFE7C168026909021204CAE7C16802695B
S315080126C04901D202C5E70269436949019202DB035E
S315080126D0BFE7000000B00240FCE0FCFF10B504F0C3
S315080126E019FABDE8104006F0CDBD000004B02DE989
S315080126F0FF0F6846EFF30581FFF7F0BF00234FF0A0
S315080127002042102808BF506E0CD0B0F5807F08BF54
S31508012710D2F8840006D0B0F5805F0CBFD2F8A400C9
S31508012720D2F8580131EA000008BF0123184670475C
S31508012730D0E90012114382686FF01F03C06803EBEA
S31508012740421242EA402008430149086070470000E6
S31508012750500100A0F0B4D0E901121143D0E90323D6
S315080127601A4311434269D0F81CC011438269436A6E
S315080127701143026A41EA0C011143056819434FF0F6
S315080127802044002D08BFC4F8401109D04CEA0202C2
S315080127901A43C4F84021026804EB8202C2F84011C8
S315080127A06FF00F02150301686FF0FF0C130429B3CC
S315080127B0816A0E684F68761E02EB071232438E68ED
S315080127C00CEB062C42EA0C02D1F810C005EB0C4CB6
S315080127D042EA0C02D1F80CC049694FEA0C3CACF547
S315080127E0805C03EB01514CEA0101C4F84811006809
S315080127F004EB8000C0F84821F0BC7047806A016884
S315080128004668491E02EB0612114382680CEB022246
S315080128101143DFF830C0C2680CEB0232114302697A
S3150801282005EB024211434269806903EB02521143E7
S315080128304FF07F4202EB00600843C4F84801F0BC40
S315080128407047000000F0FFFF02490A6842EA4000AB
S3150801285008607047540100A0F0B400220125032640
S31508012860D1F800C005FA02F30CEA030C9C4541D1E4
S315080128700468530006FA03FC24EA0C0404600C7984
S3150801288007689C403C4304600C79012C18BF022C54
S315080128901ED1846824EA0C0CC0F808C091F805C05A
S315080128A084680CFA03FC4CEA040CC0F808C0D0F89A
S315080128B004C005FA02F42CEA040CC0F804C0D0F8E6
S315080128C004C08C799440A4B24CEA040CC0F804C044
S315080128D0D0F80CC0540006FA04F42CEA040CC0F82B
S315080128E00CC091F807C00CFA03F3D0F80CC043EA00
S315080128F00C03C360521C102AB2D3F0BC70474B07B5
S31508012900DB0E9A40C90800EB8100016A4FF00F0CF3
S315080129100CFA03F399430162016A11430162704794
S315080129204183704701837047002A14BF018341839D
S315080129307047000081B000B52DE9FF5F6846EFF3E7
S315080129400381C163AFF3008010B582B0044600214C
S315080129506846FFF7A1FC0021204604F0DBF806F0E3
S3150801296091FC6846FFF79DFC02B010BD002901885D
S3150801297014BF41F4806121F4806101807047002908
S31508012980018814BF41F0010121F00101018070475E
S3150801299010B5A0F18041B1F5A8410AD10121480538
S315080129A001F02AF9BDE8104000214FF4001001F0AA
S315080129B023B9A0F18041B1F5B0410AD101218805B9
S315080129C001F01AF9BDE8104000214FF4800001F02A
S315080129D013B9A0F18041B1F5B84118BF10BD012165
S315080129E0C80501F009F9BDE8104000214FF40000BF
S315080129F001F002B90029018814BF41F4807121F45C
S31508012A008071018070470029018814BF41F4007163
S31508012A1021F400710180704700220B0F21F07F41DC
S31508012A2012BF1430090C18300068084218BF012279
S31508012A301046704770B50446808884B00D4620F06C
S31508012A403F06684601F0FCF829490298B0FBF1F106
S31508012A5089B246EA0102A280228822F00102228076
S31508012A60244B2A689A4209D85200B0FBF2F080B288
S31508012A70042838BF0420491C218424E0EB88A3F5E7
S31508012A803F4CBCF1FF0C05D102EB4202B0FBF2F060
S31508012A9080B208E002EBC20303EB0212B0FBF2F0CC
S31508012AA080B240F480400205120D08BF40F00100D3
S31508012AB040F400404FF4967251434FF47A72B1FBD9
S31508012AC0F2F1491C2184A083208840F0010020806E
S31508012AD02088A9886A8920F00A0020F480601143B9
S31508012AE008432080A88929890843208104B070BD3C
S31508012AF040420F00A0860100B1F5006F01880CBFA6
S31508012B0041F4006121F40061018070472DE9F05F0D
S31508012B105A4F0546002401213846FFF76BFF584EE8
S31508012B20DFF860914FF4405849463846C6F80080A8
S31508012B30FFF772FF48B93068401E30607ED34946B8
S31508012B403846FFF769FF0028F5D00022822138466A
S31508012B5000F06DF9DFF830A138465146C6F8008015
S31508012B60FFF75AFF48B93068401E306066D35146B0
S31508012B703846FFF751FF0028F5D0DFF810B1BBF84A
S31508012B80000043493846C6F80080FFF745FF48B9B3
S31508012B903068401E30606DD33D493846FFF73CFF2B
S31508012BA00028F5D0E9B2384600F049F9012138463E
S31508012BB0FFF720FF49463846C6F80080FFF72CFF85
S31508012BC048B93068401E306054D349463846FFF745
S31508012BD023FF0028F5D001228221384600F027F983
S31508012BE051463846C6F80080FFF716FF48B93068DF
S31508012BF0421E326010B351463846FFF70DFF0028D2
S31508012C00F5D000213846FFF7B1FE4FF4006138468A
S31508012C10FFF772FFBBF800001E4D38462946C6F875
S31508012C200080FFF7F9FE58B93068421E326028B1B4
S31508012C3029463846FFF7F0FE002800E01AE0F3D0EF
S31508012C4001213846FFF7DFFE384600F0EDF860F35C
S31508012C500F24384600F0E8F860F3070401213846E6
S31508012C60FFF784FE4FF2FF713846FFF745FFA0B222
S31508012C70BDE8F09FBDE8F05F00F03CBA005C00409B
S31508012C80540200100100001002000010185C0040F8
S31508012C9080000010040000102DE9F05F5A4D8346AC
S31508012CA001212846FFF7A6FE584C594F4FF44056C6
S31508012CB0394628462660FFF7AFFE48B92068401E08
S31508012CC020607ED339462846FFF7A6FE0028F5D0B0
S31508012CD000212846FFF74AFE00228221284600F0F5
S31508012CE0A6F8DFF83081284641462660FFF794FEAC
S31508012CF048B92068401E206063D341462846FFF73D
S31508012D008BFE0028F5D0DFF810A1BAF80000DFF82D
S31508012D100C91284649462660FFF77EFE48B9206889
S31508012D20401E20606BD349462846FFF775FE0028EA
S31508012D30F5D05946284600F082F8DFF8E4B0266057
S31508012D4003E02068401E206059D349462846FFF70C
S31508012D5063FE0028F5D059462846FFF75DFE002890
S31508012D60EFD001212846FFF745FE39462846266059
S31508012D70FFF752FE50B92068411E216000283ED057
S31508012D8039462846FFF748FE0028F4D00122822159
S31508012D90284600F04CF8414628462660FFF73CFED7
S31508012DA048B92068421E226058B141462846FFF7B5
S31508012DB033FE0028F5D0BAF800002660194E3146D0
S31508012DC000E01CE02846FFF727FE48B92068401EA8
S31508012DD0206014D331462846FFF71EFE0028F5D099
S31508012DE001212846FFF70FFE284600F01DF8044684
S31508012DF001212846FFF7BAFD2046BDE8F09FBDE848
S31508012E00F05F00F077B90000005C00405402001042
S31508012E100100001002000010185C0040800000103C
S31508012E200400001040000010008AC0B27047002A52
S31508012E3014BF41F0010101F0FE01018270470182D0
S31508012E4070470029018814BF41F40041C1F30E01FE
S31508012E50018070472DE9F047414F05468A4600240F
S31508012E6001213846FFF7C6FD3E4EDFF8FC904FF4C8
S31508012E70405849463846C6F80080FFF7CDFD48B99F
S31508012E803068401E306066D349463846FFF7C4FDB0
S31508012E900028F5D0002282213846FFF7C8FFDFF85F
S31508012EA0CC9038464946C6F80080FFF7B5FD48B9C3
S31508012EB03068401E30604ED349463846FFF7ACFDB0
S31508012EC00028F5D02A480088DFF8A89038464946F0
S31508012ED0C6F80080FFF7A0FD48B93068401E30608B
S31508012EE039D349463846FFF797FD0028F5D02946D4
S31508012EF03846FFF7A4FF49463846C6F80080FFF76B
S31508012F008BFD48B93068401E306024D3494638469F
S31508012F10FFF782FD0028F5D051463846FFF78FFFA7
S31508012F20154DC6F8008003E03068421E326090B144
S31508012F3049463846FFF770FD0028F5D02946384638
S31508012F40FFF76AFD0028EFD001213846FFF75BFD40
S31508012F50E0B2BDE8F087BDE8F04700F0CBB8000065
S31508012F60005C00405402001001000010020000102D
S31508012F70185C00408000001004000010001FFDDCF2
S31508012F80F74670B504460D460420FFF785FE002D69
S31508012F9014BF20EA040140EA04010420FFF75AFF9E
S31508012FA0002070BD10B504460920FFF775FE002CF8
S31508012FB014BF40F0010120F001010920FFF74AFF83
S31508012FC0002010BD70B504460D460A20FFF764FEC1
S31508012FD0002D14BF40EA040120EA04010A20FFF784
S31508012FE039FF002070BD10B504460B20FFF754FECB
S31508012FF0204018BF012010BD70B504460D461720A4
S31508013000FFF74AFE002D14BF40EA040120EA040135
S315080130101720FFF71FFF002070BD000010B500F054
S3150801302013F8A0F50061113904BF002010BD054849
S31508013030006800281CBF012010BDBDE8104000F043
S3150801304059B800005402001010B50020FFF724FEFD
S3150801305004020120FFF720FE204310BD10B502210E
S315080130600320FFF7F7FE022006F0EAF80021032005
S31508013070FFF7F0FE002010BD10B501210220FFF771
S3150801308080FF49212020FFF7E5FE022006F0D8F847
S3150801309001212120FFF7DEFE00211E20FFF7ACFFEC
S315080130A09A214120FFF7D6FE01214A20FFF7D2FED9
S315080130B001214B20FFF7CEFE00214B20FFF7CAFE68
S315080130C001215620FFF7C6FE01215820FFF7C2FE4F
S315080130D003214020FFF7BEFEFF210B20FFF7BAFEB2
S315080130E003490020C88088804880088010BD0000F8
S315080130F07402001010B5184C84B001212046FFF760
S3150801310082FC01212046FFF79CFE00212046FFF79D
S3150801311098FE02F031F82046FFF73AFC0021ADF897
S3150801312004104BF6FF71ADF806103321ADF80810FF
S315080131302115ADF80A100901ADF80C1007490091DF
S3150801314001212046FFF71BFC69462046FFF772FC62
S3150801315004B0002010BD0000005C0040A0860100FC
S3150801316010B582B001216F2000F016FD534C0E22D6
S3150801317003212046FFF7C3FB0E2204212046FFF751
S31508013180BEFB0E2206212046FFF7B9FB0E220B21B4
S315080131902046FFF7B4FB0E220C212046FFF7AFFBB2
S315080131A041F65801009102218DF805108DF8041099
S315080131B000218DF806108DF8071069462046FFF79D
S315080131C04BFB3F4C092200212046FFF798FB0922B9
S315080131D001212046FFF793FB0E2208212046FFF71F
S315080131E08EFB0E2209212046FFF789FB0E220A21B2
S315080131F02046FFF784FB0E220B212046FFF77FFBB3
S3150801320040F60371009169462046FFF725FB2D4CD0
S315080132100E2206212046FFF772FB0E2207212046C1
S31508013220FFF76DFB0E220A212046FFF768FB4FF4D4
S315080132309861009169462046FFF70EFB224C0E2243
S3150801324003212046FFF75BFB0E2206212046FFF7E6
S3150801325056FB4821009169462046FFF7FDFA1B4CAB
S315080132600E220A212046FFF74AFB211500916946DD
S315080132702046FFF7F1FA164C0E2206212046FFF7E3
S315080132803EFB0E2207212046FFF739FB09220A21B8
S315080132902046FFF734FB0E220B212046FFF72FFBB2
S315080132A009220C212046FFF72AFB4FF4E65100912B
S315080132B069462046FFF7D0FA02B010BD0000024069
S315080132C00004024000080240000C024000140240BB
S315080132D000180240010004484FF0040101D0FFF72D
S315080132E021BBFFF71DBB000000080240044A00216C
S315080132F0526822F81100491CB1F5A02FF9D370477D
S315080133000002001010B582B00121042000F044FC2F
S315080133100420009002208DF8050001208DF8040094
S3150801332000208DF80600074C8DF8070069462046EF
S31508013330FFF792FA01220421204600F005F802B0AF
S3150801334010BD000000080240FFF7EEBA203AD3B2DA
S31508013350044AD268D2F800C0D2885A430CEB42021A
S3150801336000F002B8000200102DE9F04FDFF8A8902E
S31508013370C0EB00104501D9F80C000024C0880028CC
S3150801338098BFBDE8F08F4FF0800EB9F802A0B9F8E2
S3150801339000B0D9F804600127D9F80C3000209B88C1
S315080133A0002B2CD9D9F80C304AF6AB2C9B8803FB99
S315080133B00CFC4FEADC4C4FEACC0C0EFA0CFC4CFA2E
S315080133C000F832F814C018EA0C0F01D10C2B06D9F3
S315080133D007FA00F81CEA080F06D10C2B04D906EBEC
S315080133E0410323F805A003E006EB410323F805B0E2
S315080133F0D9F80C30491C401C9B888342D2D8D9F88D
S315080134000C00641C8388C088C3F1F0031944A042E8
S31508013410C2D8BDE8F08F00000002001030B593B0A5
S315080134200121082000F0B8FB4FF40050109002204B
S315080134308DF8450001258DF8445000248DF8464045
S315080134408DF8474010A92448FFF706FAFFF75AFFF7
S315080134500020FFF73FFF0120FFF73CFF00F0DAF9F4
S3150801346000F090F80121880600F0D2FB0121C80579
S3150801347000F092FBFFF774FE029403940094019402
S315080134800C940D9404220721A8200E9400F056FCF2
S31508013490680400F043FC012000F04AFC3D2000F0DE
S315080134A021FC0028FAD00920CDE904051D20069043
S315080134B00320079040F20D10089040F2431009903E
S315080134C040F217100A9040F247100B90684600F038
S315080134D071FA13B030BD0000000C024030B591B04E
S315080134E01E20009040F20D1001900420029040F237
S315080134F04310039002200490FF20059000200690B7
S315080135000790089009904FF480600A9005200B9067
S3150801351040F2E3100D90C01E0E904FF4A0700F906C
S315080135204FF05040134C0C906946204600F0AFFA14
S3150801353011490C914FF4C0610A9107210F4D0B9166
S315080135406946284600F0A3FA012000F01FFB012175
S31508013550204600F093FA0121284600F08FFA01204F
S3150801356000F014FB064800F0B3F9012000F016FA42
S3150801357011B030BD84680140000005D004690140DE
S315080135801002001010B5CA2000F0B8F9C32000F0E7
S31508013590D7F9082000F0D4F9502000F0D1F9CF204E
S315080135A000F0ACF9002000F0CBF9C12000F0C8F911
S315080135B0302000F0C5F9ED2000F0A0F9642000F0F4
S315080135C0BFF9032000F0BCF9122000F0B9F98120F7
S315080135D000F0B6F9E82000F091F9852000F0B0F97D
S315080135E0002000F0ADF9782000F0AAF9CB2000F010
S315080135F085F9392000F0A4F92C2000F0A1F9002062
S3150801360000F09EF9342000F09BF9022000F098F9A9
S31508013610F72000F073F9202000F092F9EA2000F073
S315080136206DF9002000F08CF9002000F089F9B1202D
S3150801363000F064F9002000F083F91B2000F080F9FE
S31508013640B62000F05BF90A2000F07AF9A22000F012
S3150801365077F9C02000F052F9102000F071F9C12065
S3150801366000F04CF9102000F06BF9C52000F046F97E
S31508013670452000F065F9152000F062F9C72000F031
S315080136803DF9902000F05CF9362000F037F9C820A2
S3150801369000F056F9F22000F031F9002000F050F957
S315080136A0B02000F02BF9C22000F04AF9B62000F04C
S315080136B025F90A2000F044F9A72000F041F927204E
S315080136C000F03EF9042000F03BF92A2000F016F933
S315080136D0002000F035F9002000F032F9002000F052
S315080136E02FF9EF2000F02CF92B2000F007F9002024
S315080136F000F026F9002000F023F9012000F020F956
S315080137003F2000F01DF9F62000F0F8F8012000F03E
S3150801371017F9002000F014F9062000F011F92C2001
S3150801372000F0ECF8C82030F0ADF8262000F0E6F8F5
S31508013730012000F005F9E02000F0E0F80F2000F084
S31508013740FFF8292000F0FCF8242000F0F9F80C20F5
S3150801375000F0F6F80E2000F0F3F8092000F0F0F872
S315080137604E2000F0EDF8782000F0EAF83C2000F051
S31508013770E7F8092000F0E4F8132000F0E1F8052045
S3150801378000F0DEF8172000F0DBF8112000F0D8F879
S31508013790002000F0D5F8E12000F0B0F8002000F094
S315080137A0CFF8162000F0CCF81B2000F0C9F8042049
S315080137B000F0C6F8112000F0C3F8072000F0C0F8A1
S315080137C0312000F0BDF8332000F0BAF8422000F0AD
S315080137D0B7F8052000F0B4F80C2000F0B1F80A207B
S315080137E000F0AEF8282000F0ABF82F2000F0A8F87A
S315080137F00F2000F0A5F8112000F080F8C82030F05D
S3150801380041F8292000F07AF8BDE810402C2000F094
S3150801381075B8000070B588B00121202000F0BCF908
S315080138200121080500F0F4F98020069002208DF8A0
S315080138301D008DF81C000024234E8DF81E408DF8BE
S315080138401F4006A93046FFF707F8B115069106A9E4
S315080138503046FFF701F8751506A930460695FEF7B5
S31508013860FBFF052207213046FFF749F80522082103
S315080138703046FFF744F8052209213046FFF73FF89D
S31508013880124E304600F0F9FBADF800404FF4827055
S31508013890ADF802000820ADF80C000720ADF8044089
S315080138A0ADF80840ADF81000ADF80640ADF80A507D
S315080138B0ADF80E406946304600F04AFC0121304613
S315080138C000F0D2FB08B070BD001402400050014060
S315080138D00149C86070470000000200100549002828
S315080138E00CBF4FF05040044848600CBF002001202F
S315080138F08860704700020010000005D010B5044624
S3150801390000224FF400510C48FFF71EFD0020FFF777
S31508013910E1FC2146094C204600F018FC802120468E
S3150801392000F00DFC0028F9D10A202FF0ABFFBDE805
S3150801393010400120FFF7CEBC000C024000500140A8
S3150801394010B50446012251030C48FFF7FDFC00207F
S31508013950FFF7C0FC21460A4C204600F0F7FB802100
S31508013960204600F0ECFB0028F9D10A202FF08AFF47
S31508013970BDE810400120FFF7ADBC0000000C024075
S315080139800050014004490028086814BF40F00100AE
S3150801399020F00100086070471868014004490028B2
S315080139A0086814BF40F4803020F4803008607047FE
S315080139B0186801402D4A10B413682D490B4013604D
S315080139C00369D2F800C044694CEA040C4CEA034383
S315080139D01360121D13680B4013608369D2F800C087
S315080139E0C4694CEA040C4CEA03431360121D1368BC
S315080139F00B401360036AD2F800C0446A4CEA040C0F
S31508013A004CEA03431360121D136819401160816A59
S31508013A101368D0F82CC043EA0C0343EA014111604C
S31508013A20111D0A68134B1A400A60D0E900231A438C
S31508013A30D0E9023C43EA0C031A430B681A430A60AD
S31508013A40416B0A02016B0B040B49D1F800C00CF05B
S31508013A507F4CC1F800C0D1F800C0806B1A434CEA0C
S31508013A6000001043086010BC704700000868014058
S31508013A7000F800F08F88FE0F2C68014000290168C4
S31508013A8014BF41F0010121F001010160704730B412
S31508013A904A68436803F4704343600B6843EA024289
S31508013AA04260CA68836803F4704383608B6843EA9B
S31508013AB002428260026922F0070202610A69026112
S31508013AC00B6AD1F824C0CA6984691B04002484617D
S31508013AD08D6943EA0C6345EA02221A438261426907
S31508013AE022F0FF0242614A694261C26922F0070275
S31508013AF022F4E062C261D1E90A231A43C261826AE9
S31508013B0084620A6B82628A6BC36A03F0E023C3622A
S31508013B104B6B43EA0242C262026B6FF30A0202630B
S31508013B20C96B016330BC70470269002A08BF0422C9
S31508013B300CD0012A08BF032208D0042A18BF022A7A
S31508013B4020D0032A1CBF072A01221BD0C36A1B0CDB
S31508013B50B3FBF2F3002908BF04220CD0012908BFE0
S31508013B60032208D0042918BF02290DD003291CBF36
S31508013B700729012208D05A43D31C43EA0242C262EA
S31508013B80016170470222E1E70222F4E70149086070
S31508013B907047000024680140044A0029116814BFCF
S31508013BA0084321EA000010607047000030380240DF
S31508013BB0044A0029116814BF084321EA000010606D
S31508013BC07047000010380240044A0029116814BFE2
S31508013BD0084321EA000010607047000038380240A7
S31508013BE0044A0029116814BF084321EA000010603D
S31508013BF07047000040380240044A0029116814BF82
S31508013C00084321EA0000106070470000203802408E
S31508013C10044A0029116814BF084321EA000010600C
S31508013C207047000044380240044A0029116814BF4D
S31508013C30084321EA0000106070470000243802405A
S31508013C40DFF890C030B4DCF80010234D11F00C01F8
S31508013C5006D06C10042908BF04601CD0082901D0BD
S31508013C60056018E01D4A1168C1F380531168002BDD
S31508013C7001F03F0114BFB4FBF1F1B5FBF1F1136893
S31508013C801268C3F388135943C2F30142521C520006
S31508013C90B1FBF2F10160DCF80010114B01F0F00103
S31508013CA00909595C026822FA01F14160DCF8002031
S31508013CB002F4E052920A9A5C21FA02F28260DCF876
S31508013CC0002002F46042520B9A5CD140C16030BCBC
S31508013CD070470000083802400024F4000438024006
S31508013CE0E000001000224109012904BF08490968BA
S31508013CF004D002290CBF07490749096800F01F00CB
S31508013D00012303FA00F0084218BF01221046704742
S31508013D10003802407038024074380240034A11687C
S31508013D2021F4403108431060704700008C38024086
S31508013D30014908677047000000004742800140EAD0
S31508013D400160024940EA02700860704788380240FB
S31508013D5010B582B001217E20FFF71EFF02208DF8E3
S31508013D6004008DF8050000208DF80600774C8DF8C3
S31508013D7007000C2205212046FEF7C1FD0C2206216B
S31508013D802046FEF7BCFD6021009169462046FEF7F4
S31508013D9063FD6F4C0C2200212046FEF7B0FD012180
S31508013DA0009169462046FEF757FD6A4C0C22002110
S31508013DB02046FEF7A4FD0C2201212046FEF79FFDB1
S31508013DC00C2208212046FEF79AFD0C2209212046DD
S31508013DD0FEF795FD0C220A212046FEF790FD0C22DE
S31508013DE00E212046FEF78BFD0C220F212046FEF7F9
S31508013DF086FD4CF20371009169462046FEF72CFDBB
S31508013E00554C0C2200212046FEF779FD0C22012192
S31508013E102046FEF774FD0C2207212046FEF76FFDAA
S31508013E200C2208212046FEF76AFD0C2209212046AC
S31508013E30FEF765FD0C220A212046FEF760FD0C22DD
S31508013E400B212046FEF75BFD0C2211462046FEF7A4
S31508013E5056FD0C220D212046FEF751FD0C220E219E
S31508013E602046FEF74CFD0C220F212046FEF747FDA2
S31508013E704FF68371009169462046FEF7EDFC374CF3
S31508013E800C2200212046FEF73AFD0C22012120468C
S31508013E90FEF735FD0C2202212046FEF730FD0C22E5
S31508013EA003212046FEF72BFD0C2204212046FEF7AE
S31508013EB026FD0C2205212046FEF721FD0C220B21A9
S31508013EC02046FEF71CFD0C2211462046FEF717FD7B
S31508013ED00C220D212046FEF712FD0C220E2120464A
S31508013EE0FEF70DFD0C220F212046FEF708FD4FF6C1
S31508013EF03F01009169462046FEF7AEFC184C0C229C
S31508013F0000212046FEF7FBFC0C2201212046FEF784
S31508013F10F6FC0C2204212046FEF7F1FC0C220521B1
S31508013F202046FEF7ECFC0C2208212046FEF7E7FCAA
S31508013F300C220F212046FEF7E2FC48F233110091CC
S31508013F4069462046FEF788FC02B010BD000402400F
S31508013F5000080240000C0240001002400014024012
S31508013F600018024000B593B0FFF7F2FE012108469A
S31508013F70FFF72AFE0421022007220D91CDE90B0243
S31508013F80CDE90E2010901190012000900020CDE976
S31508013F90010110210391402104914FF4C071CDE92B
S31508013FA005104FF40061CDE90710880009900BA8A8
S31508013FB00A906846FEF7CEFB00F002F813B000BD82
S31508013FC0F0B585B0012508240026CDE90054CDE9D0
S31508013FD0025620210120FEF791FB0028F9D16846F7
S31508013FE0FEF7A6FB0A202FF053FC02208DE871008C
S31508013FF020210120FEF782FB0028F9D16846FEF749
S3150801400097FB03200427CDE90004CDE90276202198
S315080140100120FEF773FB0028F9D16846FEF788FBF5
S3150801402020210120FEF76AFB0028F9D16846FEF730
S315080140307FFB40F23120CDE90250CDE90074202101
S315080140400120FEF75BFB0028F9D16846FEF770FBF5
S3150801405040F2AB20FEF7F8FB20210120FEF74EFBCC
S315080140600028F9D105B0F0BD0029018814BF41F037
S31508014070400121F040010180704710B5A0F180414F
S31508014080B1F598310AD101210803FFF7CDFDBDE845
S31508014090104000214FF48050FFF7C6BDA0F18041C2
S315080140A0B1F560510AD101218803FFF7A5FDBDE8E5
S315080140B0104000214FF48040FFF79EBDA0F18041DA
S315080140C0B1F570510AD10121C803FFF795FDBDE885
S315080140D0104000214FF40040FFF78EBDA0F180414A
S315080140E0B1F59A310AD101214803FFF79DFDBDE8D3
S315080140F0104000214FF40050FFF796BDA0F1804112
S31508014100B1F5A8310AD101210805FFF78DFDBDE8F2
S31508014110104000214FF48010FFF786BDA0F18041C1
S31508014120B1F5AA3118BF10BD01214805FFF77CFD7D
S31508014130BDE8104000214FF40010FFF775BD024697
S31508014140002012890A4218BF0120704781817047F1
S3150801415010B402880B88B1F802C0CC8843EA0C0374
S31508014160B1F804C002F441524CEA040C43EA0C03C8
S31508014170B1F808C043EA0C03B1F80AC043EA0C03D4
S31508014180B1F80CC043EA0C03B1F80EC043EA0C03BC
S315080141901A430280828B22F400628283098A018291
S315080141A010BC7047034951F82020521E41F82020BF
S315080141B07047000030030010034951F82000002819
S315080141C0CCBF01200020704730030010034951F885
S315080141D02020521C41F820207047000030030010AF
S315080141E02DE9F04F8046BE48BE499BB0081AC01C4F
S315080141F016904FEA186017901FFA88F04FF0000BD7
S3150801420018904FF0000A0CF0B1F90023032204219B
S31508014210B5A0CDF800B029F039F808F0DBF9BBA054
S3150801422029F034F8BD4CC4F8008019F0CBFA0028FF
S31508014230C0F20D81BAA029F029F8C8F3074020B1C8
S31508014240BB48016841F000410160B94819F0B4FA68
S315080142500028C0F2FC80B7A029F018F80FF05CFC22
S3150801426001202071DFF8B492B7A029F00FF816984B
S315080142709B4920F003079B4D0C4601AA68460FF09F
S315080142801FF800281CBF0099002907D0C86889684B
S3150801429089688847006810F0020F0FD000200028AF
S315080142A03DDB2A462146ACA028F0F0FF291B002257
S315080142B0204601F0D5FCB049086026E00C213846B5
S315080142C008F07CF9060008BF4FF07A40E7D0DDE92F
S315080142D0001E0346C86889683A46D1F80CC071467B
S315080142E0E04700280EBF4FF077403446F519D6D07F
S315080142F0D4E76A462146484628F0F0FE00280EDB38
S31508014300606E2044C01C20F0030404F17C00A8421E
S3150801431004D2204629F0E6FA0028EAD1002000282E
S315080143207DDB96A028F0B2FF50210AA815F0E8FC1B
S3150801433018B99BA028F0AAFF67E01398C26880689D
S315080143408168104688470AA97C2691EC080A8DECF3
S31508014350080ADDE91212CDE908120068CDF850B055
S31508014360C0F340044CB90121304608F04BF91490CA
S31508014370002845D03146FCF721F97742324614A97F
S31508014380684615F00CFE80B3149D284629F072FA8A
S3150801439058B3686EC01C20F003052CB90C212846B9
S315080143A008F00CF91590F8B101223946684615F05E
S315080143B04DFE2A4615A9684615F0F1FDA8B1159DC9
S315080143C0284629F08FFA58B182A028F05FFF19AA6A
S315080143D02946484628F082FE002807DA0CB10FE084
S315080143E074B9159808F0FCF807E005E01998016911
S315080143F041F008010161C1E714B9149808F0F0F811
S315080144000AA815F0B1FC002897D179A028F03EFF3B
S315080144107B4814F005F8002815DB7A4800E012E01D
S315080144201DF0FAFC764814F059FE00280BDB76A03D
S3150801443028F02CFF00213E48189A1AF0DFFE75A0D5
S3150801444028F024FF03E0014674A028F01FFF384C2A
S31508014450206810F0005F17D1206820F440602060C2
S31508014460206840F40060206070480068006830B138
S315080144700121002300911A46092108F08DF81798A1
S31508014480002818BF0FF088FF206810F0005F20D0C1
S31508014490A06810F0010F1AD0052131EA00000CBFFF
S315080144A00120002060F317480020FDF71EFF55483C
S315080144B01EF055F819F096F9184880F804B000F07E
S315080144C0ABFF00F084FC0020FDF715FF99E604F028
S315080144D051FFBAF1000F7FF494AE1BB0BDE8F08F1F
S315080144E0203C0508FC5907080D0A54696E79434CA6
S315080144F05220284275696C642025642E25642E2570
S31508014500642E2564290D0A0D0A0000005374617290
S3150801451074696E672E2E2E0D0A0000001400001015
S31508014520437265617465642045452E0D0A000000D5
S315080145308013001053746172746564204861726453
S31508014540776172652E0D0A004372656174652054A0
S31508014550532E0D0A00000000204C6F6164696E67D6
S315080145602073746172742061742025782C20656E1D
S31508014570642025780D0A0000980000104C6F6164CC
S31508014580696E67204465706C6F796D656E7420413C
S315080145907373656D626C6965732E0D0A0000000000
S315080145A04552524F523A20436F756C64206E6F74B0
S315080145B02066696E642064657669636520666F7234
S315080145C0204445504C4F594D454E542075736167EB
S315080145D0650D0A00417474616368696E67206465D4
S315080145E0706C6F7965642066696C652E0D0A00002A
S315080145F05265736F6C76696E672E0D0A00000000AE
S31508014600B4160010381A001052656164792E0D0A25
S3150801461000000000446F6E652E0D0A004572726F28
S31508014620723A20253038780D0A0000008C000010F7
S3150801463030B583B0044600216846FDF72DFE0648CD
S31508014640016801EA04050168A14301606846FDF7AE
S3150801465028FE03B0284630BD7000001010B582B0A0
S31508014660044600216846FDF717FE074801682143FD
S315080146700160416800291CBF806888476846FDF7C4
S3150801468010FE02B010BD0000700000102DE9F043C5
S3150801469089B00500109E0F4698467CD03C68002CD0
S315080146A011BF002A002009B0BDE8F08304F1B0006B
S315080146B03860A2F10109B0212046FBF7A1FFB8F144
S315080146C0000F08BFA846C4F800802878606068789B
S315080146D0A0606888E060002E18BF306814D0C4F85E
S315080146E0980060681B2856D2DFE800F0551717179F
S315080146F017171717171717171717171C3741414594
S315080147003755555555174F00294602A816F0C2FBCD
S315080147100028A8BF0398E4DBE1E7D5E90101C4E96C
S31508014720040138E06D688DB12846C4F8945000F04C
S3150801473006F9C4F890007F2828BF7F2003462A4639
S31508014740802104F1100000F011FB24E00020C4F8D8
S315080147509400C4F8900020741DE0686800234A4656
S3150801476039460096FFF792FF09B0BDE8F0836868FD
S31508014770C4F898000FE0E868C4F89C00E888C4F813
S31508014780A000A868C4F8A40005E06868C4F8A800F1
S31508014790A868C4F8AC0009B00120BDE8F08305F0AB
S315080147A043BB0120704707F0EDB80FB410B503A954
S315080147B0029800F025F810BC5DF814FB05F05CBB07
S315080147C007F092B907F03EBA0FB410B504AA0399D7
S315080147D000F0BEF810BC5DF814FB10F8012B412A55
S315080147E002D35A2AD8BF203211F8013B412B02D3F2
S315080147F05A2BD8BF20330AB19A42EED0D01A704745
S31508014800034603480A461946406900F0A1B8000064
S315080148103800001010B5012196B0C805FFF7BCF99C
S31508014820FDF797FE00200224CDE90C0413900F90A2
S315080148300E90109011900CA8FDF7E0FE6846FDF762
S31508014840CFFE68460294FDF791FE16B010BD000032
S3150801485010B582B0044600216846FDF71DFD0448DF
S315080148600168A14301606846FDF71BFD02B010BD52
S3150801487070000010034A02600348801A001D086090
S315080148807047000000000AD0F8FF2FD010B535F0A8
S3150801489040F8044802A10068BDE81040FBF708BDCE
S315080148A000000000C81C050830B4DFF840C0029DAE
S315080148B0DCF8004014F0010FFAD10D4CC1EB0111DF
S315080148C0246804EB400000EB4110CCF83C00CCF81E
S315080148D00C5043EA0240CCF84400DCF8000040F0F2
S315080148E00100CCF8000030BC7047000000B002405F
S315080148F004020010F02070470020704706F0E8B85F
S315080149000FB410B505AB049A00F047FA10BC5DF870
S3150801491014FB70B505000B4614461CBF002C002B72
S3150801492005D0104600F00BF8401C984201D9012029
S3150801493070BD21462846FBF71FFD002070BD0146C4
S3150801494011F8012B002AFBD1081A401E70470000F6
S3150801495070B51346ADF5007D04460A464FF400715D
S31508014960684600F01AFA054604F47F40B0F5407F20
S315080149700FD006DCB0F5807F18BFB0F5007F1FD1D8
S3150801498007E06E46B0F5A06F11D0B0F5C06F17D12C
S3150801499005E02A466946204601F00DF910E00A4865
S315080149A0016869B1002070553046884708E000243F
S315080149B0002D05DD305D02F0ADFD641CA542F9DC74
S315080149C00DF5007D284670BD1000001004207047C3
S315080149D00F4910B50A6812F4807F0FD10A6842F4AC
S315080149E080720A600B490022C1F80423CA624A6030
S315080149F001228A60084ACA60084A0A6101F026FA51
S31508014A0000220123114601F03AFA012010BD0000E7
S31508014A104438024000200140922449029224491256
S31508014A2070B59EB004460E4600214348CDE9000103
S31508014A301AA8694615F0A8FD0EA9204601F034FE0C
S31508014A40002871DB03A9304601F02EFE00286BDB36
S31508014A509DF8100070B19DF83E00002808BF4FF080
S31508014A60224061D000222146684611F015FF002830
S31508014A705ADB58E03146684611F0A4FF002853DB9B
S31508014A809DF83C0003A9A8B19DF8120028B90C317C
S31508014A90684611F02DFC002846DBBDF80200012806
S31508014AA018BFFBF713FBDDE90001029AA260C4E90E
S31508014AB0000138E09DF80000102808D1019830B1AE
S31508014AC00278122A03D1407810F0100F03D020780B
S31508014AD0102822D112E02078102808D1606830B158
S31508014AE00278122A03D1407810F0100F15D00C3134
S31508014AF0684611F0FDFB002816DB0EE0606860B120
S31508014B000278122A09D1407810F0100F05D10C311C
S31508014B10684611F0C1FD002806DB6946204612F0F9
S31508014B2011F9002800DB002005461AA815F052FDE8
S31508014B301EB0284670BD0000100001007047000035
S31508014B4010B542694FF4B473526892FBF3FC03FB48
S31508014B501C220A4B83FB0232A2EBE272002AB8BF7F
S31508014B603C32074B002903EB820214BFB2F902104B
S31508014B70B2F9001012F09EFE002010BDABAAAA2AB7
S31508014B80FC9C0408022070470C291CBF00207047B2
S31508014B9010B504460A48016841F000510160002237
S31508014BA001231146201D01F06AF90648002C016807
S31508014BB014BF41F4803141F001010160012010BDAB
S31508014BC040380240007400407047704710B54D20C8
S31508014BD0FDF79CFF40F6B8318842D4BF40F61E71F6
S31508014BE040F6D861081A084A0021C2FB0010C11014
S31508014BF0A1EBE0700028D8BF002002DDF028C8BF6D
S31508014C00EF2080B210BD00008988888810B54F2032
S31508014C10FDF77CFF0949A0F5B47081FB001041102E
S31508014C20A1EBE0700028D8BF002004DDB0F5A07F15
S31508014C30C8BF40F23F1080B210BD0000E9A28B2E1A
S31508014C400146014828F00BBC005300104FF4A07030
S31508014C50704700008446064800688388C0885A431E
S31508014C6093B2484380B262461946FEF76FBB00000D
S31508014C700C02001040F281207047002070470BF0AB
S31508014C8033BA002070470020704705F043BF2DE96D
S31508014C90F04105000E46174601D0062E01DBFBF74B
S31508014CA015FA05EB8604206908B1606B08B1FBF7B4
S31508014CB00DFA20690268511C082908BF0021012341
S31508014CC0D0F808C0BCF1000F18BF4FF000080BD18F
S31508014CD0D0F804C08C4508BF8360016002EB02115D
S31508014CE000EB810000F10C08206903FA06F18068DF
S31508014CF038606879FFF702FE4046BDE8F08170B575
S31508014D0004000D46164601D0062D01DBFBF7DEF938
S31508014D1004EB8504206900281ABF606B0028FBF79D
S31508014D20D5F9A6B100202169D1E90032934202BF23
S31508014D308B68002B70BD531C082B08BF0023C1E9E3
S31508014D40013002EB021001EB80000C3070BD2069C6
S31508014D50D0E900218A4207BF8268002A01EB0111C6
S31508014D6000EB810008BF0020EFD170BD10B5944655
S31508014D701A46002819BFBCF1000F0029012010BDF1
S31508014D80541C00238C4282BF0370012010BD83543A
S31508014D906146FBF75CFC002010BDFBF76FBA10B546
S31508014DA001F01EF9012010BD112101600120704793
S31508014DB000888A8890423CBF4FF0FF307047C98807
S31508014DC0814234BF0120002070470DF0B1BE00B505
S31508014DD083B012F02FFB0BF0DFF800200190009052
S31508014DE0694601A800F0C4FEDDE9001002F0C2F927
S31508014DF000F01AFA00F01EFD01F06AF800F0CCFD89
S31508014E000020FDF778FA0EF099F902F0EFFC0EF0A2
S31508014E10C5F9FFF7DAFE15F099FDFFF7D5FE15F08E
S31508014E2096FD00F045F803F021FB00F015F800F0B7
S31508014E30B1FD01F085FC00F0A6FB00F0A1FD00F034
S31508014E4095FE01F051FB00F0F3FE00F02BF803B0DC
S31508014E505DF804EB02F06ABC04F086BF10B584B0B5
S31508014E600020ADF80400ADF808004FF48060ADF8F5
S31508014E700A000001ADF80C004BF6FF710748084C13
S31508014E80ADF80610009069462046FDF7D3FD0121CD
S31508014E902046FDF774FD04B010BD0000A086010090
S31508014EA0005C0040014828F017BA000000530010C2
S31508014EB010B5FEF7B3FAFEF711FB0120FEF762FD06
S31508014EC00120FEF70BFD4FF6FF70FEF70FFA0221E0
S31508014ED00848FEF729FE0220FEF758FEFFF79AFC5E
S31508014EE005484FF480110160016821F480110160C1
S31508014EF0012010BD8468014024380240082824BFD7
S31508014F000020704730B420490B5C08310A5C01F176
S31508014F10100000EB83001D4950F8040C10F4803F83
S31508014F2018BF1B49C0F3842C01240D6804FA0CFC34
S31508014F3015EA0C0F11D10D6845EA0C0CC1F800C031
S31508014F40842101808482012B18BF082B05D1B0F872
S31508014F50441041F40041A0F8441000EB82030021FB
S31508014F609986682312F0010F18BF4FF4D04300F158
S31508014F70180112F0020F18BF00F11C010888184326
S31508014F80088030BC01207047901705084038024058
S31508014F9044380240002808BF704730B583B004463C
S31508014FA00D4600216846FDF777F900222946204675
S31508014FB003F010F96846FDF774F903B030BD000037
S31508014FC02DE9F04784B007000C4690464FF00006DD
S31508014FD038D03D7844F480300090D8F8000001902C
S31508014FE0D8F804000290A54208BF012623D0192C3F
S31508014FF012D0102C16D0DFF86CA005EB85095AF8EB
S31508015000290010F4003F08BFFBF760F80AEB890096
S315080150104079042816D119E0102D04BF78680028B4
S3150801502005D106E00198002808BF192D01D00026F0
S3150801503000E0012636B13C70D8F800007860D8F84F
S315080150400400B86004B03046BDE8F08704EB84007C
S315080150500AEB8000407904283CBF2C460126F1D290
S31508015060E9E70000ECE3040805F002BA30B4C068C9
S315080150700024002804BF30BC7047438803EB000CAA
S315080150800378012B18BF022B06D0032B09D0FF2B5F
S3150801509010D030BC002070478B4204BF30BC70472B
S315080150A01AE0032918D155884378EDB2AB4213D1DA
S315080150B030BC704703791578AB420DD143795578E1
S315080150C0AB4209D1C3885588AB4205D10389958876
S315080150D0AB4204BF30BC7047002C08BF6046CCD039
S315080150E030BC704705F0E4B905F05EBA704740F682
S315080150F074610160012070470FB410B505AB049ABD
S3150801510000F0FBF810BC5DF814FB00004FF0FF3C03
S31508015110C3F800C0C2F800C0C1F800C0052828BFFE
S315080151207047DFF818C01CF800C0C1F800C0044970
S31508015130095C11600349085C18607047D89C04082B
S31508015140DD9C0408E29C040800487047007A030ABB
S3150801515010B40A22A0FB023401FB02414FF0000CF5
S3150801516000FB0C1110BC18467047B0F90000B1F9E4
S315080151700010401A7047704730B5012183B0C80541
S31508015180FEF72EFD012140F20510FEF705FD01216E
S315080151908803FEF73DFD0121C805FEF72DFD002117
S315080151A04FF40000FEF728FD124D04220821284677
S315080151B0FDF7A5FB104C042209212046FDF79FFBAC
S315080151C0A115009102218DF804108DF80510012111
S315080151D08DF8061000218DF8071069462846FDF757
S315080151E03BFB6115009169462046FDF735FB03B087
S315080151F030BD00000000024000080240014828F0C6
S315080152008DB8000000530010002070470820704731
S315080152100AF058BF072213F0EFB80000014804F05E
S315080152206BBE0000D8530010014804F06FBE0000A1
S31508015230D853001008B50B4600920246014804F0FF
S3150801524089FE08BDD853001010B50120FEF7BEFF30
S315080152500220FEF7BBFF4FF6FD7081070882FDF7B6
S315080152605BF8084AD2E90032C01A71EB020028BF7E
S315080152700AF046FE0220FEF795FFBDE81040012020
S31508015280FEF790BF30000010F0B583B005460C4616
S31508015290164600216846FCF7FFFF0027002C18BFB9
S315080152A000240FD005EB8401086940B1496B31B977
S315080152B00760476087602146284600F03DF8641C70
S315080152C0062CEFDB002E18BF00200DD005EB80025F
S315080152D0116900291CBF526B002A02D00F604F606A
S315080152E08F60401C0628F1DB6846FCF7DAFF03B03D
S315080152F0F0BD05F0C8B905F001BA70B505460C460A
S3150801530009680068FFF749FD012111EBE07208BF42
S31508015310206829680023014429600B702168081A4E
S315080153202060104670BD0000002814BF0020014807
S31508015330704700000054001070B582B004000D4695
S3150801534005D004EB8500016909B1406B10B102B0C3
S31508015350002070BD0F4E00216846FCF79DFF06EB45
S31508015360451000F53061D0F8002B12F0004F0BD133
S31508015370621992F82E2042F40022C0F8102BD0F8B8
S31508015380000B40F0044008606846FCF78AFF02B04B
S31508015390012070BD00000440034A10B500211160C8
S315080153A003F0DFFC002010BD30020010704700003A
S315080153B010B5044604202080032060800020A080C8
S315080153C0E080372308A2382104F10800FFF7CEFC54
S315080153D00E4830220E49D0F85004206404F14400E6
S315080153E0FAF7EEFF012010BD436F7079726967689D
S315080153F074204F6265726F6E206D6963726F73797F
S315080154007374656D732C20496E632E0000C0000805
S3150801541054C400080DF099BB70B51E4D002455F80B
S31508015420240018B18047641C102CF8D300F060F8EA
S3150801543000F032F801F088F901F0BFFF00F00AFC2C
S3150801544001F080F901F01AFB02F0E8FD00F026F8F8
S3150801545001F0F3FB01F08BFE02F040FC03F036FA93
S3150801546015F077FA0DF000FF01F0A4F801F0BAF98A
S3150801547001F06EFE01F00EFD0020FCF736FF00F08C
S31508015480A9FE00F04DFA11F0B1FFBDE870400AF02F
S3150801549013BD0000F002001004F088BC014827F093
S315080154A04DBF0000005300108020704700B587B03B
S315080154B00146684615F0EEFC00280EDB03980849FC
S315080154C0C07B00EB800051F820004FF4C02131EA7F
S315080154D0000002BF012007B000BD002007B000BDD3
S315080154E0ECE30408006801218830FBF742F97047AC
S315080154F00348016821F080610160012070470000BE
S315080155004438024040F201207047002070470000ED
